:10043100757A00757B00757C59757D00757E007538
:060441007F597579D822F5
:030023000202C412
:1002C400C0E0C083C082C0D075D010309905C299F7
:1002D4007579D8309833AB7DAA7EA97FE59912034E
:1002E400AB7401257FF57FE4357EF57EFA900079C5
:1002F400E57D7009E57F65827003EA65837008F522
:100304007D757E00757F59C298D0D0D082D083D0BD
:02031400E032D5
:1003FC00E57D857E83857F82657A700AE57C6582E2
:0D040C007004E57B65837002FF227F0122F2
:100447007579D68F99C2B4E57964D660FAD2B422A9
:10031600E57D857E83857F82657A700AE57C6582C8
:100326007004E57B658360E8AB7AAA7BA97C12033F
:1003360092FF7401257CF57CE4357BF57BFA900011
:1003460079EB7009E57C65827003EA65837008F5D0
:070356007A757B00757C59EC
:01035D00227D
:0600030001510001520052
:03000B00020026CA
:0D002600C0E0C0F0C083C082C0D075D0180B
:10003300E5546038154DD3E54D64809480502DE52B
:10004300235401FDE522A2E713F522E52313F5234B
:10005300ED60051204848003120487754D03155067
:10006300D3E550648094805003755400E520600309
:100073000200F3E54E6033154CD3E54C6480948065
:10008300506E754E00755300AF21EF3395E0FEEFD0
:1000930064C24E605B74242551F8A6210551E551D5
:1000A300C39428404B7551008046E55370161204E3
:1000B3007AEF703C755301F521754C0485554F75E6
:1000C3005801802C154CD3E54C64809480502175E5
:1000D3004C0312047AEF6004E5584221E55825E009
:1000E300F558154FD3E54F648094805003754E0146
:0200F300C28DBC
:0B00F500D0D0D082D083D0F0D0E03219
:10041900E4F554F553F54EF52075550875560A124D
:080429000487758C80D28C223F
:1003DE00E552B5510512000A80F674242552F8E64E
:0D03EE00FF0552E552C394284003E4F55288
:0103FB0022DF
:1003BD00E55470FC8F57754D03855650EF3395E01E
:1003CD00FEEF25E0FFEE334402F5228F2375540135
:0103DD0022FD
:06047400E4F551F55222EF
:0D046700E551655260047F0180027F002294
:04048000E4F520225D
:100258007FBFDFEFF7FBFDFE3736353D33323130F8
:1002680026272425222320211716151413121110CE
:1002780006070405020A00012B2F1FFF131117158B
:100288002E2AFF1E1012141629392DFF00FF0236E0
:100298003828FF2CFF013703041B3F06232127259D
:1002A8001A05073E202224263D3B191D090B0D0F78
:0C02B8003A3C1C180A080E0C313033329E
:10000E00E4FEEEC39F500DE4FCECC39D50030C8048
:04001E00F80E80EE6A
:0100220022BB
:10035E00EFC39444502DEF90028093FFF46024EF8E
:10036E00540790025893F590EF131313541F93F5FF
:10037E00807DFF7F1F12000E7590FF7580FF7F033B
:03038E0012000E4C
:010391002249
:0F045700E4FBEB90026093FF12035E0BBB20F3FC
:010466002273
:06047A00A2B3E433FF22EF
:03048400D2B222CF
:03048700C2B222DC
:01000A0022D3
:10010000E4F5A8120431759870E4F587758DFD75D6
:100110008922D28E12041912048012047475A892D6
:10012000E4F509D2B21204577DFF7F0F12000E12C0
:1001300003FCEF70030201B81203168F08E508B440
:1001400055101203168F08E50864556005850809E7
:1001500080DDE50964737042E5086455703C120364
:10016000168F08E50864566017E508B458051204B0
:100170005780EBE508645760E5AF0812035E80DE48
:100180007F5512044785A008AF0812044785B008C0
:10019000AF081204477F56120447E509B46E05AF55
:1001A000081203BDE509B4740F1203168F80120301
:1001B000168F907F56120447120467EF70030201F6
:0C01C0002F1203DE8F0812044702012FEB
:030000000201CC2E
:0C01CC00787FE4F6D8FD75817F020213F5
:10039200BB010689828A83E0225002E722BBFE0269
:0903A200E32289828A83E493229C
:1003AB00BB010689828A83F0225002F722BBFE0131
:0203BB00F3222B
:1001D800020100E493A3F8E493A34003F68001F23C
:1001E80008DFF48029E493A3F85407240CC8C33328
:1001F800C4540F4420C8834004F456800146F6DFF7
:10020800E4800B0102040810204080900003E47E83
:10021800019360BCA3FF543F30E509541FFEE493EB
:10022800A360010ECF54C025E060A840B8E493A3B2
:10023800FAE493A3F8E493A3C8C582C8CAC583CADD
:10024800F0A3C8C582C8CAC583CADFE9DEE780BE95
:0100090000F6
:00000001FF
