:100000000C9468020C946C160C94AB160C940000C3
:100010000C9400000C94250D0C94440D0C94630D6D
:100020000C94820D0C9400000C9400000C940000C1
:100030000C9400000C9400000C949A020C940000A4
:100040000C94B5160C9400000C94350B0C94000025
:100050000C94420B0C9400000C9400000C940000D3
:100060000C9400000C9400000C9400000C94000010
:100070000C9400000C9400000C94620B0C94000093
:100080000C947A0B0C9400000C9400000001FFFF0C
:10009000FFFFFFFFFFFFFFFFFFFFFFFFFFFFFFFF70
:1000A000FFFFFFFFFFFFFFFFFFFFFFFFFFFFFFFF60
:1000B000FFFFFFFFFFFFFFFFFFFFFF020304050637
:1000C00007FFFFFFFFFFFFFFFFFFFFFFFFFFFFFF38
:1000D000FFFFFFFFFFFFFFFFFFFFFFFF0100546572
:1000E000737420434F4D323A200D0A0054657374E7
:1000F00020313643353534206368616E6E656C207F
:10010000443A200D0A005465737420313643353566
:1001100034206368616E6E656C20433A200D0A00DE
:100120005465737420313643353534206368616E0D
:100130006E656C20423A200D0A00546573742031BC
:100140003643353534206368616E6E656C20413A04
:10015000200D0A00FE006800FE006800FE00680036
:10016000FE006800FE006800FFFFFFFFFF004E6F0B
:1001700020726573706F6E73652066726F6D204EAE
:100180006F64652E20517565727920616761696EB3
:100190002E200D0A004E6F646520776173206E6F0C
:1001A0007420666F756E642E20506C6561736520D7
:1001B000636865636B2077686574686572206E6F2D
:1001C0006465206578697374732E0D0A0041707040
:1001D0006C69636174696F6E2069732072756E6EED
:1001E000696E672E0D0A0053656E64696E67206341
:1001F0006F6D6D616E6420746F20707574206E6F0A
:10020000646520696E20626F6F746C6F61646572E3
:100210002E2E2E200D0A00526561647920746F2005
:1002200075706772616465206E6F646520626F61CE
:100230007264206669726D776172652E200D0A0006
:100240004170706C69636174696F6E206669726D6C
:100250007761726520686173206265656E20696EE2
:1002600076616C6964617465642E20596F75204DE8
:1002700055535420434F4D504C45544520666972A8
:100280006D7761726520757067726164652E0D0A05
:10029000004E6F64652073656C65637465642069E6
:1002A00073204E6F2E2000506C6561736520646F63
:1002B000776E6C6F6164202A2E42494E2066696C0D
:1002C00065207573696E6720786D6F64656D207049
:1002D000726F746F636F6C2E200D0A000D0A4669F1
:1002E000726D7761726520757067726164652063F5
:1002F0006F6D706C6574656420737563636573738B
:1003000066756C6C792E200D0A004661696C656417
:10031000207768656E2070726F6772616D696E67B5
:10032000206669726D7761726520757067726164AD
:1003300065207375636365737320666C61672E2037
:100340000D0A00547279696E6720616761696E2ECB
:10035000200D0A00556E65787065637465642065CC
:1003600072726F7220284E46555F55504752414475
:10037000455F434D504C5429206F6363757265642B
:100380002E200D0A00517565727920284E46555F62
:10039000555047524144455F434D504C54292074B9
:1003A000696D6573206F75742E2020726574727983
:1003B000696E67202E2E2E200D0A004E6F64652078
:1003C000002069732072756E6E696E6720617070AF
:1003D0006C69636174696F6E202E2E2E200D0A00E9
:1003E000596F75206D6179206E6F77207570677217
:1003F000616465206669726D77617265206F662041
:10040000616E6F74686572206E6F64652E200D0AD0
:1004100000436F6D6D616E64206578616D706C6511
:1004200020313A20434D4431203130202D2D2D20D4
:100430002875706772616465206E6F646520313065
:100440002028646563696D616C29292E200D0A00DE
:10045000436F6D6D616E64206578616D706C6520B1
:10046000323A20434D4431203031202D2D2D20288B
:1004700075706772616465206E6F64652031202934
:100480002E200D0A000001000205DC0001005E09BB
:10049000540101005F0956010100E90958010100FA
:1004A000EA095A010100740A5C010100750A5E0143
:1004B0000100FF0A60010100000B620101008A0BCC
:1004C000640101008B0B660105001F0C6801000030
:1004D000F894EE27ECBBF1E0F5BFE5BFE0936C00CC
:1004E000F8E1F1BDE1BD8DE0A2E0BB27ED938A9577
:1004F000E9F780E090E1A0E0B1E0ED930197E9F742
:10050000E6E8F4E085919591009761F0A591B591A9
:1005100005901590BF01F00105900D920197E1F74C
:10052000FB01F0CFEFEFEDBFE0E1EEBFC0E0D5E0C3
:100530000C9415081895F894A895E1B5E861E1BD0B
:10054000E8E0E1BD789408950E94E0180E94E71861
:100550000E94FA180E940119EA8300E014E00E9448
:100560000719AB81A0830E940719E081EF3F21F0BA
:1005700000240016010609F403C00E940C19F3CFF1
:100580000E94111910F4E1E001C0E0E02DC00E94CA
:10059000E0180E941B19EC81EA93E1E0EA93AD8137
:1005A000EAE0EA9FF0010E942019EA930E94FA18FB
:1005B0000E942019EA830E940719AB81A08300E002
:1005C00014E00E940719E081EF3F21F0002400169B
:1005D000010609F403C00E940C19F3CF0E941119FF
:1005E00010F4E1E001C0E0E019810881249608954B
:1005F0001A930A930E942619AB81A083EA81AAE08C
:10060000EA9FF0010E94E7180E94F20E00E014E059
:100610000E942619E081AE2FEB81EA1721F4002415
:100620000016010609F403C00E940C19F1CFAC8139
:100630000E942B19EFEFEC9300240016010610F432
:10064000E1E001C0E0E019810881259608951A9340
:100650000A930E940719AC81A083ED81EA93ED8192
:10066000EA93ED81EA93ED81EA930E94F20E00E0B5
:1006700014E00E940719E081AE2FEC81EA1721F403
:1006800000240016010609F405C00E94B7120150AB
:100690001040EFCF0E94111910F4E1E001C0E0E03A
:1006A00019810881269608950A930E942F1900E067
:1006B000043210F00C94D7030E943519E07FE03F1C
:1006C00009F473C00E943519EF70EF3021F40E94D5
:1006D0003E19E0E1EC930E943519E07F79F50E9424
:1006E0004619E058F94F0E944C190E945119E091A7
:1006F000C006AAE0EA9FF001E558F94F0E94591997
:100700000E944619E458F94FBF010E943519DB01D8
:10071000EC930E944619ED57F94F0E944C190E9424
:100720000119DB01EC930E943E190E946319E091CC
:10073000C006EF5FE093C006E15037C00E94351954
:10074000E07FE03191F5E091BF06E01741F10E94B2
:100750006E19E85EFA4F0E944C190E945119E091FF
:10076000BF06AAE0EA9FF001ED5EFA4F0E94591918
:100770000E946E19EC5EFA4FBF010E943519DB0131
:10078000EC930E946E19E55EFA4F0E944C190E948C
:100790000119DB01EC930E943E190E946319E0915C
:1007A000BF06EF5FE093BF06E1500F5F81CFECC063
:1007B0000A9301E0053220F5E02FE150AAE0EA9F1C
:1007C000F001A4E1B5E0AE0FBF1FEC91E07FE03F88
:1007D000A9F4E02FE150AAE0EA9FF001E55EFA4FAC
:1007E000A981A083E981EA93E1E00E947419E130D4
:1007F00029F4E981EA93E2E30E9474190F5FDACFEA
:1008000089C30A9300E0043018F5E02FA3EAB6E0AC
:100810000E947A19E8ECF0E0ED93FC93ABEAB6E0C5
:10082000E02F0E947A19E4E1F0E0ED93FC93A3EB52
:10083000B6E0E02F0E947A19E4E1F0E0ED93FC933A
:10084000A1ECB6E00E948019E0E0EC930F5FDBCFF3
:1008500000E0043020F5A02F0E948519EFEFEC9303
:10086000E02F0E9489190E948C19ABEBB6E00E9420
:100870008019EDEFEC93A5ECB6E00E948019EDEF46
:10088000EC93A9ECB6E00E948019EDEFEC93ADEC8F
:10089000B6E00E948019EDEFEC930F5FDACF00E035
:1008A000043270F40E942F190E949119E9E7EC9329
:1008B0000E943E190E9498190E949E190F5FF0CF66
:1008C00000E0043030F40E94A5190E94B5190F5FB2
:1008D000F8CF5AC00A93E4E0E093C006E4E2E09364
:1008E000BF0600E00432B0F40E94BC19EAE0E09FC9
:1008F000F001A7E1B5E00E94C8190E949119E02F0C
:10090000EF5FEC930E943E190E9498190E949E1975
:100910000F5FE8CF00E0043030F40E94A5190E9478
:10092000B5190F5FF8CFE0E0EA9342DFE1E0EA9328
:100930003FDFE2E0EA933CDFE3E0EA9339DFB4DE55
:1009400000E0043278F40E943519E07FE03F41F086
:100950000E9435190E94CD190E9401190E94DA19CE
:100960000F5FEFCF00E0043078F40E94E319E07FDE
:10097000E03F41F00E94E3190E94CD190E94201926
:100980000E94DA190F5FEFCF099108950A930E9430
:1009900001110E94EC19A03041F00E94EC19AE3F09
:1009A00021F00E94EC19AD3F09F44DC000E0E09148
:1009B000BF060E17C8F40E9435190E94F41949F4B5
:1009C0000E94F9190E94011A0E940119EA930E94DB
:1009D000400F0E94F9190E940D1A0E940119EA9312
:1009E0000E94400F0F5FE3CF00E0E091C0060E17BA
:1009F000C8F40E94E3190E94F41949F40E94191ADC
:100A00000E94011A0E942019EA930E94400F0E943E
:100A1000191A0E940D1A0E942019EA930E94400F91
:100A20000F5FE3CF0E941D1A0E94C8190E94221A6C
:100A3000E0E9F1E00E943F1AA9ECB6E00E94431AF7
:100A4000EDEFEC9367C20E94481AAC91A03051F0D0
:100A50000E94481AAC91AE3F29F00E94481AAC910E
:100A6000AD3F09F419C000E0E091BF060E1758F43D
:100A70000E9435190E94F41921F40E94BC190E94A9
:100A800001110F5FF1CF0E94481AEDEFEC93ADEC2E
:100A9000B6E00E944B1A3EC20E944E1AAC91A030A2
:100AA00051F00E944E1AAC91AE3F29F00E944E1AAE
:100AB000AC91AD3F09F4C6C00E944E1AAC91A6306D
:100AC00069F4E091D306F091D406E093240CF093FE
:100AD000250C0E94A4170E94511A1CC20E944E1A93
:100AE000AC91A53099F4A5ECB6E00E94541AEA0F37
:100AF000FB1FFF93EF930E941818E03011F4EDEF05
:100B000001C0E0E0AF91BF91EC9304C20E944E1A85
:100B1000AC91A730A1F40E944E18E091240CE0782B
:100B200021F00E941818E03009F404C00E944E1A07
:100B3000ECEF03C00E944E1AE0E0EC93EBC10E9480
:100B40004E1AAC91A83011F0AA2079F00E948718B3
:100B5000E03039F00E944E1AECEFEC93EFEFAE2E3E
:100B600003C00E94511AAA24D5C10E944E1AAC910A
:100B7000A23029F446DEAEDE0E94511ACBC10E949B
:100B80004E1AAC91A330E9F40E94A90D0E94511AAB
:100B9000EFEFEA93A5ECB6E0EA81F0E0AE0FBF1FFD
:100BA000E3EAF6E00E94FC1CEA1BFB0BEA93E1E09F
:100BB000EA93A5ECB6E0EC810E94571A0E945B1AFA
:100BC000A9C10E944E1AAC91A43011F4B4DCFFCF3D
:100BD0000E944E1AAC91A130A9F500E0E091BF0649
:100BE0000E1780F40E9435190E94F41949F40E94EE
:100BF000F9190E94611A0E940119EA930E94400F9C
:100C00000F5FECCF00E0E091C0060E1780F40E9469
:100C1000E3190E94F41949F40E94191A0E94611AFA
:100C20000E942019EA930E94400F0F5FECCF0E94B0
:100C30001D1A0E946D1A0E94221A0E944E1AEDEF90
:100C4000EC9368C167C11A930A930E9401110E9434
:100C5000721AAE0FBF1FEC91E030D9F4E09111058C
:100C6000F0911205E170F070319709F402C100E0D3
:100C7000E091BF060E1748F40E9435190E94771ABA
:100C800011F40E94BC190F5FF3CF0E94721A0E94E8
:100C90006D1A0E94721AAE0FBF1FAC91A13038F0CE
:100CA0000E94721AAE0FBF1FAC91AD3F08F0E1C0B9
:100CB00000E0E091BF060E1710F00C949E060E9413
:100CC0003519E07FE031C1F50E9435190E94771A8D
:100CD00099F50E947F1A1C910E94871AE15EF34FDA
:100CE000E081EF3F09F0C5C00E948A1AEF3FAFEFE5
:100CF000FA0711F5A12F0E9485190C93A12F0E94CC
:100D00002B19E2E3EC93E12F0E948919E2E1F5E06F
:100D1000ED93FC930E94F919EFE2EA93E4E0EA9381
:100D20001A930E94F20E0E94721AEA0FFB1F0E9491
:100D300059190E9401119DC00F5FBBCF10E000E068
:100D4000E091BF060E17F0F40E9435190E94771A41
:100D5000B9F40E948A1AE13FAFEFFA0761F0EE3F63
:100D6000AFEFFA0741F0ED3FAFEFFA0721F0EB3FAD
:100D7000AFEFFA0721F40E94BC19116001C01061A5
:100D80000F5FDECF113079F5A0910005B09101051C
:100D90001196A0930005B09301051197149780F068
:100DA000E0E0E0930005E0930105E894C49B6894BB
:100DB000A8B3A4F9A8BB109100E5109100E611E0DA
:100DC00000E0E091BF060E1748F40E9435190E941A
:100DD000771A11F40E94BC190F5FF3CF0E94721AA8
:100DE0000E946D1A46C0113199F400E0E091BF06EF
:100DF0000E1748F40E9435190E94771A11F40E94C8
:100E0000BC190F5FF3CF0E94721A0E946D1A31C095
:100E100000E0E091BF060E1730F50E9435190E94E0
:100E2000771AF9F4A0911105B0911205EAE0F0E00B
:100E30000E94F51C309731F40E94F919EFE2EA9311
:100E4000E6E005C00E94F919EFE2EA93E4E0EA93D4
:100E5000EAE0E09FF001EB5EFA4F0E945B1A0E940D
:100E600001110F5FD6CF0E94721AAE0FBF1FEDEFB8
:100E7000EC9319810881249608950A930E94541ACC
:100E8000EC5FFA4F00810F3F09F444C00E947F1AC3
:100E9000AC91E981EA1709F03DC00E94541AE15E65
:100EA000F34FE081EF3F99F4E9810E9489190E9494
:100EB000F81C309709F42EC0EAE0E09FF0010E9490
:100EC0009E19E9810E9489190E948C191EC0E9812E
:100ED0000E9489190E94F81C309739F0E9810E941C
:100EE00089190E94941A319615C0EAE0E09FF0013A
:100EF000A5E1B5E0AE0FBF1FE1EFFFEFED93FC936F
:100F0000A9810E942B19EFEFEC93A9810E9485190A
:100F1000EFEFEC930881229608951A930A930E94AA
:100F20000111A091D106AF3F89F400E0083368F4C5
:100F3000EFEFEA930A93E1E0EA93E02FF0E0ED555A
:100F4000F94F0E945B1A0F5FF1CF43C000E0E091C0
:100F5000C0060E17D8F40E949A1AAE2FE091D1065F
:100F6000EA1791F410E0103558F41A930A930FDB46
:100F7000E03011F00E9401110E94A11A1F5FF3CF0F
:100F8000EDEFE093D10628C00F5FE1CF00E0E091E4
:100F9000BF060E17C0F40E94A41AAE2FE091D1062E
:100FA000EA1779F410E0103558F41A930A93CCDA62
:100FB000E03011F00E9401110E94A11A1F5FF3CFCF
:100FC00002C00F5FE4CFE091BF060E1710F0EEEF06
:100FD00001C0EDEFE093D106099119910895A88120
:100FE000A43048F4A2E6B0E0AF930E94AB1AE095BB
:100FF000E121AF91EC9317C0A881A43040F4A2E6A0
:10100000B0E0AF930E94AB1AE129AF91EC930BC013
:10101000A881A43040F4A2E6B0E0AF930E94AB1ADE
:10102000E125AF91EC932196089500E010E066244D
:10103000EFEFE093D106E5DBEEE6F8E0E093E108C0
:10104000F093E208E5E8F8E0E093E308F093E408C1
:10105000ECE9F8E0E093E508F093E608E3EBF8E06C
:10106000E093E708F093E808EAECF8E0E093E90899
:10107000F093EA0827D641D681D683D6DCD375D63D
:1010800068D578940E94B11AE0E2F3E00E943F1A1A
:1010900021DCEDEFE093D106E0E0E093240CE09357
:1010A000250C0E94A417662011F0A1D0FCCFE0917E
:1010B0001205E07829F0E0E0E0931105E0931205D5
:1010C000E0911105F09112053196E0931105F0932E
:1010D0001205A091D106A03041F0A091D106AE3FFB
:1010E00021F0A091D106AD3F09F401C016DFE091D7
:1010F0001005E17039F0E0E0F0E00E94B51AE0E0A0
:10110000EA9344DCE0911005E07119F0E0E0EA9325
:10111000B4DEE0911005E27039F0E1E0F0E00E9409
:10112000B51AE1E0EA9332DCE0911005E07219F0C3
:10113000E1E0EA93A2DEE0911005E47039F0E2E02C
:10114000F0E00E94B51AE2E0EA9320DCE09110059D
:10115000E07419F0E2E0EA9390DEE0911005E870A7
:1011600039F0E3E0F0E00E94B51AE3E0EA930EDC28
:10117000E0911005E07819F0E3E0EA937EDE0E944A
:101180000111F80131968F01E13DA7E0FA0710F057
:1011900000E010E088CFFFCF0E940E1D00E010E0BD
:1011A000AB81BC811197AB83BC831097DCF0AD8120
:1011B000BE81ED91AD83BE83FE2FE0E00E271F2799
:1011C00028E017FF09C0F801EE0FFF1FA1E2B0E110
:1011D000EA27FB278F0102C0000F111F215020308A
:1011E00081F7DECFF8010E94151D27960895EF972D
:1011F000EA9786E7A0E0B0E0EEEDF0E00E94191D6E
:101200000E940B1D662009F42AC2E1E0E41511F0EA
:101210000C94D80AEC2DE03001F55A92E1E00E94DE
:10122000B91A49F0A091DC06A23411F4E2E001C041
:10123000E1E0CE2E11C0EEE6F1E00E94C21AB394B6
:10124000EAE0EB1538F4EDE0CE2EE5E9F1E00E949E
:10125000C21ABB240E94C61AABC1E130D1F4E0EA45
:10126000DE01A358BF4FEC935A92E0E4EA93E1E029
:10127000EA93FE01E058FF4F0E94C91A0E94C61A65
:10128000EDECF1E00E94C21AE7EEF1E00E94C21A12
:101290008EC1E23009F5E7E1F2E00E94C21AE0E413
:1012A000F2E00E94C21AE1E9F2E00E94C21A5A92E8
:1012B00090D2E9ECF1E00E94C21AE7EAF2E00E9463
:1012C000C21AE3E0CE2E0E94CF1AE0E0F0E0E093F5
:1012D000DD06F093DE066CC1E33079F5882021F05D
:1012E000E4E0CE2E882428C00E94D91A0E94031D53
:1012F00019F4E3E4EA931FD20E94D91AEF5FFF4F7B
:101300006F4F7F4FE0936207F0936307609364072A
:1013100070936507A0916207B0916307809164079D
:1013200090916507A138E9EABE07E3E08E07E0E0A7
:101330009E0710F00E94CF1A3BC1E43081F40E9456
:10134000CF1A772021F0E5E0CE2E772431C1992005
:1013500029F00E94E21AEAE0CE2E2AC129C1E53026
:1013600001F5009160071127102F0027E091610718
:10137000D8010E94571A8F01E0EEF6E0FA93EA9343
:10138000E0E8F0E0FA93EA9307DF9F010217130702
:1013900029F0E5E1EA93CFD1E4E001C0E6E0CE2E0A
:1013A00007C1E63049F55A92E2E0EA93EA93EDED9F
:1013B000F6E00E94C91A4091DD065091DE06EAE08F
:1013C000F0E00E943F1A5A92E2E0EA93EA93E3E0E7
:1013D000EA933DD9E03059F0A091DD06B091DE06E8
:1013E0004A175B0721F4E7E0CE2E0E94E61A4093ED
:1013F000DD065093DE06DCC0E730F1F45A92E4E0FB
:10140000EA93E2E8EA93E0EEF6E0FA93EA93E3E0A7
:10141000EA935CD50E94A11A5A92E4E00E94B91A9C
:1014200051F0A091DF06E091E006EA1721F4E8E030
:10143000CE2E0E94EA1ABCC0E83001F5E2E00E941C
:10144000EE1AE3E0DE01A258BF4FEC93DE01A25892
:10145000BF4FAC91A13088F00E94F81A39F0A091EA
:10146000DB06A23019F4E9E0CE2E07C0DE01A25857
:10147000BF4FEC91E150EC93E9CF9AC0E93099F578
:101480000E94F81A69F1E091DB06E23039F40E941B
:10149000FB1AE2E3F0E00E943F1A21C0E03099F429
:1014A000992061F4ADEDB6E0ED91FD91E058FF4F6C
:1014B000FE93EE930E94E21AE4E003C00E94E21A57
:1014C000EAE0CE2E0CC0E03219F4E6E0CE2E04C0E5
:1014D000E03111F4E6E0CE2EE3E0EA9380DD02C0D5
:1014E0000E94A11A65C0EA30D9F5DD2019F4E3E0C5
:1014F0000E94EE1A0E94A11A0E94F81A49F1E09186
:10150000DB06E33031F4D394E5E0ED1508F4DD2497
:101510001EC0E03039F4ECEDF2E00E94C21AEBE0BC
:10152000CE2E14C0E03161F4EAE0F3E00E94C21A6A
:10153000E3E4F3E00E94C21ADD240E94FF1A07C010
:10154000E4E5F3E00E94C21A0E94FF1ADD2407C0FE
:101550000E94FF1ADD24E5E8F3E00E94C21A28C0C9
:10156000EB3081F4E4E00E94EE1AEBEBF3E00E9432
:10157000C21A5A922ED1E1ECF3E00E94C21AECE0BA
:10158000CE2E16C0EC3069F4E0EEF3E00E94C21AF1
:10159000E1E1F4E00E94C21AE0E5F4E00E94C21A20
:1015A00002C0ED3001F46624882499247724CC24E9
:1015B000E2E0E41511F40E949B02E3E0E41511F06F
:1015C0000C942F0BE8E2DE01A458BF4FEC93DE0130
:1015D000A458BF4FAC91A13010F40C942E0BFE0117
:1015E000EE59FF4F0E94021BE0E0EA9308D30E94ED
:1015F000FB1A0E94071BFE01E85BFF4F0E94021BC3
:10160000E1E0EA93FCD20E94E61A0E94071BFE0169
:10161000BE960E94021BE2E0EA93F1D20E94EA1A0F
:101620000E94071BFE0174960E94021BE3E0EA93EE
:10163000E6D2E3E0EA93ECDC0E94071BFE0136965B
:10164000FA93EA93EEE0EA93E4E0EA93D8D2DE017B
:10165000A458BF4FEC91E150EC93B9CF44240E94C1
:10166000121DEF96EF96219608950E940A1B0BB16A
:101670001CB1662011F41A9307D11A938ED10E94DF
:101680001A1B1895EA93FA93EFB7EA93E091E807EB
:10169000E03099F0E150E093E807E091E707EF5F71
:1016A000E093E7070E942A1BEA59F84FE081ECB962
:1016B000E091E707EF77E093E707E991EFBFF99152
:1016C000E99118950E940A1B00919B0010919C00C3
:1016D000E894C69B6894A8B3A6F9A8BBA0911D0C7A
:1016E000A83019F40E941A1B18951A9382D70E94E9
:1016F0001A1B1895EA93FA93EFB7EA93E0916B08F7
:10170000E030A1F0E150E0936B08E0916A08EF5FF0
:10171000E0936A080E942A1BE751F84FE081E093AA
:101720009C00E0916A08EF77E0936A08E991EFBFC7
:10173000F991E9911895A091E807A038E1F3F894A0
:10174000E091E807E03011F45D9916C0E091E607FA
:10175000EF5FE093E6070E942A1BEA59F84FA88141
:10176000A083E091E607EF77E093E607E091E807D2
:10177000EF5FE093E80702C0E881ECB97894219626
:101780000895A0916B08A038E1F3F894E0916B08FC
:10179000E03021F4E0919B00E072B1F4E09169083F
:1017A000EF5FE09369080E942A1BE751F84FA88178
:1017B000A083E0916908EF77E0936908E0916B08F6
:1017C000EF5FE0936B0803C0E881E0939C0078949E
:1017D00020C41A930A93EA81E07FE295EF700E2FFE
:1017E000EA81EF701E2F0A3018F4E02FE05D03C08D
:1017F000E02FEF5BEA50EA939EDF1A3018F4E12FF6
:10180000E05D03C0E12FEF5BEA50EA9394DF1981BA
:101810000881CEC3E881F981E491E03051F0E8819C
:10182000F9813196E883F9833197E491EA9383DF74
:10183000F1CF22960895E0E0EBB9E8EDEAB9E6E0F1
:10184000E0939500E0E0E0939000EFE5E9B9E0E097
:10185000E0939B00E8EDE0939A00E6E0E0939D00C2
:10186000E0E0E0939800E7E0E0939900E0E0E093A7
:10187000E607E093E707E093E807E0936908E09361
:101880006A08E0936B080895E881EA9354DFEE2D2F
:10189000E03041F4A881A33411F4E1E0EE2E4424B9
:1018A00055247AC0E13071F4A881AD3419F4E2E036
:1018B000EE2E07C0A881A33419F4E1E0EE2E01C09A
:1018C000EE246AC0E23071F4A881A43419F4E3E094
:1018D000EE2E07C0A881A33419F4E1E0EE2E01C07A
:1018E000EE245AC0E330A1F4A881AA3210F0AA3342
:1018F00008F006C0E4E0EE2EE881E0534E2E07C06B
:10190000A881A33419F4E1E0EE2E01C0EE2444C016
:10191000E43071F4A881A03219F4E5E0EE2E07C09E
:10192000A881A33419F4E1E0EE2E01C0EE2434C006
:10193000E530B9F4A881AA3210F0AA3308F009C042
:10194000E6E0EE2EA881A053EAE0EA9FF0015E2EC9
:1019500007C0A881A33419F4E1E0EE2E01C0EE2403
:101960001BC0E630A1F4A881AA3210F0AA3308F017
:1019700006C0E7E0EE2EE881E0535E0E07C0A881C6
:10198000A33419F4E1E0EE2E01C0EE2405C0E730E7
:1019900011F4E1E06E2EEE243CC3E0916C08E030DF
:1019A00099F4E0E0E0936D08A881A13029F4E1E02A
:1019B000E0936C088E2E9924A881A43021F4E1E0F4
:1019C0009E2E0E94B11A40C0E13029F4E881E093D4
:1019D0006D08E2E037C0E23061F4E0916D08A88163
:1019E000AE0FAF3F11F0E0E001C0E3E0E0936C0820
:1019F0002BC0E33041F4E1E0E0936D08E881E0932F
:101A0000E006E4E01FC0E43061F40E942D1B0E9458
:101A1000331BA0916D08A03818F0E5E0E0936C0846
:101A200013C0E53031F40E942D1B0E94331BE6E009
:101A300009C0E63031F40E942D1B0E94331BE1E007
:101A40007E2EE0E0E0936C08E4C20E94381BE09137
:101A50000072EF70EC3019F4009100E010C0E43037
:101A600071F400910070A091150CA83019F40E9437
:101A7000471B18950A936DD60E94471B1895009135
:101A800000750E94471B18950E94381BE09100B218
:101A9000EF70EC3019F4009100E010C0E43071F404
:101AA000009100B0A091170CA83019F40E94471BB8
:101AB00018950A93FDD60E94471B1895009100B512
:101AC0000E94471B18950E94381BE09100D2EF70CE
:101AD000EC3019F4009100E010C0E43071F4009192
:101AE00000D0A091190CA83019F40E94471B18953A
:101AF0000A9390D70E94471B1895009100D50E9429
:101B0000471B18950E94381BE09100E2EF70EC3003
:101B100019F4009100E011C0E43079F4009100E084
:101B2000A0911B0CA83019F40E94471B18950A932A
:101B30000E94B9150E94471B1895009100E50E946C
:101B4000471B18951B9A0E94C61A1B980E94C61A1A
:101B50000895F8DFE0E8E0930073E4E0E0930070BC
:101B6000E0E0E0930071EBE1E0930073E7E0E093E5
:101B70000072E8E0E0930074E1E0E0930071E0E8D7
:101B8000E09300B3E4E0E09300B0E0E0E09300B164
:101B9000EBE1E09300B3E7E0E09300B2E8E0E0932C
:101BA00000B4E1E0E09300B1E0E8E09300D3E4E0CA
:101BB000E09300D0E0E0E09300D1EBE1E09300D3CC
:101BC000E7E0E09300D2E8E0E09300D4E1E0E093C6
:101BD00000D1E0E8E09300E3E4E0E09300E0E0E03F
:101BE000E09300E1EBE1E09300E3E7E0E09300E263
:101BF000E8E0E09300E4E1E0E09300E108951A9367
:101C00000A930B81EA81E03071F4E0910075E07293
:101C1000E1F3A02F0150A13028F00E94561BE09361
:101C20000070F7CF4EC0E13071F4E09100B5E07282
:101C3000E1F3A02F0150A13028F00E94561BE09341
:101C400000B0F7CF3EC0E23071F4E09100D5E07211
:101C5000E1F3A02F0150A13028F00E94561BE09321
:101C600000D0F7CF2EC0E330F9F40030E1F0E0917E
:101C700000E5E072E1F3003158F410E0101730F4A1
:101C80000E94561BE09300E01F5FF8CF00E00AC0FF
:101C900010E0103130F40E94561BE09300E01F5F0B
:101CA000F8CF0051E2CF0DC0E43049F4A02F01502D
:101CB000A13028F00E94561BEA9363DDF7CFE0EFD6
:101CC000E5BB9BC2E0E0EBBBEABBE8BBE7BBE0EFF8
:101CD000E5BBEFEFE4BBE0E0E2BBE1BBE6E0E3B98C
:101CE000EEE0E2B9EFE0E0936200E0936100E0E053
:101CF000E0936500E09364000895E0E0E0BFE7E072
:101D0000E3BFE0E0E2BFE1BFEFBDE5E0EEBDE0E054
:101D1000EDBDECBDE7BDE6BDEBBDEABDE9BDE8BD8F
:101D2000E0937900E0937800E5BDE4BDE3BDE09386
:101D30008B00E0938A00E0938900E0938800E093B1
:101D40008100E0938000E0938700E0938600E093B9
:101D50008500E0938400E0938300E0938200E5E057
:101D6000E7BFE0E0E0937D000895E0ECE5BFEEE43E
:101D7000E0936D00E0E8E0936C0008950E945C1B26
:101D80000895E0E8E8B9E0E0E0BD08950A93A9818C
:101D9000BA811197A983BA8311960E94071D30F466
:101DA00004E6A02F0150A130E0F7F1CF088100C177
:101DB0000E94651B0E94C8190E946D1B0E94721B25
:101DC0000E94771BED59F64FAA81A08300E0EA81BB
:101DD0000E1728F40E946D1B0E947E1BF8CF0E94F4
:101DE0008D1B22C00E94651B0E94911B0E94721BCA
:101DF0000E94771B0E94961BEA81EF5FEC9300E044
:101E0000EA810E1728F40E946D1B0E947E1BF8CFFA
:101E10000E946D1BA4E6B9E0AE0FBF1F0E9480199F
:101E2000E2E3EC930E948D1B0881259608950A93A6
:101E30000E946D1BE05AF64FAE81A0830E946D1B7D
:101E4000A1E6B9E00E94C8190E946D1B0E949B1B6D
:101E50000E94A21BEC81A2E0EA9FF0010E1768F439
:101E60000E946D1B0E94AD1B0E94B41B0E94AD1B03
:101E70000E94571A0E94BD1BEDCF0E948D1B23C0EC
:101E80000E94651B0E94911BEF59F64FAE81A08303
:101E90000E946D1B0E949B1B0E94A21BEC81A2E072
:101EA000EA9FF0010E1768F40E946D1B0E94AD1BA3
:101EB0000E94B41B0E94AD1B0E94571A0E94BD1BBA
:101EC000EDCF0E948D1B0881279608950E940E1D5C
:101ED0000E94C61BA0E6B9E0AE0FBF1FEFEFEC9368
:101EE0000E94C61BEF59F64FA885A0830E94C61B0F
:101EF000A2E6B9E0AE0FBF1FE3E5EC930E94C61B5C
:101F00000E94961BEE81EF5FEC9300E00E94C61BDF
:101F10000E94AD1B0E94571AAF81A083EE81EF5F34
:101F20000E1760F40E94C61B0E94AD1B0E94571A38
:101F30000F010E94561BD001EC93F0CFEB81EA9386
:101F400039D00E94151D299608950A9300E0A981B1
:101F5000A150A983AF5FA13038F0AA81BB81ED9178
:101F6000AA83BB830E0FF3CFE02FE095EF5F0E2F18
:101F7000E02F088124960895E981FA810E94CB1B05
:101F80000E94D01BA981BA811596AC91A13058F05E
:101F9000E981FA813696FA93EA93EB81FC81A58177
:101FA000AA930E94D01BE981FA8176960E94D41BE5
:101FB000239608950E94D91BE851F64FFF93EF93A3
:101FC0000E94DE1BC2DFEF930E94D91B0E94E51B1B
:101FD000EC91EA93BADFAF91EA0FAF91BF91EC9326
:101FE0000E94DE1B0E94D01B0E94D91B0E94961BE0
:101FF000AC91A13040F00E94D91B0E94E51BEC91EE
:10200000EA930E94D01B0E94D91BE851F64F0E9410
:10201000D41B219608950E94EE1BF1F400E00E946B
:10202000F61BC8F40E94FC1BE081E11729F4AA8189
:102030000E942B19EFEFEC93103558F40E94871A89
:10204000E457FF4F14911F3F21F00E94051C0E948E
:10205000091C0E5FE4CF4DC0AB81BC811496AC91DE
:10206000A83569F500E00E94F61B40F50E94FC1BB4
:10207000E081E11729F4AA810E942B19EFEFEC937C
:102080001035D0F40E94871AE457FF4F14911F3F78
:1020900099F00E94051C0E94091CAD81BE81119619
:1020A000E12F0E94571A0F01E02FE85FAB81BC813E
:1020B0000E94151CD001EC930D5FD5CF1AC019C03A
:1020C0000E94EE1BB1F400E00E94F61B90F40E9407
:1020D000FC1BE081E11729F4AA810E942B19EFEF84
:1020E000EC93153020F40E94051C0E94091C0E5F21
:1020F000EBCF19810881279608951A930A930E94BD
:102100001A1CA73589F400E00E941F1C60F40E948D
:10211000251CAC81BD810E94571A0E942A1CD00147
:10212000EC930E5FF1CF69C00E941A1CA83509F527
:1021300000E00E941F1CE0F40E94251CAC81BD81C0
:102140000E94571A0E942A1CD001EC930E94251C61
:10215000AC81BD8111960E94571A0F01E02FE85FF4
:10216000AA81BB810E94151CD001EC930D5FE1CFC9
:1021700044C00E941A1CA235D1F400E0E7E50E9499
:10218000301C0E941F1C80F40E943A1C0E943E1CBE
:102190000E94401C0E943A1C0E943E1C0E94441C4B
:1021A0000E94401C0F5FEDCF0E94471C26C00E947A
:1021B0001A1CA33511F500E0E8E50E94301C0E94CE
:1021C0001F1CC8F40E943A1C0E943E1C0E94401C26
:1021D0000E943A1C0E943E1C0E94441C0E94401C0B
:1021E0000E943A1C0E943E1CEF5F0E94441C0E9409
:1021F000401C0F5FE4CF0E94471C1981088126967E
:1022000008950E940E1DA0911D0CA83011F00C9491
:1022100061111091E9082091EA08EAECF8E0E11771
:10222000F20719F4E7E4F9E002C0EAECF8E0E09321
:10223000E908F093EA08E0E0E0931D0C0E944D1CD1
:10224000EF930E94531CAF910E945E1CC9F50E943F
:10225000671C31F4E3EAF6E00E946C1C4EDF83C198
:1022600000E0E091BF060E1798F4E12FF22FE38112
:102270008E2F0E94A41AE81749F42A931A93EAE0D1
:10228000E09FF001BED7EA9377DE6DC10F5FE9CF23
:1022900000E0E091C0060E1798F4E12FF22FE381E1
:1022A0008E2F0E949A1AE81749F42A931A93EAE0AB
:1022B000E09FF001C5D7EA935FDE55C10F5FE9CF1C
:1022C00052C1A091150CA83011F00C94B6111091C8
:1022D000E1082091E208EEE6F8E0E117F20719F4D0
:1022E000EBEEF8E002C0EEE6F8E0E093E108F093F0
:1022F000E208E0E0E093150C0E944D1CEF930E9471
:10230000531CAF910E945E1C81F50E94671C39F539
:1023100000E0E091BF060E1770F40E94711C0E944D
:10232000A41AE81731F40E94761CE0E0EA9373DE09
:102330001AC10F5FEECF00E0E091C0060E1770F4F7
:102340000E94711C0E949A1AE81731F40E947C1CAA
:10235000E0E0EA9360DE07C10F5FEECF04C10E94A8
:10236000821C19F40E94871CFEC0FDC0A091170CAE
:10237000A83011F00C940B121091E3082091E4089E
:10238000E5E8F8E0E117F20719F4E2E0F9E002C04D
:10239000E5E8F8E0E093E308F093E408E0E0E09398
:1023A000170C0E944D1CEF930E94531CAF910E948A
:1023B0005E1C81F50E94671C39F500E0E091BF06C4
:1023C0000E1770F40E94711C0E94A41AE81731F4D1
:1023D0000E94761CE1E0EA931EDEC5C00F5FEECFDF
:1023E00000E0E091C0060E1770F40E94711C0E947C
:1023F0009A1AE81731F40E947C1CE1E0EA930BDEA4
:10240000B2C00F5FEECFAFC00E94821C19F40E94D1
:10241000871CA9C0A8C0A091190CA83011F00C9479
:1024200060121091E5082091E608ECE9F8E0E11768
:10243000F20719F4E9E1F9E002C0ECE9F8E0E09311
:10244000E508F093E608E0E0E093190C0E944D1CCB
:10245000EF930E94531CAF910E945E1C81F50E9475
:10246000671C39F500E0E091BF060E1770F40E947A
:10247000711C0E94A41AE81731F40E94761CE2E055
:10248000EA93C9DD70C00F5FEECF00E0E091C006B7
:102490000E1770F40E94711C0E949A1AE81731F40A
:1024A0000E947C1CE2E0EA93B6DD5DC00F5FEECFD8
:1024B0005AC00E94821C19F40E94871C54C053C049
:1024C000A0911B0CA83011F00C94B3121091E708E6
:1024D0002091E808E3EBF8E0E117F20719F4E0E3F4
:1024E000F9E002C0E3EBF8E0E093E708F093E808D6
:1024F000E0E0E0931B0C0E944D1CEF930E94531CE4
:10250000AF910E945E1C79F50E94671C39F500E0CE
:10251000E091BF060E1770F40E94711C0E94A41A6D
:10252000E81731F40E94761CE3E0EA9374DD1BC0E7
:102530000F5FEECF00E0E091C0060E1770F40E942E
:10254000711C0E949A1AE81731F40E947C1CE3E087
:10255000EA9361DD08C00F5FEECF05C00E94821CC8
:1025600011F40E94871C0E94151D239608951A934A
:102570000A93A0911B0CA830C9F50091E7081091AF
:10258000E808E3EBF8E0E017F10719F4E0E3F9E01D
:1025900002C0E3EBF8E0E093E708F093E808E0E03E
:1025A000E0931B0C1A930A93E6E0EA93CEDCEF93D8
:1025B000F8013696FA93EA93F801E581EA93C5DCCF
:1025C000AF91AE0FEFEFEA23AE2FF801E689EA17DD
:1025D00069F4F801E381EF3F49F4EBEDF6E0FA939B
:1025E000EA931A930A93E3E0EA936ADD0991199159
:1025F0000895A881A03321F4E0E0EA930E94FC074B
:10260000A881A13309F4ADD7A881A63411F40E94A2
:10261000FB1AA0911D0CA730A1F4E881A091E90854
:10262000B091EA085696EC930E948D1C1196E8E64C
:10263000EC930E948D1CEEEFEC93E8E0E0931D0C10
:1026400049C3A0911D0CA630D1F4E0911E0CEA5FA5
:102650000E948D1C2CD7A881A083E0911E0CEF5FF7
:10266000E0931E0CE091E908F091EA08E581A09161
:102670001E0CAE1718F0E7E0E0931D0C2BC3A091E1
:102680001D0CA53089F4A881A13168F4E881A091DE
:10269000E908B091EA081596EC93E0E0E0931E0C8F
:1026A000E6E0E0931D0C16C3A0911D0CA43059F474
:1026B000E881A091E908B091EA081496EC93E5E06E
:1026C000E0931D0C07C3A0911D0CA33059F4E881C1
:1026D000A091E908B091EA081396EC93E4E0E09346
:1026E0001D0CF8C2A0911D0CA23059F4E881A091F4
:1026F000E908B091EA081296EC93E3E0E0931D0C30
:10270000E9C2A0911D0CA13019F4A881A83609F0E6
:1027100004C0E2E0E0931D0CDDC2A0911D0CA130CD
:1027200019F4A881AE3F09F004C0E1E0E0931D0C6C
:10273000D1C2A0911D0CA03019F4A881AE3F09F0C0
:1027400004C0E1E0E0931D0CC5C2E0E0E0931D0C85
:10275000C1C2A881A03321F4E0E0EA930E94FC0703
:10276000A881A13309F4FDD6A881A63409F443D782
:10277000A091150CA730A1F4E881A091E108B091D7
:10278000E2085696EC930E94921C1196E8E6EC93B0
:102790000E94921CEEEFEC93E8E0E093150C9AC2D5
:1027A000A091150CA630D1F4E091160CEA5F0E94BE
:1027B000921C7DD6A881A083E091160CEF5FE09378
:1027C000160CE091E108F091E208E581A091160C69
:1027D000AE1718F0E7E0E093150C7CC2A091150C41
:1027E000A53089F4A881A13168F4E881A091E108BD
:1027F000B091E2081596EC93E0E0E093160CE6E069
:10280000E093150C67C2A091150CA43059F4E8812F
:10281000A091E108B091E2081496EC93E5E0E09312
:10282000150C58C2A091150CA33059F4E881A09161
:10283000E108B091E2081396EC93E4E0E093150C04
:1028400049C2A091150CA23059F4E881A091E10889
:10285000B091E2081296EC93E3E0E093150C3AC2D3
:10286000A091150CA13019F4A881A83609F004C074
:10287000E2E0E093150C2EC2A091150CA13019F4E2
:10288000A881AE3F09F004C0E1E0E093150C22C23C
:10289000A091150CA03019F4A881AE3F09F004C036
:1028A000E1E0E093150C16C2E0E0E093150C12C2D3
:1028B000A881A03321F4E1E0EA930E94FC07A881FB
:1028C000A13321F4E1E0EA930E94EF07A881A63446
:1028D00009F47CD6A091170CA730A1F4E881A0914F
:1028E000E308B091E4085696EC930E94971C119669
:1028F000E8E6EC930E94971CEEEFEC93E8E0E0939F
:10290000170CE8C1A091170CA630D1F4E091180C77
:10291000EA5F0E94971CCBD5A881A083E091180C98
:10292000EF5FE093180CE091E308F091E408E58193
:10293000A091180CAE1718F0E7E0E093170CCAC18D
:10294000A091170CA53089F4A881A13168F4E88121
:10295000A091E308B091E4081596EC93E0E0E093D1
:10296000180CE6E0E093170CB5C1A091170CA43049
:1029700059F4E881A091E308B091E4081496EC932F
:10298000E5E0E093170CA6C1A091170CA33059F411
:10299000E881A091E308B091E4081396EC93E4E099
:1029A000E093170C97C1A091170CA23059F4E8815D
:1029B000A091E308B091E4081296EC93E3E0E09371
:1029C000170C88C1A091170CA13019F4A881A83662
:1029D00009F004C0E2E0E093170C7CC1A091170C51
:1029E000A13019F4A881AE3F09F004C0E1E0E09302
:1029F000170C70C1A091170CA03019F4A881AE3F3C
:102A000009F004C0E1E0E093170C64C1E0E0E0935A
:102A1000170C60C1A881A03321F4E2E0EA930E9480
:102A2000FC07A881A13321F4E2E0EA930E94EF07BA
:102A3000A881A63409F4CED5A091190CA73091F441
:102A4000E881A091E508B091E6085696EC9374D71A
:102A50001196E8E6EC9370D7EEEFEC93E8E0E093A4
:102A6000190C38C1A091190CA630C9F4E0911A0CC8
:102A7000EA5F62D71CD5A881A083E0911A0CEF5FB2
:102A8000E0931A0CE091E508F091E608E581A09149
:102A90001A0CAE1718F0E7E0E093190C1BC1A091D7
:102AA000190CA53089F4A881A13168F4E881A091BE
:102AB000E508B091E6081596EC93E0E0E0931A0C77
:102AC000E6E0E093190C06C1A091190CA43059F46A
:102AD000E881A091E508B091E6081496EC93E5E052
:102AE000E093190CF7C0A091190CA33059F4E881B8
:102AF000A091E508B091E6081396EC93E4E0E0932A
:102B0000190CE8C0A091190CA23059F4E881A091E9
:102B1000E508B091E6081296EC93E3E0E093190C17
:102B2000D9C0A091190CA13019F4A881A83609F0D8
:102B300004C0E2E0E093190CCDC0A091190CA130C3
:102B400019F4A881AE3F09F004C0E1E0E093190C4C
:102B5000C1C0A091190CA03019F4A881AE3F09F0B2
:102B600004C0E1E0E093190CB5C0E0E0E093190C7B
:102B7000B1C0A881A03321F4E3E0EA930E94FC07EE
:102B8000A881A13321F4E3E0EA930E94EF07A88132
:102B9000A63421F4E3E0EA930E940808A0911B0CFC
:102BA000A73091F4E881A091E708B091E808569623
:102BB000EC93C7D61196E8E6EC93C3D6EEEFEC9310
:102BC000E8E0E0931B0C86C0A0911B0CA630C9F472
:102BD000E0911C0CEA5FB5D66AD4A881A083E0918D
:102BE0001C0CEF5FE0931C0CE091E708F091E80803
:102BF000E581A0911C0CAE1718F0E7E0E0931B0CE8
:102C000069C0A0911B0CA53089F4A881A13168F49A
:102C1000E881A091E708B091E8081596EC93E0E010
:102C2000E0931C0CE6E0E0931B0C54C0A0911B0C3D
:102C3000A43059F4E881A091E708B091E80814960F
:102C4000EC93E5E0E0931B0C45C0A0911B0CA33076
:102C500059F4E881A091E708B091E8081396EC9345
:102C6000E4E0E0931B0C36C0A0911B0CA23059F499
:102C7000E881A091E708B091E8081296EC93E3E0B0
:102C8000E0931B0C27C0A0911B0CA13019F4A88164
:102C9000A83609F004C0E2E0E0931B0C1BC0A09131
:102CA0001B0CA13019F4A881AE3F09F004C0E1E08B
:102CB000E0931B0C0FC0A0911B0CA03019F4A8814D
:102CC000AE3F09F004C0E1E0E0931B0C03C0E0E07C
:102CD000E0931B0C21960895AA93EA93FA93EFB719
:102CE000EA93E8B7E160E8BFE091240CE27041F0BC
:102CF000E091260CE03019F4E1E0E093260C09C0E5
:102D0000E091380CE03011F4E0E001C0E1E0E09344
:102D1000260C1CD621D6E076F070309729F416D612
:102D2000E1E0E0933B0C08C0E036A0E0FA0721F4B4
:102D300018D6E1E0E0933B0CE0E0E0933A0CE89435
:102D4000C79B6894A8B3A7F9A8BBE991EFBFF99115
:102D5000E991A9911895EA93EFB7EA93E7B7ED7F68
:102D6000E7BFE991EFBFE9911895AA93BA93EA9367
:102D7000FA93EFB7EA93E6B7E160E6BFEAE7E2BFAE
:102D8000E091270CF091280C309721F0A7E2BCE0ED
:102D9000CBD30CC0A091370CE1E0EA2339F0E091ED
:102DA0006200A1E0E4D5EE7FE093370CE091290CBE
:102DB000F0912A0C309721F0A9E2BCE0B5D30CC009
:102DC000A091370CE2E0EA2339F0E0916200A2E042
:102DD000CED5ED7FE093370CE0912B0CF0912C0CCD
:102DE000309721F0ABE2BCE09FD30CC0A091370C30
:102DF000E4E0EA2339F0E0916200A4E0B8D5EB7F8B
:102E0000E093370CE091350CF091360C309721F0BF
:102E1000A5E3BCE089D30AC0A091370CE0E8EA231F
:102E200029F0E091370CEF77E093370CA091370C45
:102E3000EFEFEA2319F4E7B7EE7FE7BFE991EFBFC1
:102E4000F991E991B991A9911895EA81E03061F47D
:102E5000E881F981E093270CF093280CE091370C7E
:102E6000E160E093370C61C0E13061F4E881F98101
:102E7000E093290CF0932A0CE091370CE260E09388
:102E8000370C53C0E23061F4E881F981E0932B0CF8
:102E9000F0932C0CE091370CE460E093370C45C0C4
:102EA000E33061F4E881F981E0932D0CF0932E0C6E
:102EB000E091370CE860E093370C37C0E43061F400
:102EC000E881F981E0932F0CF093300CE091370CFE
:102ED000E061E093370C29C0E53061F4E881F981C5
:102EE000E093310CF093320CE091370CE062E09308
:102EF000370C1BC0E63061F4E881F981E093330CB4
:102F0000F093340CE091370CE064E093370C0DC083
:102F1000E73059F4E881F981E093350CF093360CF1
:102F2000E091370CE068E093370CE7B7E17051F4BB
:102F3000F894E6B7E160E6BFEAE7E2BFE7B7E16031
:102F4000E7BF7894239608950A9306D5E07811F4A4
:102F5000B3D36CC0E0916100EF60E09361000DD5E8
:102F600021F0E830A0E0FA0731F4E0916200EF6070
:102F7000E09362000DC0E031A0E0FA0721F0E831F3
:102F8000A0E0FA0729F4E0916200E07FE09362009C
:102F9000E3D4E070F770EF2FF0E03196E093390C56
:102FA000E0E0E0933A0CD8D4E076F070309731F45A
:102FB00090989198E1E0E0933B0C04C0E032A0E0EF
:102FC000FA0719F4EFE0DED418C0E036A0E0FA0703
:102FD00031F490989198E1E0E0933B0C04C0E03428
:102FE000A0E0FA0719F4EAE0CDD407C0E0E0E093EE
:102FF0006A00EFEFEABFE0EFE9BFE8BFE091240C21
:10300000E17011F0E1E001C0E0E0E093260CE0E0C7
:10301000E093370CE093380C00E0083038F4A7E276
:10302000BCE0E02F67D178D10F5FF7CF0991089509
:10303000E091240CE07879F1E0913C0CE03011F063
:10304000E0E00895E091240CE07621F48098E0E03F
:10305000E03009F408C0E0913B0CE03011F099D465
:103060000895EFEF089578D4E076E03621F4809A61
:10307000E1E0E03009F408C0E0913B0CE03011F0F1
:1030800088D40895EFEF0895E091260CE03011F414
:10309000EFEF089502C0E0E0089508956ED421F0A6
:1030A000E830A0E0FA0731F4E0916200EE7FE093AF
:1030B00062000DC0E031A0E0FA0721F0E831A0E0A5
:1030C000FA0729F4E0916200E160E0936200E1E038
:1030D000E093380CE0E061D408954FD411F441D46A
:1030E00015C0E830A0E0FA0721F43BD4E1E055D464
:1030F0000DC0E031A0E0FA0721F428D4E1E04DD47E
:1031000005C0E831A0E0FA0709F420D408951A9325
:103110000A93A091370CE0E8EA2311F0EFEF4DC0DD
:10312000E0913D0CE03029F0D8DFE0E0E0933D0C89
:1031300044C0E0E0E093380CE0913A0CEF5FE0939C
:103140003A0CE150A0913A0CE091390CAE1750F4D2
:10315000E1E0E093260CE0933B0CE0933C0CBDDFF8
:10316000E0E02BC0E0E0E093260C13D4E0933C0CAD
:10317000E0E0E0933A0CE091240CE47021F0E0915F
:10318000250CE87F09F417C0E7D3E070F87F0E94B0
:10319000DB1CEF2FF0E08F01A4E1A09FF001A19FC5
:1031A000F00D8F01E7E0EA931A930A934EDEEFEFFA
:1031B000E0933D0C02C091DFE0E009911991089580
:1031C0001A930A93EA81AAE0EA9FF0010895ED5E5E
:1031D000FA4FE081EA93EC81EA93E1E0EA93AD8172
:1031E000EAE0EA9FF001ABE1B5E0AE0FBF1FEC9162
:1031F000EA9308950E94D80EAA81EAE0EA9FF001BE
:103200000895ABE1B5E0AE0FBF1FEC910895EA81E0
:10321000F0E0E15EF34F08950E940111015010406B
:103220000895AA81B0E0A15EB34FEFEFEC930024C4
:10323000001601060895E558F94FE081EA930895D4
:10324000A3E8B6E0AE0FBF1FEC910895EC81F0E06B
:10325000E15EF34F0895B0E0A15EB34F0895E0E062
:10326000E093C006E093BF060895EAE0E09FF00116
:10327000A4E1B5E0AE0FBF1FEC910895EAE0E09F36
:10328000F001A4E1B5E0AE0FBF1F0895A091C00604
:10329000EAE0EA9FF0010895BF01EAE0E09FF00153
:1032A0000895A8E1B5E0AE0FBF1FEC91DB01EC93F0
:1032B0000895BF01AAE00A9FF001ED5EFA4FE08198
:1032C000DB01EC930895EFEFEC93AAE00A9FF00185
:1032D000ED5EFA4FDF01E9E7EC930895A091BF0698
:1032E000EAE0EA9FF0010895EA93E02FE150EA93C3
:1032F0000C94F802F0E0EE0FFF1FAE0FBF1F089511
:10330000E02FF0E0AE0FBF1F0895B0E0AC5FBA4F02
:103310000895A8E0B5E0EECFE0E0F0E0ED93FC9397
:103320000895AAE00A9FF001ED5EFA4FDF010895CB
:10333000EFEFEC93EAE0E09FF0010895ACE1B5E037
:10334000AE0FBF1FE0E0EC930895AAE00A9FF001E2
:10335000E558F94FDF01E0E8EC93EAE0E09FF00187
:10336000ACE7B6E0AE0FBF1FE3CFA4E8B6E0AE0F08
:10337000BF1FE0E0EC930895EAE0E09FF001A5E1D3
:10338000B5E0AE0FBF1FEFEFFFEFED93FC93089595
:10339000AE0FBF1FE0E0EC930895E770A1E00E943C
:1033A000D31CA0911005EA2BE0931005EAE0E09F02
:1033B000F0010895A0E10E94D31CA0911005EA2B12
:1033C000E09310050895EAE0E09FF001ACE7B6E075
:1033D000AE0FBF1FEC910895A9ECB6E0E981F0E0D3
:1033E000AE0FBF1FAC910895EF70AE2FE981EA17C1
:1033F0000895AAE00A9FF001ED5EFA4FE081EA939A
:103400000895E1E4EA93E1E0EA93E3E0F5E0FA937A
:10341000EA93EAE0E09FF0010895E3E4EA93E1E053
:10342000EA93E2E0F5E0FA93EA93EAE0E09FF00144
:103430000895AAE00A9FF001FECEA1ECB6E0E98172
:10344000F0E00895EFEFEA93A1ECB6E0EA81F0E056
:10345000AE0FBF1FE3EAF6E00E94FC1CEA1BFB0B69
:10346000EA93E1E0EA93A1ECB6E0EC81F0E0EA0F48
:10347000FB1FFA93EA93E4E0EA930C94170FFA9394
:10348000EA930C94C60EE981F0E0AE0FBF1F0895D9
:10349000ABEBB6E0F8CFE981F0E07ACFA5ECB6E08F
:1034A000F2CFA5ECB6E0F7CFE981F0E00895F0E0C7
:1034B000EA0FFB1F0895FA93EA93E4E0EA930C9471
:1034C000170FE1E4EA93E1E0EA93E2E0F5E0FA9332
:1034D000EA93EAE0E09FF0010895AE0FBF1FE1E03C
:1034E000EC930895EDECF6E0AA81BB810895E770B6
:1034F000AE2FEA81FB81B0E0EA17FB070895EAE00E
:10350000E09FF001ABE1B5E0AE0FBF1F0895E12FE2
:10351000F0E00895EAE0E09FF001A5E1B5E0AE0F2C
:10352000BF1F0E94F81C0895ED91FD913197FE9305
:10353000EE930895AAE00A9FF001E558F94FE08163
:103540000895E4E6F0E09BCFAAE00A9FF001ED5E6B
:10355000FA4FE08108951C90E881A1E00E94D31CFD
:103560000895E0E0EA930C94EF07FA93EA930C9441
:103570002306EA93E1E0EA93E3E0EA930E9427035B
:10358000E0300895FA93EA930C940A0CE4EFF1E02A
:1035900076CFFA93EA93E3E0EA930C94400FE0E0ED
:1035A000E0936207E0936307E0936407E0936507A5
:1035B0000895E0916207F09163076091640770914C
:1035C00065070895E6E0EA930C949B0BE1E0EA932B
:1035D0000C940808E2E0EA930C940808E093DB06F8
:1035E0005A92E0E0EA93E1E0EA93EBEDF6E0D1CF26
:1035F0005A92E0E0BECFE0E0EA930C940808E8EECF
:10360000F3E03DCFFA93EA93EAE1EA930895ECE21E
:10361000F1E035CF0A921A92FA926A937A938A93DA
:103620009A93AA93BA93EA93FA93EFB7EA931A9309
:103630000A93089509911991E991EFBFF991E991E0
:10364000B991A9919991899179916991F99019907C
:1036500009900895E150F0E00895E0916D08EF5F62
:10366000E0936D08F7CFE052F94FA881A083089549
:103670000A921A92FA926A937A938A939A93AA93E5
:10368000BA93EA93FA93EFB7EA930A9308950991EC
:10369000E991EFBFF991E991B991A9919991899136
:1036A00079916991F990199009900895AC81BD8143
:1036B000ED91AC83BD830895E0E0E0936A00EFEF05
:1036C000EABFE0EFE9BFE8BF08950A93A981EBE8FC
:1036D000EA9FF001A0E6B9E00895A981EBE8EA9F2E
:1036E000F0010895EF59F64FAC81A083F6CFA2E622
:1036F000B9E0AE0FBF1FE2E5EC93EFCFA4E6B9E06F
:10370000AE0FBF1FE02F0F5FF0E0AE0FBF1FEB81CA
:10371000EF5FEB83E150EC930895E981EA930C9419
:10372000DA0FAE0FBF1FEFEFEC93D7CFA3E6B9E0F0
:10373000AE0FBF1F0895A2E6B9E0AE0FBF1FE7E5C9
:10374000EC93CBCFED59F64FBF01EC81A2E0EA9F9D
:10375000F001DB01EC9300E00895A4E6B9E0AE0FC0
:10376000BF1FE02F0F5F0895F0E0AE0FBF1FED8188
:10377000EF5FED83E150EC93B0CF0F01AA81BB81E5
:10378000ED91AA83BB83D001EC930895AB81EBE864
:10379000EA9FF0010895FA93EA93E6E0EA93089528
:1037A000EB81EA930C94FF0DFA93EA93E1E0EA933C
:1037B000F7CFA881EBE8EA9FF0010895E881ABE834
:1037C000EA9FF001E25AF64FE6CFEC59F64FFA9332
:1037D000EA93AA81EBE8EA9FF001A8CF1A930A9333
:1037E000AB81BC811496AC91A7350895AB81BC81A7
:1037F0001596EC910E170895E02FEA5FAB81BC811E
:10380000F0E0AE0FBF1F1C9102CDE12FAD81BE8154
:103810004ECE0F01E02FE95FAB81BC81F0E0AE0F2F
:10382000BF1FEC91D001EC930895F0E0AE0FBF1FE5
:10383000EC910895AA81BB811496AC910895AA8158
:10384000BB811596EC910E170895E02FEA5FAA81CF
:10385000BB81EBCF0F01E02FE95FAA81BB81E5CFF0
:10386000E0938E0BEFEFE0938C0BE0E0E0938D0B99
:1038700010E00895A0E9BBE0E12F19CE0F01E5CFDC
:10388000D001EC931F5F0895AC81BD81CECF109322
:103890008F0BE4E0EA930C94DA0F2A931A93E6E094
:1038A000EA930C94A50FE12FF22F3696FA93EA9340
:1038B000E12FF22FE581EA930C94A50FAE0FEFEF05
:1038C000EA23AE2FE12FF22FE689EA170895E12FC0
:1038D000F22FE381EF3F0895FA93EA932A931A9324
:1038E0000895E12FF22FE2818E2F0895AAE00A9F1A
:1038F000F001ED5EFA4FF0CFAAE00A9FF001E55823
:10390000F94FEACFE12FF22FE381E03008952A93B7
:103910001A93E4E0EA930C94BC0FA091E908B091EB
:10392000EA080895A091E108B091E2080895A091F5
:10393000E308B091E4080895A091E508B091E60885
:103940000895A091E708B091E8080895E091620019
:10395000E260E09362000895E091240CF091250C60
:103960000895E0916200ED7FE09362000895EA27F8
:10397000E0936200E091370C0895EEDFE871F0709B
:1039800030970895E0936A00EFEFEABFE3EFE9BFF5
:103990000895E0E0E0933B0C0895EA93EEE1F0E057
:1039A000FA93EA9352CAEE230E2EEA2F19F0EE0F85
:1039B0000A94E9F70895F695E795F695E795F69553
:1039C000E79508950024112490E1AA0FBB1F001C65
:1039D000111C0E1A1F0A18F40E0E1F1E01C0A16042
:1039E0009A9599F7FD01D0010895ECDFFD01089546
:1039F000ED91FC91119708951B2EBF2FF12D1A2EDA
:103A0000AE2FE12D08953097604070400895002456
:103A10000A160B0608955A934A933A932A931A93D7
:103A20000A9308955D814C813B812A811981088127
:103A30000895AC0FBD1F05900D928A95E1F708958A
:00000001FF
