:020000000C945E
:1000020076010C948F140C94CC140C9400000C9474
:1000120000000C94C80B0C94E10B0C94FA0B0C949A
:10002200130C0C9400000C9400000C9400000C942F
:1000320000000C9400000C94A8010C9400000C9495
:10004200D8140C9400000C94BC0A0C9400000C947C
:10005200C50A0C9400000C9400000C9400000C944F
:1000620000000C9400000C9400000C9400000C940E
:1000720000000C9400000C94DF0A0C9400000C9415
:10008200F70A0C9400000C9400000001FFFFFFFF30
:10009200FFFFFFFFFFFFFFFFFFFFFFFFFFFFFFFF6E
:1000A200FFFFFFFFFFFFFFFFFFFFFFFFFFFFFFFF5E
:1000B200FFFFFFFFFFFFFFFFFF020304050607FF2D
:1000C200FFFFFFFFFFFFFFFFFFFFFFFFFFFFFFFF3E
:1000D200FFFFFFFFFFFFFFFFFFFF0100FE006800C1
:1000E200FE006800FE006800FE006800FE00680076
:1000F200FFFFFFFFFF0073797374656D203A000DF7
:100102000A006E6F64652000766962722000706F6B
:1001120072745F6E6F64652000706F72745F746FCB
:1001220075742000706F72745F7761697420006863
:1001320061736E6F6465203A20000D0A72656C650A
:10014200617365206E6F646520302028696E646576
:1001520078206E6F74206164647229000D0A676FE3
:10016200206F6E206E6F646520302028696E646592
:1001720078206E6F74206164647229000D0A6469CC
:100182007361626C65206E6F646520302028696E31
:10019200646578206E6F74206164647229000D0AB0
:1001A200656E61626C65206E6F646520302028691F
:1001B2006E646578206E6F74206164647229000D2C
:1001C2007175657279206E6F64657320646F6E65F8
:1001D200000D7374617274206D616368696E650DE0
:1001E2000A000D7265706F7274206E6F6465203242
:1001F200342830783138290D0A000D676F6F6E2070
:1002020067726F757020300D0A000D73656172633D
:10021200682067726F757020300D0A004C3A6C6965
:10022200737420616C6C20746865207265676973F1
:100232007465720D0A004D3A64697361626C6520DF
:100242006E6F64650D0A4E3A656E61626C65206E72
:100252006F64650D0A513A7175657279206E6F642B
:1002620065730D0A473A676F206F6E0D0A503A7236
:1002720065706F7274206E6F64652032340D0A4FA0
:100282003A676F6F6E2067726F757020300D0A4883
:100292003A7365617263682067726F75703000002F
:1002A20001000205DC000100C808DE000100C908E7
:1002B200E0000100DF08E2000100E008E4000100C4
:1002C200F608E6000100F708E80001000D09EA005F
:1002D20001000E09EC0001002409EE0001002509CD
:1002E200F00005004009F2000000F894EE27ECBB94
:1002F200F1E0F5BFE5BFE0936C00F8E1F1BDE1BDCF
:100302008DE0A2E0BB27ED938A95E9F780E090E1CA
:10031200A0E0B1E0ED930197E9F7E2EAF2E085911E
:100322009591009761F0A591B59105901590BF0147
:10033200F00105900D920197E1F7FB01F0CFEFEF8D
:10034200EDBFE0E1EEBFC0E0D5E00C946E08189579
:10035200F894A895E1B5E861E1BDE8E0E1BD7894E3
:1003620008950E9460160E946916ABE1B5E00E94F2
:100372007816ABE1B5E00E94851600E014E00E9419
:100382008A16AB81A0830E948A16E081EF3F21F09A
:1003920000240016010609F405C00E94B30F0150A3
:1003A2001040F1CF0E948F1610F4E1E001C0E0E0AE
:1003B2002DC00E9460160E949916EC810E949E1622
:1003C200AD810E94A216A3E8B6E00E947816A3E8C7
:1003D200B6E00E9485160E948A16AB81A08300E0D7
:1003E20014E00E948A16E081EF3F21F000240016FB
:1003F200010609F405C00E94B30F01501040F1CF6D
:100402000E948F1610F4E1E001C0E0E0198108813A
:10041200249608951A930A930E94A816AB81A0838A
:10042200EA810E94AD160E946916ABE1B5E00E9416
:10043200B3160E948A0D00E014E00E94A816E08123
:10044200AE2FEB81EA1721F400240016010609F40D
:1004520005C00E94B30F01501040EFCFAC810E9443
:10046200B81600240016010610F4E1E001C0E0E035
:1004720019810881259608950A93E0E0E093C00669
:10048200E093BF0600E0043210F00C943C03A02F6E
:100492000E94A216A4E1B5E00E94BE16E03F09F454
:1004A200E8C0A02F0E94A216A4E1B5E00E94C316E4
:1004B200EF3049F4A02F0E94A216A4E1B5E0AE0FDE
:1004C200BF1FE0E1EC93A02F0E94A216A4E1B5E0C9
:1004D2000E94BE1611F00C94CC02A091C0060E949C
:1004E200A216A0E8B6E0EA0FFB1FFF93EF93A02F3E
:1004F2000E94A216A8E1B5E0AE0FBF1FEC91AF912A
:10050200BF91EC93E091C0060E94AD16E558F94FF9
:10051200FF93EF93E02F0E94AD16ED5EFA4FE0815C
:10052200AF91BF91EC93A091C0060E94A216ACE7D6
:10053200B6E0EA0FFB1FFF93EF93A02F0E94A216D3
:10054200A4E1B5E0AE0FBF1FEC91AF91BF91EC9368
:10055200A091C0060E94A216A3E8B6E0EA0FFB1F14
:10056200FF93EF93A02F0E94A216ABE1B5E0AE0F6E
:10057200BF1FEC91AF91BF910E94C816A4E1B5E0F4
:100582000E94CB160E94D116E091C006EF5FE09365
:10059200C006E1506EC0A02F0E94A216A4E1B5E0F1
:1005A2000E94BE16E03111F00C943A03E091BF06AE
:1005B200E01711F40C943403A091BF060E94A21616
:1005C200A8E1B5E0EA0FFB1FFF93EF93A02F0E9473
:1005D200A216A8E1B5E0AE0FBF1FEC91AF91BF919B
:1005E200EC93E091BF060E94AD16ED5EFA4FFF93C9
:1005F200EF93E02F0E94AD16ED5EFA4FE081AF91CE
:10060200BF91EC93A091BF060E94A216A4E1B5E0AF
:10061200EA0FFB1FFF93EF93A02F0E94A216A4E103
:10062200B5E0AE0FBF1FEC91AF91BF91EC93A091DB
:10063200BF060E94A216ABE1B5E0EA0FFB1FFF93D3
:10064200EF93A02F0E94A216ABE1B5E0AE0FBF1F41
:10065200EC91AF91BF910E94C816A4E1B5E00E944F
:10066200CB160E94D116E091BF06EF5FE093BF0662
:10067200E1500F5F08CF23C10A9301E0E4E2E017E3
:10068200F8F00E94D716A4E1B5E00E94BE16E03F42
:10069200A9F40E94D716ABE1B5E0EA0FFB1FA981CE
:1006A200A083E9810E949E160E94DA16E13031F49D
:1006B200E981EA93E2E3EA930E94DA160F5FDECF62
:1006C2000881229608950A9300E0043018F5E02F7D
:1006D200A3EAB6E00E94DF16E8ECF0E0ED93FC93AB
:1006E200ABEAB6E0E02F0E94DF16E4E1F0E0ED9322
:1006F200FC93A3EBB6E0E02F0E94DF16E4E1F0E00A
:10070200ED93FC93A1ECB6E00E94E516E0E0EC93D9
:100712000F5FDBCF00E0E3E0E01730F1A02F0E9493
:10072200EA16E02FA8E0B5E00E94DF16E0E0F0E074
:10073200ED93FC93ABEBB6E00E94E516EDEFEC9384
:10074200A5ECB6E00E94E516EDEFEC93A9ECB6E05D
:100752000E94E516EDEFEC93ADECB6E00E94E516D3
:10076200EDEFEC930F5FD7CF00E00432C0F4E0E08E
:10077200E093C006E093BF06E02F0E94AD16ED5E47
:10078200FA4FDF01E9E70E94C816A4E1B5E00E9432
:10079200F016ACE1B5E00E94F4160F5FE6CF00E080
:1007A200043078F4E02F0E94AD160E94F916ACE7EF
:1007B200B6E00E94F016A4E8B6E00E94F4160F5FBD
:1007C200EFCF7DC00A93E4E0E093C006E4E2E09359
:1007D200BF0600E0043210F5A02F0E94A216A5E188
:1007E200B5E00E94FE16A02F0E94A216A7E1B5E076
:1007F2000E94F416E02F0E94AD16ED5EFA4FDF0163
:10080200E02FEF5F0E94C816A4E1B5E00E94F01647
:10081200ACE1B5E00E94F4160F5FDCCF00E00430DB
:1008220078F4E02F0E94AD160E94F916ACE7B6E00C
:100832000E94F016A4E8B6E00E94F4160F5FEFCF14
:10084200E0E0EA9319DFE1E0EA9316DFE2E0EA93FF
:1008520013DFE3E0EA9310DF0FDE00E00432B0F4CE
:10086200A02F0E94A216A4E1B5E00E94BE16E03FAE
:1008720059F0A02F0E94A216A4E1B5E00E9405172C
:10088200ABE1B5E00E9413170F5FE8CF00E0043040
:10089200B0F4A02F0E94A216ACE7B6E00E94BE16EA
:1008A200E03F59F0A02F0E94A216ACE7B6E00E94EA
:1008B2000517A3E8B6E00E9413170F5FE8CF09916E
:1008C20008950A930E94B30FA9ECB6E00E941F1785
:1008D200A03061F0A9ECB6E00E941F17AE3F31F0E4
:1008E200A9ECB6E00E941F17AD3F09F47BC000E0FF
:1008F200E091BF060E1760F5A02F0E94A216A4E198
:10090200B5E00E94C3160E94251781F4E02F0E94D1
:10091200AD160E942917E1E40E949E160E942E172E
:10092200ABE1B5E00E94B3160E94F30DE02F0E94E6
:10093200AD160E942917E3E40E949E160E94341706
:10094200ABE1B5E00E94B3160E94F30D0F5FD0CF6A
:1009520000E0E091C0060E1760F5A02F0E94A216DB
:10096200ACE7B6E00E94C3160E94251781F4E02F7F
:100972000E94AD160E949916E1E40E949E160E9402
:100982002E17A3E8B6E00E94B3160E94F30DE02FE3
:100992000E94AD160E949916E3E40E949E160E94E0
:1009A2003417A3E8B6E00E94B3160E94F30D0F5F5E
:1009B200D0CFA1ECB6E00E943A17EFEFEA93A1EC98
:1009C200B6E00E943D17A1ECB6E00E944817E0E9AC
:1009D200F1E0FA93EA930E944F0DA9ECB6E00E946F
:1009E20052170DC3ABEBB6E00E941F17A03061F0A7
:1009F200ABEBB6E00E941F17AE3F31F0ABEBB6E0B7
:100A02000E941F17AD3F09F423C000E0E091BF062A
:100A12000E17A8F4A02F0E94A216A4E1B5E00E942E
:100A2200C3160E94251749F4A02F0E94A216A5E121
:100A3200B5E00E94FE160E94B30F0F5FE7CFABEB4B
:100A4200B6E00E945217ADECB6E00E943A17D7C248
:100A5200A5ECB6E00E941F17A03061F0A5ECB6E04D
:100A62000E941F17AE3F31F0A5ECB6E00E941F179F
:100A7200AD3F09F4E6C0A5ECB6E00E941F17A63010
:100A820091F4ABEAB6E0E9810E94DF160E94AA194E
:100A9200E0934509F09346090E949E15A5ECB6E045
:100AA2000E943A17ACC2A5ECB6E00E941F17A5300F
:100AB20099F4A5ECB6E0E981F0E0EA0FFB1FFF93A1
:100AC200EF930E940116E03011F4EDEF01C0E0E077
:100AD200AF91BF91EC9393C2A5ECB6E00E941F17B1
:100AE200A730C1F40E940F16E0914509E07821F089
:100AF2000E940116E03009F406C0A5ECB6E00E949F
:100B02005917ECEF05C0A5ECB6E00E945917E0E0DA
:100B1200EC9375C2A5ECB6E00E941F17A83039F419
:100B22000E942E16A5ECB6E00E943A1768C2A5EC08
:100B3200B6E00E941F17A23039F4C5DD43DEA5ECF2
:100B4200B6E00E943A175BC2A5ECB6E00E941F17FE
:100B5200A33081F48AD6A5ECB6E00E943A17EFEFF3
:100B6200EA93A5ECB6E00E943D17A5ECB6E00E9420
:100B7200481745C2A5ECB6E00E941F17A43011F435
:100B8200E7DBFFCFA5ECB6E00E941F17A13011F002
:100B92000C94220600E0E091BF060E17E0F4A02FAD
:100BA2000E94A216A4E1B5E00E94C3160E94251776
:100BB20081F4E02F0E94AD160E942917E1E40E9401
:100BC2009E160E943417ABE1B5E00E94B3160E9454
:100BD200F30D0F5FE0CF00E0E091C0060E17E0F4E6
:100BE200A02F0E94A216ACE7B6E00E94C3160E9494
:100BF200251781F4E02F0E94AD160E949916E1E4B8
:100C02000E949E160E943417A3E8B6E00E94B31613
:100C12000E94F30D0F5FE0CFA1ECB6E00E945917DE
:100C2200E1E0EC93EFEFEA93A1ECB6E00E943D170E
:100C3200A1ECB6E00E944817A5ECB6E00E9452175C
:100C4200DEC1DDC10E945E17EDECF6E0AA81BB8138
:100C5200AE0FBF1FEC91E03011F5E0911105F0915C
:100C62001205E170E13009F479C100E0E091BF06BC
:100C72000E1788F4A02F0E94A216A4E1B5E00E94EC
:100C8200621739F4A02F0E94A216A5E1B5E00E94D6
:100C9200FE160F5FEBCFEDECF6E00E946D17EDEC68
:100CA200F6E00E947417A13030F0EDECF6E00E94FD
:100CB2007417AD3F08F052C100E0E091BF060E1775
:100CC20010F00C94C406A02F0E94A216A4E1B5E075
:100CD2000E94BE16E03109F054C0A02F0E94A21655
:100CE200A4E1B5E00E94621709F04BC0A02F0E9458
:100CF200A216ABE1B5E0AE0FBF1F1C91E12F0E941F
:100D02007A1709F02BC1A02F0E94A216A5E1B5E027
:100D1200AE0FBF1F0E94AA19EF3FAFEFFA0789F586
:100D2200A12FB0E0AC5FBA4F0C93A12FB0E0A05C52
:100D3200B64FE2E3EC93E12FA8E0B5E00E94DF16A4
:100D4200E2E1F5E0ED93FC93E02F0E94AD160E94E4
:100D520029170E9480171A93DCD6EDECF6E0AA81DF
:100D6200BB81EA0FFB1FFF93EF93E02F0E94AD16AA
:100D7200ED5EFA4FE081AF91BF91EC930E94B30F09
:100D8200EDC00F5F9ACF10E000E0E091BF060E17B2
:100D920010F00C941407A02F0E94A216A4E1B5E053
:100DA2000E946217F1F5A02F0E94A216A5E1B5E0FC
:100DB200AE0FBF1F0E94AA19E13FAFEFFA0739F148
:100DC200A02F0E94A216A5E1B5E0AE0FBF1F0E94A0
:100DD200AA19EE3FAFEFFA07D1F0A02F0E94A21698
:100DE200A5E1B5E0AE0FBF1F0E94AA19ED3FAFEF1C
:100DF200FA0769F0A02F0E94A216A5E1B5E0AE0F96
:100E0200BF1F0E94AA19EB3FAFEFFA0749F4A02FC8
:100E12000E94A216A5E1B5E00E94FE16116001C073
:100E220010610F5FB2CF1130D1F5A0910005B091E2
:100E320001051196A0930005B09301051197E3E017
:100E4200F0E0EA17FB0780F4E0E0E0930005E093AE
:100E52000105E894C49B6894A8B3A4F9A8BB1091B7
:100E620000E5109100E611E000E0E091BF060E17E8
:100E720088F4A02F0E94A216A4E1B5E00E94621796
:100E820039F4A02F0E94A216A5E1B5E00E94FE1639
:100E92000F5FEBCFEDECF6E00E946D175FC01131F2
:100EA200D9F400E0E091BF060E1788F4A02F0E944B
:100EB200A216A4E1B5E00E94621739F4A02F0E94A5
:100EC200A216A5E1B5E00E94FE160F5FEBCFEDEC96
:100ED200F6E00E946D1742C000E0E091BF060E17D7
:100EE200A8F5A02F0E94A216A4E1B5E00E94621705
:100EF20059F5A0911105B0911205EAE0F0E00E94C7
:100F0200A719309779F4E02F0E94AD160E94291795
:100F1200EFE2EA93E6E0EA93A02F0E94A216A5E18F
:100F2200B5E00CC0E02F0E94AD160E9429170E9466
:100F32008017A02F0E94A216A5E1B5E0EA0FFB1FC1
:100F42000E9485170E94B30F0F5FC7CFEDECF6E04A
:100F5200AA81BB81AE0FBF1FEDEFEC93198108810F
:100F6200249608950A93E981F0E0EC5FFA4F00813C
:100F72000F3F09F444C0A02F0E94A216ABE1B5E0D6
:100F8200AE0FBF1FAC91E981EA1709F038C0E981C1
:100F92000E947A17A9F40E948B170E94AA1930970F
:100FA20009F42DC0A02F0E94A216ACE1B5E00E9468
:100FB200F4160E948B17E0E0F0E0ED93FC931CC066
:100FC2000E948B170E94AA19309741F00E948B173A
:100FD2000E94AA193197ED93FC9311C0A02F0E9491
:100FE200A216A5E1B5E0AE0FBF1FE1EFFFEFED9353
:100FF200FC93A9810E94B816A9810E94EA16088171
:10100200229608950E945E17A091D106AF3FA1F4E7
:1010120000E00F3268F4EFEFEA930A93E1E0EA931B
:10102200E02FF0E0ED55F94F0E9485170F5FF1CFE9
:10103200EDEFE093D1064EC000E0E091C0060E173E
:10104200F0F4E02F0E94AD16E558F94FE081AE2F83
:10105200E091D106EA1789F410E0103550F41A93A2
:101062000A93A7D9E03009F07DD70E948F171F5F3E
:10107200F4CFEDEFE093D1062DC00F5FDECF00E09D
:10108200E091BF060E17D8F4E02F0E94AD16ED5E78
:10109200FA4FE081AE2FE091D106EA1771F410E029
:1010A200103550F41A930A935CD9E03009F05AD7FC
:1010B2000E948F171F5FF4CF02C00F5FE1CFE09154
:1010C200BF060E1720F0EEEFE093D10603C0EDEF5E
:1010D200E093D10609911991089500E010E0EFEF35
:1010E200E093D106F0DAE8EDF7E0E0934B08F093F5
:1010F2004C08EFEEF7E0E0934D08F0934E08E6E07F
:10110200F8E0E0934F08F0935008EDE1F8E0E09347
:101112005108F0935208E4E3F8E0E0935308F093A7
:10112200540851D46FD4AFD4B4D408D3A3D49DD32C
:101132007894C79AC69AC59AC49A979A9698E0E202
:10114200F3E0FA93EA93AAD43DDBEDEFE093D10604
:10115200E2ECF0E0E0934509F09346090E949E1507
:10116200E0911205E07829F0E0E0E0931105E093C8
:101172001205E0911105F09112053196E0931105E7
:10118200F0931205A091D106A03041F0A091D106B2
:10119200AE3F21F0A091D106AD3F09F401C032DF8C
:1011A200E0911005E17041F0E0E0F0E0FA93EA939B
:1011B20049DDE0E0EA9385DBE0911005E07119F08A
:1011C200E0E0EA93CFDEE0911005E27041F0E1E069
:1011D200F0E0FA93EA9336DDE1E0EA9372DBE09124
:1011E2001005E07219F0E1E0EA93BCDEE09110052F
:1011F200E47041F0E2E0F0E0FA93EA9323DDE2E00A
:10120200EA935FDBE0911005E07419F0E2E0EA9303
:10121200A9DEE0911005E87041F0E3E0F0E0FA9316
:10122200EA9310DDE3E0EA934CDBE0911005E0780D
:1012320019F0E3E0EA9396DE95D6E02FF12F31968E
:101242000E2F1F2FDF01E0EDF7E0EA17FB0710F486
:1012520000E010E085CFFFCF0A93A981AC3411F0F2
:101262000C94CE09E8EFF0E0FA93EA9347D2E3EA6E
:10127200F6E0FA93EA93EFE2EA9351D2E1E0F1E089
:101282000E94951700E00432D8F4A02F0E94A21603
:10129200A4E1B5E00E94BE16E03F81F0E4E0F1E097
:1012A2000E949F17EFEFF0E00E94A617ED5EFA4F43
:1012B2000E94AC17E1E0F1E00E9495170F5FE3CFC7
:1012C20000E00430D8F4A02F0E94A216ACE7B6E0EA
:1012D2000E94BE16E03F81F0EAE0F1E00E949F1713
:1012E200EFEFF0E00E94A617E558F94F0E94AC1705
:1012F200E1E0F1E00E9495170F5FE3CF00E00430D8
:1013020010F00C94C009E0E1F1E00E949F17EFEFAA
:10131200F0E00E94B217F0E0EC5FFA4F0E94B817BB
:10132200E1E0F1E00E949517EBE1F1E00E949F17E6
:10133200EFEFF0E00E94B217A8E0B5E0F0E0EE0FA8
:10134200FF1FEA0FFB1FFA93EA93E2E0EA93E7D169
:10135200E1E0F1E00E949517E6E2F1E00E949F17BA
:10136200EFEFF0E00E94B217F0E0E05CF64F0E946F
:10137200B817E1E0F1E00E9495170F5FC0CFE1E3FB
:10138200F1E0FA93EA93BAD1E0E1F5E00E94B817EE
:10139200E1E0F1E00E94951793C0A981A23581F4A2
:1013A200ECE3F1E00E94BE17E3E40E949E16E2E045
:1013B200F5E0FA93EA93E0911B05EA9313D480C017
:1013C200A981A73481F4EEE5F1E00E94BE17E4E4BE
:1013D2000E949E16E2E0F5E0FA93EA93E0911B0583
:1013E200EA9300D46DC0A981AD3481F4EEE7F1E057
:1013F2000E94BE17E1E40E949E16E3E0F5E0FA9334
:10140200EA93E0911B05EA93EDD35AC0A981AE3469
:1014120081F4E0EAF1E00E94BE17E1E40E949E1628
:10142200E2E0F5E0FA93EA93E0911B05EA93DAD35E
:1014320047C0A981A13541F446D9C4D9E1ECF1E014
:10144200FA93EA935BD13CC0A981A33579F4E3ED29
:10145200F1E0FA93EA9352D1E0E1E093C506E0931A
:10146200C606E093C706E093C8062AC0A981A03544
:1014720049F4E4EEF1E0FA93EA9340D1E8E1E09333
:10148200D1061EC0A981AF3439F4ECEFF1E00E941D
:10149200C617E093BB0614C0A981A83439F4ECE066
:1014A200F2E00E94C617E093CD060AC0EEE1F2E038
:1014B200FA93EA9323D1E8E3F2E0FA93EA931ED196
:1014C200088122960895442049F40E94CC176E2E7A
:1014D200EFEFE61511F0E1E04E2E0DC00E94CC17A1
:1014E2005E2EEFEFE51531F00E94D0179AD00E94E0
:1014F200D01725D744243DC0A881A73418F0EAE5C7
:10150200EA1708F404C0E881EA93A6DE32C0A88193
:10151200A13618F0EAE7EA1708F401C02AC00E94CF
:10152200CC17EF3F09F425C0E881EA93CCDF21C054
:10153200A881A03318F0E9E3EA1708F403C0E881B0
:10154200E05317C0A881A13618F0E6E6EA1708F4BE
:1015520004C0E881E156E65F0CC0A881A13418F00E
:10156200E6E4EA1708F404C0E881E154E65F01C04A
:10157200EFEF219608950E94D6170BB11CB11A9372
:1015820050D01A93B9DF2DC00E94E617E09154079C
:10159200E03089F0E150E0935407E0915307EF5FA8
:1015A200E09353070E94EB17E081ECB9E0915307F7
:1015B200EF77E09353070E94F01718950E94D61711
:1015C20000919B0010919C00E894C69B6894A8B37C
:1015D200A6F9A8BBA0913F09A83009F402C01A934A
:1015E200AED6099119910E94F51718950E94E61737
:1015F200E091D707E03091F0E150E093D707E09116
:10160200D607EF5FE093D6070E940318E081E093CC
:101612009C00E091D607EF77E093D6070E94F0177F
:101622001895A0915407A038E1F3F894E09154077B
:10163200E03011F45D9914C0E0915207EF5FE0933E
:1016420052070E94EB17A881A083E0915207EF771F
:10165200E0935207E0915407EF5FE093540702C012
:10166200E881ECB9789421960895A091D707A03823
:10167200E1F3F894E091D707E03021F4E0919B0088
:10168200E072A1F4E091D507EF5FE093D5070E94E5
:101692000318A881A083E091D507EF77E093D507DF
:1016A200E091D707EF5FE093D70703C0E881E093AB
:1016B2009C0078943CC31A930A93EA81E07FE295F6
:1016C200EF700E2FEA81EF701E2FE9E0E01718F09D
:1016D200E02FE05D03C0E02FEF5BEA50EA93A1DF69
:1016E200E9E0E11718F0E12FE05D03C0E12FEF5BC5
:1016F200EA50EA9396DF19810881DAC2E881F9811A
:10170200E491E03051F0E881F9813196E883F98380
:101712003197E491EA9385DFF1CF22960895A8816B
:10172200A150A8830E94081840F4A981BA81ED91C2
:10173200A983BA83EA93BFDFF2CFBAC2E0E0EBB982
:10174200E8EDEAB9E6E0E0939500E0E0E09390008E
:10175200E7E0E9B9E0E0E0939B00E8EDE0939A006E
:10176200E6E0E0939D00E0E0E0939800E7E0E0939C
:101772009900E0E0E0935207E0935307E0935407A7
:10178200E093D507E093D607E093D70708950E9428
:101792000C18E0910072EF70EC3019F4009100E047
:1017A2000CC0E43051F400910070A0913B09A830C4
:1017B20009F450C00A9359D64DC0009100754AC031
:1017C2000E940C18E09100B2EF70EC3019F4009115
:1017D20000E00CC0E43051F4009100B0A0913C094B
:1017E200A83009F437C00A93D6D634C0009100B5A8
:1017F20031C00E940C18E09100D2EF70EC3019F465
:10180200009100E00CC0E43051F4009100D0A091AE
:101812003D09A83009F41EC00A9353D71BC000919A
:1018220000D518C00E940C18E09100E2EF70EC3075
:1018320019F4009100E00CC0E43051F4009100E092
:10184200A0913E09A83009F405C00A93D0D702C07E
:10185200009100E509910E94F5171895C09A0E941F
:101862001B18C0980E941B180895F8DFE0E8E09367
:101872000073E4E0E0930070E0E0E0930071EBE1DC
:10188200E0930073E7E0E0930072E8E0E093007415
:10189200E1E0E0930071E0E8E09300B3E4E0E0937C
:1018A20000B0E0E0E09300B1EBE1E09300B3E7E0E9
:1018B200E09300B2E8E0E09300B4E1E0E09300B12D
:1018C200E0E8E09300D3E4E0E09300D0E0E0E093CE
:1018D20000D1EBE1E09300D3E7E0E09300D2E8E04F
:1018E200E09300D4E1E0E09300D1E0E8E09300E38C
:1018F200E4E0E09300E0E0E0E09300E1EBE1E0937C
:1019020000E3E7E0E09300E2E8E0E09300E4E1E0F6
:10191200E09300E108950A93EA81EF700E2FE981C6
:10192200E03079F4E0910075E072E1F3A02F01500C
:10193200E0E0EA1728F40E942118E0930070F6CF45
:1019420041C0E13079F4E09100B5E072E1F3A02FFB
:101952000150E0E0EA1728F40E942118E09300B059
:10196200F6CF30C0E23079F4E09100D5E072E1F3D5
:10197200A02F0150E0E0EA1728F40E942118E0931A
:1019820000D0F6CF1FC0E33079F4E09100E5E072B9
:10199200E1F3A02F0150E0E0EA1728F40E94211899
:1019A200E09300E0F6CF0EC0E43051F4A02F0150D6
:1019B200E0E0EA1728F40E942118EA9356DEF6CFF7
:1019C200E0EFE5BBD6C0E0E0EBBBEABBE1E0E8BBA1
:1019D200E1EFE7BBE0EFE5BBEFEFE4BBE0E0E2BB4A
:1019E200E0EFE1BBE0E0E3B9E4E0E2B9E0E0E0939C
:1019F2006200E0936100EFEFE0936500EFE1E093B6
:101A020064000895E0E0E0BFE7E0E3BFE0E0E2BFAA
:101A1200E1BFEFBDE5E0EEBDE0E0EDBDECBDE7BD51
:101A2200E6BDEBBDEABDE9BDE8BDE0937900E09318
:101A32007800E5BDE4BDE3BDE0938B00E0938A004E
:101A4200E0938900E0938800E0938100E0938000B6
:101A5200E0938700E0938600E0938500E0938400A2
:101A6200E0938300E0938200E5E0E7BFE0E0E093EB
:101A72007D000895E0ECE5BFEEE4E0936D00E0E860
:101A8200E0936C0008950E9427180E942D18E8BF69
:101A92000895E0E8E8B9E0E0E0BD08950A93A9817D
:101AA200BA811197A983BA8311960E94B51938F4A5
:101AB20004E6A02F0150E0E0EA17D8F3F0CF088146
:101AC200F7C00E943018AAECB8E00E94F4160E94F7
:101AD2003818ABECB8E00E943F18ACECB8E00E94BA
:101AE2004418ADECB8E0EA0FFB1FAA81A08300E026
:101AF200EA810E1758F40E943818AEECB8E0AE0F27
:101B0200BF1FE02F0F5F0E944918F2CF0E945218A8
:101B120030C00E943018AAECB8E00E945618ABEC14
:101B2200B8E00E943F18ACECB8E00E944418ADEC5B
:101B3200B8E0AE0FBF1FEA81EF5FEC9300E0EA81ED
:101B42000E1758F40E943818AEECB8E0AE0FBF1F63
:101B5200E02F0F5F0E944918F2CF0E943818AEECB6
:101B6200B8E0AE0FBF1F0E94E516E2E3EC930E94BD
:101B720052180881259608950E943018AAECB8E000
:101B82000E945B18ABECB8E00E94F4160E94381871
:101B9200ACECB8E00E946018ADECB8E00E946518A9
:101BA20000E00E946B18D8F40E943818AEECB8E03E
:101BB200AE0FBF1FE02F0F5F0E946F18AEECB8E0B0
:101BC200AE0FBF1FE02F0F5FF0E0EA0FFB1FFF9386
:101BD200EF930E947818AF91BF91EC93E2CF0E94ED
:101BE200521833C00E943018AAECB8E00E9456186E
:101BF200ABECB8E00E945B18ACECB8E00E94601855
:101C0200ADECB8E00E94651800E00E946B18D8F4B1
:101C12000E943818AEECB8E0AE0FBF1FE02F0F5F86
:101C22000E946F18AEECB8E0AE0FBF1FE02F0F5F3F
:101C3200F0E0EA0FFB1FFF93EF930E947818AF9139
:101C4200BF91EC93E2CF0E94521808812796089523
:101C52000A9300E0A981A150A9830E94081820F4E8
:101C62000E9478180E0FF6CFE02FE095EF5F0E2F4F
:101C7200E02F088124960895E981FA810E947E1856
:101C82000E948318A981BA8115960E94871858F478
:101C9200E981FA813696FA93EA93EB81FC81A58178
:101CA200AA930E948318E981FA8176960E948B1882
:101CB200239608950E949018AEEDB8E0EA0FFB1F3C
:101CC200FF93EF930E949718C3DFEF930E9490183F
:101CD200AEECB8E00E94A018ADECB8E00E94B316DA
:101CE200B7DFAF91EA0FAF91BF91EC930E949718C3
:101CF2000E9483180E949018ADECB8E0AE0FBF1F8F
:101D02000E94871860F40E949018AEECB8E00E941E
:101D1200A018ADECB8E00E94B3160E9483180E948E
:101D22009018AEEDB8E0EA0FFB1F0E948B182196C7
:101D320008951A930A930E94AB18A735F1F400E0B4
:101D42000E94B018C8F40E94B618E081E11719F495
:101D5200AA810E94B816103568F40E94BF181F3F6E
:101D620049F00E94C718FF93EF930E94CE18AF91DB
:101D7200BF91EC930E5FE4CF30C00E94AB18A83540
:101D820061F500E00E94B01840F50E94B618E081AB
:101D9200E11711F4AA81EBD71035E8F40E94BF18BD
:101DA2001F3FC9F00E94C718FF93EF930E94CE18FD
:101DB200AF91BF91EC93AD81BE8111960E94D7186D
:101DC200FF93EF93E02FE85FAB81BC810E94DC18A8
:101DD200AF91BF91EC930D5FD5CF19810881279602
:101DE20008951A930A930E94E118A73591F400E02E
:101DF2000E94E61868F40E94EC180E94F118FF9302
:101E0200EF930E94F718AF91BF91EC930E5FF0CF62
:101E1200A5C00E94E118A83529F500E00E94E61845
:101E220000F50E94EC180E94F118FF93EF930E94B4
:101E3200F718AF91BF91EC930E94EC18AC81BD8171
:101E42001196F0E0EA0FFB1FFF93EF93E02FE85F9C
:101E5200AA81BB810E94DC18AF91BF91EC930D5F08
:101E6200DDCF7CC00E94E118A23589F500E0E7E5EC
:101E7200E0932809EFEFE0932609E0E0E0932709D9
:101E820010E00E94E618F0F4AAE2B9E00E94D71826
:101E9200FF93EF930E94EC18AF91BF91EC931F5FF9
:101EA200AAE2B9E00E94D718FF93EF930E94EC18C0
:101EB200AC81BD810E94DC18AF91BF91EC931F5F92
:101EC2000F5FDFCF109329090E94FC1847C00E94C0
:101ED200E118A33511F00C94AF0F00E0E8E5E093B0
:101EE2002809EFEFE0932609E0E0E093270910E0EC
:101EF2000E94E61878F5AAE2B9E00E94D718FF938B
:101F0200EF930E94EC18AF91BF91EC931F5FAAE28E
:101F1200B9E00E94D718FF93EF930E94EC18AC81AE
:101F2200BD810E94DC18AF91BF91EC931F5FAAE2C2
:101F3200B9E00E94D718FF93EF930E94EC18EF5F6D
:101F4200AC81BD810E94DC18AF91BF91EC931F5F01
:101F52000F5FCECF109329090E94FC1819810881C6
:101F6200269608950E94B919A0913F09A83011F050
:101F72000C941B101091530820915408E4E3F8E0EC
:101F8200E117F20719F4E1EBF8E002C0E4E3F8E04C
:101F9200E0935308F0935408E0E0E0933F090E9475
:101FA2000019EF930E940619AF910E94111911F0C6
:101FB2000C941A100E941A1941F4E3EAF6E0FA931B
:101FC200EA932A931A930DDFB6C100E0E091BF06AF
:101FD2000E17A8F4E12FF22FE381EF93E02FBCD686
:101FE200ED5EFA4FE081AF91EA1739F40E941F19B2
:101FF200ABE1B5E0B7D640DE9EC10F5FE7CF00E0B0
:10200200E091C0060E17A8F4E12FF22FE381EF93BF
:10201200E02FA2D6E558F94FE081AF91EA1739F4E3
:102022000E941F19A3E8B6E09DD626DE84C10F5F89
:10203200E7CF81C1A0913B09A83011F00C947E102A
:1020420010914B0820914C08E8EDF7E0E117F207F8
:1020520019F4E5E5F8E002C0E8EDF7E0E0934B089B
:10206200F0934C08E0E0E0933B090E940019EF93E3
:102072000E940619AF910E941119F1F50E941A19D6
:10208200A9F500E0E091BF060E17A8F4E12FF22FA8
:10209200E281EF93E02F60D6ED5EFA4FE081AF91DF
:1020A200EA1739F4E02F58D60E9423190E942A1900
:1020B20042C10F5FE7CF00E0E091C0060E17A8F41F
:1020C200E12FF22FE281EF93E02F46D6E558F94F48
:1020D200E081AF91EA1739F4E02F3ED60E942E1923
:1020E2000E942A1928C10F5FE7CF25C10E94351926
:1020F20019F40E943A191FC11EC1A0913C09A830CF
:1021020011F00C94E11010914D0820914E08EFEE61
:10211200F7E0E117F20719F4ECE6F8E002C0EFEE9F
:10212200F7E0E0934D08F0934E08E0E0E0933C09BD
:102132000E940019EF930E940619AF910E94111993
:10214200F1F50E941A19A9F500E0E091BF060E17F9
:10215200A8F4E12FF22FE281EF93E02FFDD5ED5E9F
:10216200FA4FE081AF91EA1739F4E02FF5D50E94DA
:1021720023190E944019DFC00F5FE7CF00E0E09112
:10218200C0060E17A8F4E12FF22FE281EF93E02FA1
:10219200E3D5E558F94FE081AF91EA1739F4E02F22
:1021A200DBD50E942E190E944019C5C00F5FE7CFF0
:1021B200C2C00E94351919F40E943A19BCC0BBC0B2
:1021C200A0913D09A83011F00C94441110914F08D0
:1021D20020915008E6E0F8E0E117F20719F4E3E88D
:1021E200F8E002C0E6E0F8E0E0934F08F093500810
:1021F200E0E0E0933D090E940019EF930E94061966
:10220200AF910E941119F1F50E941A19A9F500E087
:10221200E091BF060E17A8F4E12FF22FE281EF93AF
:10222200E02F9AD5ED5EFA4FE081AF91EA1739F4CB
:10223200E02F92D50E9423190E9444197CC00F5F9F
:10224200E7CF00E0E091C0060E17A8F4E12FF22FCD
:10225200E281EF93E02F80D5E558F94FE081AF910D
:10226200EA1739F4E02F78D50E942E190E944419FA
:1022720062C00F5FE7CF5FC00E94351919F40E9458
:102282003A1959C058C0A0913E09A83011F00C94D7
:102292009C111091510820915208EDE1F8E0E117EC
:1022A200F20719F4EAE9F8E002C0EDE1F8E0E093A0
:1022B2005108F0935208E0E0E0933E09A0D7EF9373
:1022C200A4D7AF91ADD7B9F5B4D791F500E0E091BD
:1022D200BF060E17A0F4E12FF22FE281EF93E02F59
:1022E2003BD5ED5EFA4FE081AF91EA1731F4E02F72
:1022F20033D5A8D70E9448191EC00F5FE8CF00E06F
:10230200E091C0060E1798F4E12FF22FE281EF93CD
:10231200E02F22D5E558F94FE081AF91EA1729F471
:10232200E02F1AD59AD7B3D706C00F5FE9CF03C003
:102332009BD709F49ED70E94BD1923960895A091B8
:102342003F09A730A1F4E881A0915308B091540845
:102352005696EC93A0915308B09154089CD7A09143
:102362005308B09154089BD7E0933F09D5C2A0917E
:102372003F09A63099F4EB2DEA5FA0915308B09182
:10238200540891D7B394E0915308F0915408E58131
:10239200BE1618F0E7E0E0933F09BEC2A0913F09E4
:1023A200A53071F486D758F0E881A0915308B09116
:1023B20054081596EC93BB24E6E0E0933F09ACC2C7
:1023C200A0913F09A43059F4E881A0915308B0913B
:1023D20054081496EC93E5E0E0933F099DC2A09166
:1023E2003F09A33059F4E881A0915308B0915408F1
:1023F2001396EC93E4E0E0933F098EC2A0913F096B
:10240200A23059F4E881A0915308B0915408129671
:10241200EC93E3E0E0933F097FC2A0913F09A13032
:1024220019F4A881A83609F004C0E2E0E0933F095C
:1024320073C2A0913F09A13019F4A881AE3F09F0FF
:1024420004C0E1E0E0933F0967C2A0913F09A030D8
:1024520019F4A881AE3F09F004C0E1E0E0933F091E
:102462005BC2E0E0E0933F0957C2A0913B09A7306D
:10247200A1F4E881A0914B08B0914C085696EC93D8
:10248200A0914B08B0914C0806D7A0914B08B0918F
:102492004C0805D7E0933B093FC2A0913B09A63007
:1024A20099F4E72DEA5FA0914B08B0914C08FBD656
:1024B2007394E0914B08F0914C08E5817E1618F078
:1024C200E7E0E0933B0928C2A0913B09A53071F4F3
:1024D200F0D658F0E881A0914B08B0914C081596BF
:1024E200EC937724E6E0E0933B0916C2A0913B0906
:1024F200A43059F4E881A0914B08B0914C0814968D
:10250200EC93E5E0E0933B0907C2A0913B09A330BD
:1025120059F4E881A0914B08B0914C081396EC93C2
:10252200E4E0E0933B09F8C1A0913B09A23059F4E1
:10253200E881A0914B08B0914C081296EC93E3E02D
:10254200E0933B09E9C1A0913B09A13019F4A881AC
:10255200A83609F004C0E2E0E0933B09DDC1A09196
:102562003B09A13019F4A881AE3F09F004C0E1E0B3
:10257200E0933B09D1C1A0913B09A03019F4A88195
:10258200AE3F09F004C0E1E0E0933B09C5C1E0E0E1
:10259200E0933B09C1C1A0913C09A730A1F4E881B5
:1025A200A0914D08B0914E085696EC93A0914D081B
:1025B200B0914E0870D6A0914D08B0914E086FD6DA
:1025C200E0933C09A9C1A0913C09A63099F4E82DF9
:1025D200EA5FA0914D08B0914E0865D68394E091D0
:1025E2004D08F0914E08E5818E1618F0E7E0E09371
:1025F2003C0992C1A0913C09A53071F45AD658F019
:10260200E881A0914D08B0914E081596EC9388246C
:10261200E6E0E0933C0980C1A0913C09A43059F462
:10262200E881A0914D08B0914E081496EC93E5E034
:10263200E0933C0971C1A0913C09A33059F4E881AF
:10264200A0914D08B0914E081396EC93E4E0E0930C
:102652003C0962C1A0913C09A23059F4E881A091E1
:102662004D08B0914E081296EC93E3E0E0933C09DA
:1026720053C1A0913C09A13019F4A881A83609F0F0
:1026820004C0E2E0E0933C0947C1A0913C09A130BB
:1026920019F4A881AE3F09F004C0E1E0E0933C09DF
:1026A2003BC1A0913C09A03019F4A881AE3F09F0CA
:1026B20004C0E1E0E0933C092FC1E0E0E0933C0973
:1026C2002BC1A0913D09A730A1F4E881A0914F0848
:1026D200B09150085696EC93A0914F08B0915008D3
:1026E200DAD5A0914F08B0915008D9D5E0933D09B1
:1026F20013C1A0913D09A63099F4E92DEA5FA0919A
:102702004F08B0915008CFD59394E0914F08F091C3
:102712005008E5819E1618F0E7E0E0933D09FCC001
:10272200A0913D09A53071F4C4D558F0E881A0917B
:102732004F08B09150081596EC939924E6E0E09387
:102742003D09EAC0A0913D09A43059F4E881A09165
:102752004F08B09150081496EC93E5E0E0933D09E0
:10276200DBC0A0913D09A33059F4E881A0914F0844
:10277200B09150081396EC93E4E0E0933D09CCC08D
:10278200A0913D09A23059F4E881A0914F08B0917F
:1027920050081296EC93E3E0E0933D09BDC0A0918E
:1027A2003D09A13019F4A881A83609F004C0E2E07D
:1027B200E0933D09B1C0A0913D09A13019F4A8816F
:1027C200AE3F09F004C0E1E0E0933D09A5C0A0914D
:1027D2003D09A03019F4A881AE3F09F004C0E1E040
:1027E200E0933D0999C0E0E0E0933D0995C0A091D6
:1027F2003E09A730A1F4E881A0915108B091520896
:102802005696EC93A0915108B091520844D5A091EC
:102812005108B091520843D5E0933E097DC0A09182
:102822003E09A63099F4EA2DEA5FA0915108B091D1
:10283200520839D5A394E0915108F0915208E581EC
:10284200AE1618F0E7E0E0933E0966C0A0913E099B
:10285200A53071F42ED558F0E881A0915108B091BD
:1028620052081596EC93AA24E6E0E0933E0954C080
:10287200A0913E09A43059F4E881A0915108B09189
:1028820052081496EC93E5E0E0933E0945C0A0910E
:102892003E09A33059F4E881A0915108B091520841
:1028A2001396EC93E4E0E0933E0936C0A0913E0912
:1028B200A23059F4E881A0915108B09152081296C1
:1028C200EC93E3E0E0933E0927C0A0913E09A130DA
:1028D20019F4A881A83609F004C0E2E0E0933E09A9
:1028E2001BC0A0913E09A13019F4A881AE3F09F0A6
:1028F20004C0E1E0E0933E090FC0A0913E09A03080
:1029020019F4A881AE3F09F004C0E1E0E0933E096A
:1029120003C0E0E0E0933E0921960895AA93EA936A
:10292200FA93EFB7EA93E8B7E160E8BFE0914509AF
:10293200E27041F0E0914709E03019F4E1E0E09300
:10294200470909C0E0915109E03011F4E0E001C00B
:10295200E1E0E0934709B1D411F4B7D40DC0E830F7
:10296200A0E0FA0749F0E031A0E0FA0729F0E831E7
:10297200A0E0FA0709F4AFD4E0E0E0935309E89449
:10298200C79B6894A8B3A7F9A8BBE991EFBFF991D7
:10299200E991A9911895FA92EA93EFB7EA93E7B70A
:1029A200ED7FE7BFE991EFBFE991F9901895FA92AF
:1029B200AA93EA93EFB7EA9394D4E0914809E030FE
:1029C20039F0E0914809E150E0934809EF5F10C007
:1029D200A0915009E1E0EA2359F0E0916200A1E000
:1029E200EA27E0936200E0915009EE7FE0935009FC
:1029F200E0914909E03031F0E0914909E150E0937A
:102A0200490910C0A0915009E2E0EA2359F0E0918F
:102A12006200A2E0EA27E0936200E0915009ED7FB4
:102A2200E0935009E0914A09E03031F0E0914A091F
:102A3200E150E0934A0910C0A0915009E4E0EA2372
:102A420059F0E0916200A4E0EA27E0936200E0918D
:102A52005009EB7FE0935009A0915009EFEFEA2370
:102A620019F4E7B7EE7FE7BFE991EFBFE991A991CA
:102A7200F9901895E981E03049F4E881E09348093A
:102A8200E0915009E160E09350094CC0E13049F413
:102A9200E881E0934909E0915009E260E09350092E
:102AA20041C0E23049F4E881E0934A09E0915009DB
:102AB200E460E093500936C0E33049F4E881E093E2
:102AC2004B09E0915009E860E09350092BC0E430D3
:102AD20049F4E881E0934C09E0915009E061E09308
:102AE200500920C0E53049F4E881E0934D09E091B6
:102AF2005009E062E093500915C0E63049F4E881DC
:102B0200E0934E09E0915009E064E09350090AC055
:102B1200E73041F4E881E0934F09E0915009E06821
:102B2200E0935009E7B7E17031F4F894DAD3E7B7EC
:102B3200E160E7BF7894229608950A93E0916100DC
:102B4200EF60E0936100B9D321F0E830A0E0FA072A
:102B520031F4E0916200EF60E09362000DC0E03179
:102B6200A0E0FA0721F0E831A0E0FA0729F4E091A9
:102B72006200E07FE0936200E0914509F09146092E
:102B8200E070F770EF2FF0E03196E0935209E0E049
:102B9200E0935309E0914509F0914609E076F0701F
:102BA200309719F453D2A3D310C0E032A0E0FA0751
:102BB20019F4EFE09FD309C0E034A0E0FA0719F45A
:102BC200EAE098D302C042D247D2E8BFE091450979
:102BD200E17011F0E0E001C0E1E0E0934709E0E0DC
:102BE200E0935009E093510900E0083038F4A8E47A
:102BF200B9E0EAD0E0E0EC930F5FF7CF09910895D6
:102C0200E0914509E07821F0E0914709E03009F0D0
:102C120002C0EFEF0895E0E0089508954ED321F049
:102C2200E830A0E0FA0731F4E0916200EE7FE09331
:102C320062000DC0E031A0E0FA0721F0E831A0E027
:102C4200FA0729F4E0916200E160E0936200E1E0BA
:102C5200E0935109E0E053D30895E0E0E093510995
:102C6200E0915309EF5FE0935309E150A0915309BA
:102C7200E0915209AE1720F4E1E0E093470905C064
:102C8200E0E0E0934709E093530917D311F423D30B
:102C920015C0E830A0E0FA0721F41DD3E1E02FD3FC
:102CA2000DC0E031A0E0FA0721F40FD3E1E027D311
:102CB20005C0E831A0E0FA0709F407D308951A9392
:102CC2000A93EA81F0E0AAE0B0E00E948C1908952C
:102CD200ED5EFA4FE081EA93EC81EA93E1E0EA9358
:102CE200AD81BB27EAE0F0E00E948C190895AE0F97
:102CF200BF1FEC91EA930E94620DAA81BB27EAE012
:102D0200F0E00E948C190895AE0FBF1FEC91EA8388
:102D12000895EA81F0E0E05CF64F0895AA81B0E000
:102D2200A05CB64FEFEFEC93002400160106089565
:102D3200E558F94FE081EA930895EA93E1E0EA93D6
:102D42000895BB27EAE0F0E00E948C190895EC8117
:102D5200F0E0E05CF64F0895F0E0AAE0B0E00E94F7
:102D62008C190895AE0FBF1FEC91EA930895B0E05D
:102D7200A05CB64FEFEFEC930895AE0FBF1FEC913E
:102D8200E07F0895AE0FBF1FEC91EF700895EC93B2
:102D9200A02FD7CFAE0FBF1FEFEFEC93E02FDCCF0A
:102DA200ED5EFA4FDF01E9E7EC930895E02FE15081
:102DB200D3CFE02FE150EA930C940B02F0E0EE0F38
:102DC200FF1FAE0FBF1F0895E02FF0E0AE0FBF1F31
:102DD2000895B0E0AC5FBA4FEFEFEC930895AE0FF9
:102DE200BF1FEFEFD4CFAE0FBF1FE0E0EC9308950B
:102DF200E558F94FDF01E0E8CACFAE0FBF1FEFEF92
:102E0200FFEFED93FC930895AE0FBF1FEC91E770B7
:102E1200A1E00E948419A0911005EA2BE09310050D
:102E2200A02F8FCFAE0FBF1FEC91A0E10E9484199B
:102E3200A0911005EA2BE09310050895E981F0E0D6
:102E4200AE0FBF1FAC910895AE2FE981EA17089526
:102E5200ED5EFA4FE081EA930895E3E0F5E0FA933C
:102E6200EA93A02F6ECFE2E0F5E0FA93EA93A02F67
:102E720068CFE981F0E0B7CFEA81F0E0AE0FBF1F83
:102E8200E3EAF6E00E94AE19EA1BFB0B56CFEC8197
:102E9200F0E0EA0FFB1FFA93EA93E4E0EA930C9462
:102EA200BD0DE981F0E0AE0FBF1FEDEFEC93089589
:102EB200E981F0E0AE0FBF1F08951A930A930C94B4
:102EC200B30FAE0FBF1FEC91E770AE2FEA81FB810B
:102ED200B0E0EA17FB070895AA81BB81AE0FBF1FBE
:102EE200E1E0EC930895AA81BB81AE0FBF1FAC91C4
:102EF2000895F0E0E05CF64FE081EF3F0895EFE2E5
:102F0200EA93E4E0EA930895FA93EA93E4E0EA9319
:102F12000C94BD0DE981A8E0B5E050CFE4E6F0E005
:102F2200FA93EA930C944F0DFA93EA930E947F0B63
:102F3200E8E8F3E1FA93EA930C944F0DFA93EA93DB
:102F42000E947F0B0A930C945C0BFA93EA930E9403
:102F52007F0BE02F01CFFA93EA93EAE0EA930C9415
:102F6200900BFA93EA930E947F0BE02F0895FA9355
:102F7200EA93E1E0EA930C94900BFA93EA930E94AD
:102F82007F0BE0911305EA930895FA93EA930E9466
:102F92007F0BE1E00895E881EA930C94990AE62D0B
:102FA200E295E07FE529EA9308950A921A92FA924D
:102FB2006A937A938A939A93AA93BA93EA93FA9327
:102FC200EFB7EA931A930A930895EA93FA93EFB745
:102FD200EA930895E150F0E0EE52F94F0895E99135
:102FE200EFBFF991E9910895E991EFBFF991E99164
:102FF200B991A9919991899179916991F9901990D1
:1030020009900895E150F0E0EB5AF84F0895AF5F50
:10301200E0E0EA1708950A921A92FA926A937A9372
:103022008A939A93AA93BA93EA93FA93EFB7EA939D
:103032000A930895E4EFF1E0FA93EA930C944F0DAA
:10304200AB81BC81ED91AB83BC830895E0E0E0935A
:103052006A00EFEFEABF0895E0EFE9BF08950A932F
:10306200A981BB27E7E1F0E00E948C190895A981AC
:10307200BB27E7E1F0E00E948C190895EA0FFB1FDD
:10308200AC81A083F4CFAE0FBF1FE2E5EC93EFCF8C
:10309200F0E0AE0FBF1FEB81EF5FEB83E150EC93EB
:1030A2000895E981EA930C945B0EAE0FBF1FEFEF18
:1030B200EC93DDCFEA0FFB1FAE81A083D8CFAE0F1A
:1030C200BF1FE7E5EC93D3CFAE0FBF1FEC81EE0F2E
:1030D200EC930895EC81EE0F0E170895F0E0AE0F19
:1030E200BF1FED81EF5FED83E150EC93C0CFAA816A
:1030F200BB81ED91AA83BB830895FA93EA93E6E03C
:10310200EA930895EB81EA930C948C0CAC91E0E085
:10311200EA170895FA93EA93E1E0EA93F3CFA881DC
:10312200BB27E7E1F0E00E948C190895E881F0E006
:10313200A7E1B0E00E948C19E853F74FDECFEA0F07
:10314200FB1FFA93EA93AA81BB27E7E1F0E00E9412
:103152008C190895AB81BC811496AC910895AB8112
:10316200BC811596EC910E170895E02FEA5FAB81B2
:10317200BC81F0E0AE0FBF1F1C91CBCDACE8B0E03C
:10318200E12FF0E0EA0FFB1F14910895E12FAD81CA
:10319200BE81F0E0EA0FFB1F0895E02FE95FAB81EB
:1031A200BC81F0E0AE0FBF1FEC910895E12FF0E07B
:1031B200EA0FFB1F0895F0E0AE0FBF1FEC910895D8
:1031C200AA81BB811496AC910895AA81BB81159600
:1031D200EC910E170895E02FEA5FAA81BB81EBCF35
:1031E200AC81BD81F0E0EA0FFB1F0895E02FE95F9B
:1031F200AA81BB81E0CFE4E0EA930C945B0E2A93B0
:103202001A93E6E0EA930C94290EE12FF22F3696F8
:10321200FA93EA93E12FF22FE581EA930C94290EB7
:10322200AE0FEFEFEA23AE2FE12FF22FE689EA1776
:103232000895E12FF22FE381EF3F08952A931A9325
:10324200A02F7FCDED5EFA4FFA93EA932A931A9359
:103252000895E0E0EA930C949A0EE558F94FFA9338
:10326200EA932A931A930895E12FF22FE381E03033
:1032720008952A931A93E4E0EA930C943D0EE1E058
:10328200EA930C949A0EE2E0EA930C949A0EE3E02D
:10329200EA930C949A0E1196E8E6EC930895EEEFF9
:1032A200EC93E8E00895F0E0EA0FFB1FA881A08309
:1032B2000895A881E0E1EA170895E0914509F091A7
:1032C2004609E871F07030970895E0916200E2607B
:1032D200E09362000895E0916200ED7FE093620066
:1032E2000895E6B7E160E6BFEAE7E2BF0895E3EFDB
:1032F200E9BF0895E0936A00EFEFEABFF8CFEA93DF
:10330200EEE1EA93B7CBEE230E2EEA2F19F0EE0F81
:103312000A94E9F70895FA9FF02DEB9FF00DEA9FCA
:10332200E02DF10D08950024112490E1AA0FBB1F96
:10333200001C111C0E1A1F0A18F40E0E1F1E01C0CB
:10334200A1609A9599F7FD01D0010895ECDFFD0186
:103352000895ED91FC91119708951B2EBF2FF12D29
:103362001A2EAE2FE12D089500240A160B06089599
:103372002A931A930A9308952A811981088108953C
:00000001FF
