:040000000C942D022D
:100004000C9440150C947F150C9400000C94000083
:100014000C944F0C0C946E0C0C948D0C0C94AC0C36
:100024000C9400000C9400000C9400000C9400004C
:100034000C9400000C945F020C9400000C9489153D
:100044000C9400000C94670A0C9400000C94740A3D
:100054000C9400000C9400000C9400000C9400001C
:100064000C9400000C9400000C9400000C9400000C
:100074000C9400000C94940A0C9400000C94A80AAC
:100084000C9400000C9400000001FFFFFFFFFFFF31
:10009400FFFFFFFFFFFFFFFFFFFFFFFFFFFFFFFF6C
:1000A400FFFFFFFFFFFFFFFFFFFFFFFFFFFFFFFF5C
:1000B400FFFFFFFFFFFFFF020304050607FFFFFF2B
:1000C400FFFFFFFFFFFFFFFFFFFFFFFFFFFFFFFF3C
:1000D400FFFFFFFFFFFFFFFF0100FE006800FE00BF
:1000E4006800FE006800FE006800FE006800FFFF74
:1000F400FFFFFF004E6F20726573706F6E73652093
:1001040066726F6D204E6F64652E2051756572792D
:1001140020616761696E2E200D0A004E6F646520B0
:10012400776173206E6F7420666F756E642E205035
:100134006C6561736520636865636B2077686574BB
:10014400686572206E6F6465206578697374732EB8
:100154000D0A004170706C69636174696F6E206987
:10016400732072756E6E696E672E0D0A0053656E8C
:1001740064696E6720636F6D6D616E6420746F20B7
:10018400707574206E6F646520696E20626F6F7481
:100194006C6F616465722E2E2E200D0A005265610B
:1001A400647920746F2075706772616465206E6F66
:1001B400646520626F617264206669726D77617232
:1001C400652E200D0A004170706C69636174696F5B
:1001D4006E206669726D7761726520686173206252
:1001E40065656E20696E76616C6964617465642E00
:1001F40020596F75204D55535420434F4D504C4555
:100204005445206669726D776172652075706772F6
:100214006164652E0D0A004E6F64652073656C651C
:1002240063746564206973204E6F2E2000506C65E2
:1002340061736520646F776E6C6F6164202A2E424F
:10024400494E2066696C65207573696E6720786D08
:100254006F64656D2070726F746F636F6C2E200D08
:100264000A000D0A4669726D7761726520757067C0
:100274007261646520636F6D706C6574656420736E
:1002840075636365737366756C6C792E200D0A0053
:100294004661696C6564207768656E2070726F676B
:1002A40072616D696E67206669726D77617265202F
:1002B4007570677261646520737563636573732019
:1002C400666C61672E200D0A00547279696E67208E
:1002D400616761696E2E200D0A00556E6578706540
:1002E40063746564206572726F7220284E46555F90
:1002F400555047524144455F434D504C5429206F5B
:100304006363757265642E200D0A005175657279F8
:1003140020284E46555F555047524144455F434D52
:10032400504C54292074696D6573206F75742E20A8
:10033400207265747279696E67202E2E2E200D0A44
:10034400004E6F646520002069732072756E6E69BB
:100354006E67206170706C69636174696F6E202EC2
:100364002E2E200D0A00596F75206D6179206E6F55
:10037400772075706772616465206669726D776154
:100384007265206F6620616E6F74686572206E6F8F
:1003940064652E200D0A00436F6D6D616E642065E7
:1003A40078616D706C6520313A20434D44312031C1
:1003B40030202D2D2D202875706772616465206EA4
:1003C4006F64652031302028646563696D616C2930
:1003D400292E200D0A00436F6D6D616E64206578CF
:1003E400616D706C6520323A20434D4431203031C8
:1003F400202D2D2D202875706772616465206E6F25
:100404006465203120292E200D0A00000100020518
:10041400DC0001005D09DE0001005E09E00001006E
:10042400E809E2000100E909E4000100730AE600BA
:100434000100740AE8000100FE0AEA000100FF0A54
:10044400EC000100890BEE0001008A0BF0000500AE
:100454001E0CF2000000F894EE27ECBBF1E0F5BFAF
:10046400E5BFE0936C00F8E1F1BDE1BD8DE0A2E0F1
:10047400BB27ED938A95E9F780E090E1A0E0B1E035
:10048400ED930197E9F7E0E1F4E085919591009708
:1004940061F0A591B59105901590BF01F00105900B
:1004A4000D920197E1F7FB01F0CFEFEFEDBFE0E133
:1004B400EEBFC0E0D5E00C94B3071895F894A89566
:1004C400E1B5E861E1BDE8E0E1BD789408950E94FA
:1004D400B4170E94BB170E94CE170E94D517EA8357
:1004E40000E014E00E94DB17AB81A0830E94DB17BD
:1004F400E081EF3F21F000240016010609F403C057
:100504000E94E017F3CF0E94E41710F4E1E001C069
:10051400E0E02DC00E94B4170E94EE17EC81EA932C
:10052400E1E0EA93AD81EAE0EA9FF0010E94F3176B
:10053400EA930E94CE170E94F317EA830E94DB1706
:10054400AB81A08300E014E00E94DB17E081EF3F61
:1005540021F000240016010609F403C00E94E017EC
:10056400F3CF0E94E41710F4E1E001C0E0E0198148
:100574000881249608951A930A930E94F917AB816F
:10058400A083EA81AAE0EA9FF0010E94BB170E94BF
:10059400200E00E014E00E94F917E081AE2FEB81F9
:1005A400EA1721F400240016010609F403C00E948E
:1005B400E017F1CFAC810E94FE17EFEFEC9300241B
:1005C4000016010610F4E1E001C0E0E019810881A1
:1005D400259608951A930A930E94DB17AC81A08391
:1005E400ED81EA93ED81EA93ED81EA93ED81EA935B
:1005F4000E94200E00E014E00E94DB17E081AE2F81
:10060400EC81EA1721F400240016010609F405C060
:100614000E94E31101501040EFCF0E94E41710F440
:10062400E1E001C0E0E019810881269608950A936B
:100634000E94021800E0043210F00C949C030E9403
:100644000818E07FE03F09F473C00E940818EF70B7
:10065400EF3021F40E941118E0E1EC930E94081895
:10066400E07F79F50E941918E058F94F0E941F188D
:100674000E942418E091C006AAE0EA9FF001E55820
:10068400F94F0E942C180E941918E458F94FBF0121
:100694000E940818DB01EC930E941918ED57F94FDA
:1006A4000E941F180E94D517DB01EC930E941118B9
:1006B4000E943618E091C006EF5FE093C006E15057
:1006C40037C00E940818E07FE03191F5E091BF0641
:1006D400E01741F10E944118E85EFA4F0E941F188A
:1006E4000E942418E091BF06AAE0EA9FF001ED5EA3
:1006F400FA4F0E942C180E944118EC5EFA4FBF0179
:100704000E940818DB01EC930E944118E55EFA4F41
:100714000E941F180E94D517DB01EC930E94111848
:100724000E943618E091BF06EF5FE093BF06E150E8
:100734000F5F81CFECC00A9301E0053220F5E02F72
:10074400E150AAE0EA9FF001A4E1B5E0AE0FBF1FBB
:10075400EC91E07FE03FA9F4E02FE150AAE0EA9FAA
:10076400F001E55EFA4FA981A083E981EA93E1E013
:100774000E944718E13029F4E981EA93E2E30E94F8
:1007840047180F5FDACF88C30A9300E0043018F5E6
:10079400E02FA3EAB6E00E944D18E8ECF0E0ED93F8
:1007A400FC93ABEAB6E0E02F0E944D18E4E1F0E0E0
:1007B400ED93FC93A3EBB6E0E02F0E944D18E4E127
:1007C400F0E0ED93FC93A1ECB6E00E945318E0E056
:1007D400EC930F5FDBCF00E0043020F5A02F0E94E4
:1007E4005818EFEFEC93E02F0E945C180E945F18FA
:1007F400ABEBB6E00E945318EDEFEC93A5ECB6E03A
:100804000E945318EDEFEC93A9ECB6E00E94531844
:10081400EDEFEC93ADECB6E00E945318EDEFEC93E2
:100824000F5FDACF00E0043270F40E9402180E94D5
:100834006418E9E7EC930E9411180E946B180E9457
:1008440071180F5FF0CF00E0043030F40E94781884
:100854000E9488180F5FF8CF5AC00A93E4E0E0932F
:10086400C006E4E2E093BF0600E00432B0F40E9464
:100874008F18EAE0E09FF001A7E1B5E00E949B1821
:100884000E946418E02FEF5FEC930E9411180E94FD
:100894006B180E9471180F5FE8CF00E0043030F449
:1008A4000E9478180E9488180F5FF8CFE0E0EA935E
:1008B40042DFE1E0EA933FDFE2E0EA933CDFE3E09A
:1008C400EA9339DFB4DE00E0043278F40E940818B9
:1008D400E07FE03F41F00E9408180E94A0180E94A7
:1008E400D5170E94AD180F5FEFCF00E0043078F405
:1008F4000E94B618E07FE03F41F00E94B6180E94C3
:10090400A0180E94F3170E94AD180F5FEFCF099152
:1009140008950A930E942F100E94BF18A03041F03E
:100924000E94BF18AE3F21F00E94BF18AD3F09F4EA
:100934004DC000E0E091BF060E17C8F40E940818ED
:100944000E94C71849F40E94CC180E94D4180E942F
:10095400D517EA930E946E0E0E94CC180E94E018EC
:100964000E94D517EA930E946E0E0F5FE3CF00E05A
:10097400E091C0060E17C8F40E94B6180E94C7186A
:1009840049F40E94EC180E94D4180E94F317EA93C9
:100994000E946E0E0E94EC180E94E0180E94F31749
:1009A400EA930E946E0E0F5FE3CF0E94F0180E943C
:1009B4009B180E94F518E0E9F1E00E941219A9ECD5
:1009C400B6E00E941619EDEFEC9366C20E941B1963
:1009D400AC91A03051F00E941B19AC91AE3F29F0AC
:1009E4000E941B19AC91AD3F09F419C000E0E091DD
:1009F400BF060E1758F40E9408180E94C71821F465
:100A04000E948F180E942F100F5FF1CF0E941B19B4
:100A1400EDEFEC93ADECB6E00E941E193DC20E94CE
:100A24002119AC91A03051F00E942119AC91AE3F34
:100A340029F00E942119AC91AD3F09F4C5C00E9470
:100A44002119AC91A63069F4E091D306F091D40653
:100A5400E093230CF093240C0E9478160E9424192E
:100A64001BC20E942119AC91A53099F4A5ECB6E003
:100A74000E942719EA0FFB1FFF93EF930E94EC16C5
:100A8400E03011F4EDEF01C0E0E0AF91BF91EC93E1
:100A940003C20E942119AC91A730A1F40E9422172D
:100AA400E091230CE07821F00E94EC16E03009F488
:100AB40004C00E942119ECEF03C00E942119E0E058
:100AC400EC93EAC10E942119AC91A83011F0AA203C
:100AD40079F00E945B17E03039F00E942119ECEFA5
:100AE400EC93EFEFAE2E03C00E942419AA24D4C1C4
:100AF4000E942119AC91A23029F446DEAEDE0E9498
:100B04002419CAC10E942119AC91A330E1F449D738
:100B14000E942419EFEFEA93A5ECB6E0EA81F0E035
:100B2400AE0FBF1FE3EAF6E00E94B51BEA1BFB0B06
:100B3400EA93E1E0EA93A5ECB6E0EC810E942A197D
:100B44000E942E19A9C10E942119AC91A43011F45C
:100B5400B5DCFFCF0E942119AC91A130A9F500E0CA
:100B6400E091BF060E1780F40E9408180E94C7186F
:100B740049F40E94CC180E9434190E94D517EA93B4
:100B84000E946E0E0F5FECCF00E0E091C0060E17DE
:100B940080F40E94B6180E94C71849F40E94EC1809
:100BA4000E9434190E94F317EA930E946E0E0F5F9D
:100BB400ECCF0E94F0180E9440190E94F5180E9480
:100BC4002119EDEFEC9368C167C11A930A930E944F
:100BD4002F100E944519AE0FBF1FEC91E030D9F4DD
:100BE400E0911105F0911205E170F070319709F46C
:100BF40002C100E0E091BF060E1748F40E940818F5
:100C04000E944A1911F40E948F180F5FF3CF0E94BB
:100C140045190E9440190E944519AE0FBF1FAC919F
:100C2400A13038F00E944519AE0FBF1FAC91AD3F03
:100C340008F0E1C000E0E091BF060E1710F00C943C
:100C440062060E940818E07FE031C1F50E9408188E
:100C54000E944A1999F50E9452191C910E945A192E
:100C6400E25EF34FE081EF3F09F0C5C00E945D19D9
:100C7400EF3FAFEFFA0711F5A12F0E9458180C931C
:100C8400A12F0E94FE17E2E3EC93E12F0E945C186F
:100C9400E2E1F5E0ED93FC930E94CC18EFE2EA93D5
:100CA400E4E0EA931A930E94200E0E944519EA0F89
:100CB400FB1F0E942C180E942F109DC00F5FBBCFFA
:100CC40010E000E0E091BF060E17F0F40E9408184F
:100CD4000E944A19B9F40E945D19E13FAFEFFA0787
:100CE40061F0EE3FAFEFFA0741F0ED3FAFEFFA07E7
:100CF40021F0EB3FAFEFFA0721F40E948F18116047
:100D040001C010610F5FDECF113079F5A0910005AD
:100D1400B09101051196A0930005B09301051197B8
:100D2400149780F0E0E0E0930005E0930105E89477
:100D3400C49B6894A8B3A4F9A8BB109100E51091D2
:100D440000E611E000E0E091BF060E1748F40E94AF
:100D540008180E944A1911F40E948F180F5FF3CFEC
:100D64000E9445190E94401946C0113199F400E0CF
:100D7400E091BF060E1748F40E9408180E944A1911
:100D840011F40E948F180F5FF3CF0E9445190E943F
:100D9400401931C000E0E091BF060E1730F50E9403
:100DA40008180E944A19F9F4A0911105B09112058E
:100DB400EAE0F0E00E94AE1B309731F40E94CC18B8
:100DC400EFE2EA93E6E005C00E94CC18EFE2EA9372
:100DD400E4E0EA93EAE0E09FF001EB5EFA4F0E9460
:100DE4002E190E942F100F5FD6CF0E944519AE0F07
:100DF400BF1FEDEFEC9319810881249608950A939F
:100E04000E942719EC5FFA4F00810F3F09F444C098
:100E14000E945219AC91E981EA1709F03DC00E9481
:100E24002719E25EF34FE081EF3F99F4E9810E94D4
:100E34005C180E94B11B309709F42EC0EAE0E09FD1
:100E4400F0010E947118E9810E945C180E945F18E9
:100E54001EC0E9810E945C180E94B11B309739F0D2
:100E6400E9810E945C180E946719319615C0EAE076
:100E7400E09FF001A5E1B5E0AE0FBF1FE1EFFFEF8A
:100E8400ED93FC93A9810E94FE17EFEFEC93A981E7
:100E94000E945818EFEFEC930881229608951A9354
:100EA4000A930E942F10A091D106AF3F89F400E06D
:100EB400083368F4EFEFEA930A93E1E0EA93E02F52
:100EC400F0E0ED55F94F0E942E190F5FF1CF43C0AA
:100ED40000E0E091C0060E17D8F40E946D19AE2F01
:100EE400E091D106EA1791F410E0103558F41A9302
:100EF4000A9310DBE03011F00E942F100E94741945
:100F04001F5FF3CFEDEFE093D10628C00F5FE1CF71
:100F140000E0E091BF060E17C0F40E947719AE2FCF
:100F2400E091D106EA1779F410E0103558F41A93D9
:100F34000A93CDDAE03011F00E942F100E94741948
:100F44001F5FF3CF02C00F5FE4CFE091BF060E171F
:100F540010F0EEEF01C0EDEFE093D1060991199185
:100F6400089500E010E06624EFEFE093D1060CDC76
:100F7400EDE6F8E0E093E008F093E108E4E8F8E057
:100F8400E093E208F093E308EBE9F8E0E093E40887
:100F9400F093E508E2EBF8E0E093E608F093E70865
:100FA400E9ECF8E0E093E808F093E908B3D5D1D58B
:100FB40011D613D66CD305D6F4D47894C79AC69AAE
:100FC400C59AC49A979A9698E0E2F3E00E9412199F
:100FD40044DCEDEFE093D106E0E0E093230CE093F2
:100FE400240C0E947816662011F0A1D0FCCFE09169
:100FF4001205E07829F0E0E0E0931105E093120592
:10100400E0911105F09112053196E0931105F093EA
:101014001205A091D106A03041F0A091D106AE3FB7
:1010240021F0A091D106AD3F09F401C038DFE09171
:101034001005E17039F0E0E0F0E00E947E19E0E094
:10104400EA9367DCE0911005E07119F0E0E0EA93BF
:10105400D6DEE0911005E27039F0E1E0F0E00E94A4
:101064007E19E1E0EA9355DCE0911005E07219F095
:10107400E1E0EA93C4DEE0911005E47039F0E2E0C7
:10108400F0E00E947E19E2E0EA9343DCE09110056F
:10109400E07419F0E2E0EA93B2DEE0911005E87042
:1010A40039F0E3E0F0E00E947E19E3E0EA9331DCFA
:1010B400E0911005E07819F0E3E0EA93A0DE0E94E5
:1010C4002F10F80131968F01E13DA7E0FA0710F0E7
:1010D40000E010E088CFFFCF0E94C71B00E010E0C3
:1010E400AB81BC811197AB83BC831097DCF0AD81DD
:1010F400BE81ED91AD83BE83FE2FE0E00E271F2756
:1011040028E017FF09C0F801EE0FFF1FA1E2B0E1CC
:10111400EA27FB278F0102C0000F111F2150203046
:1011240081F7DECFF8010E94CE1B279608952297FF
:101134000E94C41B662009F4C4C1E1E0E41511F067
:101144000C94630AEC2DE03001F55A92E1E00E9420
:10115400821949F0A091DC06A23411F4E2E001C046
:10116400E1E0CE2E11C0E8EFF0E00E948B19B394B9
:10117400EAE0EB1538F4EDE0CE2EEFE1F1E00E9469
:101184008B19BB240E948F199CC1E130B1F4E0EAB1
:10119400EE835A92E0E4EA93E1E0EA93FE013996A1
:1011A4000E9492190E948F19E7E5F1E00E948B19C1
:1011B400E1E7F1E00E948B1983C1E23009F5E1EA2D
:1011C400F1E00E948B19EAECF1E00E948B19EBE14B
:1011D400F2E00E948B195A9228D2E3E5F1E00E94D2
:1011E4008B19E1E3F2E00E948B19E3E0CE2E0E941A
:1011F4009819E0E0F0E0E093DD06F093DE0661C1CB
:10120400E33079F5882021F0E4E0CE2E882428C04C
:101214000E94A2190E94BC1B19F4E3E4EA93B7D11B
:101224000E94A219EF5FFF4F6F4F7F4FE093620759
:10123400F09363076093640770936507A091620756
:10124400B09163078091640790916507A138E9EA3A
:10125400BE07E3E08E07E0E09E0710F00E949819B5
:1012640030C1E43081F40E949819772021F0E5E040
:10127400CE2E772426C1992029F00E94AB19EAE0EA
:10128400CE2E1FC11EC1E53001F500916007112764
:10129400102F0027E0916107D8010E942A198F01BD
:1012A400E0EEF6E0FA93EA93E0E8F0E0FA93EA93EA
:1012B40013DF9F010217130729F0E5E1EA9367D1D1
:1012C400E4E001C0E6E0CE2EFCC0E63069F55A92B7
:1012D400E2E0EA93EA93EDEDF6E00E949219409180
:1012E400DD065091DE06EAE0F0E00E9412195A92FF
:1012F400E2E0EA93EA93E3E0EA936CD9E03079F030
:10130400A091DD06B091DE064A175B0741F4E7E0E1
:10131400CE2EE894C59B6894A8B3A5F9A8BB4093C6
:10132400DD065093DE06CDC0E730F1F45A92E4E0D6
:10133400EA93E2E8EA93E0EEF6E0FA93EA93E3E074
:10134400EA93F0D40E9474195A92E4E00E9482193C
:1013540051F0A091DF06E091E006EA1721F4E8E0FD
:10136400CE2E0E94AF19ADC0E830B9F4E2E00E947D
:10137400B619E3E0EF83AF81A13070F00E94C01989
:1013840039F0A091DB06A23019F4E9E0CE2E04C0B6
:10139400EF81E150EF83EFCF94C0E930A9F50E94CB
:1013A400C01979F1E091DB06E23059F4E894979B97
:1013B4006894A2B3A7F9A2BBE2E3F0E00E94121979
:1013C4001FC0E03099F4992061F4ADEDB6E0ED91E1
:1013D400FD91E058FF4FFE93EE930E94AB19E4E0B9
:1013E40003C00E94AB19EAE0CE2E0AC0E03219F421
:1013F400E6E0CE2E04C0E03111F4E6E0CE2EC4982F
:1014040002C00E9474195DC0EA3099F5E3E00E94BD
:10141400B6190E94C01931F1E091DB06E33029F4DA
:10142400E2E3F0E00E9412191CC0E03039F4E6E671
:10143400F2E00E948B19EBE0CE2E13C0E03169F488
:10144400E4E9F2E00E948B19EDECF2E00E948B19C2
:10145400E8EEF3E00E94121904C0EEEDF2E00E94FF
:101464008B1906C00E947419EFE0F3E00E948B19F7
:1014740028C0EB3081F4E4E00E94B619E5E4F3E01F
:101484000E948B195A92D1D0EBE4F3E00E948B199D
:10149400ECE0CE2E16C0EC3069F4EAE6F3E00E94EC
:1014A4008B19EBE9F3E00E948B19EAEDF3E00E945B
:1014B4008B1902C0ED3001F4662488249924772422
:1014C400CC240E94CB1B289608950E94C3190BB10B
:1014D4001CB1662011F41A9303D11A938AD10E9485
:1014E400D3191895EA93FA93EFB7EA93E091E807D2
:1014F400E03099F0E150E093E807E091E707EF5F0F
:10150400E093E7070E94E319EA59F84FE081ECB948
:10151400E091E707EF77E093E707E991EFBFF991EF
:10152400E99118950E94C31900919B0010919C00A9
:101534000E94AF19A0911C0CA83019F40E94D31971
:1015440018951A9380D70E94D3191895EA93FA93A1
:10155400EFB7EA93E0916B08E030A1F0E150E0933B
:101564006B08E0916A08EF5FE0936A080E94E31950
:10157400E751F84FE081E0939C00E0916A08EF772F
:10158400E0936A08E991EFBFF991E9911895A09168
:10159400E807A038E1F3F894E091E807E03011F4AB
:1015A4005D9916C0E091E607EF5FE093E6070E94BD
:1015B400E319EA59F84FA881A083E091E607EF7791
:1015C400E093E607E091E807EF5FE093E80702C0E5
:1015D400E881ECB9789421960895A0916B08A0381D
:1015E400E1F3F894E0916B08E03021F4E0919B0082
:1015F400E072B1F4E0916908EF5FE09369080E943A
:10160400E319E751F84FA881A083E0916908EF77C7
:10161400E0936908E0916B08EF5FE0936B0803C007
:10162400E881E0939C00789420C41A930A93EA8199
:10163400E07FE295EF700E2FEA81EF701E2F0A30E3
:1016440018F4E02FE05D03C0E02FEF5BEA50EA936B
:101654009EDF1A3018F4E12FE05D03C0E12FEF5B49
:10166400EA50EA9394DF19810881CEC3E881F981B5
:10167400E491E03051F0E881F9813196E883F9830F
:101684003197E491EA9383DFF1CF22960895E0E065
:10169400EBB9E8EDEAB9E6E0E0939500E0E0E09329
:1016A4009000EFE5E9B9E0E0E0939B00E8EDE0931A
:1016B4009A00E6E0E0939D00E0E0E0939800E7E024
:1016C400E0939900E0E0E093E607E093E707E09316
:1016D400E807E0936908E0936A08E0936B080895CB
:1016E400E881EA9354DFED2DE03041F4A881A3347E
:1016F40011F4E1E0DE2E442455247AC0E13071F483
:10170400A881AD3419F4E2E0DE2E07C0A881A33429
:1017140019F4E1E0DE2E01C0DD246AC0E23071F488
:10172400A881A43419F4E3E0DE2E07C0A881A33411
:1017340019F4E1E0DE2E01C0DD245AC0E330A1F447
:10174400A881AA3210F0AA3308F006C0E4E0DE2E25
:10175400E881E0534E2E07C0A881A33419F4E1E0D8
:10176400DE2E01C0DD2444C0E43071F4A881A0322F
:1017740019F4E5E0DE2E07C0A881A33419F4E1E0F2
:10178400DE2E01C0DD2434C0E530B9F4A881AA32CC
:1017940010F0AA3308F009C0E6E0DE2EA881A053B9
:1017A400EAE0EA9FF0015E2E07C0A881A33419F491
:1017B400E1E0DE2E01C0DD241BC0E630A1F4A881E7
:1017C400AA3210F0AA3308F006C0E7E0DE2EE88162
:1017D400E0535E0E07C0A881A33419F4E1E0DE2EC5
:1017E40001C0DD2405C0E73011F4E1E06E2EDD24F4
:1017F4003CC3EE2DE03089F4E0E0E0936C08A8816E
:10180400A13021F4E1E0EE2E8E2E9924A881A4309B
:1018140019F4E1E09E2E97983FC0E13031F4E8815D
:10182400E0936C08E2E0EE2E37C0E23059F4E09128
:101834006C08A881AE0FAF3F11F0EE2402C0E3E0C4
:10184400EE2E2AC0E33049F4E1E0E0936C08E8812D
:10185400E093E006E4E0EE2E1FC0E43059F40E9469
:10186400E6190E94EC19A0916C08A03810F0E5E08C
:10187400EE2E12C0E53039F40E94E6190E94EC19EC
:10188400E6E0EE2E09C0E63031F40E94E6190E942B
:10189400EC19E1E07E2EEE24E8C20E94F119E091F9
:1018A4000072EF70EC3019F4009100E010C0E430E5
:1018B40071F400910070A091140CA83019F40E94E6
:1018C400001A18950A935FD60E94001A1895009181
:1018D40000750E94001A18950E94F119E09100B257
:1018E400EF70EC3019F4009100E010C0E43071F4B2
:1018F400009100B0A091160CA83019F40E94001AAF
:1019040018950A93E0D60E94001A1895009100B524
:101914000E94001A18950E94F119E09100D2EF700C
:10192400EC3019F4009100E010C0E43071F400913F
:1019340000D0A091180CA83019F40E94001A189530
:101944000A9361D70E94001A1895009100D50E944D
:10195400001A18950E94F119E09100E2EF70EC3042
:1019640019F4009100E011C0E43079F4009100E032
:10197400A0911A0CA83019F40E94001A18950A9321
:101984000E94A2140E94001A1895009100E50E947A
:10199400001A1895C09A0E948F19C0980E948F1936
:1019A4000895F8DFE0E8E0930073E4E0E09300706A
:1019B400E0E0E0930071EBE1E0930073E7E0E09393
:1019C4000072E8E0E0930074E1E0E0930071E0E885
:1019D400E09300B3E4E0E09300B0E0E0E09300B112
:1019E400EBE1E09300B3E7E0E09300B2E8E0E093DA
:1019F40000B4E1E0E09300B1E0E8E09300D3E4E078
:101A0400E09300D0E0E0E09300D1EBE1E09300D379
:101A1400E7E0E09300D2E8E0E09300D4E1E0E09373
:101A240000D1E0E8E09300E3E4E0E09300E0E0E0EC
:101A3400E09300E1EBE1E09300E3E7E0E09300E210
:101A4400E8E0E09300E4E1E0E09300E108951A9314
:101A54000A930B81EA81E03071F4E0910075E07241
:101A6400E1F3A02F0150A13028F00E940F1AE09357
:101A74000070F7CF4EC0E13071F4E09100B5E07230
:101A8400E1F3A02F0150A13028F00E940F1AE09337
:101A940000B0F7CF3EC0E23071F4E09100D5E072BF
:101AA400E1F3A02F0150A13028F00E940F1AE09317
:101AB40000D0F7CF2EC0E330F9F40030E1F0E0912C
:101AC40000E5E072E1F3003158F410E0101730F44F
:101AD4000E940F1AE09300E01F5FF8CF00E00AC0F5
:101AE40010E0103130F40E940F1AE09300E01F5F01
:101AF400F8CF0051E2CF0DC0E43049F4A02F0150DB
:101B0400A13028F00E940F1AEA9367DDF7CFE0EFC7
:101B1400E5BB9FC2E0E0EBBBEABBE1E0E8BBE1EF81
:101B2400E7BBE0EFE5BBEFEFE4BBE0E0E2BBE0EFF7
:101B3400E1BBE0E0E3B9E4E0E2B9E0E0E0936200B5
:101B4400E0936100EFEFE0936500EFE1E093640060
:101B54000895E0E0E0BFE7E0E3BFE0E0E2BFE1BF1B
:101B6400EFBDE5E0EEBDE0E0EDBDECBDE7BDE6BDFB
:101B7400EBBDEABDE9BDE8BDE0937900E0937800F0
:101B8400E5BDE4BDE3BDE0938B00E0938A00E09300
:101B94008900E0938800E0938100E0938000E09363
:101BA4008700E0938600E0938500E0938400E0934F
:101BB4008300E0938200E5E0E7BFE0E0E0937D008E
:101BC4000895E0ECE5BFEEE4E0936D00E0E8E09317
:101BD4006C0008950E94151A0895E0E8E8B9E0E061
:101BE400E0BD08950A93A981BA811197A983BA83A4
:101BF40011960E94C01B30F404E6A02F0150A130BE
:101C0400E0F7F1CF088100C10E941E1A0E949B18C0
:101C14000E94261A0E942B1A0E94301AEE59F64F7F
:101C2400AA81A08300E0EA810E1728F40E94261AF4
:101C34000E94371AF8CF0E94461A22C00E941E1A28
:101C44000E944A1A0E942B1A0E94301A0E944F1AAC
:101C5400EA81EF5FEC9300E0EA810E1728F40E941A
:101C6400261A0E94371AF8CF0E94261AA3E6B9E072
:101C7400AE0FBF1F0E945318E2E3EC930E94461A72
:101C84000881259608950A930E94261AE15AF64F70
:101C9400AE81A0830E94261AA0E6B9E00E949B1898
:101CA4000E94261A0E94541A0E945B1AEC81A2E038
:101CB400EA9FF0010E1768F40E94261A0E94661A21
:101CC4000E946D1A0E94661A0E942A190E94761AAE
:101CD400EDCF0E94461A23C00E941E1A0E944A1A7F
:101CE400E05AF64FAE81A0830E94261A0E94541A2D
:101CF4000E945B1AEC81A2E0EA9FF0010E1768F4DF
:101D04000E94261A0E94661A0E946D1A0E94661A80
:101D14000E942A190E94761AEDCF0E94461A088161
:101D2400279608950E94C71B0E947F1AAFE5B9E069
:101D3400AE0FBF1FEFEFEC930E947F1AE05AF64FED
:101D4400A885A0830E947F1AA1E6B9E0AE0FBF1F49
:101D5400E3E5EC930E947F1A0E944F1AEE81EF5F35
:101D6400EC9300E00E947F1A0E94661A0E942A19CE
:101D7400AF81A083EE81EF5F0E1760F40E947F1A9B
:101D84000E94661A0E942A190F010E940F1AD0019C
:101D9400EC93F0CFEB81EA9339D00E94CE1B2996C5
:101DA40008950A9300E0A981A150A983AF5FA130EF
:101DB40038F0AA81BB81ED91AA83BB830E0FF3CFC8
:101DC400E02FE095EF5F0E2FE02F08812496089511
:101DD400E981FA810E94841A0E94891AA981BA8130
:101DE4001596AC91A13058F0E981FA813696FA93B0
:101DF400EA93EB81FC81A581AA930E94891AE98167
:101E0400FA8176960E948D1A239608950E94921A5A
:101E1400E951F64FFF93EF930E94971AC2DFEF93B5
:101E24000E94921A0E949E1AEC91EA93BADFAF9133
:101E3400EA0FAF91BF91EC930E94971A0E94891AFE
:101E44000E94921A0E944F1AAC91A13040F00E9455
:101E5400921A0E949E1AEC91EA930E94891A0E9497
:101E6400921AE951F64F0E948D1A219608950E9404
:101E7400A71AF1F400E00E94AF1AC8F40E94B51A40
:101E8400E081E11729F4AA810E94FE17EFEFEC9399
:101E9400103558F40E945A19E457FF4F14911F3F0C
:101EA40021F00E94BE1A0E94C21A0E5FE4CF4DC0F8
:101EB400AB81BC811496AC91A83569F500E00E9411
:101EC400AF1A40F50E94B51AE081E11729F4AA81FE
:101ED4000E94FE17EFEFEC931035D0F40E945A19CC
:101EE400E457FF4F14911F3F99F00E94BE1A0E94BD
:101EF400C21AAD81BE811196E12F0E942A190F01E9
:101F0400E02FE85FAB81BC810E94CE1AD001EC9334
:101F14000D5FD5CF1AC019C00E94A71AB1F400E012
:101F24000E94AF1A90F40E94B51AE081E11729F4D7
:101F3400AA810E94FE17EFEFEC93153020F40E9463
:101F4400BE1A0E94C21A0E5FEBCF19810881279630
:101F540008951A930A930E94D31AA73589F400E0CE
:101F64000E94D81A60F40E94DE1AAC81BD810E94DE
:101F74002A190E94E31AD001EC930E5FF1CF69C0D5
:101F84000E94D31AA83509F500E00E94D81AE0F49B
:101F94000E94DE1AAC81BD810E942A190E94E31AB4
:101FA400D001EC930E94DE1AAC81BD8111960E948F
:101FB4002A190F01E02FE85FAA81BB810E94CE1A83
:101FC400D001EC930D5FE1CF44C00E94D31AA23537
:101FD400D1F400E0E7E50E94E91A0E94D81A80F4DF
:101FE4000E94F31A0E94F71A0E94F91A0E94F31A27
:101FF4000E94F71A0E94FD1A0E94F91A0F5FEDCF92
:102004000E94001B26C00E94D31AA33511F500E0DC
:10201400E8E50E94E91A0E94D81AC8F40E94F31A4B
:102024000E94F71A0E94F91A0E94F31A0E94F71AE2
:102034000E94FD1A0E94F91A0E94F31A0E94F71ACC
:10204400EF5F0E94FD1A0E94F91A0F5FE4CF0E940D
:10205400001B19810881269608950E94C71BA09130
:102064001C0CA83011F00C948F101091E8082091EA
:10207400E908E9ECF8E0E117F20719F4E6E4F9E01D
:1020840002C0E9ECF8E0E093E808F093E908E0E046
:10209400E0931C0C0E94061BEF930E940C1BAF9153
:1020A4000E94171BC9F50E94201B31F4E3EAF6E0F5
:1020B4000E94251B4EDF81C100E0E091BF060E1790
:1020C40098F4E12FF22FE3818E2F0E947719E817FD
:1020D40049F42A931A93EAE0E09FF00164D7EA9363
:1020E40077DE6BC10F5FE9CF00E0E091C0060E1709
:1020F40098F4E12FF22FE3818E2F0E946D19E817D7
:1021040049F42A931A93EAE0E09FF0016AD7EA932C
:102114005FDE53C10F5FE9CF50C1A091140CA8300A
:1021240011F00C94E4101091E0082091E108EDE620
:10213400F8E0E117F20719F4EAEEF8E002C0EDE680
:10214400F8E0E093E008F093E108E0E0E093140C99
:102154000E94061BEF930E940C1BAF910E94171B59
:1021640081F50E94201B39F500E0E091BF060E17AF
:1021740070F40E942A1B0E947719E81731F40E9418
:102184002F1BE0E0EA9373DE18C10F5FEECF00E08F
:10219400E091C0060E1770F40E942A1B0E946D196C
:1021A400E81731F40E94351BE0E0EA9360DE05C1D4
:1021B4000F5FEECF02C10E943B1B19F40E94401B2B
:1021C400FCC0FBC0A091160CA83011F00C9439117E
:1021D4001091E2082091E308E4E8F8E0E117F2073F
:1021E40019F4E1E0F9E002C0E4E8F8E0E093E20881
:1021F400F093E308E0E0E093160C0E94061BEF93D3
:102204000E940C1BAF910E94171B81F50E94201B9A
:1022140039F500E0E091BF060E1770F40E942A1B06
:102224000E947719E81731F40E942F1BE1E0EA932A
:102234001EDEC3C00F5FEECF00E0E091C0060E17B4
:1022440070F40E942A1B0E946D19E81731F40E9451
:10225400351BE1E0EA930BDEB0C00F5FEECFADC0FB
:102264000E943B1B19F40E94401BA7C0A6C0A0916A
:10227400180CA83011F00C948E111091E4082091E0
:10228400E508EBE9F8E0E117F20719F4E8E1F9E011
:1022940002C0EBE9F8E0E093E408F093E508E0E03D
:1022A400E093180C0E94061BEF930E940C1BAF9145
:1022B4000E94171B81F50E94201B39F500E0E09174
:1022C400BF060E1770F40E942A1B0E947719E817A4
:1022D40031F40E942F1BE2E0EA93C9DD6EC00F5F68
:1022E400EECF00E0E091C0060E1770F40E942A1BA6
:1022F4000E946D19E81731F40E94351BE2E0EA935D
:10230400B6DD5BC00F5FEECF58C00E943B1B19F4D3
:102314000E94401B52C051C0A0911A0CA83011F069
:102324000C94DF111091E6082091E708E2EBF8E045
:10233400E117F20719F4EFE2F9E002C0E2EBF8E08A
:10234400E093E608F093E708E0E0E0931A0C0E94BB
:10235400061BEF930E940C1BAF910E94171B69F59B
:102364000E94201B29F500E0E091BF060E1768F4D7
:102374000E942A1BBAD7E81731F40E942F1BE3E00E
:10238400EA9375DD1AC00F5FEFCF00E0E091C0065D
:102394000E1768F40E942A1B9ED7E81731F40E9496
:1023A400351BE3E0EA9363DD08C00F5FEFCF05C0A0
:1023B4000E943B1B11F40E94401B0E94CE1B2396DB
:1023C40008951A930A93A0911A0CA830C9F50091A4
:1023D400E6081091E708E2EBF8E0E017F10719F4DA
:1023E400EFE2F9E002C0E2EBF8E0E093E608F093F4
:1023F400E708E0E0E0931A0C1A930A93E6E0EA9304
:10240400D0DCEF93F8013696FA93EA93F801E5816C
:10241400EA93C7DCAF91AE0FEFEFEA23AE2FF801DA
:10242400E689EA1769F4F801E381EF3F49F4EBED3B
:10243400F6E0FA93EA931A930A93E3E0EA936CDDE5
:10244400099119910895A0911C0CA730A1F4E88179
:10245400A091E808B091E9085696EC930E94461BB7
:102464001196E8E6EC930E94461BEEEFEC93E8E04D
:10247400E0931C0C01C3A0911C0CA630D1F4E09194
:102484001D0CEA5F0E94461BE3D6A881A083E0915D
:102494001D0CEF5FE0931D0CE091E808F091E90852
:1024A400E581A0911D0CAE1718F0E7E0E0931C0C39
:1024B400E3C2A0911C0CA53089F4A881A13168F471
:1024C400E881A091E808B091E9081596EC93E0E062
:1024D400E0931D0CE6E0E0931C0CCEC2A0911C0C12
:1024E400A43059F4E881A091E808B091E908149661
:1024F400EC93E5E0E0931C0CBFC2A0911C0CA3304C
:1025040059F4E881A091E808B091E9081396EC9396
:10251400E4E0E0931C0CB0C2A0911C0CA23059F46E
:10252400E881A091E808B091E9081296EC93E3E001
:10253400E0931C0CA1C2A0911C0CA13019F4A88139
:10254400A83609F004C0E2E0E0931C0C95C2A09107
:102554001C0CA13019F4A881AE3F09F004C0E1E0DD
:10256400E0931C0C89C2A0911C0CA03019F4A88122
:10257400AE3F09F004C0E1E0E0931C0C7DC2E0E052
:10258400E0931C0C79C2A091140CA730A1F4E8814B
:10259400A091E008B091E1085696EC930E944B1B81
:1025A4001196E8E6EC930E944B1BEEEFEC93E8E007
:1025B400E093140C61C2A091140CA630D1F4E09104
:1025C400150CEA5F0E944B1B43D6A881A083E091BF
:1025D400150CEF5FE093150CE091E008F091E10831
:1025E400E581A091150CAE1718F0E7E0E093140C08
:1025F40043C2A091140CA53089F4A881A13168F4D8
:10260400E881A091E008B091E1081596EC93E0E030
:10261400E093150CE6E0E093140C2EC2A091140C88
:10262400A43059F4E881A091E008B091E10814962F
:10263400EC93E5E0E093140C1FC2A091140CA330BA
:1026440059F4E881A091E008B091E1081396EC9365
:10265400E4E0E093140C10C2A091140CA23059F4DD
:10266400E881A091E008B091E1081296EC93E3E0D0
:10267400E093140C01C2A091140CA13019F4A881A8
:10268400A83609F004C0E2E0E093140CF5C1A0916F
:10269400140CA13019F4A881AE3F09F004C0E1E0A4
:1026A400E093140CE9C1A091140CA03019F4A88192
:1026B400AE3F09F004C0E1E0E093140CDDC1E0E0BA
:1026C400E093140CD9C1A091160CA730A1F4E881B1
:1026D400A091E208B091E3085696EC930E94501B37
:1026E4001196E8E6EC930E94501BEEEFEC93E8E0C1
:1026F400E093160CC1C1A091160CA630D1F4E09160
:10270400170CEA5F0E94501BA3D5A881A083E09117
:10271400170CEF5FE093170CE091E208F091E308E7
:10272400E581A091170CAE1718F0E7E0E093160CC2
:10273400A3C1A091160CA53089F4A881A13168F435
:10274400E881A091E208B091E3081596EC93E0E0EB
:10275400E093170CE6E0E093160C8EC1A091160CE2
:10276400A43059F4E881A091E208B091E3081496EA
:10277400EC93E5E0E093160C7FC1A091160CA33016
:1027840059F4E881A091E208B091E3081396EC9320
:10279400E4E0E093160C70C1A091160CA23059F439
:1027A400E881A091E208B091E3081296EC93E3E08B
:1027B400E093160C61C1A091160CA13019F4A88104
:1027C400A83609F004C0E2E0E093160C55C1A091CC
:1027D400160CA13019F4A881AE3F09F004C0E1E061
:1027E400E093160C49C1A091160CA03019F4A881ED
:1027F400AE3F09F004C0E1E0E093160C3DC1E0E017
:10280400E093160C39C1A091180CA73091F4E8811B
:10281400A091E408B091E5085696EC9344D711963C
:10282400E8E6EC9340D7EEEFEC93E8E0E093180C85
:1028340023C1A091180CA630C9F4E091190CEA5FE9
:1028440032D706D5A881A083E091190CEF5FE093FD
:10285400190CE091E408F091E508E581A091190CC8
:10286400AE1718F0E7E0E093180C06C1A091180C1D
:10287400A53089F4A881A13168F4E881A091E40825
:10288400B091E5081596EC93E0E0E093190CE6E0CE
:10289400E093180CF1C0A091180CA43059F4E8810D
:1028A400A091E408B091E5081496EC93E5E0E09378
:1028B400180CE2C0A091180CA33059F4E881A0913F
:1028C400E408B091E5081396EC93E4E0E093180C67
:1028D400D3C0A091180CA23059F4E881A091E40867
:1028E400B091E5081296EC93E3E0E093180CC4C0B1
:1028F400A091180CA13019F4A881A83609F004C0DD
:10290400E2E0E093180CB8C0A091180CA13019F4BF
:10291400A881AE3F09F004C0E1E0E093180CACC01C
:10292400A091180CA03019F4A881AE3F09F004C09E
:10293400E1E0E093180CA0C0E0E0E093180C9CC028
:10294400A0911A0CA73091F4E881A091E608B09107
:10295400E7085696EC93ACD61196E8E6EC93A8D625
:10296400EEEFEC93E8E0E0931A0C86C0A0911A0C09
:10297400A630C9F4E0911B0CEA5F9AD669D4A88109
:10298400A083E0911B0CEF5FE0931B0CE091E60841
:10299400F091E708E581A0911B0CAE1718F0E7E071
:1029A400E0931A0C69C0A0911A0CA53089F4A8818F
:1029B400A13168F4E881A091E608B091E708159682
:1029C400EC93E0E0E0931B0CE6E0E0931A0C54C0B7
:1029D400A0911A0CA43059F4E881A091E608B091B2
:1029E400E7081496EC93E5E0E0931A0C45C0A09137
:1029F4001A0CA33059F4E881A091E608B091E708D5
:102A04001396EC93E4E0E0931A0C36C0A0911A0CF0
:102A1400A23059F4E881A091E608B091E708129633
:102A2400EC93E3E0E0931A0C27C0A0911A0CA130B8
:102A340019F4A881A83609F004C0E2E0E0931A0C66
:102A44001BC0A0911A0CA13019F4A881AE3F09F063
:102A540004C0E1E0E0931A0C0FC0A0911A0CA0305E
:102A640019F4A881AE3F09F004C0E1E0E0931A0C28
:102A740003C0E0E0E0931A0C21960895AA93EA9328
:102A8400FA93EFB7EA93E8B7E160E8BFE091230C6B
:102A9400E27041F0E091250CE03019F4E1E0E093BC
:102AA400250C09C0E091370CE03011F4E0E001C0DE
:102AB400E1E0E093250C01D606D6E076F07030977D
:102AC40029F4FBD5E1E0E0933A0C08C0E036A0E03D
:102AD400FA0721F4FDD5E1E0E0933A0CE0E0E0935D
:102AE400390CE894C79B6894A8B3A7F9A8BBE991EB
:102AF400EFBFF991E991A9911895EA93EFB7EA9399
:102B0400E7B7ED7FE7BFE991EFBFE9911895AA9385
:102B1400BA93EA93FA93EFB7EA93E6B7E160E6BFB4
:102B2400EAE7E2BFE091260CF091270C309721F000
:102B3400A6E2BCE0CAD30CC0A091360CE1E0EA23C3
:102B440039F0E0916200A1E0C9D5EE7FE093360C44
:102B5400E091280CF091290C309721F0A8E2BCE018
:102B6400B4D30CC0A091360CE2E0EA2339F0E09132
:102B74006200A2E0B3D5ED7FE093360CE0912A0C1D
:102B8400F0912B0C309721F0AAE2BCE09ED30CC04C
:102B9400A091360CE4E0EA2339F0E0916200A4E06D
:102BA4009DD5EB7FE093360CE091340CF091350C1D
:102BB400309721F0A4E3BCE088D30AC0A091360C7E
:102BC400E0E8EA2329F0E091360CEF77E093360C45
:102BD400A091360CEFEFEA2319F4E7B7EE7FE7BFD5
:102BE400E991EFBFF991E991B991A9911895EA8119
:102BF400E03061F4E881F981E093260CF093270C2E
:102C0400E091360CE160E093360C61C0E13061F490
:102C1400E881F981E093280CF093290CE091360CBB
:102C2400E260E093360C53C0E23061F4E881F9814C
:102C3400E0932A0CF0932B0CE091360CE460E093C3
:102C4400360C45C0E33061F4E881F981E0932C0C43
:102C5400F0932D0CE091360CE860E093360C37C00D
:102C6400E43061F4E881F981E0932E0CF0932F0CA9
:102C7400E091360CE061E093360C29C0E53061F454
:102C8400E881F981E093300CF093310CE091360C3B
:102C9400E062E093360C1BC0E63061F4E881F98110
:102CA400E093320CF093330CE091360CE064E09343
:102CB400360C0DC0E73059F4E881F981E093340C07
:102CC400F093350CE091360CE068E093360CE7B7EE
:102CD400E17051F4F894E6B7E160E6BFEAE7E2BFD9
:102CE400E7B7E160E7BF7894239608950A93EBD49D
:102CF400E07811F498D36CC0E0916100EF60E09348
:102D04006100F2D421F0E830A0E0FA0731F4E09158
:102D14006200EF60E09362000DC0E031A0E0FA07CA
:102D240021F0E831A0E0FA0729F4E0916200E07FA5
:102D3400E0936200C8D4E070F770EF2FF0E03196B2
:102D4400E093380CE0E0E093390CBDD4E076F07009
:102D5400309731F490989198E1E0E0933A0C04C0F4
:102D6400E032A0E0FA0719F4EFE0C3D418C0E0366B
:102D7400A0E0FA0731F490989198E1E0E0933A0CDE
:102D840004C0E034A0E0FA0719F4EAE0B2D407C0C2
:102D9400E0E0E0936A00EFEFEABFE0EFE9BFE8BFED
:102DA400E091230CE17011F0E1E001C0E0E0E09378
:102DB400250CE0E0E093360CE093370C00E008309B
:102DC40038F4A6E2BCE0E02F66D177D10F5FF7CFED
:102DD40009910895E091230CE07879F1E0913B0C9E
:102DE400E03011F0E0E00895E091230CE07621F466
:102DF4008098E0E0E03009F408C0E0913A0CE0305B
:102E040011F07ED40895EFEF08955DD4E076E036B6
:102E140021F4809AE1E0E03009F408C0E0913A0C32
:102E2400E03011F06DD40895EFEF0895E091250C92
:102E3400E03011F4EFEF089502C0E0E00895089542
:102E440053D421F0E830A0E0FA0731F4E0916200B5
:102E5400EE7FE09362000DC0E031A0E0FA0721F0BC
:102E6400E831A0E0FA0729F4E0916200E160E09320
:102E74006200E1E0E093370CE0E046D4089534D4F6
:102E840011F426D415C0E830A0E0FA0721F420D4C8
:102E9400E1E03AD40DC0E031A0E0FA0721F40DD40A
:102EA400E1E032D405C0E831A0E0FA0709F405D422
:102EB40008951A930A93A091360CE0E8EA2311F0DE
:102EC400EFEF4DC0E0913C0CE03029F0D8DFE0E0BA
:102ED400E0933C0C44C0E0E0E093370CE091390C03
:102EE400EF5FE093390CE150A091390CE091380C7C
:102EF400AE1750F4E1E0E093250CE0933A0CE09334
:102F04003B0CBDDFE0E02BC0E0E0E093250CF8D300
:102F1400E0933B0CE0E0E093390CE091230CE47087
:102F240021F0E091240CE87F09F417C0CCD3E070C1
:102F3400F87F0E94941BEF2FF0E08F01A4E1A09F83
:102F4400F001A19FF00D8F01E7E0EA931A930A9331
:102F54004EDEEFEFE0933C0C02C091DFE0E009911C
:102F6400199108951A930A93EA81AAE0EA9FF0015D
:102F74000895ED5EFA4FE081EA93EC81EA93E1E093
:102F8400EA93AD81EAE0EA9FF001ABE1B5E0AE0F70
:102F9400BF1FEC91EA9308950E94060EAA81EAE00D
:102FA400EA9FF0010895ABE1B5E0AE0FBF1FEC91CD
:102FB4000895EA81F0E0E25EF34F08954ED801509F
:102FC40010400895AA81B0E0A25EB34FEFEFEC93F6
:102FD4000024001601060895E558F94FE081EA93AC
:102FE4000895A3E8B6E0AE0FBF1FEC910895EC81FD
:102FF400F0E0E25EF34F0895B0E0A25EB34F0895AF
:10300400E0E0E093C006E093BF060895EAE0E09FA5
:10301400F001A4E1B5E0AE0FBF1FEC910895EAE022
:10302400E09FF001A4E1B5E0AE0FBF1F0895A091A9
:10303400C006EAE0EA9FF0010895BF01EAE0E09FDC
:10304400F0010895A8E1B5E0AE0FBF1FEC91DB01DC
:10305400EC930895BF01AAE00A9FF001ED5EFA4FD8
:10306400E081DB01EC930895EFEFEC93AAE00A9F73
:10307400F001ED5EFA4FDF01E9E7EC930895A091CA
:10308400BF06EAE0EA9FF0010895EA93E02FE150D9
:10309400EA930C94BD02F0E0EE0FFF1FAE0FBF1FCA
:1030A4000895E02FF0E0AE0FBF1F0895B0E0AC5FCD
:1030B400BA4F0895A8E0B5E0EECFE0E0F0E0ED937C
:1030C400FC930895AAE00A9FF001ED5EFA4FDF0138
:1030D4000895EFEFEC93EAE0E09FF0010895ACE18E
:1030E400B5E0AE0FBF1FE0E0EC930895AAE00A9F9D
:1030F400F001E558F94FDF01E0E8EC93EAE0E09FE6
:10310400F001ACE7B6E0AE0FBF1FE3CFA4E8B6E032
:10311400AE0FBF1FE0E0EC930895EAE0E09FF001FA
:10312400A5E1B5E0AE0FBF1FEFEFFFEFED93FC930A
:103134000895AE0FBF1FE0E0EC930895E770A1E09F
:103144000E948C1BA0911005EA2BE0931005EAE085
:10315400E09FF0010895A0E10E948C1BA09110054E
:10316400EA2BE09310050895EAE0E09FF001ACE754
:10317400B6E0AE0FBF1FEC910895A9ECB6E0E9816B
:10318400F0E0AE0FBF1FAC910895EF70AE2FE98150
:10319400EA170895AAE00A9FF001ED5EFA4FE08174
:1031A400EA930895E1E4EA93E1E0EA93E3E0F5E0E9
:1031B400FA93EA93EAE0E09FF0010895E3E4EA93E6
:1031C400E1E0EA93E2E0F5E0FA93EA93EAE0E09FD3
:1031D400F0010895AAE00A9FF001FECEA1ECB6E04A
:1031E400E981F0E00895EFEFEA93A1ECB6E0EA811B
:1031F400F0E0AE0FBF1FE3EAF6E00E94B51BEA1B46
:10320400FB0BEA93E1E0EA93A1ECB6E0EC81F0E099
:10321400EA0FFB1FFA93EA93E4E0EA930C94450E59
:10322400FA93EA930C94F40DE981F0E0AE0FBF1F1A
:103234000895ABEBB6E0F8CFE981F0E07ACFA5ECE6
:10324400B6E0F2CFA5ECB6E0F7CFE981F0E008955F
:10325400F0E0EA0FFB1F0895FA93EA93E4E0EA939F
:103264000C94450EE1E4EA93E1E0EA93E2E0F5E050
:10327400FA93EA93EAE0E09FF0010895AE0FBF1FCE
:10328400E1E0EC930895EDECF6E0AA81BB810895AA
:10329400E770AE2FEA81FB81B0E0EA17FB070895DF
:1032A400EAE0E09FF001ABE1B5E0AE0FBF1F089587
:1032B400E12FF0E00895EAE0E09FF001A5E1B5E038
:1032C400AE0FBF1F0E94B11B0895ED91FD91319780
:1032D400FE93EE930895AAE00A9FF001E558F94F92
:1032E400E0810895E4E6F0E09BCFAAE00A9FF001B4
:1032F400ED5EFA4FE0810895FA93EA930C94E705A2
:10330400EA93E1E0EA93E3E0EA930E94EC02E0301E
:103314000895FA93EA930C94380BE4EFF1E080CF2C
:10332400FA93EA93E3E0EA930C946E0EE0E0E09300
:103334006207E0936307E0936407E09365070895E9
:10334400E0916207F09163076091640770916507EB
:103354000895E6E0EA930C94C90AE894C69B68943D
:10336400A8B3A6F9A8BB0895E093DB065A92E0E05F
:10337400EA93E1E0EA93EBEDF6E0D2CF5A92E0E093
:10338400BFCF0A921A92FA926A937A938A939A9383
:10339400AA93BA93EA93FA93EFB7EA931A930A9328
:1033A400089509911991E991EFBFF991E991B991C2
:1033B400A9919991899179916991F99019900990BC
:1033C4000895E150F0E00895E0916C08EF5FE09318
:1033D4006C08F7CFE052F94FA881A08308950A92B0
:1033E4001A92FA926A937A938A939A93AA93BA93C3
:1033F400EA93FA93EFB7EA930A9308950991E9914E
:10340400EFBFF991E991B991A99199918991799134
:103414006991F990199009900895AC81BD81ED915D
:10342400AC83BD830895E0E0E0936A00EFEFEABF68
:10343400E0EFE9BFE8BF08950A93A981EBE8EA9FAA
:10344400F001AFE5B9E00895A981EBE8EA9FF00146
:103454000895E05AF64FAC81A083F6CFA1E6B9E017
:10346400AE0FBF1FE2E5EC93EFCFA3E6B9E0AE0FDA
:10347400BF1FE02F0F5FF0E0AE0FBF1FEB81EF5FC8
:10348400EB83E150EC930895E981EA930C94080FDF
:10349400AE0FBF1FEFEFEC93D7CFA2E6B9E0AE0FAC
:1034A400BF1F0895A1E6B9E0AE0FBF1FE7E5EC9397
:1034B400CBCFEE59F64FBF01EC81A2E0EA9FF001B9
:1034C400DB01EC9300E00895A3E6B9E0AE0FBF1F63
:1034D400E02F0F5F0895F0E0AE0FBF1FED81EF5FA7
:1034E400ED83E150EC93B0CF0F01AA81BB81ED9144
:1034F400AA83BB83D001EC930895AB81EBE8EA9FE8
:10350400F0010895FA93EA93E6E0EA930895EB81D3
:10351400EA930C94290DFA93EA93E1E0EA93F7CF46
:10352400A881EBE8EA9FF0010895E881ABE8EA9FFF
:10353400F001E35AF64FE6CFED59F64FFA93EA93CA
:10354400AA81EBE8EA9FF001A8CF1A930A93AB8112
:10355400BC811496AC91A7350895AB81BC811596B6
:10356400EC910E170895E02FEA5FAB81BC81F0E087
:10357400AE0FBF1F1C911DCDE12FAD81BE8168CE62
:103584000F01E02FE95FAB81BC81F0E0AE0FBF1FFC
:10359400EC91D001EC930895F0E0AE0FBF1FEC91D5
:1035A4000895AA81BB811496AC910895AA81BB8128
:1035B4001596EC910E170895E02FEA5FAA81BB815E
:1035C400EBCF0F01E02FE95FAA81BB81E5CFE09348
:1035D4008D0BEFEFE0938B0BE0E0E0938C0B10E0AE
:1035E4000895AFE8BBE0E12F33CE0F01E5CFD00162
:1035F400EC931F5F0895AC81BD81CECF10938E0BE9
:10360400E4E0EA930C94080F2A931A93E6E0EA9311
:103614000C94D30EE12FF22F3696FA93EA93E12F0E
:10362400F22FE581EA930C94D30EAE0FEFEFEA2369
:10363400AE2FE12FF22FE689EA170895E12FF22F3A
:10364400E381EF3F0895FA93EA932A931A93089536
:10365400E12FF22FE2818E2F0895AAE00A9FF00154
:10366400ED5EFA4FF0CFAAE00A9FF001E558F94F5A
:10367400EACFE12FF22FE381E03008952A931A93E1
:10368400E4E0EA930C94EA0EA091E808B091E9080A
:103694000895A091E008B091E1080895A091E2088E
:1036A400B091E3080895A091E408B091E508089565
:1036B400A091E608B091E7080895E0916200E26005
:1036C400E09362000895E091230CF091240C089596
:1036D400E0916200ED7FE09362000895EA27E093B1
:1036E4006200E091360C0895EEDFE871F0703097D7
:1036F4000895E0936A00EFEFEABFE3EFE9BF0895AE
:10370400E0E0E0933A0C0895EA93EEE1F0E0FA93F6
:10371400EA936DCAEE230E2EEA2F19F0EE0F0A94E7
:10372400E9F70895F695E795F695E795F695E79503
:1037340008950024112490E1AA0FBB1F001C111C42
:103744000E1A1F0A18F40E0E1F1E01C0A1609A95CE
:1037540099F7FD01D0010895ECDFFD010895ED9185
:10376400FC91119708951B2EBF2FF12D1A2EAE2F09
:10377400E12D0895309760407040089500240A16A2
:103784000B0608955A934A933A932A931A930A93E9
:1037940008955D814C813B812A81198108810895B6
:00000001FF
