:100449007572007573007574517575007576007550
:0604590077517571D822F5
:030023000202CE08
:1002CE00C0E0C083C082C0D075D010309905C299ED
:1002DE007571D8309833AB75AA76A977E599120364
:1002EE00E174012577F577E43576F576FA900071AD
:1002FE00E5757009E57765827003EA65837008F528
:10030E0075757600757751C298D0D0D082D083D0D3
:02031E00E032CB
:10041400E5758576838577826572700AE5746582F1
:0D0424007004E57365837002FF227F0122E2
:10045F007571D68F99C2B4E57164D660FAD2B422A1
:10032000E5758576838577826572700AE5746582E6
:100330007004E573658360E8AB72AA73A974120355
:10034000C8FF74012574F574E43573F573FA9000F1
:1003500071EB7009E57465827003EA65837008F5D6
:070360007275730075745102
:010367002273
:06000300014900014A0062
:03000B00020026CA
:0D002600C0E0C0F0C083C082C0D075D0180B
:10003300E54C60381545D3E54564809480502DE543
:10004300235401FDE522A2E713F522E52313F5234B
:10005300ED600512049C800312049F754503154847
:10006300D3E548648094805003754C00E520600319
:100073000200F3E54660331544D3E544648094807D
:10008300506E754600754B00AF21EF3395E0FEEFE0
:1000930064C24E605B74242549F8A6210549E549ED
:1000A300C39420404B7549008046E54B70161204FB
:1000B30092EF703C754B01F521754404854D4775EE
:1000C3005001802C1544D3E54464809480502175FD
:1000D3004403120492EF6004E5504221E55025E009
:1000E300F5501547D3E54764809480500375460166
:0200F300C28DBC
:0B00F500D0D0D082D083D0F0D0E03219
:10043100E4F54CF54BF546F520754D08754E0A125D
:08044100049F758C80D28C220F
:10039C00E54AB5490512000A80F67424254AF8E6A8
:1003AC00F50E054AE54AC394204003E4F54AAF0E26
:0B03BC00EF3395E0FEEF64C24E60D509
:0103C7002213
:1003F300E54C70FC8F4F754503854E48EF3395E010
:10040300FEEF25E0FFEE334402F5228F23754C0106
:0104130022C6
:06048C00E4F549F54A22E7
:0D047F00E549654A60047F0180027F00228C
:04049800E4F5202245
:100262007FBFDFEFF7FBFDFE26270F3E3F3C340D3D
:100272000C0E2D140B332132FFFFFFFFFFFFFFFF98
:10028200FFFFFFFFFFFFFFFF2B2F1FFF13111715AC
:100292002E2AFF1E1012141629392D3500FF0236A0
:1002A2003828342CFF013703041B3F06232127255E
:1002B2001A05073E202224263D3B191D090B0D0F6E
:0C02C2003A3C1C180A080E0C3130333294
:10000E00E4FEEEC39F500DE4FCECC39D50030C8048
:04001E00F80E80EE6A
:0100220022BB
:10036800EFC39444502DEF90028A93FFF46024EF7A
:10037800540790026293F590EF131313541F93F5EB
:10038800807DFF7F1F12000E7590FF7580FF7F0331
:0303980012000E42
:01039B00223F
:0F046F00E4FBEB90026A93FF1203680BBB20F3D0
:01047E00225B
:06049200A2B3E433FF22D7
:03049C00D2B222B7
:03049F00C2B222C4
:01000A0022D3
:10010000E4750DE8750C03F50BF50AF5A812044922
:10011000759870E4F587758DFD758922D28E12046D
:100120003112049812048C75A892E4F509D2B21227
:10013000046F7DFF7F0F12000E120414EF70030294
:1001400001C21203208F08E508B455101203208F56
:1001500008E5086455600585080980DDE5096473D4
:100160007042E5086455703C1203208F08E508646E
:10017000566017E508B4580512046F80EBE5086473
:100180005760E5AF0812036880DE7F5512045F8573
:10019000A008AF0812045F85B008AF0812045F7FA3
:1001A0005612045FE509B46E05AF081203F3E509C2
:1001B000B4740F1203208F801203208F907F561289
:1001C000045F12047FEF700302013912039C8F0851
:0601D00012045F02013978
:030000000201D624
:0C01D600787FE4F6D8FD75817702021DE9
:1003C800BB010689828A83E0225002E722BBFE0233
:0903D800E32289828A83E4932266
:1003E100BB010689828A83F0225002F722BBFE01FB
:0203F100F322F5
:1001E200020100E493A3F8E493A34003F68001F232
:1001F20008DFF48029E493A3F85407240CC8C3331E
:10020200C4540F4420C8834004F456800146F6DFEC
:10021200E4800B0102040810204080900003E47E79
:10022200019360BCA3FF543F30E509541FFEE493E1
:10023200A360010ECF54C025E060A840B8E493A3A8
:10024200FAE493A3F8E493A3C8C582C8CAC583CAD3
:10025200F0A3C8C582C8CAC583CADFE9DEE780BE8B
:0100090000F6
:00000001FF
