:03000000020E0AE3
:0C0E0A00787FE4F6D8FD75811F020E51C0
:100EED00FC60DAF266B6BEE0FEE60362DAF266B6E2
:100EFD00BEE0FEE6FD61DBF266B6BEE0FEE600009A
:100F0D00000003D40009C51C0009C5340009CB0439
:100F1D0000008000000080010000800200008003BE
:100F2D0000008200000082010000820200008203A6
:09105F004200CB00004100E10059
:0C104800C2AF53E71843E70143E78022E2
:0910690053E77FE4F5E6D2AF2263
:0B10540012104875E64675E6B9002250
:070FD100E493FE740193FF9D
:100FD800AD07AC06ECF5E3EDF5E453E5F843E501C0
:090FE800121054121069AFE2224C
:10102400EE54FEFE7F00F5E3E4F5E453E5F843E512
:0710340003121054021069C1
:100FF100AB07AA06EAF5E3EBF5E453E5F843E502AE
:0A100100AF058FE2121054021069CF
:07100B007F607EEA12101263
:10101200E4FDFCC3ED9FEC9E50070DBD00010C806A
:01102200F2DB
:0110230022AA
:100F8300E4FEEF900EED93FFEF30E004D281800298
:100F9300C281EFC313FF0000C2800000D2800000B3
:0B0FA300C28000000EEEC3940840DD89
:010FAE002220
:081072008F993099FDC299220B
:10041A009000DCE0FCA3E0FDA3E0FEA3E0FF900077
:10042A00081203DD7B807A9679987800900008E0BC
:10043A00FCA3E0FDA3E0FEA3E0FF1202F690000297
:10044A00EFF07B807A9679987800900008E0FCA318
:10045A00E0FDA3E0FEA3E0FF1202F6AC00AD01AEA0
:10046A0002AF037B407A42790F78001202F69000BD
:10047A0003EFF07B807A967998780F900008E0FC79
:10048A00A3E0FDA3E0FEA3E0FF1202F6AC00AD017B
:10049A00AE02AF037B407A42790F78001202F6ACC3
:1004AA0000AD01AE02AF037BA07A86790178001213
:1004BA0002F6900004EFF07B807A967998780F9094
:1004CA000008E0FCA3E0FDA3E0FEA3E0FF1202F6B1
:1004DA00AC00AD01AE02AF037B407A42790F7800DF
:1004EA001202F6AC00AD01AE02AF037BA07A8679A8
:1004FA000178001202F6AC00AD01AE02AF03E47B54
:10050A00107A27F9F81202F6900005EFF07B807A4C
:10051A009679987800900008E0FCA3E0FDA3E0FE3D
:10052A00A3E0FF1202F6AC00AD01AE02AF037B40BE
:10053A007A42790F78001202F6AC00AD01AE02AF32
:10054A00037BA07A86790178001202F6AC00AD012D
:10055A00AE02AF03E47B107A27F9F81202F6AC0078
:10056A00AD01AE02AF03E47BE87A03F9F81202F6B2
:10057A00900006EFF07B807A9679987800900008D0
:10058A00E0FCA3E0FDA3E0FEA3E0FF1202F6AC004C
:10059A00AD01AE02AF037B407A42790F78001202B6
:1005AA00F6AC00AD01AE02AF037BA07A8679017882
:1005BA00001202F6AC00AD01AE02AF03E47B107A82
:1005CA0027F9F81202F6AC00AD01AE02AF03E47BE4
:1005DA00E87A03F9F81202F6AC00AD01AE02AF03F5
:1005EA00E47B64FAF9F81202F6900007EFF07B80D8
:1005FA007A9679987800A3E0FCA3E0FDA3E0FEA335
:10060A00E0FF1202F6AC00AD01AE02AF037B407A06
:10061A0042790F78001202F6AC00AD01AE02AF03C8
:10062A007BA07A86790178001202F6AC00AD01AEA1
:10063A0002AF03E47B107A27F9F81202F6AC00AD98
:10064A0001AE02AF03E47BE87A03F9F81202F6ACD2
:10065A0000AD01AE02AF03E47B64FAF9F81202F6C8
:10066A00AC00AD01AE02AF03E47B0AFAF9F812025C
:10067A00F6AD07900002E02414FF120F83900003E6
:10068A00E0FF120F83900004E0FF120F8390000531
:10069A00E0FF120F83900006E0FF120F839000071D
:0F06AA00E0FF120F83AF05120F83E4FF020F83EF
:100D7900C290D293D295D294D2919000DC1203E919
:100D8900000000002092F3C294E49000C9F0A3F09F
:100D9900C29000000000D29000000000A291E4334C
:100DA900FF9000DCE0F8A3E0F9A3E0FAA3E04FFF2D
:100DB900EAFEE9FDE8FC9000DC1203DDC290900038
:100DC900DCE0FCA3E0FDA3E0FEA3E0FF7801120351
:100DD900BA9000DC1203DD3092099000C9E4F0A357
:100DE9007418F09000CAE004F070069000C9E0049D
:100DF900F0C39000CAE094189000C9E094004090B4
:010E090022C6
:100F3D009000EE1203E900000000E47F01FEFDFCCD
:100F4D009000EEE0F8A3E0F9A3E0FAA3E0FBC312F2
:100F5D00039650219000EEE0FCA3E0FDA3E0FEA37C
:100F6D00E02401FFE43EFEE43DFDE43CFC9000EE98
:050F7D001203DD80C538
:010F8200224C
:060E96009000021203DDD2
:100E9C00C290C295D294C293E4FBFAC2900000D2E5
:100EAC0090900002A3A3A3E05401FFEF24FF9291C2
:100EBC000000900002E0FCA3E0FDA3E0FEA3E0FF35
:100ECC00790178011203A79000021203DD90000251
:100EDC001203DD0BBB00010AEB64194A70BDD295FD
:010EEC0022E3
:1006B9009000C11203E900000000E4900002F0126A
:1006C9000D799000DCE0FCA3E0FDA3E0FEA3E0FFD0
:1006D900C004C005C006C007900002E0FF3395E0E2
:1006E900FEEF7802C333CE33CED8F92405F58274F0
:1006F900003EF583D007D006D005D0041203DD7F74
:10070900027E00121012900002E004F0E0C364803F
:1007190094AF40ABE4900004F0E4900003F0900043
:1007290004E0FFC3742F9FFF900003E0FEC3EF6452
:1007390080F8EE6480984003020862EEFF3395E08A
:10074900FEEF7802C333CE33CED8F92409F582748B
:10075900003EF583E0FCA3E0FDA3E0FEA3E0FFC0BB
:1007690004C005C006C007900003E0FF3395E0FE12
:10077900EF7802C333CE33CED8F92405F58274005D
:100789003EF583E0F8A3E0F9A3E0FAA3E0FBD00784
:10079900D006D005D004D31203965003020859900D
:1007A9000003E0FF3395E0FEEF7802C333CE33CE8A
:1007B900D8F9FBAA062405F58274003AF583E0FC12
:1007C900A3E0FDA3E0FEA3E0FF9000C51203DD74E2
:1007D900092BF58274003AF583E0FCA3E0FDA3E060
:1007E900FEA3E0FFC004C005C006C007900003E0F7
:1007F900FF3395E0FEEF7802C333CE33CED8F92428
:1008090005F58274003EF583D007D006D005D004E3
:100819001203DD9000C5E0FCA3E0FDA3E0FEA3E028
:10082900FFC004C005C006C007900003E0FF339570
:10083900E0FEEF7802C333CE33CED8F92409F5822E
:1008490074003EF583D007D006D005D0041203DD2D
:10085900900003E004F0020727900004E004F0E0B0
:10086900642E60030207229000027401F09000C117
:10087900E0FCA3E0FDA3E0FEA3E0FFC004C005C0C7
:1008890006C007900002E0FF3395E0FEEF7802C34F
:1008990033CE33CED8F92405F58274003EF583E0D2
:1008A900F8A3E0F9A3E0FAA3E0D007D006D005D079
:1008B900042FFFEE3AFEED39FDEC38FC9000C11231
:1008C90003DD900002E004F0E0B42EA1E47B2DFAF0
:1008D900F9F89000C1E0FCA3E0FDA3E0FEA3E0FF6E
:0908E9001202F69000DC0203DDAE
:100C1F00E4FFFEFD7C019000DCE0F8A3E0F9A3E027
:100C2F00FAA3E0FBD31203969000DCE04017FCA37D
:100C3F00E0FDA3E0FEA3E02400FFE43EFEE43DFD63
:100C4F00EC34FF8017F8A3E0F9A3E0FAA3E0FBC3AD
:100C5F00E49BFFE49AFEE499FD740198FC9000DC9C
:100C6F001203DD9000E2E0FCA3E0FDA3E0FEA3E0B1
:100C7F00FFE41201AC7B957ABF79D6783312000668
:100C8F009000021203DD9000DCE0FCA3E0FDA3E086
:100C9F00FEA3E0FFE41201AC900002E0F8A3E0F93C
:100CAF00A3E0FAA3E0FB12010F9000021203DD9004
:100CBF000002E0FCA3E0FDA3E0FEA3E0FF1201EAC7
:060CCF009000DC0203DDD1
:100FAF00C296D29712100B7F017EC57D097C00126D
:100FBF000E9612100BC297D296121012121012C266
:020FCF00962268
:1008F2001206B9E4FFFEFD7C019000DCE0F8A3E003
:10090200F9A3E0FAA3E0FBD31203969000DCE040E7
:1009120017FCA3E0FDA3E0FEA3E02400FFE43EFEFB
:10092200E43DFDEC34FF8017F8A3E0F9A3E0FAA35D
:10093200E0FBC3E49BFFE49AFEE499FD740198FC9A
:100942009000DC1203DD900F1FE493FE740193FF0D
:10095200121024E493FE740193FFC006C0079000B6
:10096200DCE0FCA3A3A3E0FFAD07D007D006120F83
:10097200F1900F23E493FE740193FFC006C0079029
:1009820000DCE0FCA3E0FDA3E0FEA3E0FF78081298
:1009920003A7AD07D007D006120FF1900F27E493FB
:1009A200FE740193FFC006C0079000DCE0FCA3E0E8
:1009B200FDA3E0FEA3E0FF78101203A7AD07D00766
:1009C200D006120FF1900F2BE493FE740193FFC037
:1009D20006C0079000DCE0FCA3E0FDA3E0FEA3E07C
:1009E200FF78181203A7AD07D007D006120FF11235
:1009F200041A9000DCE0FCA3E0FDA3E0FEA3E0FF0C
:060A02009000E20203DD9A
:0D103B00208203120FAF2083031208F2225F
:100CD5009000D8E0FCA3E0FDA3E0FEA3E0FF9000B8
:100CE500E61203DD9000E6E0FCA3E0FDA3E0FEA331
:100CF500E0FF9000EDEFF09000E6A3A3A3E07808F5
:100D05001203A79000ECEFF09000E6E0FCA3E0FDF5
:100D1500A3E0FEA3E0FF78101203A79000EBEFF02D
:100D25009000E6E0FCA3E0FDA3E0FEA3E0FF781859
:100D35001203A7A3EFF0A3E02FFFA3E02FFFA3E08B
:100D45002FFB7599AA3099FDC299E4FA74EA2AF540
:100D550082E43400F583E0F5993099FDC2997F640A
:100D65007E001210120AEAB404E2AF038F9930999B
:030D7500FDC29923
:010D78002258
:03000300020A08E6
:100A0800C0E0C083C082C0D075D0189000E1E0FB80
:100A18006003020AC09000CCE025E0F09000CBE033
:100A280033F030A707A3E04401F080079000CCE042
:100A380054FEF09000CBE0FEA3E47003EE64CC60BB
:100A480003020B0CE064016003020B0C9000D8E079
:100A5800FCA3E0FDA3E0FEA3E0FF9000D6EFF0903A
:100A680000D8A3A3A3E078081203A79000D5EFF05D
:100A78009000D8E0FCA3E0FDA3E0FEA3E0FF78101F
:100A88001203A79000D4EFF09000D8E0FCA3E0FD9B
:100A9800A3E0FEA3E0FF78181203A79000D3EFF0BD
:100AA800A3E02FFFA3E02FFFA3E02FA3F09000E027
:100AB800E4F0A37402F0804CEB640270479000E00D
:100AC800E0FFC394285031EF131313541FFF24D3AE
:100AD800F582E43400F583E0FE30E704D2A4800216
:100AE800C2A474D32FF582E43400F583EE25E0F038
:100AF8009000E0E004F0800CA2A4E4339000E0F061
:0D0B0800E4F0A3F0D0D0D082D083D0E03252
:07107A00D2A8D288D2AF22F8
:100B1500E49000E1F0D296C2977F207E4E1210122B
:100B2500900F27120FD1E4FCFDFEFBFA7901F812B4
:100B3500026BC004C005C006C007900F2B120FD171
:100B4500E4FCFDFEFBFAF9780112026BD003D0023A
:100B5500D001D000EF2BFFEE3AFEED39FDEC38FC6D
:100B6500A804C005C006C007900F23120FD1EFFEE1
:100B7500E4FCFDD003D002D0012BFFEA3EFEED39A7
:100B8500FDEC38FCA804C005C006C007900F1F1275
:100B95000FD1E4FCFDFED003D002D001EB2FFFEE18
:100BA5003AFEED39FDEC38FC9000E21203DDC29708
:100BB500C2967580FF9000DC1203E90000000090EA
:100BC50000D27402F012041A9000D2E025E025E06C
:100BD5002411F582E4340FF5831203CD120E96121B
:100BE5000FAF759850758920758DE8758BE87587F9
:100BF50080D299D28E12107A1206B9120C1F1204E5
:100C05001A9000DCE0FCA3E0FDA3E0FEA3E0FF906A
:0A0C150000D81203DD12103B80DE50
:10000600EC4D6011E8497017ED33EC3304600DE4F4
:10001600FCFFFEFD22E933E8330470F802025612B3
:10002600022158046009E4CC2481500628500902B4
:10003600026028400302025DC0E0EB4A7044B980CA
:1000460006D0E0FB02024CEF4E701CBD8008EBFFB1
:10005600EAFEE9FD80EBE98DF0A4FEE5F00200EF93
:10006600E9CDF9EAFEEBFFEF89F0A4FCE5F0CE89D5
:10007600F0A42EFFE435F0CD89F0A42DFEE435F092
:100086008067EF4E7005BD80D780C3EF8BF0A4ACC0
:10009600F0EE8BF0A42CFCE435F0F8EF8AF0A42CFB
:1000A600E5F038FCE433CB8DF0A42CFCE5F03BF80E
:1000B600EE8AF0A42CFCE5F038F8E433CF89F0A4FE
:1000C6002CFCE5F038CF3400CE89F0A42FFFE5F004
:1000D6003EFEE433C98DF0A42EFEE5F039CD8AF05C
:1000E600A42FFFE5F03EFEE43DFD33D0E0FB5007D4
:1000F6000BBB000F020260EC2CFCEF33FFEE33FE6D
:06010600ED33FD0202389A
:10010C00020260EC5D046005E859047003020256BB
:10011C00120221580460F6EC4860F2EC7004FDFE0B
:10012C00FF22C860DB2481C85009C39860025006C6
:10013C0002025D9850CAF582E9294B4A7005AB82E0
:10014C0002024C75F0007C1A7880C3EF9BEE9AED9E
:10015C0099400DC3EF9BFFEE9AFEED99FDE842F03E
:10016C00DC23ACF0D0E0FFD0E0FED0E0FDAB822091
:10017C00E7101BEB60BAEC2CFCEF33FFEE33FEED1B
:10018C0033FD020238E803F830E705C0F075F000E3
:10019C00EF2FFFEE33FEED33FD40B830E7C280AAFF
:1001AC0075F020800E75F010800575F0087D007ECE
:1001BC00007F003392D530D503120388EC33401006
:1001CC00EF33FFEE33FEED33FDEC33FCD5F0ED22D7
:0E01DC00E5F0247EA2D513CC92E7CDCEFF2213
:1001EA00EDD2E7CD33EC3392D524814006E4FFFE0D
:1001FA00FDFC22FCE4CFCECDCC24E0501174FF806C
:10020A00EDC3CC13CCCD13CDCE13CECF13CF047008
:07021A00F030D5DE0203887D
:10022100E9D2E7C933E833F892D5EDD2E7CD33EC23
:0702310033FC5002B2D5229C
:10023800EC30E7100FBF000C0EBE00080DBD000427
:100248000BEB6014A2D5EB13FCED92E7FD2274FFD3
:10025800FCFDFEFF22E480F8A2D574FF13FC7D802C
:03026800E480EF40
:100E1600020B15E493A3F8E493A34003F68001F2D2
:100E260008DFF48029E493A3F85407240CC8C333DD
:100E3600C4540F4420C8834004F456800146F6DFAC
:100E4600E4800B010204081020408090105FE47ECD
:100E5600019360BCA3FF543F30E509541FFEE493A1
:100E6600A360010ECF54C025E060A840B8E493A368
:100E7600FAE493A3F8E493A3C8C582C8CAC583CA93
:100E8600F0A3C8C582C8CAC583CADFE9DEE780BE4B
:011068000087
:10026B00E88FF0A4CC8BF0A42CFCE98EF0A42CFC32
:10027B008AF0EDA42CFCEA8EF0A4CDA8F08BF0A4B0
:10028B002DCC3825F0FDE98FF0A42CCD35F0FCEB0F
:10029B008EF0A4FEA9F0EB8FF0A4CFC5F02ECD39D4
:0F02AB00FEE43CFCEAA42DCE35F0FDE43CFC2241
:1002BA0075F008758200EF2FFFEE33FECD33CDCCFB
:1002CA0033CCC58233C5829BED9AEC99E58298407E
:1002DA000CF582EE9BFEED9AFDEC99FC0FD5F0D65B
:1002EA00E4CEFBE4CDFAE4CCF9A88222B800C1B985
:1002FA000059BA002DEC8BF084CFCECDFCE5F0CBC3
:10030A00F97818EF2FFFEE33FEED33FDEC33FCEBFB
:10031A0033FB10D703994004EB99FB0FD8E5E4F9B6
:10032A00FA227818EF2FFFEE33FEED33FDEC33FCA3
:10033A00C933C910D7059BE99A4007EC9BFCE99A97
:10034A00F90FD8E0E4C9FAE4CCFB2275F010EF2FDC
:10035A00FFEE33FEED33FDCC33CCC833C810D707DC
:10036A009BEC9AE899400AED9BFDEC9AFCE899F817
:0E037A000FD5F0DAE4CDFBE4CCFAE4C8F922AA
:0E038800C3E49FFFE49EFEE49DFDE49CFC2286
:10039600EB9FF5F0EA9E42F0E99D42F0E89C45F0BD
:0103A6002234
:1003A700E8600FECC313FCED13FDEE13FEEF13FF34
:0303B700D8F12258
:1003BA00E8600FEFC333FFEE33FEED33FDEC33FCA1
:0303CA00D8F12245
:1003CD00E493FC740193FD740293FE740393FF2276
:0C03DD00ECF0A3EDF0A3EEF0A3EFF02293
:1003E900A8828583F0D083D08212040012040012FF
:1003F9000400120400E473E493A3C583C5F0C58324
:10040900C8C582C8F0A3C583C5F0C583C8C582C85D
:0104190022C0
:00000001FF
