:0300000002058571
:0C058500787FE4F6D8FD75811F0205CCDC
:1006C600FC60DAF266B6BEE0FEE60362DAF266B611
:0E06D600BEE0FEE6FD61DBF266B6BEE0FEE6CB
:0907570042000000004100140002
:0C074000C2AF53E71843E70143E78022F3
:0907610053E77FE4F5E6D2AF2274
:0B074C0012074075E64675E6B9002272
:1006FE00AD07AC06ECF5E3EDF5E453E5F843E501A3
:09070E0012074C120761AFE22250
:10071700EE54FEFE7F00F5E3E4F5E453E5F843E528
:070727000312074C020761F9
:1006E400AB07AA06EAF5E3EBF5E453E5F843E502C4
:0A06F400AF058FE212074C02076108
:10072E00E4FDFCC3ED9FEC9E50070DBD00010C8057
:01073E00F2C8
:01073F002297
:10069A00E4FEEF9006C693FFEF30E004D2818002B9
:1006AA00C281EFC313FF0000C2800000D2800000A5
:0B06BA00C28000000EEEC3940840DD7B
:0106C5002212
:1000060090000FE0FCA3E0FDA3E0FEA3E0FF90005C
:100016001B1203977B807A967998780090001BE0F4
:10002600FCA3E0FDA3E0FEA3E0FF1202E1900015B1
:10003600EFF07B807A967998780090001BE0FCA31D
:10004600E0FDA3E0FEA3E0FF1202E1AC00AD01AECD
:1000560002AF037B407A42790F78001202E19000EA
:1000660016EFF07B807A967998780F90001BE0FC6B
:10007600A3E0FDA3E0FEA3E0FF1202E1AC00AD01A8
:10008600AE02AF037B407A42790F78001202E1ACF0
:1000960000AD01AE02AF037BA07A8679017800122B
:1000A60002E1900017EFF07B807A967998780F90AE
:1000B600001BE0FCA3E0FDA3E0FEA3E0FF1202E1CB
:1000C600AC00AD01AE02AF037B407A42790F7800F7
:1000D6001202E1AC00AD01AE02AF037BA07A8679D5
:1000E6000178001202E1AC00AD01AE02AF03E47B81
:1000F600107A27F9F81202E1900018EFF07B807A67
:10010600967998780090001BE0FCA3E0FDA3E0FE42
:10011600A3E0FF1202E1AC00AD01AE02AF037B40EB
:100126007A42790F78001202E1AC00AD01AE02AF5F
:10013600037BA07A86790178001202E1AC00AD015A
:10014600AE02AF03E47B107A27F9F81202E1AC00A5
:10015600AD01AE02AF03E47BE87A03F9F81202E1DF
:10016600900019EFF07B807A967998780090001BC2
:10017600E0FCA3E0FDA3E0FEA3E0FF1202E1AC0079
:10018600AD01AE02AF037B407A42790F78001202CE
:10019600E1AC00AD01AE02AF037BA07A86790178AF
:1001A600001202E1AC00AD01AE02AF03E47B107AAF
:1001B60027F9F81202E1AC00AD01AE02AF03E47B11
:1001C600E87A03F9F81202E1AC00AD01AE02AF0322
:1001D600E47B64FAF9F81202E190001AEFF07B80F2
:1001E6007A9679987800A3E0FCA3E0FDA3E0FEA34D
:1001F600E0FF1202E1AC00AD01AE02AF037B407A34
:1002060042790F78001202E1AC00AD01AE02AF03F5
:100216007BA07A86790178001202E1AC00AD01AECE
:1002260002AF03E47B107A27F9F81202E1AC00ADC5
:1002360001AE02AF03E47BE87A03F9F81202E1ACFF
:1002460000AD01AE02AF03E47B64FAF9F81202E1F5
:10025600AC00AD01AE02AF03E47B0AFAF9F8120274
:10026600E1AD07900015E02414FF12069A900016DF
:10027600E0FF12069A900017E0FF12069A90001807
:10028600E0FF12069A900019E0FF12069A90001AF3
:0F029600E0FF12069AAF0512069AE4FF02069ADD
:010771002265
:100611009000271203A300000000E47F01FEFDFC0F
:10062100900027E0F8A3E0F9A3E0FAA3E0FBC312EE
:1006310003735021900027E0FCA3E0FDA3E0FEA39B
:10064100E02401FFE43EFEE43DFDE43CFC90002794
:0506510012039780C5B3
:010656002281
:1004E10090000BE0FCA3E0FDA3E0FEA3E0FF900081
:1004F1001F12039790001FE0FCA3E0FDA3E0FEA301
:10050100E0FF900026EFF090001FA3A3A3E078087E
:10051100120384900025EFF090001FE0FCA3E0FDA2
:10052100A3E0FEA3E0FF7810120384900024EFF013
:1005310090001FE0FCA3E0FDA3E0FEA3E0FF78181C
:10054100120384A3EFF0A3E02FFFA3E02FFFA3E0AA
:100551002FFB7599AA3099FDC299E4FA74232AF503
:1005610082E43400F583E0F5993099FDC2997F6406
:100571007E0012072E0AEAB404E2AF038F99309984
:03058100FDC2991F
:010584002254
:030003000203D421
:1003D400C0E0C083C082C0D075D018900014E0FB88
:1003E400600302048C900001E025E0F0900000E03E
:1003F40033F030A707A3E04401F08007900001E048
:1004040054FEF0900000E0FEA3E47003EE64CC60C0
:10041400030204D8E0640160030204D890000BE0F6
:10042400FCA3E0FDA3E0FEA3E0FF900009EFF09041
:10043400000BA3A3A3E07808120384900008EFF054
:1004440090000BE0FCA3E0FDA3E0FEA3E0FF781026
:10045400120384900007EFF090000BE0FCA3E0FD92
:10046400A3E0FEA3E0FF7818120384900006EFF0E7
:10047400A3E02FFFA3E02FFFA3E02FA3F09000132E
:10048400E4F0A37402F0804CEB6402704790001314
:10049400E0FFC394285031EF131313541FFF2406B5
:1004A400F582E43400F583E0FE30E704D2A4800250
:1004B400C2A474062FF582E43400F583EE25E0F03F
:1004C400900013E004F0800CA2A4E433900013F035
:0D04D400E4F0A3F0D0D0D082D083D0E0328D
:07076A00D2A8D288D2AF2211
:10065700E4900014F07F207E4E12072E90000F12B8
:1006670003A300000000120006759870E4F5877573
:100677008921758DFDD28E12076A12000690000F30
:10068700E0FCA3E0FDA3E0FEA3E0FF90000B120354
:030697009780E762
:10059100020657E493A3F8E493A34003F68001F223
:1005A10008DFF48029E493A3F85407240CC8C3336B
:1005B100C4540F4420C8834004F456800146F6DF3A
:1005C100E4800B0102040810204080900757E47E6C
:1005D100019360BCA3FF543F30E509541FFEE4932F
:1005E100A360010ECF54C025E060A840B8E493A3F6
:1005F100FAE493A3F8E493A3C8C582C8CAC583CA21
:10060100F0A3C8C582C8CAC583CADFE9DEE780BED8
:010760000098
:1002A50075F008758200EF2FFFEE33FECD33CDCC10
:1002B50033CCC58233C5829BED9AEC99E582984093
:1002C5000CF582EE9BFEED9AFDEC99FC0FD5F0D670
:1002D500E4CEFBE4CDFAE4CCF9A88222B800C1B99A
:1002E5000059BA002DEC8BF084CFCECDFCE5F0CBD8
:1002F500F97818EF2FFFEE33FEED33FDEC33FCEB11
:1003050033FB10D703994004EB99FB0FD8E5E4F9CB
:10031500FA227818EF2FFFEE33FEED33FDEC33FCB8
:10032500C933C910D7059BE99A4007EC9BFCE99AAC
:10033500F90FD8E0E4C9FAE4CCFB2275F010EF2FF1
:10034500FFEE33FEED33FDCC33CCC833C810D707F1
:100355009BEC9AE899400AED9BFDEC9AFCE899F82C
:0E0365000FD5F0DAE4CDFBE4CCFAE4C8F922BF
:10037300EB9FF5F0EA9E42F0E99D42F0E89C45F0E0
:010383002257
:10038400E8600FECC313FCED13FDEE13FEEF13FF57
:03039400D8F1227B
:0C039700ECF0A3EDF0A3EEF0A3EFF022D9
:1003A300A8828583F0D083D0821203BA1203BA12D3
:1003B30003BA1203BAE473E493A3C583C5F0C583F8
:1003C300C8C582C8F0A3C583C5F0C583C8C582C8A4
:0103D3002207
:00000001FF
