:10039D00FC60DAF266B6BEE0FEF6FF0B0C0D0E0F3A
:1003AD0010060708090A00010203040500010203F3
:1003BD000405060708090A0B0C0D0103050709FFC3
:1003CD000D0B0C0AFF0806040200010005060702CA
:0A03DD0003040908FFFFFF0A0B02EA
:0305E200016F01A5
:100578007571007572007573427574007575007534
:060588007642755FD822E7
:0300230002034B8A
:10034B00C0E0C083C082C0D075D010309905C2996F
:10035B00755FD8309833AB74AA75A976E5991205F9
:10036B002674012576F576E43575F575FA90004E11
:10037B00E5747009E57665827003EA65837008F5AC
:10038B0074757500757642C298D0D0D082D083D068
:02039B00E0324E
:10000300E5748575838576826571700AE57365820B
:0D0013007004E57265837002FF227F0122F8
:0C05C300755FD68F99E55F64D660FA2260
:1003E700E5748575838576826571700AE573658224
:1003F7007004E572658360E8AB71AA72A973120590
:100407000DFF74012573F573E43572F572FA9000E8
:100417004EEB7009E57365827003EA65837008F532
:07042700717572007573424C
:01042E0022AB
:0704E000E4FF1204E7E4FF52
:1004E700E4FEEF30E004D2A28002C2A2EFC313FF02
:1004F7000000C2A10000D2A10000C2A100000EEEC0
:05050700C3940840DD73
:01050C0022CC
:10056000EF6004D2A58002C2A50000C2A40000D2A0
:08057000A40000C2A400002257
:0705DB001203E7BF21FA2221
:1005B300EF1FAC0670011ED39400EC940050F1229F
:10020900AE80AD907C08ECC394105037ED20E02C03
:10021900EF9003D793F46024EC9003C793FBF46049
:100229001B74322BF87601EC932422F8E6FBEF904D
:1002390003D793FA6B6003756F01A6020CEDC31324
:10024900FD80C3E4FCECC394085037EE20E02CEFAA
:100259009003D793F46024EC9003C793FDF4601BDB
:1002690074322DF87601EC932422F8E6FDEF900321
:10027900D793FB6D6003756F01A6030CEEC313FEE4
:0202890080C330
:01028B002250
:0B05CF00E4FE7F011205600EBE10F775
:0105DA0022FE
:100472007910783274FFF608D9FCE4F9AF0112055D
:10048200607F647E001205B3AF0112020909B91040
:10049200EB1205CFE4F9743229F8E6B4FF0D7422A9
:0F04A20029F8E6F46003756F0176FF09B910E7DA
:0104B1002228
:10058E00E4FF744E2FF8E4F674612FF876300FBF47
:02059E000BF060
:0105A0002238
:10028C00E4FFFE74222EF8E62FFDF46040BE02015E
:10029C000DEDC3940A40087F0174F62DFD8002E435
:1002AC00FFED2430FCC3740A9EFB2461F8A604EE17
:1002BC0064036007ED90039D938007ED90039D937D
:1002CC004401FD744E2BF8A6050EBE0AB6BF010CF8
:1002DC0075613190039EE493F54E8006756130E4B0
:0B02EC00F54EEEC3940A500312058E7D
:0102F70022E4
:10053800E4FEFD74612DF8E6FF643060027E01ED93
:10054800C394075003EE600B1205C3BD07057F2E49
:070558001205C30DBD0BDC11
:01055F002279
:1005A100E4F559F55AF55BF55CF55DF55EF570F529
:0205B1006022C6
:10002600AF2CBF0B067560FF0205A1EF7052852F3E
:1000360060E560C39414400302017CE4F559F55A67
:10004600751830751930F55BF55CE560C3940A40A8
:1000560019751A31E5602426F51B90039EE4934436
:1000660001F55DE560900393806D751A30E56024B7
:1000760030F51B90039DE4934401F55DE5608057E0
:10008600EF64017056852E60E560C3941440030248
:10009600017CE4F559F55A751830F55BE560C394B3
:1000A6000A4017751931E5602426F51A90039EE477
:1000B60093F55CE5609003938011751930E5602433
:1000C60030F51AE4F55CE56090039D934401F55D17
:1000D600751B3090039DE493F55E22EF6402705821
:1000E600852D60E560C39414400302017CE4F55954
:1000F600F55AE560C3940A4017751831E560242661
:10010600F51990039EE493F55BE5609003938012E6
:10011600751830E5602430F51990039DE493F55B7E
:10012600E56093F55C751A30751B3090039DE4937A
:10013600FF4401F55D8F5E22EFD3940A50387403B5
:10014600D39F500EEF94065009755902C374079F4A
:10015600F5707407D39F500DEF940A5008E4F559D3
:10016600EF24F9F570E4F55BF55CF55DF55EE57099
:0601760090039D93F55A71
:01017C002260
:1002F800E4FEFDE560F4604AE55A7026FE74182EA7
:10030800F8E6FF643060027D01EEC394025003ED0D
:10031800600B1205C3BE02057F2E1205C30EBE0474
:10032800DC227F311205C37F651205C3E559B4028B
:10033800047F2D80027F2B1205C3E5702430FF1245
:0203480005C3EB
:01034A002290
:1004B200E4FDBD06031204E0BD0B081204E0E4FFF4
:1004C2001204E7ED9003A893244EF8E6FF1204E726
:0E04D2000DBD11DEE4FF1204E7E4FF0204E7B3
:10042F00E4F5A8759870F587758DFD758922D28EC4
:10043F0012057875A890FE74222EF876FF7F0112B0
:10044F0005600EBE0EF11205CF756F01E4FE90032D
:10045F009EE493FF744E2EF8A6070EBE11F0120401
:03046F00B280FE5A
:0300000002017D7D
:0C017D00787FE4F6D8FD7581760201C49D
:10050D00BB010689828A83E0225002E722BBFE02EC
:09051D00E32289828A83E493221F
:10052600BB010689828A83F0225002F722BBFE01B4
:02053600F322AE
:1001890002042FE493A3F8E493A34003F68001F259
:1001990008DFF48029E493A3F85407240CC8C33377
:1001A900C4540F4420C8834004F456800146F6DF46
:1001B900E4800B01020408102040809005E2E47EEF
:1001C900019360BCA3FF543F30E509541FFEE4933B
:1001D900A360010ECF54C025E060A840B8E493A302
:1001E900FAE493A3F8E493A3C8C582C8CAC583CA2D
:1001F900F0A3C8C582C8CAC583CADFE9DEE780BEE5
:0105E5000015
:00000001FF
