:10049C0077413B6B4D6E7E437F6FFF010305070970
:1004AC00FFFFFF00FFFF0A08060402090A05040308
:0B04BC000807060102FFFFFF000B0015
:0305CB00014801E3
:1005730075610075620075632E756400756500759D
:06058300662E7546D82229
:030023000203894C
:10038900C0E0C083C082C0D075D010309905C29931
:100399007546D8309833AB64AA65A966E599120405
:1003A900E074012566F566E43565F565FA90003A6D
:1003B900E5647009E56665827003EA65837008F58E
:1003C9006475650075662EC298D0D0D082D083D06E
:0203D900E03210
:10000300E5648565838566826561700AE56365825B
:0D0013007004E56265837002FF227F012208
:0C05AC007546D68F99E54664D660FA22A9
:1003DB00E5648565838566826561700AE563658280
:1003EB007004E562658360E8AB61AA62A9631204DD
:1003FB00C7FF74012563F563E43562F562FA90007B
:10040B003AEB7009E56365827003EA65837008F562
:07041B006175620075632E9C
:0104220022B7
:10051A00E4FEEF30E004D2A28002C2A2EFC313FFCE
:10052A000000C2A10000D2A10000C2A100000EEE8C
:05053A00C3940840DD40
:01053F002299
:10055B00EF6004D2A58002C2A50000C2A40000D2A5
:08056B00A40000C2A40000225C
:0705C4001203DBBF21FA2244
:10059C00EF1FAC0670011ED39400EC940050F122B6
:10020300AE80AD907C08ECC39410503FED20E034F9
:10021300EF9004B793F4602CEC9004A793FBF46085
:100223002374232BF87601EC932418F8E6FBEF9064
:1002330004B793FAEBB50207E547C3940A50037575
:100243004801A6020CEDC313FD80BBE4FCECC39490
:1002530008503FEE20E034EF9004B793F4602CECA9
:100263009004A793FDF4602374232DF87601EC9397
:100273002418F8E6FDEF9004B793FBEDB50307E50B
:1002830047C3940A5003754801A6030CEEC313FE3B
:0202930080BB2E
:010295002246
:0B05B800E4FE7F0112055B0EBE10F791
:0105C3002215
:10046300790B782374FFF608D9FCE4F9AF01120580
:100473005B7F647E0012059CAF0112020309B91071
:10048300EB1205B8E4F9742329F8E6B4FF067418EF
:0804930029F876FF09B90BEE10
:01049B00223E
:10058900E4FF743A2FF8E4F674492FF876300FBF78
:020599000CF064
:01059B00223D
:10032200E4FF90049C93F545755430E4FD74182D58
:10033200F8E62FFEF4602EEEC3940A40087F0174A3
:10034200F62EFE8002E4FFEE2430FCC3740A9DFB0D
:100352002449F8A604EE90049C93FC743A2BF8A668
:10036200040DBD0AC8434180BF010875493190049C
:100372009D800675493090049CE493F53AEDC39450
:060382000A500312058978
:010388002252
:1004F200E4FEFD74492DF8E6FF643060027E01EDF2
:10050200C394075003EE600B1205ACBD07057F2EA6
:070512001205AC0DBD0CDC6D
:0105190022BF
:10054000E4FDE4FF12051A0DBD0CF7E4FD743A2D2D
:0A055000F8E6FF12051A0DBD0CF3CA
:01055A00227E
:10042300E4FE743A2EF8E4F674492EF876300EBEE4
:1004330007F07E0790049CE493FD743A2EF8A6051A
:1004430074492EF876300EBE0CEA90049DE493FEB8
:0F045300743C2FF8A606744B2FF8763143418086
:010462002277
:10012700E4F974182FF8E6FDC3940A40050974F63C
:100137002DFDE4FCECFBC3740A9BF50CE49400F57D
:100147000BECC394075008743A2CF8E4F6800C9033
:10015700049CE493FB743A2CF8A60374492CF876B4
:1001670030EF2401FBE43EFAEBB50C20EAB50B1C9B
:10017700E9D394004016E990049C93FB743A2CF859
:10018700A603E92430FB74492CF8A603EFB50C1A33
:10019700EEB50B16ED90049C93FB743A2CF8A6036E
:1001A700ED2430FB74492CF8A603D3EF950CE50B2F
:1001B7006480F8EE648098401290049CE493FB748A
:1001C7003A2CF8A60374492CF876300CEC640C60D2
:1001D7000302013B7C0174392CF8E6701B743A2C3E
:1001E700F8E6FF90049CE4936F6003EF700A743A9B
:0B01F7002CF8E4F60CBC07DE4341804E
:0102020022D9
:10002600E4F5A8759870F587758DFD758922D28ED1
:1000360012057375A890FE74182EF876FF7F0112CC
:10004600055B0EBE0BF11205B8754801E4F54712C3
:100056000463852208E508C3940C5027E508C39479
:10006600065007AF087E00120127E508B406031202
:100076000322E508D39406400DE50824FEFF12048A
:10008600238003120589E548B4010975470A12055C
:1000960040E4F548120003BF01B51203DB8F09E502
:1000A60009B455101203DB8F09E50964556005850F
:1000B600090A80E0E50A64737038E5096455703210
:1000C6001203DB8F09E5096456600DE50964586083
:1000D600EFE509B457EA80E87F551205AC7509FFCC
:1000E600AF091205AC7509FFAF091205AC7F5612B0
:1000F60005ACE50A646E709CE509643F7096E508F8
:10010600C3940C50051204F2800A7F301205AC7FAE
:100116002E1205AC7F301205AC7F0A1205AC020028
:010126009A3E
:0300000002029663
:0C029600787FE4F6D8FD7581660202DD79
:1004C700BB010689828A83E0225002E722BBFE0233
:0904D700E32289828A83E4932266
:1004E000BB010689828A83F0225002F722BBFE01FB
:0204F000F322F5
:1002A200020026E493A3F8E493A34003F68001F24C
:1002B20008DFF48029E493A3F85407240CC8C3335D
:1002C200C4540F4420C8834004F456800146F6DF2C
:1002D200E4800B01020408102040809005CBE47EEC
:1002E200019360BCA3FF543F30E509541FFEE49321
:1002F200A360010ECF54C025E060A840B8E493A3E8
:10030200FAE493A3F8E493A3C8C582C8CAC583CA12
:10031200F0A3C8C582C8CAC583CADFE9DEE780BECA
:0105CE00002C
:00000001FF
