:10094B00754100754200754320754400754500756F
:06095B0046207540D82281
:03002300020731A0
:10073100C0E0C083C082C0D075D010309905C29985
:100741007540D8309833AB44AA45A946E5991203C0
:10075100DE74012546F546E43545F545FA9000403D
:10076100E5447009E54665827003EA65837008F522
:1007710044754500754620C298D0D0D082D083D030
:02078100E03264
:1008E400E5448545838546826541700AE543658212
:0D08F4007004E54265837002FF227F01223F
:0C097E007540D68F99E54064D660FA22DF
:1007D100E5448545838546826541700AE543658226
:1007E1007004E542658360E8AB41AA42A943120364
:1007F10076FF74012543F543E43542F542FA900052
:1008010040EB7009E54365827003EA65837008F582
:070811004175420075432010
:0108180022BD
:0608C60001500001510089
:03000B000204E408
:0D04E400C0E0C0F0C083C082C0D075D01849
:1004F100E5536038154CD3E54C64809480502DE56C
:100501004A5401FDE549A2E713F549E54A13F54AC5
:10051100ED60051209AB80031209AE754C03154F4E
:10052100D3E54F648094805003755300E547600321
:100531000205B8E54D603A154BD3E54B64809480D4
:100541005075754D00755200AF48EF3395E0FEEFE1
:1005510064C24E606274002550F582E43400F58374
:10056100E548F00550E550C39420404B755000809C
:1005710046E5527016120995EF703C755201F54827
:10058100754B0485544E755701802C154BD3E54BA3
:10059100648094805021754B03120995EF6004E546
:1005A100574248E55725E0F557154ED3E54E64808F
:0905B10094805003754D01C28DC8
:0B05BA00D0D0D082D083D0F0D0E0324F
:10093300E4F553F552F54DF54775540875550A120C
:0809430009AE758C80D28C22F4
:10084D00E551B5500512000980F674002551F58269
:10085D00E43400F583E0F5650551E551C39420407E
:10086D0003E4F551AF65EF3395E0FEEF64C24E60E2
:01087D00CFAB
:01087E002257
:1008A500E55370FC8F56754C0385554FEF3395E036
:1008B500FEEF25E0FFEE334402F5498F4A755301FB
:0108C5002210
:06000300E4F550F5512266
:0D097100E550655160047F0180027F002287
:04001F00E4F547229B
:1006C400007FBFDFEFF7FBFDFE2B393818171A4305
:1006D40041081B09192C26270F3E3F3C3D0C2320C3
:1006E400141F2402332132FFFF2B2F1FFF13111776
:1006F400152E2AFF1E1012141629392D3500FF025B
:10070400363828342CFF013703041B3F06232127E6
:10071400251A05073E202224263D3B191D090B0DF1
:0D0724000F3A3C1C180A080E0C313033321D
:040901007DFF7F0FE8
:10090500E4FEEEC39F500DE4FCECC39D50030C8048
:04091500F80E80EE6A
:0109190022BB
:10081900EFC39444502DEF9006ED93FFF46024EF5D
:1008290054079006C593F590EF131313541F93F5CE
:10083900807DFF7F1F1209057590FF7580FF7F037B
:030849001209058C
:01084C002289
:0F096100E4FBEB9006CD93FF1208190BBB20F3BC
:010970002264
:06099500A2B3E433FF22CF
:0309AB00D2B222A3
:0309AE00C2B222B0
:0100090022D4
:10002600E47564E8756303F562F561F5A812094B9A
:1000360012000E759870E4F587758DFD758922D2CC
:100046008E12093312001F12000375A892E4F560A0
:10005600D2B2758004759020755A01755B00755C87
:1000660024755D01755E00755F2C12099B120901EE
:1000760090002812048B000000107B017A00792082
:100086007F0212065190002C12048B000000007BA8
:10009600017A0079207F0312065190002412048B06
:1000A600000000007B017A0079207F0112065112C0
:1000B60009A690002812048B0000000090002C1264
:1000C600048B000000001209011208E4EF7003021D
:1000D60003621207D18F58E558B455101207D18F15
:1000E60058E5586455600585586080DDE5606464B0
:1000F60060030202E9AB5AAA5BA95CE5581203DE6B
:100106001207D1AB5AAA5BA95C900001EF1203F06B
:1001160090000112038F1203BC1207D1AB5AAA5BDF
:10012600A95C900002EF1203F090000212038F12F6
:1001360003BC1207D1AB5AAA5BA95C900003EF126D
:1001460003F090000312038F1203BC1207D18F58DD
:10015600AB5AAA5BA95CE5581203BC12037660038E
:100166000202BFE558640170417B017A0079207F65
:10017600011206511209A612090190002C12048BD5
:1001860000000000AB5DAA5EA95F7F01120783E451
:10019600F55890002412047390002C12047FC312A9
:1001A600041F60030202C20202BAE558B402061234
:1001B60009A10202BAE558B4030612098A0202BA74
:1001C600E5586404704190002812048B000000106A
:1001D6007B017A0079207F0212065190002C1204CE
:1001E6008B000000007B017A0079207F0312065104
:1001F60090002812048B0000000090002C12048B43
:10020600000000000202BAE558640560030202BF5E
:1002160090002C12048B00000000AB5DAA5EA95F63
:100226007F02120783AB5DAA5EA95F120376FF12F7
:10023600097EAB5DAA5EA95F90000112038FFF12D3
:10024600097EAB5DAA5EA95F90000212038FFF12C2
:10025600097EAB5DAA5EA95F90000312038FFF12B1
:10026600097E90002C12048B00000000AB5DAA5E94
:10027600A95F7F01120783AB5DAA5EA95F120376B1
:10028600FF12097EAB5DAA5EA95F90000112038F83
:10029600FF12097EAB5DAA5EA95F90000212038F72
:1002A600FF12097EAB5DAA5EA95F90000312038F61
:1002B600FF12097E7558018003E4F5587560C47F06
:1002C6005512097EE558D394004009E4FF12097ED1
:1002D600E4FF80077F0112097E7F0112097E7F56A7
:1002E60012097EE56064737045E5586455703F12E7
:1002F60007D18F58E55864566017E558B45805126B
:10030600096180EBE558645760E5AF58120819801B
:10031600DE7560C47F5512097EE4F558AF581209A0
:100326007EE4F558AF5812097E7F5612097EE560C5
:10033600B46E05AF581208A5E5606474701E120706
:10034600D18F591207D1E5592F255830E006855827
:10035600808559907560C47F5612097E120971EF27
:1003660070030200CF12084D8F5812097E0200CF8B
:1008CC0054002000000000000000000000000000A8
:0708DC000000000000000015
:10087F00E4FEFDD2A5EF30E704D2A48002C2A4EFBC
:10088F0025E0FFEE25E0FEA2A0E4334EFEC2A50D4B
:05089F00BD08E0AF06FA
:0108A4002231
:10091A00E4FED2A5EF30E704D2A48002C2A4EF25F8
:08092A00E0FFC2A50EBE08EAC1
:0109320022A2
:10000E00D2A3D2A6D2A2D2A5D2A4A2A0E433F5093D
:01001E0022BF
:0B098A00C2A1D2A17D0A7F0102090575
:0509A100C2A2D2A22257
:0509A600C2A3D2A32250
:06099B0012098A0209A105
:080651008F658B668A678968DA
:10065900C2A6D2A575F004EFA4F58285F083120431
:10066900437810120430A804A905AA06AB07E5656A
:1006790075F010A4FFAEF0EE3395E0FDFC12041204
:1006890012091AAB66AA67A96875F004E565A4F5AD
:100699008285F083120443780812043012091AABD8
:1006A90066AA67A96875F004E565A4F58285F083F3
:0A06B90012044312091AD2A5D2A6BA
:0106C3002214
:10078300C2A6D2A5EFC454F04480FF12091AE4FFB5
:1007930012091AE4FF12091AD2A5D2A6C2A5C2A64B
:1007A300E41203DEFF12087FEF540F9000011203DF
:1007B300F0E4FF12087F900002EF1203F0E4FF124F
:0D07C300087F900003EF1203F0D2A6D2A52C
:0107D0002206
:030000000205C531
:0C05C500787FE4F6D8FD75816802060C12
:10037600BB010689828A83E0225002E722BBFE0285
:09038600E32289828A83E49322B8
:10038F00BB010CE58229F582E5833AF583E0225023
:10039F0006E92582F8E622BBFE06E92582F8E2226D
:0D03AF00E58229F582E5833AF583E4932287
:1003BC00BB010989828A83F8E028F022500327F7D1
:1003CC0022BBFE05F8E328F3228A838982F8E493A2
:0203DC002822D5
:1003DE00BB010689828A83F0225002F722BBFE01FE
:0203EE00F322F8
:1003F000F8BB010DE58229F582E5833AF583E8F043
:10040000225006E92582C8F622BBFE05E92582C8EE
:02041000F222D6
:0D041200EF4BFFEE4AFEED49FDEC48FC22E9
:10041F00EB9FF5F0EA9E42F0E99D42F0E89C45F033
:01042F0022AA
:10043000E8600FECC313FCED13FDEE13FEEF13FFAA
:03044000D8F122CE
:10044300BB010DE58229F582E5833AF58302047346
:100453005007E92582F80204BCBBFE07E92582F8B0
:100463000204C8E58229F582E5833AF5830204D4C0
:0C047300E0FCA3E0FDA3E0FEA3E0FF22FC
:0C047F00E0F8A3E0F9A3E0FAA3E0FB2200
:10048B00A8828583F0D083D0821204A21204A21218
:10049B0004A21204A2E473E493A3C583C5F0C5833D
:1004AB00C8C582C8F0A3C583C5F0C583C8C582C8BB
:0104BB00221E
:1005D100020026E493A3F8E493A34003F68001F21A
:1005E10008DFF48029E493A3F85407240CC8C3332B
:1005F100C4540F4420C8834004F456800146F6DFFA
:10060100E4800B01020408102040809008C6E47EBB
:10061100019360BCA3FF543F30E509541FFEE493EE
:10062100A360010ECF54C025E060A840B8E493A3B5
:10063100FAE493A3F8E493A3C8C582C8CAC583CAE0
:10064100F0A3C8C582C8CAC583CADFE9DEE780BE98
:0108E3000014
:0C04BC00E6FC08E6FD08E6FE08E6FF226C
:0C04C800E2FC08E2FD08E2FE08E2FF2270
:1004D400E493FC740193FD740293FE740393FF226E
:00000001FF
