:100A9000804040404040404040404000F9F9F9F972
:100AA000F96FAFC777B7102020202020202020200A
:100AB0002000F7EFDFBF7F7FFFFFFFFF0804040484
:100AC00004040404040404A7FFFFFFFFFFEFEFEF9B
:0E0AD000EFEF080408040404F7F71F7FBFDFF0
:0D0D0F00420063000041006D0041006AFFDA
:050ADE00900001E0FFA3
:100AE300E4FEEF900A9093FDC2A1ED1392A0EDC333
:100AF30013FDD2A10EEEB408EFEF900A9B93FDE431
:100B0300FEC2A1ED1392A0EDC313FDD2A10EEEB46C
:100B130008EFC2A30000D2A3C2A47F0A7E00120C76
:030B2300BDD2A49C
:010B260022AC
:050B2700900001E0FF59
:100B2C00E4FEEF900AA693FDC2A1ED1392A0EDC3D3
:100B3C0013FDD2A10EEEB408EFEF900AB193FDE4D1
:100B4C00FEC2A1ED1392A0EDC313FDD2A10EEEB423
:100B5C0008EFC2A30000D2A3C2A47F0A7E00120C2D
:030B6C00BDD2A453
:010B6F002263
:050B7000900001E0FF10
:100B7500E4FEEF900ABC93FDC2A1ED1392A0EDC374
:100B850013FDD2A10EEEB408EFEF900AC793FDE472
:100B9500FEC2A1ED1392A0EDC313FDD2A10EEEB4DA
:100BA50008EFC2A30000D2A3C2A47F0A7E00120CE4
:030BB500BDD2A40A
:010BB800221A
:100BB900E4FEEF900AD293FDC2A1ED1392A0EDC31A
:100BC90013FDD2A10EEEB408EFEF900AD893FDE41D
:100BD900FEC2A1ED1392A0EDC313FDD2A10EEEB496
:100BE90008EFC2A30000D2A3C2A47F0A7E00120CA0
:030BF900BDD2A4C6
:010BFC0022D6
:100CDD00759870E4F587758DFD758CEEF58A7589BF
:0A0CED0021D28ED2A9D2AFD28C2200
:0A0D2800C2998F993099FDC29922FB
:03000B00020009E7
:0100090032C4
:03001B0002000AD6
:01000A0032C3
:03002300020016C2
:0100160032B7
:0507FC00900000EFF089
:10080100E4FF120AE3E4FF120B2CE4FF120B7590D4
:100811000000E0540FA3F0900061F014B40A0050FE
:100821007C90083075F003A4C58325F0C58373025D
:10083100084E02085C02086A02087702088402086E
:1008410091020891020891020891020891120ADEB0
:10085100120B27120B707F020208AF120ADE120B75
:1008610027120B707F010208AF120ADE120B27124A
:100871000B707F018038120ADE120B27120B707F7A
:1008810001802B120ADE120B27120B707F01801ED2
:10089100120ADE120B27120B70E4FF8011E4FF1223
:1008A1000AE3E4FF120B2CE4FF120B75E4FF120CB8
:0108B100F74F
:0108B2002223
:100BFD00EF540F900062F024FE6011146012146027
:100C0D001814601E24047024E4FF801D7F018019D8
:100C1D007F02120BB97F0580107F02120BB97F0482
:0C0C2D0080077F02120BB97F03120BB985
:010C39002298
:05000E00D2A8C2882207
:03001300020017D1
:0100170032B6
:1009D000E4F5A8120CDD75A85CD2A2E4FF120CF7B6
:1009E0007F0A1207FC7F01120BFD7F05120BFD3001
:1009F000980890006AE599F0C29890006AE0FFF4C8
:100A0000602DEF54F0900069F070051207FC80191A
:100A1000900069E0B4C008A3E0FF120BFD800A90CB
:100A20000069E0B4A00312066290006A74FFF0123D
:040A3000000380BB84
:100C9B00002097C0002C87C0003887C0008097C009
:100CAB00008C87C0009887C0FC60DAF266B6BEE0A5
:020CBB00FEE653
:0B0D1D00EF1FAC0670011E4C70F622A8
:100CBD00E4FDFCC3ED9FEC9E5015E4FBFA0BBB006D
:0F0CCD00010ABA03F8BBE8F50DBD00010C80E485
:010CDC0022F5
:060A3400900012120625DD
:100A3A00C290C295D294C293E4FBFAC2900000D24B
:100A4A0090900012A3A3A3E05401FFEF24FF929118
:100A5A000000900012E0FCA3E0FDA3E0FEA3E0FF8B
:100A6A00790178011205EF90001212062590001202
:100A7A001206250BBB00010AEB64194A70BDD29518
:050A8A00D2932092FD53
:010A8F002244
:100C3A0090000E120625C296D2977F027E00120CF1
:100C4A00BD90000EE0FCA3E0FDA3E0FEA3E0FF12CE
:100C5A000A347F047E00120CBDC297D2967F02121C
:050C6A000CBDC2962242
:06073500900002120625EF
:10073B0090000A12063100000000900006120631EC
:10074B0000000000E47F20FEFDFC900006E0F8A313
:10075B00E0F9A3E0FAA3E0FBC31205DE40030207B6
:10076B00EB900009E0F9E47F01FEFDFCA801120605
:10077B0002900002E0F8A3E0F9A3E0FAA3E05FFF28
:10078B00EA5EFEE95DFDE85C4D4E4F60319000097D
:10079B00E0FFC374179FF9E47F01FEFDFCA8011273
:1007AB000602A3E0F8A3E0F9A3E0FAA3E04FFFEA07
:1007BB004EFEE94DFDE84CFC90000A120625900018
:1007CB0006E0FCA3E0FDA3E0FEA3E02401FFE43E72
:1007DB00FEE43DFDE43CFC90000612062502074FAB
:1007EB0090000AE0FCA3E0FDA3E0FEA3E0FF020CF7
:0107FB003AC3
:100C6F00E4FEEF900CB393FFEF30E004D2818002EB
:100C7F00C281EFC313FF0000C2800000D2800000CA
:0B0C8F00C28000000EEEC3940840DDA0
:010C9A002237
:1000260090005DE0FCA3E0FDA3E0FEA3E0FF9000EE
:10003600061206257B807A9679987800900006E06D
:10004600FCA3E0FDA3E0FEA3E0FF12054C90000038
:10005600EFF07B807A9679987800900006E0FCA312
:10006600E0FDA3E0FEA3E0FF12054CAC00AD01AE3F
:1000760002AF037B407A42790F780012054C90005C
:1000860001EFF07B807A967998780F900006E0FC75
:10009600A3E0FDA3E0FEA3E0FF12054CAC00AD011A
:1000A600AE02AF037B407A42790F780012054CAC62
:1000B60000AD01AE02AF037BA07A8679017800120B
:1000C600054C900002EFF07B807A967998780F9035
:1000D6000006E0FCA3E0FDA3E0FEA3E0FF12054C52
:1000E600AC00AD01AE02AF037B407A42790F7800D7
:1000F60012054CAC00AD01AE02AF037BA07A867947
:1001060001780012054CAC00AD01AE02AF03E47BF2
:10011600107A27F9F812054C900003EFF07B807AED
:100126009679987800900006E0FCA3E0FDA3E0FE37
:10013600A3E0FF12054CAC00AD01AE02AF037B405D
:100146007A42790F780012054CAC00AD01AE02AFD1
:10015600037BA07A867901780012054CAC00AD01CC
:10016600AE02AF03E47B107A27F9F812054CAC0017
:10017600AD01AE02AF03E47BE87A03F9F812054C51
:10018600900004EFF07B807A9679987800900006CC
:10019600E0FCA3E0FDA3E0FEA3E0FF12054CAC00EB
:1001A600AD01AE02AF037B407A42790F78001205AB
:1001B6004CAC00AD01AE02AF037BA07A8679017824
:1001C6000012054CAC00AD01AE02AF03E47B107A21
:1001D60027F9F812054CAC00AD01AE02AF03E47B83
:1001E600E87A03F9F812054CAC00AD01AE02AF0394
:1001F600E47B64FAF9F812054C900005EFF07B8079
:100206007A9679987800A3E0FCA3E0FDA3E0FEA32C
:10021600E0FF12054CAC00AD01AE02AF037B407AA5
:1002260042790F780012054CAC00AD01AE02AF0367
:100236007BA07A867901780012054CAC00AD01AE40
:1002460002AF03E47B107A27F9F812054CAC00AD37
:1002560001AE02AF03E47BE87A03F9F812054CAC71
:1002660000AD01AE02AF03E47B64FAF9F812054C67
:10027600AC00AD01AE02AF03E47B0AFAF9F8120551
:100286004CAD07900000E0FF120C6F900001E0FFFC
:10029600120C6F900002E0FF120C6F900003E0FF5B
:1002A600120C6F900004E0FF120C6F900005E0FF47
:0D02B600120C6FAF05120C6FE4FF020C6F0D
:1008B300C290D293D295D294D29190005D12063118
:1008C300000000002092F3C294E490004FF0A3F0E4
:1008D300C29000000000D29000000000A291E43317
:1008E300FF90005DE0F8A3E0F9A3E0FAA3E04FFF77
:1008F300EAFEE9FDE8FC90005D120625C290900037
:100903005DE0FCA3E0FDA3E0FEA3E0FF7801120697
:100913000290005D12062530920990004FE4F0A387
:100923007418F0900050E004F0700690004FE0045B
:10093300F0C3900050E0941890004FE09400409072
:010943002291
:1002C30090004712063100000000E4900000F01295
:1002D30008B390005DE0FCA3E0FDA3E0FEA3E0FF14
:1002E300C004C005C006C007900000E0FF3395E0DE
:1002F300FEEF7802C333CE33CED8F92403F58274EC
:10030300003EF583D007D006D005D0041206259011
:100313000000E004F0E0C36480949140B2E49000F4
:1003230002F0E4900001F0900002E0FFC374119F1B
:10033300FF900001E0FEC3EF6480F8EE6480984014
:1003430003020465EEFF3395E0FEEF7802C333CE7C
:1003530033CED8F92407F58274003EF583E0FCA37D
:10036300E0FDA3E0FEA3E0FFC004C005C006C00794
:10037300900001E0FF3395E0FEEF7802C333CE3304
:10038300CED8F92403F58274003EF583E0F8A3E0A8
:10039300F9A3E0FAA3E0FBD007D006D005D004D33D
:1003A3001205DE500302045C900001E0FF3395E088
:1003B300FEEF7802C333CE33CED8F9FBAA0624036B
:1003C300F58274003AF583E0FCA3E0FDA3E0FEA30D
:1003D300E0FF90004B12062574072BF58274003A58
:1003E300F583E0FCA3E0FDA3E0FEA3E0FFC004C0AF
:1003F30005C006C007900001E0FF3395E0FEEF78EB
:1004030002C333CE33CED8F92403F58274003EF50C
:1004130083D007D006D005D00412062590004BE008
:10042300FCA3E0FDA3E0FEA3E0FFC004C005C006FB
:10043300C007900001E0FF3395E0FEEF7802C3337D
:10044300CE33CED8F92407F58274003EF583D00766
:10045300D006D005D004120625900001E004F00276
:10046300032A900002E004F0E06410600302032515
:100473009000007402F0900047E0FCA3E0FDA3E0CD
:10048300FEA3E0FFC004C005C006C007900000E063
:10049300FF3395E0FEEF7802C333CE33CED8F92491
:1004A30003F58274003EF583E0F8A3E0F9A3E0FAD4
:1004B300A3E0D007D006D005D0042FFFEE3AFEED1F
:1004C30039FDEC38FC900047120625900000E0044B
:1004D300F0E0B40FA1E47B0DFAF9F8900047E0FCDB
:1004E300A3E0FDA3E0FEA3E0FF12054C90005D1224
:1004F300062590005DE0FCA3E0FDA3E0FEA3E0FF82
:0C050300900059120625900052E004F010
:01050F0022C9
:10066200900059E0FCA3E0FDA3E0FEA3E0FF9000B0
:1006720057EFF0900059A3A3A3E078081205EF907A
:100682000056EFF0900059E0FCA3E0FDA3E0FEA3CA
:10069200E0FF78101205EF900055EFF0900059E05E
:1006A200FCA3E0FDA3E0FEA3E0FF78181205EF90A3
:1006B2000054EFF0900052E0FF900051E06F602E86
:1006C200EFF0900055E0FF900054E02FFF900056AD
:1006D200E02FFFA3E02FFF900053E02FFF90006177
:1006E200E02FFFA3E02F900058F0F4F08005E49093
:1006F2000058F0900054E0FF120D28900055E0FFE2
:10070200120D28900056E0FF120D28900057E0FFCE
:10071200120D28900053E0FF120D28900061E0FFB7
:10072200120D28900062E0FF120D28900058E0FFA1
:03073200020D288D
:100CF700900053EFF025E025E024A7F582E4340CBB
:080D0700F58312061502073501
:060003001202C3020026F8
:03000000020944AE
:0C094400787FE4F6D8FD75810702098B6E
:1005100075F008758200EF2FFFEE33FECD33CDCCA2
:1005200033CCC58233C5829BED9AEC99E582984025
:100530000CF582EE9BFEED9AFDEC99FC0FD5F0D602
:10054000E4CEFBE4CDFAE4CCF9A88222B800C1B92C
:100550000059BA002DEC8BF084CFCECDFCE5F0CB6A
:10056000F97818EF2FFFEE33FEED33FDEC33FCEBA3
:1005700033FB10D703994004EB99FB0FD8E5E4F95E
:10058000FA227818EF2FFFEE33FEED33FDEC33FC4B
:10059000C933C910D7059BE99A4007EC9BFCE99A3F
:1005A000F90FD8E0E4C9FAE4CCFB2275F010EF2F84
:1005B000FFEE33FEED33FDCC33CCC833C810D70784
:1005C0009BEC9AE899400AED9BFDEC9AFCE899F8BF
:0E05D0000FD5F0DAE4CDFBE4CCFAE4C8F92252
:1005DE00EB9FF5F0EA9E42F0E99D42F0E89C45F073
:0105EE0022EA
:1005EF00E8600FECC313FCED13FDEE13FEEF13FFEA
:0305FF00D8F1220E
:10060200E8600FEFC333FFEE33FEED33FDEC33FC56
:03061200D8F122FA
:10061500E493FC740193FD740293FE740393FF222B
:0C062500ECF0A3EDF0A3EEF0A3EFF02248
:10063100A8828583F0D083D0821206481206481220
:100641000648120648E473E493A3C583C5F0C58345
:10065100C8C582C8F0A3C583C5F0C583C8C582C813
:010661002276
:100950000209D0E493A3F8E493A34003F68001F2E4
:1009600008DFF48029E493A3F85407240CC8C333A8
:10097000C4540F4420C8834004F456800146F6DF77
:10098000E4800B0102040810204080900D0FE47EEB
:10099000019360BCA3FF543F30E509541FFEE4936C
:1009A000A360010ECF54C025E060A840B8E493A333
:1009B000FAE493A3F8E493A3C8C582C8CAC583CA5E
:1009C000F0A3C8C582C8CAC583CADFE9DEE780BE16
:010D1C0000D6
:00000001FF
