:100436007572007573007574517575007576007563
:0604460077517571D82208
:030023000202B521
:1002B500C0E0C083C082C0D075D010309905C29906
:1002C5007571D8309833AB75AA76A977E59912037D
:1002D500CE74012577F577E43576F576FA900071D9
:1002E500E5757009E57765827003EA65837008F541
:1002F50075757600757751C298D0D0D082D083D0ED
:02030500E032E4
:10040100E5758576838577826572700AE574658204
:0D0411007004E57365837002FF227F0122F5
:10044C007571D68F99C2B4E57164D660FAD2B422B4
:10030700E5758576838577826572700AE5746582FF
:100317007004E573658360E8AB72AA73A97412036E
:10032700B5FF74012574F574E43573F573FA90001D
:1003370071EB7009E57465827003EA65837008F5EF
:07034700727573007574511B
:01034E00228C
:06000300014900014A0062
:03000B00020026CA
:0D002600C0E0C0F0C083C082C0D075D0180B
:10003300E54C60381545D3E54564809480502DE543
:10004300235401FDE522A2E713F522E52313F5234B
:10005300ED6005120489800312048C75450315486D
:10006300D3E548648094805003754C00E520600319
:100073000200F3E54660331544D3E544648094807D
:10008300506E754600754B00AF21EF3395E0FEEFE0
:1000930064C24E605B74242549F8A6210549E549ED
:1000A300C39420404B7549008046E54B70161204FB
:1000B3007FEF703C754B01F521754404854D477501
:1000C3005001802C1544D3E54464809480502175FD
:1000D300440312047FEF6004E5504221E55025E01C
:1000E300F5501547D3E54764809480500375460166
:0200F300C28DBC
:0B00F500D0D0D082D083D0F0D0E03219
:10041E00E4F54CF54BF546F520754D08754E0A1270
:08042E00048C758C80D28C2235
:10038300E54AB5490512000A80F67424254AF8E6C1
:10039300F50A054AE54AC394204003E4F54AE50A11
:1003A300640A60DCAF0AEF3395E0FEEF64C24E608F
:0103B300CF7A
:0103B4002226
:1003E000E54C70FC8F4F754503854E48EF3395E023
:1003F000FEEF25E0FFEE334402F5228F23754C011A
:0104000022D9
:06047900E4F549F54A22FA
:0D046C00E549654A60047F0180027F00229F
:04048500E4F5202258
:100258007FBFDFEFF7FBFDFE3321320225242E1F7F
:1002680020424000012F2B23352B2F1FFF1311177E
:10027800152E2AFF1E1012141629392DFF00FF0211
:10028800363828FF2CFF013703041B3F062321279C
:10029800251A05073E202224263D3B191D090B0D72
:0D02A8000F3A3C1C180A080E0C313033329E
:10000E00E4FEEEC39F500DE4FCECC39D50030C8048
:04001E00F80E80EE6A
:0100220022BB
:10034F00EFC39444502DEF90027193FFF46024EFAC
:10035F00540790025893F590EF131313541F93F50E
:10036F00807DFF7F1F12000E7590FF7580FF7F034A
:03037F0012000E5B
:010382002258
:0F045C00E4FBEB90026093FF12034F0BBB11F315
:01046B00226E
:06047F00A2B3E433FF22EA
:03048900D2B222CA
:03048C00C2B222D7
:01000A0022D3
:10010000E4F5A8120436759870E4F587758DFD75D1
:100110008922D28E12041E12048512047975A892C7
:10012000E4F509D2B212045C7DFF7F0F12000E12BB
:100130000401EF70030201B81203078F08E508B449
:1001400055101203078F08E50864556005850809F6
:1001500080DDE50964737042E5086455703C120364
:10016000078F08E50864566017E508B458051204BF
:100170005C80EBE508645760E5AF0812034F80DE52
:100180007F5512044C85A008AF0812044C85B008B6
:10019000AF0812044C7F5612044CE509B46E05AF4B
:1001A000081203E0E509B4740F1203078F801203ED
:1001B000078F907F5612044C12046CEF70030201FB
:0C01C0002F1203838F0812044C02012F41
:030000000201CC2E
:0C01CC00787FE4F6D8FD758177020213FD
:1003B500BB010689828A83E0225002E722BBFE0246
:0903C500E32289828A83E4932279
:1003CE00BB010689828A83F0225002F722BBFE010E
:0203DE00F32208
:1001D800020100E493A3F8E493A34003F68001F23C
:1001E80008DFF48029E493A3F85407240CC8C33328
:1001F800C4540F4420C8834004F456800146F6DFF7
:10020800E4800B0102040810204080900003E47E83
:10021800019360BCA3FF543F30E509541FFEE493EB
:10022800A360010ECF54C025E060A840B8E493A3B2
:10023800FAE493A3F8E493A3C8C582C8CAC583CADD
:10024800F0A3C8C582C8CAC583CADFE9DEE780BE95
:0100090000F6
:00000001FF
