:100000000C9497060C9400000C9400000C940000D3
:100010000C9400000C942D0C0C94450C0C945D0C6D
:100020000C94760C0C9400000C9400000C940000CE
:100030000C9400000C9400000C94C9060C94000071
:100040000C9400000C9400000C945F0B0C940000C6
:100050000C94680B0C9400000C9400000C940000AD
:100060000C9400000C9400000C9400000C94000010
:100070000C9400000C9400000C94880B0C9400006D
:100080000C94940B0C9400000C94000005001E00CE
:100090001E000700C50705001E001E000800D1074E
:1000A00001000A001E000800C8050100010001004F
:1000B00001000100320037001A00C805FF00FF00F0
:1000C00002AA1403421704F61707761808801A09C3
:1000D000991B0A93190B0C1D0D951E004905324002
:1000E000D0C0D23F736F0CBE68EAD4BB2DA519BB3C
:1000F0009ABAA73B4B64F63AB60006BBE7CFF1B914
:10010000B7B9EF3988A908C052BA4B407495E6BF19
:10011000249F373F76E1003F63761EBF73695ABD67
:1001200029788F3EA272DB3DDA0796BE26AD363DBA
:10013000D011F33DACF656BD0D000A0068F7DB4365
:100140008235EC43ECBC1642C51AEF40D9EE3A407A
:100150008BDEA93BCBBF76BFF64241BEB8CA433E59
:1001600070CE483D7AB93B3E3BC2763E9C20563E1F
:10017000B202433E7312123E0ABB9F3D81664C3C65
:10018000892A04BD71329ABDCA4D67BD6B0F9C3D73
:10019000B8BBFD3D5737EFBC32B9BABD8AB6AC3AF1
:1001A0007C33D53C0A0010000000000056B61E3D0E
:1001B0006A5D3938DB5AFE33FA14AC32FEC477304C
:1001C000DF3DC72D0310CB2A65B08A27A61C022469
:1001D000CD402820ED64131C890DA717C0F7DC1251
:1001E0009C79810D0000000056B61E3D42A30B38DD
:1001F000FF625D34AC5F16B18D75412D27C80AA929
:1002000049BC51240FED019F00000000C40CB13B1C
:100210005E48533772B2C7B239A10D2E564715A9A1
:10022000E7E1EB23983F6C9EDC045218D11CAA3FF7
:100230005A395B3B56B7DB36A493E2B0202B6A28D1
:10024000D4A01243015184BE29A52B3928EC0DB34B
:1002500084EA29A8000000008754AD3B987B6937E9
:10026000EC2CCDB22BF91C2E0F3950A95DF1662470
:10027000BC31309FB688981968A95E93ADE63C40C2
:10028000DC3025BB37DA8537DB4403B28378102CAA
:100290003F1CA9A56C3B1843C3A289BEB39933394F
:1002A000A38F14B3625E28A8000000009F4BD63CC9
:1002B00009D63737B285C9B3501F4CAEEB1739ACEE
:1002C000460BCCA83273AFA4B994DC9F00000000A9
:1002D000E269D43C46C98337C93A3C33F0DF8AAF80
:1002E0008D05352BA80791A6B9329321A8F2379C2A
:1002F000EC0C8116C5931B9000000000815C4E3D04
:100300005DA6FF37AAFFB7B30F72112FCEFF3FAA2A
:10031000DA837125FA0614A0472E9719673A944399
:10032000C7B1BFBFE951503BE9B955B6B710D83096
:10033000EDC6ACAA00000000C53D81B9561BC6360B
:100340003337B6B0F982DC2B4732F4A629EA3921DB
:100350004C3479C04C0FEA3C5804B2B83F7E293483
:10036000481B39AF9A2BFA298B4A4DA4AFF53A1E98
:1003700093229197000000003F4B703D0AE13C380A
:100380004252F83272BBB5AF0507372B01555DA558
:10039000F001B9A1315E221DE8A4DE97E5EDE3117D
:1003A000000000003F4B703DAA773E38DA5F51B540
:1003B000279FDDB2096C23B0E1FB23AD02A8E7A9BA
:1003C000AFA667A67641A2A27E089B9E90D93F9ACF
:1003D000C6388A9573BC2F90000000007596213DA9
:1003E000A928C637F068B0B4C078ABB1397494AE00
:1003F000809821ABD90460A754CC40A34CD9BB9EB4
:100400000BDD9D99BE2E90BCD76B1F3DA8AE9B37D0
:100410006495D5B3260CAF2FBED41DAB17A02126F3
:100420005804BDA0A6E5EA1A3BC26F940F0009006C
:100430000900050005000A000600050009000B0080
:1004400009000600070009000E000B000B000A005F
:10045000AAAAAA0055555500AAAAAA313245445560
:10046000555500007AC40100030003000500C805CB
:100470000100030010000500C805010003001D0075
:100480000500C805010003002A000500C805010099
:10049000280003000A00C8050100280010000A0017
:1004A000C805010028001D000A00C8050100280039
:1004B0002A000A00C80501008C0003000A00C805D4
:1004C00001008C0010000A00C80501008C001D000E
:1004D0000A00C80501008C002A000A00C8050500B2
:1004E000030003000700E10705001E001E000800CE
:1004F000F007010058001C000300C80505000A00B1
:1005000017000700000805008200170007000B080D
:1005100005000A002D0007001808050082002D00C4
:1005200007002708000000000100FF00050003008D
:1005300003000700360805002800190008004508D8
:10054000050028002D00080056080100FF000500E6
:100550000300030006006708010082000300020098
:10056000C80501000A001E000A00C805010082003B
:100570001E000A00C80501000A0028000A00C8057C
:100580000100820028000A00C80501000A003200AC
:100590000A00C8050100820032000A00C8050100F7
:1005A0000100050003000300080078080100B40002
:1005B00003000200C80501000A001E000A00C80569
:1005C000010082001E000A00C80501000A00280080
:1005D0000A00C8050100820028000A00C8050100C1
:1005E0000A0032000A00C8050100820032000A0039
:1005F000C805010001000100050003000300080018
:10060000C8050100B40003000200C80501000A008B
:100610001E000A00C805010082001E000A00C8056D
:1006200001000A0028000A00C80501008200280015
:100630000A00C80501000A0032000A00C8050100CE
:10064000820032000A00C805010001000100050017
:10065000030003000800C80501000A001400080098
:100660008B08010050001400080094080100960057
:10067000140008009C0801000A001E000800A308DE
:10068000010050001E000800AC08010096001E008A
:100690000800B50801000A0028000800BE08010093
:1006A000500028000800C708010096002800080034
:1006B000D00801000A0032000800D90801000A0031
:1006C00032000800E2080100FF00040003000300FC
:1006D0000800C80504000A0011000400EB0801002E
:1006E0004B0016000A00C80504000A001F000300A2
:1006F000F40801003B0024000A00C8050400820041
:100700001F000300FB080100930024000A00C80535
:1007100004000A002D000300FE0801001B00320047
:100720000A00C805040082002D0003000109010031
:10073000930032000A00C80504000A002D000700DB
:10074000040901001B0032000A00C805050003006F
:1007500003000700070905000A0017000700160933
:100760000500820017000700230905000A002D007C
:1007700007003009050082002D0007003D09010037
:10078000FF00000005000A000A000800C80501007B
:100790008C00360008004A0901008C003600080071
:1007A0005809050014001E000900B6070000003FAC
:1007B000CDCC4C3D0AD7A33B6F12033A17B7513843
:1007C000ACC5A736BD370635D5FDD4DAC6F4B6AF0D
:1007D0002E2E2E00D5FDD4DAB8FCD0C2CAFDBEDD67
:1007E0002E2E2E002573002532643B25663B002506
:1007F000663B0D0A0020202020002A202020002A0D
:100800002A2020002A2A2A20002A2A2A2A002825EB
:10081000733A63682532692C25642C2573290025D9
:100820002530313B31323B30320D00252530313B14
:1008300031323B30310D00252530313B31323B30F8
:10084000300D00252530313B32360D002525303165
:100850003B32370D00252530313B30360D00252544
:1008600030313B30300D00252530313B30310D002B
:100870004348253032693A00202D2D2D2D2D2D2D68
:10088000202000253866002A6D5600206D56002075
:100890004F56455220202020002025386600202178
:1008A00020256300202D2D2D2D2D2D2D206F686DE1
:1008B00000204E4F20524541442020202000202D72
:1008C0002D2D2D2D2D2D20202020002A6F686D002C
:1008D000B2ACB5E7D7E8B2CECAFDC5E4D6C300C412
:1008E000DAB1EAD7BCD0A3D7BCD6D02E2E2E003199
:1008F0002EB5E7C1F7BBBBCFF200322EC4DAB1EAA6
:10090000D7BCD0A3D7BC00332ECDA8B5C0CCBDCDAD
:10091000B7D1A1D4F100342EC9E8D6C3CCBDCDB730
:10092000B2CECAFD00C7EBCAE4C8EBCDE2B1EAD74C
:10093000BC2843483129D7E8D6B5002825692900C5
:10094000B5E7C1F7BBBBCFF2CAB1BCE4C9E8D6C3B7
:1009500000C8C8B5E7C5BCB2CECAFDC5E4D6C30061
:10096000312ED1A1D4F1B8F7CDA8B5C0CCBDCDB74B
:1009700000322EC9E8D6C3B8F7CCBDCDB7B2CECAC7
:10098000FD00D1A1D4F1D2AAC5E4D6C3B5C4CDA887
:10099000B5C000256900434825693A2A0043482527
:1009A000693A257300C7EBD1A1D4F1D2AAC5E4D628
:1009B000C3B5C4CCBDCDB70025692E257300C7EBE8
:1009C000D1A1D4F1CDA8B5C02569CAB9D3C3B5C4E6
:1009D000CCBDCDB700302E50543130303000312EE8
:1009E000505431303000322E5054323500332E4BBB
:1009F0002D5459504500342E4E2D54595045003534
:100A00002E452D5459504500362E422D54595045EF
:100A100000372E4A2D5459504500382E532D545925
:100A2000504500392E542D54595045002A2E522D30
:100A30005459504500CAE4C8EB5274703A00CCBD1A
:100A4000CDB72569C0E0D0CDC9E8D6C3CEAA3A005B
:100A50005054202032350050542031303000542082
:100A600054595045004B2054595045004E2054597C
:100A70005045004520545950450042205459504596
:100A8000004A2054595045005320545950450052B3
:100A90002054595045003F205459504500312ED024
:100AA000F2C1D0BAC500322EC0E0D0CD00332E0046
:100AB000342E00352E00C8C8B5E7C5BCCCBDCDB7B7
:100AC0002569B2CECAFD00B2ACB5E7D7E8CCBDCD42
:100AD000B72569B2CECAFD003A2573205274703A28
:100AE0002537660052283021293A25376600613AB9
:100AF00025392E334500623A25392E334500633AB5
:100B000025392E334500C7EBCAE4C8EBCCBDCDB7C1
:100B1000D0F2C1D0BAC500CAE4C8EB5228302129AE
:100B200000CAE4C8EBCFB5CAFD6100CAE4C8EBCF88
:100B3000B5CAFD6200CAE4C8EBCFB5CAFD6300C701
:100B4000EBD1A1D4F1B9A4D7F7C4A3CABD00312E0B
:100B5000B2ACB5E7D7E8B2E2C1BF00322EB2ACB555
:100B6000E7D7E8C5E4D6C300332EC8C8B5E7C5BC8F
:100B7000B2E2C1BF00342EC8C8B5E7C5BCC5E4D6D3
:100B8000C3005363616E6E657228313A4D492C3251
:100B90003A475549444C494E45290055503A2B2F68
:100BA0002D2C444E3A2745270055502F444E3A27C6
:100BB00041272D275A2700000C00C507C807100041
:100BC000D107D40702000600AA0002000800AC000A
:100BD00002000A00AE0001000706B0000100100686
:100BE000BC0001001106BE000300430750040300CF
:100BF000460754040A004B075804040056076204D1
:100C00000F00E107D0081000F007DF080B00000814
:100C1000EF080D000B08FA080F00180807090F006D
:100C200027081609010097072805010098072A05DB
:100C30000F003608510911004508600911005608D7
:100C40007109010099074A0501009A074C05110036
:100C50006708820902009B079E0502009D07A00508
:100C600013007808A50902009F07F2050200A107FA
:100C7000F4050200A30748060200A5074A0609007A
:100C80008B08D50908009408DE0907009C08E609CE
:100C90000900A308ED090900AC08F6090900B50828
:100CA000FF090900BE08080A0900C708110A09005F
:100CB000D0081A0A0900D908230A0900E2082C0AF8
:100CC0000200A707C6060200A907C8060900EB082C
:100CD0009D0A0700F408A60A0300FB08AD0A0300FA
:100CE000FE08B00A03000109B30A03000409AD0AB3
:100CF0000F0007093F0B0D0016094E0B0D002309CD
:100D00005B0B0D003009680B0D003D09750B0100F0
:100D1000B2077E070100B30780070200B40782070D
:100D20000E004A099B0B0E005809A90B0000F8940D
:100D3000EE27ECBBF1E0F5BFE5BFE0936C00F8E116
:100D4000F1BDE1BD8DE0A2E0BB27ED938A95E9F707
:100D500080E090E1A0E0B1E0ED930197E9F7E8EBE6
:100D6000FBE085919591009761F0A591B591059073
:100D70001590BF01F00105900D920197E1F7FB017D
:100D8000F0CFEFEFEDBFE0E1EEBFC0E0D5E00C94B7
:100D90008E0918951DC0EFEFE8BB0895E0E0E093E1
:100DA0000706E4E00E940B280895E1E0E0930706BF
:100DB000E3E00E940B2808950E9414280E94E43466
:100DC0002CF40E9419280E94353302C00E94192871
:100DD000249608951A9310E010E0183030F50E9420
:100DE0001E280F01A4ECB1E00E942328E081E0302E
:100DF000E1F00E941E28E081E03328F00E941E28C6
:100E0000E081EA3358F00E941E28E081E13428F0A6
:100E10000E941E28E081EB3508F001C004C0E0E02C
:100E2000E093080602C01F5FD8CFE8E0F6E0188123
:100E30002EC01A9310E010E0183030F50E941E28E2
:100E40000F01ACE1B4E00E942328E081E030E1F042
:100E50000E941E28E081E03328F00E941E28E081D5
:100E6000EA3358F00E941E28E081E13428F00E9405
:100E70001E28E081EB3508F001C004C0E0E0E093FB
:100E8000080602C01F5FD8CFE8E0F6E0188122967E
:100E900008951A930A93AA81BB811197AA83BB83F1
:100EA00011960E94E03448F408E110E0D8010150A6
:100EB00010400E94E034D0F3EECF198108812496CF
:100EC00008950E9431280E94382819F010F00C94DF
:100ED0006E070E9431280E943F2810F40E94462885
:100EE0000E944F280E94562819F010F00C947D079C
:100EF0000E944F280E945D2810F40E9464280895E3
:100F00001A930E946D281E2FA0910206A33018F09C
:100F1000E0E0E09302061F3F11F40E947528E09183
:100F20000206E030C1F40E948628E33020F00E94DF
:100F30008628EB3008F00DC00E948E28E0ECF7E226
:100F400069E070E00E949328E1E0E0930206E0E0AF
:100F500075C10E947528A0910206A13051F50E942A
:100F6000A528EA0FFB1FFF93EF930E940014AF9197
:100F7000BF910E94AB280E94B2280E94A5280E941F
:100F8000BD280E94C428FF93EF930E94A5280E94C9
:100F9000BD280E948628EA930E949611AF91BF91C6
:100FA0000E94AB280E94DF280E94E928E2E0E0933B
:100FB0000206A0910206A23011F40E94FC28E1E092
:100FC0003DC11A930E9404291E2FA0910206A6304B
:100FD00018F0E0E0E09302061F3F11F40E940C2994
:100FE000E0910206E03091F50E941D29E43F20F4D3
:100FF0000E941D29E13F08F427C00E948E280E940C
:1010000025290E942B290E941D29E13F11F40E94ED
:1010100036290E941D29E23F11F40E9436290E94C0
:101020001D29E33F29F40E944E29E0E0E09362008D
:101030000E9463290E94702911F4E1E001C0E2E0FE
:10104000E0930206E0E0FAC00E940C29A09102069B
:10105000A13071F40E9476290E947C29E9E60E9461
:1010600085290E946329E2E0E0930206E0E0E6C001
:10107000A0910206A23001F50E94702981F40E941D
:101080007629A091C405B091C5058091C6059091BF
:10109000C7050E94DB330E947C29E3E005C00E9463
:1010A00076290E947C29E4E0E09302060E948A29C6
:1010B0000E946329E0E0C2C0A0910206A33069F457
:1010C0000E9476290E9495290E9425290E94632961
:1010D000E4E0E0930206E0E0B1C0A0910206A43093
:1010E00011F00C9417090E947029A9F40E94762926
:1010F0000E949E290E94DB330E949529E0910306FD
:10110000F091040660910506709106060E94CB32AC
:101110000E94CA0604C00E9476290E9495290E9456
:10112000A7290E94DC3411F40C940909ECEDF4E0D9
:101130000F010E940429D0010E94B029E33FD9F495
:101140000E94A528EA0FFB1FFF93EF93A0E4B0E0F5
:101150000E94B6290E9477347F936F93FF93EF9399
:101160000E94BE29AF91BF918F919F910E94C32988
:10117000AF91BF911AC00E94A528EA0FFB1FFF93F1
:10118000EF93A8E0B0E00E94B6290E9477347F93E5
:101190006F93FF93EF930E94BE29AF91BF918F9100
:1011A0009F910E94C329AF91BF910E94BC320E94BF
:1011B000A5280E94C829DF01CB010E94E83444F52C
:1011C0000E94CD290E94B2280E94D2290E94CB32CF
:1011D0000E94C428FF93EF930E94A5280E94BD2877
:1011E0001A9363D5AF91BF910E94BC320E94A5288B
:1011F0000E94C829E093C005F093C1056093C20521
:101200007093C3050E94CD290E94DF280E94E9281F
:101210000BC0A0E6B5E0F6010E94DB29E0E0FCE3AC
:101220006CE176EC0E94BC32E5E0E0930206A0910E
:101230000206A53011F40E94FC28E1E019910895FE
:1012400026970E94E029E5EFF7E00E94E429E0916B
:101250000206E03031F40E94E029EAEFF7E00E9454
:10126000E429A0910206A13031F40E94E029EFEFB9
:10127000F7E00E94E429A0910206A23031F40E9416
:10128000E029E4E0F8E00E94E429A0910206A330FE
:1012900031F40E94E029E9E0F8E00E94E4290E948C
:1012A000EB2961F40E94CD29EEE0F8E0FA93EA938D
:1012B0000E940429EA930E9419070BC00E94CD29BD
:1012C000EEE0F8E0FA93EA930E946D28EA930E9418
:1012D000EA06662777270E94CB32F60131960E94F4
:1012E000F1290E94F629E0EAF6E861E070E00E9448
:1012F0004A320E94CB32FE0170960E94FF2980E1A3
:101300000E9489256496E2EBF0E00E94042A26966A
:101310000895E881E0931006219608953DE20E9429
:101320006107FBD371D215D405D30E94CB060E946E
:101330002912E0E0E1BD78944424E0E4FDE00E945D
:101340000A2A0E94C512ECE8F0E00E940E2AE1E0B1
:101350000E940B280E94D506E7E00E940B28E6E0D9
:101360000E940B28E0E2FEE40E940A2A0E949114E7
:101370000E94122A0E942B290E941B2AEDE04E2E69
:10138000EDE25E2EE1E0F0E03F010E941E2A4420E3
:1013900051F04A9273D1EFEFEA93E091B407F091E4
:1013A000B50709954424EDE2E51511F40C949F0A64
:1013B000E1E6E51551F0E2E6E51539F0E3E6E5157D
:1013C00021F0E4E6E51509F0B1C0352D0E94222A8E
:1013D00031F40E94CD12E6E9F0E00E940E2A313687
:1013E000A9F40E944E290E94EB2929F40E942B2A7D
:1013F0000E94CE0606C00E94122A0E942B290E943B
:10140000D506E9E60E94392A0E943E2A323601F5C5
:101410000E94EB29E9F40E944E290E94702949F4A8
:10142000AFE3B0E0E0E00E940533E2E6EA93E1E0FA
:1014300008C0AFE3B0E0E1E00E940533E2E6EA93E2
:10144000E0E0EA930E94D9120E9425290E943E2AD8
:10145000333611F00C94730AE3E60E94392A0E9495
:10146000542AF1F50E945A2A0E2F1127EFEFF0E0CF
:10147000E017F107A9F10E94632AE33020F00E94EF
:10148000632AEB3008F010C00E94632AEA3039F476
:10149000E4E8F2E0E00FF11FDF01E3E003C00E94A7
:1014A000632AEF5F0E9405330E946B2A0E94C829BD
:1014B0000E94722A09F010F40C94700A0E947B2A90
:1014C000EA0FFB1FFF93EF930E946B2A0E94BD2837
:1014D0000E94632AEA932AD7AF91BF910E94BC323F
:1014E000E3E60E9485293436C1F4E4E60E94392AF5
:1014F0000E94EB2939F40E94D229A0E0B0E00E94BA
:10150000F23208C0E8E0EA930E94A313E0E8F6E9AB
:101510000E940A2AE4E60E9485290E94222A21F4D8
:10152000EFEFEA930E94AA143DE206C05A92E091BE
:10153000B407F091B5070995EDE25E2E9DC00E94BB
:10154000222A09F024CF0E94F629A230E0E0BE074B
:10155000E0E08E07E0E09E0710F40C94F40AE091BE
:10156000FE05F091FF0560910006709101060E9452
:10157000822AE093FE05F093FF05609300067093C6
:1015800001060E94872AA639E6E8BE07E1E08E0739
:10159000E0E09E0711F40E9420090E94872AA03AE9
:1015A000E6E8BE07E1E08E07E0E09E0749F4E0E0F0
:1015B000E093FE05E093FF05E0930006E09301064B
:1015C000E091FA05F091FB056091FC057091FD0535
:1015D000319760407040E093FA05F093FB0560930B
:1015E000FC057093FD05D3CE0E9420090E94542A69
:1015F00031F40E948007E03009F4C9CE05C00E9492
:10160000E107E03009F4C3CEF60131966F01E8E15D
:10161000F0E0CE16DF061CF0CC24DD242DC00E94A5
:10162000542A19F4EEE0F0E002C0E6E2F0E0EC0D3E
:10163000FD1DDF010E94E6320E2F1127EFEFF0E0D3
:10164000E017F10709F30E94542A59F40E94632A13
:10165000E33020F00E94632AEB3008F001C00CC098
:101660000AC00E94902AE43F20F40E94902AE13FA1
:1016700008F401C001C0C8CF8ACEFFCF1A9310E092
:101680001930D0F4E3E0E19FF001E054FF4FE49122
:10169000AE2FE981EA1771F4A12FBB2761EC70E04E
:1016A000E3E0F0E00E94982AE093B407F093B507D6
:1016B000188103C01F5FE4CF1881229608950E940D
:1016C0009F2A1BB10CB10A93C7D60E94AF2A189566
:1016D000EA93FA93EFB7EA93E0919406E03099F039
:1016E000E150E0939406E0919306EF5FE093930658
:1016F0000E94BF2AEE5EF94FE081ECB9E0919306BB
:10170000EF77E0939306E991EFBFF991E99118958E
:101710000E949F2A10919B0000919C000A930E94B6
:1017200044140E94AF2A1895EA93FA93EFB7EA930C
:10173000E0911707E030A1F0E150E0931707E09146
:101740001607EF5FE09316070E94BF2AEB56F94F8A
:10175000E081E0939C00E0911607EF77E093160795
:10176000E991EFBFF991E9911895A0919406A038FD
:10177000E1F3F894E0919406E03011F45D9916C01D
:10178000E0919206EF5FE09392060E94BF2AEE5E20
:10179000F94FA881A083E0919206EF77E09392063B
:1017A000E0919406EF5FE093940602C0E881ECB903
:1017B000789421960895A0911707A038E1F3F89442
:1017C000E0911707E03021F4E0919B00E072B1F462
:1017D000E0911507EF5FE09315070E94BF2AEB56D3
:1017E000F94FA881A083E0911507EF77E0931507E3
:1017F000E0911707EF5FE093170703C0E881E093DC
:101800009C00789421960895E0E0EBB9E8EDEAB900
:10181000E6E0E0939500E0E0E0939000EFE0E9B9C6
:10182000E0E0E0939B00E8EDE0939A00E6E0E093CF
:101830009D00E0E0E0939800EFE0E0939900E0E0A5
:10184000E0939206E0939306E0939406E0931507E5
:10185000E0931607E093170708950E94C22AE091CB
:101860000072EF70EC3019F4109100E009C0E43020
:1018700039F4109100701A9365D70E94D12A1895F7
:10188000109100750E94D12A18950E94C22AE091F9
:1018900000B2EF70EC3019F4109100E009C0E430B0
:1018A00039F4109100B01A934CD70E94D12A1895A0
:1018B000109100B50E94D12A18950E94C22AE09189
:1018C00000D2EF70EC3019F4109100E00AC0E4305F
:1018D00041F4109100D01A930E9489090E94D12AE4
:1018E0001895109100D50E94D12A18950E94C22AFD
:1018F000E09100E2EF70EC3019F4109100E00AC0C2
:10190000E43041F4109100E01A930E9489090E948A
:10191000D12A1895109100E50E94D12A18951B9A9A
:10192000E0E5F3EC0E940A2A1B98E0E5F3EC0E9444
:101930000A2A08950E948F0CE0E8E0930073E0E328
:10194000E0930070E0E0E0930071EBE1E09300735E
:10195000E7E0E0930072E8E0E0930074E1E0E093F8
:101960000071E0E8E09300B3E0E3E09300B0E0E072
:10197000E09300B1EBE1E09300B3E7E0E09300B265
:10198000E8E0E09300B4E1E0E09300B1E0E8E09348
:1019900000D3E0E3E09300D0E0E0E09300D1EBE19E
:1019A000E09300D3E7E0E09300D2E8E0E09300D4D6
:1019B000E1E0E09300D1E0E8E09300E3E0E3E093CE
:1019C00000E0E0E0E09300E1EBE1E09300E3E7E03A
:1019D000E09300E2E8E0E09300E4E1E0E09300E17E
:1019E00008951A930A931B81EA81E030E1F41030E4
:1019F000C9F0E0910075E072E1F300E0103110F4FD
:101A0000E12F01C0E0E10E1730F40E94E02AE093DC
:101A100000700F5FF3CF103110F4E12F01C0E0E14F
:101A20001E1BE5CF76C0E130E1F41030C9F0E09143
:101A300000B5E072E1F300E0103110F4E12F01C0D5
:101A4000E0E10E1730F40E94E02AE09300B00F5F4F
:101A5000F3CF103110F4E12F01C0E0E11E1BE5CF00
:101A600058C0E230E1F41030C9F0E09100D5E072E6
:101A7000E1F300E0103110F4E12F01C0E0E10E17B6
:101A800030F40E94E02AE09300D00F5FF3CF1031D2
:101A900010F4E12F01C0E0E11E1BE5CF3AC0E330B6
:101AA000E1F41030C9F0E09100E5E072E1F300E00C
:101AB000103110F4E12F01C0E0E10E1730F40E9464
:101AC000E02AE09300E00F5FF3CF103110F4E12F34
:101AD00001C0E0E11E1BE5CF1CC0E43059F4A12F8A
:101AE0001150A13030F00E94E02AEA930E94B50B19
:101AF000F6CF0FC0E53059F4A12F1150A13030F0CE
:101B00000E94E02AEA930E94DB0BF6CF02C0E0EFCE
:101B1000E5BB1981088126960895E0E0EBBBEABB9E
:101B2000EFEFE8BBE7BBE0EFE5BBEFEFE4BBE0E0E6
:101B3000E2BBE1BBE6E0E3B9EEE0E2B9EFE0E0935F
:101B40006200E0936100E0E0E0936500E0936400F0
:101B50000895E0ECE5BFEEE4E0936D00E0E8E0938B
:101B60006C0008956C971A930A93EEEAFEE060E821
:101B70007BE3EA8FFB8F6C8F7D8FEFE7F5E06BE106
:101B800075EBEE8BFF8B688F798FEDE1FDE263E9FA
:101B90007CEAEA8BFB8B6C8B7D8BE0E0F0E068E409
:101BA00073EC0E94E62AE0E0F0E864E574E40E9449
:101BB000EB2A00E010E00E94F02A0E94F52A0E9421
:101BC000FA2A09F010F40C94E80D0E94052B0CF091
:101BD0005AC00E940C2BEA8DFB8D6C8D7D8D0E946E
:101BE0001D2B0E94222B0E941D2B0E94DB337F9312
:101BF0006F93FF93EF930E942B2B0E941D2B0E944B
:101C0000222B0E94302B0E942934AF91BF918F91DB
:101C10009F910E94352B0E94302B0E94E43414F5D2
:101C2000EA89FB896C897D890E941D2B0E942934D9
:101C30007F936F93FF93EF930E94302BE0E0F0E0EF
:101C400068EC72E40E94C329AF91BF918F919F917C
:101C50000E94222B0E94302B0E94222B0E943C2BA0
:101C60000E94352B0E94412BAAA1BBA18CA19DA152
:101C70000E94BC3428F40E94462B0E94EB2A02C02A
:101C80000E944B2B98CF0E944D2B7F936F93FF9315
:101C9000EF930E94552BAF91BF918F919F910E941E
:101CA000602B19810881A69608956C971A930A9360
:101CB000EE8DACE9B2E00E947D2B0E94DD32EA8F0E
:101CC000FB8F6C8F7D8FACEFB2E0EE8D0E947D2B91
:101CD0000E94DD32EE8BFF8B688F798FACE5B3E02D
:101CE000EE8D0E947D2B0E94DD32EA8BFB8B6C8B8C
:101CF0007D8B0E947F2BE13F19F40E94832BFCC057
:101D00000E947F2BE33F19F40E94832BF5C00E94B1
:101D10007F2BE23F29F0EFEFFFE36CE176ECECC0C4
:101D2000ACEBB3E0EE8D0E947D2B0E94DD32DF0133
:101D3000CB01EDECFCEC6CEC7DE30E94BC3409F0D3
:101D400010F40C94AD0EACEBB3E0EE8D0E947D2B45
:101D50000E94DD320E948E2B06C00E948E2BE0E096
:101D6000F0E068EC71E40E947734EF8FF8A369A388
:101D70007AA30E94CB322BD10E94932B0E94E62A99
:101D8000EE85FF8568897989A0E0B0E080E090E485
:101D90000E94DB330E94EB2A00E010E00E949A2BA5
:101DA00009F010F40C94D70E0E94052B0CF096C08D
:101DB0000E940C2B0E94462B0E94CB32A1D00E9485
:101DC0009D2B0E94302BEDE1F8E56DE373EC0E9452
:101DD000BC3468F00E94302BEAE0F7ED63E27CE36C
:101DE0000E94BC3419F010F00C94F70E01C01FC013
:101DF0000E94A22B0E94A82B7F936F93FF93EF93D7
:101E00000E94A22B0E94B22B7F936F93FF93EF93BC
:101E10000E94B92B0E94DC26AF91BF918F919F91B8
:101E20000E942934AF91BF918F919F9146C00E942B
:101E3000A22B0E94A82B7F936F93FF93EF930E9496
:101E4000A22B0E94B22B7F936F93FF93EF930E947C
:101E5000A22BAF91BF918F919F910E942934AF9196
:101E6000BF918F919F910E94DB337F936F93FF937C
:101E7000EF930E94A22BAA89BB898C899D890E941D
:101E800029347F936F93FF93EF930E94A22BAF911E
:101E9000BF918F919F910E9429347F936F93FF93FD
:101EA000EF930E94A22BAF91BF918F919F910E94BF
:101EB0002934AF91BF918F919F910E94DB330E9493
:101EC0009D2B0E94412B0E948E2B0E94BC3418F443
:101ED0000E94BD2B02C00E944B2B60CF0E944D2B55
:101EE0007F936F93FF93EF930E94552BAF91BF9118
:101EF0008F919F910E94602B19810881A39608956C
:101F00000E94BF2BECF5E4E0F1E00E94C5320E9494
:101F10009D2B0E94F52AA3E3B3E988E893E40E948D
:101F2000C92BEBE7F4E968E873E40E9477340E9478
:101F3000CE2BA0E0B0E080EC9FE30E94C92BE0E054
:101F4000F0E060EC7FE30E9477340E94D12B01E047
:101F500010E0E8E3F1E0E4910E94D62B54F4F8019C
:101F6000A4E0B1E00E94DB2B0E94E92B0F5F1F4F22
:101F7000F0CF0E94B92B0E9452270E949D2B24C0B3
:101F8000ECEDF0E00E94C5320E949D2B0E94F12BE7
:101F9000E0E0F0E860EF73E40E9477340E94932B56
:101FA0000E94D12B01E010E0EAE3F1E0E4910E940D
:101FB000D62B54F4F801ACEDB0E00E94DB2B0E946C
:101FC000E92B0F5F1F4FF0CF0E94412B68C00E948A
:101FD000BF2B1CF10E94F12BE3ECF5EF68E270E4FB
:101FE0000E94C329DF01CB01E5E8FBEE61ED7FE351
:101FF0000E94F62BECE3F1E00E94FB2BE4EAF1E017
:10200000E4910E94D62B44F4F801ACE3B1E00E94C5
:10201000042C0F5F1F4FF2CF40C00E94F52A0E9490
:10202000CB32EBEAFAEA6AE27EE30E94CB320E940C
:10203000D227DF01CB01E6E6F6E666E27FE30E9407
:10204000C329DF01CB01E3E3F3E363EB7EE30E940B
:10205000F62BE4E6F1E00E94FB2BE6EAF1E0E491E6
:102060000E94D62B44F4F801A4E6B1E00E94042CAF
:102070000F5F1F4FF2CF0E94462BA3E3B3E988E81E
:1020800093E40E942934DF01CB01E3E3F3E968E83C
:1020900073E40E94C3290E94192C0E94462B1981C7
:1020A00008812E96089528970E94F53420E030E0AC
:1020B000EC85E930B1F40E941E2C1CF4E8EAF1E052
:1020C00002C0E4EEF1E00E94252C2CF4ECE2F4E0F6
:1020D0000E94C13204C0EEE2F4E00E94C1329F01CE
:1020E000CFC0E330B1F40E941E2C1CF4E8EDF3E005
:1020F00002C0E4E0F4E00E94252C2CF4ECE4F4E0CF
:102100000E94C13204C0EEE4F4E00E94C1329F019B
:10211000B7C0E430B1F40E941E2C1CF4E8EAF2E0EF
:1021200002C0ECECF2E00E94252C2CF4ECE3F4E08D
:102130000E94C13204C0EEE3F4E00E94C1329F016C
:102140009FC0E530B1F40E941E2C1CF4E0EAF3E0DD
:1021500002C0E4E7F3E00E94252C2CF4E8E4F4E06C
:102160000E94C13204C0EAE4F4E00E94C1329F013F
:1021700087C0E630C1F40E942A2C18F4E4E3F3E0AF
:1021800002C0E0E5F3E00E94352C0E942A2C28F4DE
:10219000E4E4F4E00E94C13204C0E6E4F4E00E940A
:1021A000C1329F016DC0E730C1F40E943A2C18F48F
:1021B000E8EFF2E002C0ECE1F3E00E94352C0E946F
:1021C0003A2C28F4E0E4F4E00E94C13204C0E2E4D6
:1021D000F4E00E94C1329F0153C0E83031F50E9403
:1021E000452C0E944A2C18F4E8E0F2E008C00E9456
:1021F000512C18F4ECE2F2E002C0E0E4F2E00E94BC
:10220000592C28F4E0E3F4E00E94C1320CC00E9493
:10221000512C28F4E2E3F4E00E94C13204C0E4E36C
:10222000F4E00E94C1329F012BC0EA3031F50E94D8
:10223000452C0E944A2C18F4E4E5F2E008C00E9404
:10224000512C18F4ECE7F2E002C0E4E9F2E00E945D
:10225000592C28F4E6E3F4E00E94C1320CC00E943D
:10226000512C28F4E8E3F4E00E94C13204C0EAE310
:10227000F4E00E94C1329F0103C00E945C2C52C056
:10228000022E032A19F40E945C2C4CC0E09118071E
:10229000F09119070E94C5320E94612CAC85A330D1
:1022A000D1F40E94662CA6E0BFE288EF98EB0E9472
:1022B00029347F936F93FF93EF930E94662CAF9125
:1022C000BF918F919F910E946C2CACE4B3EE82EF92
:1022D0009DE30E94712CED85FE856F8578890E94B3
:1022E0007A2C01E010E002171307D4F4F801A09152
:1022F0001807B09119070E947F2C0E94C5320E94D6
:10230000452C0E94712C0E94842C0E94452C0E9416
:102310002934ED87FE876F87788B0F5F1F4FE3CFE0
:102320000E94892C0E94FC346196089560971A934C
:102330000A9300E010E0EA89E93049F40E948E2C0B
:10234000E0E0F0E068EC73E40E94EB2A4DC0E3307B
:1023500049F40E948E2CE0E0F0E86BEA74E40E94FD
:10236000EB2A42C0E43049F40E948E2CE0E0F0E811
:1023700062EA74E40E94EB2A37C0E53049F40E9417
:102380008E2CE0E0F0E06AE774E40E94EB2A2CC0B7
:10239000E63061F4E0E0EE87EF87E88BE98BE0E080
:1023A000F0E061EE74E40E94EB2A1EC0E73069F4AD
:1023B000E0E0F0E062E573EC0E94E62AE0E0F0E0A5
:1023C00066E974E40E94EB2A0FC0E83019F40E9419
:1023D000932C0AC0EA3019F40E94932C05C0E0E067
:1023E000F0E46CE176EC31C00E949A2B09F010F415
:1023F0000C94FD110E94052B0CF019C00E940C2BAF
:102400000E94462B0E94CB32EE89EA930E94531021
:102410000E949D2CAB89BC898D899E890E94BC3409
:1024200018F40E94BD2B02C00E944B2BDDCF0E94EE
:102430004D2B7F936F93FF93EF930E94552BAF919A
:10244000BF918F919F910E94602B1981088167969F
:102450000895EDE25E2E0895A881A03F31F0A13FDE
:1024600021F0A23F11F0A33F21F4E881E0931A0785
:1024700056C2EDE2E51509F4588051C21A930A9349
:10248000EA81E07FE295EF701E2FEA81EF700E2F58
:102490001A3018F4E12FE05D03C0E12FEF5BEA5042
:1024A000E09349070A3018F4E02FE05D03C0E02F05
:1024B000EF5BEA50E0934A0724C01A930A9310E0B6
:1024C00000E0E3E4F7E00E949F2C10E0EA811E1791
:1024D00048F40E94A72C0E94AD2C0E94A72C0E0F3E
:1024E0001F5FF4CFA12FB0E0A55EB84FEFEFE01B68
:1024F000EC930E94A72C0E94AD2CE6E4F7E00E942A
:102500009F2C19810881239608952497A0911A077A
:10251000A03F91F0A23FD1F3A13F69F4EBE4F7E0D3
:10252000FA93EA93EAE0EA93E4E0EA930E94F10C7A
:10253000E2EFE0931A07EACF0E94BA2CE3EFE093B0
:102540001A07A0911A07A03FF1F0A13F11F40E94D1
:10255000BA2C0E941428A63FEFEFBE07E9E08E07D1
:10256000E0E09E0768F4E1E0F0E00E940A2A0E94A1
:1025700019280E94822AE883F9836A837B8302C038
:102580000E94BA2CDECF25960895E0EFE0931A075B
:102590000E94C42C0E94C42C0895E4E0E0931B0721
:1025A000E1E0EA930E9485120895E6E00E94CB2CB8
:1025B00054C0E2E0E0931B07E881E03019F4E981C0
:1025C000EC5FE983E981E0931C07E2E0EA930E9473
:1025D000851222960895E5E00E94CB2C3EC0E7E0EC
:1025E0000E94CB2C3AC01A9310E0ED81E0931B07B8
:1025F000EC81E0931C07EB81E0931D0711E0A981BA
:10260000BA81EC91E03061F00E94DD2C0F01A981CC
:10261000BA81ED91A983BA83D001EC931F5FEFCF0C
:102620000E94DD2CA0E0A083EEE1F7E010831C5FA8
:102630001A930E948512188126960895E8E00E9458
:10264000E22C0BC0E9E00E94E22C07C0E0E10E940E
:10265000E22C03C0E1E10E94E22C249608950E943E
:10266000EB2911F4E3E201C0E1E2E0938207E3E841
:10267000F7E0ADE0A083E4E8F7E00E94ED2CE3E0B2
:102680000E94F42C0895A881A13041F4C498E0EC94
:10269000F7E20E940A2AC49AEFEFE8BBA881A230B1
:1026A00049F4C598E0ECF7E20E940A2AC59AEFEFD8
:1026B000E8BB35C10E94F92CE13059F5A881AA3058
:1026C000A0F4E881E05DE0938207E3E8F7E0A1E4AD
:1026D000A083E4E8F7E0ADE0A083E5E8F7E00E943E
:1026E000ED2CE4E00E94F42C1AC1A881EAE00E94DB
:1026F0002432E05DE09382070E94FE2CE093830782
:10270000E4E8F7E0A1E4A0830E94052DE5E00E9443
:10271000F42C0E94F92CE23099F4E1E4E093820772
:10272000A881EAE00E942432E05DE09383070E94E2
:10273000FE2CE09384070E94052DE5E00E94F42C16
:10274000EEC0EDC0ECC0A881A23031F40E940C2D87
:10275000EFE1F8E00E94E429A881A33031F40E945F
:102760000C2DEBE2F8E00E94E429A881A43031F4BA
:102770000E940C2DE7E3F8E00E94E429A881A5302F
:1027800031F40E940C2DE3E4F8E00E94E429A881D2
:10279000A63031F40E940C2DECE4F8E00E94E4290C
:1027A000A881A73031F40E940C2DECE4F8E00E94DF
:1027B000E429A881A83031F40E940C2DE5E5F8E069
:1027C0000E94E429A881A13031F40E94112DEEE588
:1027D000F8E00E94E429A881A93031F40E94112D6B
:1027E000E7E6F8E00E94E4290E940C2D0E940C2DDF
:1027F0000E948031EA93E5E0EA930E94F10C8FC0D9
:102800000E94212DA0915607B0915707809158073B
:10281000909159070E942F2D0E94BC3488F4EEE657
:10282000F7E0FA93EA930E94EA250E94342DE091A2
:102830005607F0915707609158077091590708950E
:10284000E0919307F0919407609195077091960736
:102850000E94822AE0939307F09394076093950770
:1028600070939607319760407040E73FAFEFFA07EB
:10287000A9E06A07A0E07A0710F00E94212DE1E0AC
:10288000F0E00E940A2ABECFA0915507A33110F0B4
:102890000E94422DA881A03310F0AA3358F0A881DD
:1028A000AE3241F0AD3231F0AB3221F0A53611F04D
:1028B000A53481F4E0915507EF5FE09355070E943E
:1028C000BF2AE65AF84FA881A0830E942F2D0E94AC
:1028D000342D25C0A0915507A43018F40E94422D34
:1028E0001EC00E94472DA0E0A083A0915507B0E034
:1028F000A259B84F0E94472DE081EC93A091550753
:10290000A150A0935507AF5FA13078F7E0E0E093C6
:102910005507E0E0F0E06AEF74EC0E94342D219658
:102920000895E1E6EA93AEE3B0E00E94E632EA936E
:102930000E94D912E2E6EA93AFE3B0E00E94E632E9
:10294000EA930E94D912E3E60E948529E4E60E94F8
:102950008529089522970E94F33404E010E050E0A6
:10296000A885A33419F4EDE04E2ED5C1A885A43571
:1029700041F40E94542A11F4E4E001C0E3E04E2E39
:10298000CAC1E1E3E51501F4E2E3E51501F4E3E38F
:10299000E51501F4A885A53561F4E1E0F0E0AE1A93
:1029A000BF0A0A2C0B2819F4E8E1F0E05F01EFEF11
:1029B000E887A885A43439F40E944D2D14F40E94B0
:1029C0001E2AEFEFE887A885AF3FA1F551E00E94EE
:1029D000CD120E94552D343048F5E22FD5010E94CA
:1029E000602D89F40E94CD290E94642D0E946A2DD9
:1029F0000E94042AEAE0E39FF001EA59FB4FFA93B0
:102A0000EA93E2E009C00E94CD290E94642D0E9451
:102A10006A2DFA93EA93E1E0EA930E947C210E94F6
:102A20004D2D14F40E941E2A3F5FD5CFA22EBB2449
:102A3000EEEFE887A885AE3F11F00C948B160E944C
:102A4000552D343010F00C9489160E94542A11F040
:102A50000C94D0150E945A2AA4E8B2E00E94B02932
:102A6000EA9357D7EE83FF830E945A2AEF3F29F05B
:102A7000AE81BF81AC91A035E1F40E94CD290E94C6
:102A8000742D0E94772D11F0513041F40E947C2D5D
:102A90000E94042A0E94822DE1E007C00E947C2D42
:102AA0000E948A2D0E94822DE5E0EA930E947C21FB
:102AB00076C00E94CD290E94902D0E94BD280E94C0
:102AC000952D0E94772D29F40E949A2DE7E8F8E0D1
:102AD00004C00E949A2DEBE8F8E0FA93EA930E9472
:102AE0009F2D0E94772D11F0513011F50E947C2D01
:102AF0000E94042A0E947B2A0E94C8290E94722AEE
:102B000038F40E94CD29EFE8F8E00E94E42908C0DB
:102B10000E94CD290E94A42D0E94BD280E94952DBF
:102B20000E949A2D0E94A92D0E94822DE1E021C0D1
:102B30000E947C2D0E948A2D0E947B2A0E94C82917
:102B40000E94722A38F40E94CD29EFE8F8E00E9432
:102B5000E42908C00E94CD290E94A42D0E94BD280E
:102B60000E94952D0E949A2D0E94A92D0E94822DCF
:102B7000E5E0EA930E947C210E94B62D39F40E9480
:102B8000BF2D0E94C82D32973A9606C00E94BF2DD5
:102B90000E94C82D32977096EA930E94EF12B2C03D
:102BA0000E94D32DACEDB4E00E94B029EA93B1D6D7
:102BB000EE83FF830E94D32DEF3F61F00E947B2ABA
:102BC0000E94C8290E94722A28F0AE81BF81AC9170
:102BD000A035F1F10E94D32DEF3F31F40E94CD29B1
:102BE000E4EAF8E00E94E4290E947B2A0E94C829B6
:102BF0000E94722A28F40E94CD29E1EBF8E004C07B
:102C00000E94CD29EEEBF8E0FA93EA930E949F2D03
:102C10000E94772D11F0513061F40E947C2D0E94AA
:102C2000042A0E94CD290E94742D0E94822DE1E089
:102C30000BC00E947C2D0E948A2D0E94CD290E94EB
:102C4000742D0E94822DE5E0EA930E947C215AC0F7
:102C50000E94CD290E94902D0E94BD280E94952D92
:102C60000E94772D29F40E949A2DEBECF8E004C025
:102C70000E949A2DECEAF8E0FA93EA930E949F2DC5
:102C80000E94772D11F05130A1F40E947C2D0E94FA
:102C9000042A0E94CD290E94A42D0E94BD280E94D2
:102CA000952D0E949A2D0E94A92D0E94822DE1E06F
:102CB00013C00E947C2D0E948A2D0E94CD290E9463
:102CC000A42D0E94BD280E94952D0E949A2D0E943D
:102CD000A92D0E94822DE5E0EA930E947C210E94AA
:102CE000B62D39F40E94BF2D0E94C82D32973A9616
:102CF00006C00E94BF2D0E94C82D32977096EA939D
:102D00000E94EF120E944D2D14F40E941E2A3F5F74
:102D100098CEA22EBB240E94FA34299608952497B7
:102D200084E0A0E0B0E0E4E2F5E00E9401350E941A
:102D3000DC2DE5E2F9E00E94E4290E9419280E94B6
:102D4000E02DE883F9836A837B830E9419280E941F
:102D5000DC3409F495C0E8EEF4E00E940E2A0E94EB
:102D6000D32DACEDB4E00E94B029E33FA9F5E0E437
:102D7000F0E0FF93EF930E94BE290E9414280E9466
:102D8000DB337F936F93FF93EF93A0E4B0E00E9457
:102D9000DD32AF91BF918F919F910E9429347F9333
:102DA0006F93FF93EF930E946B2A0E94C8297F9331
:102DB0006F93FF93EF930E94BE29AF91BF918F91C4
:102DC0009F910E94DB33AF91BF918F919F910E94A1
:102DD0007734AF91BF9134C0E8E0F0E0FF93EF9318
:102DE0000E94BE290E9414280E94DB337F936F93B8
:102DF000FF93EF93A8E0B0E00E94DD32AF91BF9166
:102E00008F919F910E9429347F936F93FF93EF934B
:102E10000E946B2A0E94C8297F936F93FF93EF93C0
:102E20000E94BE29AF91BF918F919F910E94DB3389
:102E3000AF91BF918F919F910E947734AF91BF91D5
:102E40000E94F2320E9431280E94382819F010F0B6
:102E50000C942F170E9431280E943F2810F40E94E2
:102E600046280E944F280E94562819F010F00C9412
:102E70003E170E944F280E945D2810F40E9464288B
:102E8000249608950E94F53401E034E0AC81A43525
:102E900059F40E94122A0E942B290E941B2A0E9488
:102EA0002B29E2E04E2E1EC1AC81A33419F4EDE0D3
:102EB0004E2E18C1AC81AF3F31F50E94CD12EFEF1D
:102EC000E0939807EEEDF4E00E94042A102F3117EA
:102ED00030F00E94E42D0E94042A1F5FF8CF0E9468
:102EE000CD29EBE3F9E0FA93EA93ACE0B0E00E947D
:102EF000E2320E94F1290E94952DE2EFF4E00E9457
:102F0000042AEEEFEC83AC81A43471F40E94EC2D22
:102F1000EF5FE0939707A09197073A1718F4E1E065
:102F2000E0939707EEEFEC83AC81A53559F40E944E
:102F3000EC2DE150E0939707E03011F430939707C0
:102F4000EEEFEC83AC81AF3421F4E0919707E05DC4
:102F5000EC83AC81A133B1F4E4E00E94F32DE0E412
:102F6000F9E00E94E429ACE0B0E00E94E632EA9386
:102F70000E942D20ACE0B0E0F0E00E94FD32E3E0E2
:102F80004E2EB0C0AC81A23329F40E948F16E3E02C
:102F90004E2EA8C0AC81A33319F4E7E04E2EA2C098
:102FA000AC81A43319F4EAE04E2E9CC0AC81AE3F54
:102FB000E1F4E0919707A0919807EA1709F492C00D
:102FC000102F311790F0A09198071A1721F40E9442
:102FD000E42D0E94F62DA09197071A1721F40E9464
:102FE000E42D0E94F62D1F5FECCF7CC00E94F534CB
:102FF00001E032E0AC81A43539F40E942B2A0E9412
:10300000FC2DE2E04E2E6EC0AC81A33419F4EDE04D
:103010004E2E68C0AC81AF3FA1F40E94CD12EFEFFD
:10302000E0939A07ECE2F5E00E94042A102F311792
:1030300030F00E94FF2D0E94042A1F5FF8CFEEEFB0
:10304000EC83AC81A43471F40E94072EEF5FE0930F
:103050009907A09199073A1718F4E1E0E0939907CE
:10306000EEEFEC83AC81A53559F40E94072EE150B8
:10307000E0939907E03011F430939907EEEFEC8379
:10308000AC81AF3421F4E0919907E05DEC83AC8131
:10309000A13319F4E7E04E2E25C0AC81A23319F418
:1030A000EAE04E2E1FC0AC81AE3FE1F4E0919907FB
:1030B000A0919A07EA1709F415C0102F311790F064
:1030C000A0919A071A1721F40E94FF2D0E94F62D55
:1030D000A09199071A1721F40E94FF2D0E94F62D46
:1030E0001F5FECCF0E94FC342596089524970E9420
:1030F0000E2E50E0AA85A33441F40E94EB2911F46E
:10310000E3E001C0E4E04E2E0AC1AA85A53509F529
:103110000E94152E0E941A2E31970E941F2EE32F17
:103120000E94242EAE17BF0720F40E942A2E0E9470
:103130001F2E0E942D2E09F4F2C0E02F0E94242E93
:103140000E947E32309711F451E001C050E0EEEF62
:10315000EA87AA85A43409F50E94152E0E941A2E2A
:1031600031960E941F2EE22F0E94352E0E94602D64
:1031700020F40E943A2E0E941F2E0E942D2E09F448
:10318000CEC0E02F0E94242E0E947E32319711F48F
:1031900051E001C050E0EEEFEA87AA85AF3439F480
:1031A00060909B0770909C07E8E04E2EB8C0AA85FF
:1031B000A03310F0AA3300F0AA85AE3289F40E9441
:1031C000542A19F4AEE0B0E002C0A6E2B0E0E0910B
:1031D0009B07F0919C070E943D2EEEEFEA8751E09D
:1031E000AA85AF3F69F40E94CD12EEE4F5E00E949B
:1031F000042AE1E0F0E00E941F2E51E0EEEFEA87A2
:10320000AA85AE3F11F00C948F190E94CD290E941F
:10321000442E0E94152E0E94FF290E94952D5130A8
:1032200011F00C946E190E94492EE02FA885B985E3
:103230000E94602D14F40C946D190E944E2E0E9471
:10324000532EA885B985EA0FFB1FEE83FF830E94EA
:10325000542AD9F4AEE0B0E00E945B2E39F40E940B
:10326000CD290E94642E0E94952D0EC00E94CD296A
:103270000E946B2EAEE0B0E00E94722E0E94EA0621
:103280000E94FF290E947B2E18C0A6E2B0E00E9497
:103290005B2E39F40E94CD290E94642E0E94952D48
:1032A0000CC00E94CD290E946B2EA6E2B0E00E94C5
:1032B000722E0E94802E0E947B2E0E94832E0E94DE
:1032C000042A0E944E2E0E948D2E21F40E94832EED
:1032D0000E94F62D0E94962EA8CF21C00E94492E52
:1032E000E02FA885B9850E94602DCCF0A0919D07A4
:1032F000B0919E070E949C2E0E948D2E21F40E9468
:10330000832E0E94F62D0E944E2E0E948D2E21F4B7
:103310000E94832E0E94F62D0E94962EE1CF0E94DD
:10332000FA342B960895239781E0A0E0B0E0E6EF11
:10333000F5E00E9401350E940E2EA985A03310F001
:10334000AA3300F0A985A33441F40E94542A11F451
:10335000E4E001C0E3E04E2ECFC0A985AF3439F4DC
:1033600080909F079090A007EBE04E2EC5C0A985E6
:10337000AF3F71F40E94CD12E2EAF5E00E94042A08
:10338000E1E0F0E00E94A02EE1E0EE83EEEFE987BD
:10339000A985A53511F50E94A52E0E94AA2E319768
:1033A0000E94A02EE32F0E94AF2EAE17BF0720F47D
:1033B0000E942A2E0E94A02E0E94B52E09F49CC0C5
:1033C000E02F0E94AF2E0E947E32309711F4E1E090
:1033D00001C0E0E0EE83EEEFE987A985A43411F5A2
:1033E0000E94A52E0E94AA2E31960E94A02EE22FA6
:1033F0000E94BD2E0E94602D20F40E943A2E0E9451
:10340000A02E0E94B52E09F477C0E02F0E94AF2EA7
:103410000E947E32319711F4E1E001C0E0E0EE83DA
:10342000EEEFE987A985AE3F11F00C947C1A0E945B
:10343000CD290E94442E0E94A52E0E94FF290E94A1
:10344000952DAE81A130E1F5412F5527E02FDA010E
:103450000E94602DA4F10E94C22E0E94532EE40F00
:10346000F51FEF83F8870E94542A59F40E94CD2952
:103470000E94C42EEF85F8893197EA930E94EA06EC
:103480000AC00E94CD290E94C42EEF85F889319789
:10349000EA930E941907662777270E94CB320E9481
:1034A0007B2E0E94CB2E0E94CB2E0E94C22E0E9409
:1034B000D42E11F40E94DC2E4F5F5F4FC7CF1CC08B
:1034C000412F5527E02FDA010E94602DACF0A0912A
:1034D000A107B091A2070E949C2E0E94D42E11F445
:1034E0000E94DC2E0E94C22E0E94D42E11F40E9453
:1034F000DC2E4F5F5F4FE6CF0E94FA342A96089584
:10350000219781E0A0E0B0E0ECE4F6E00E94013514
:103510000E940E2EAF81A03310F0AA3300F0AF81CD
:10352000A33419F4E7E04E2E00C1AF81AF3409F5A2
:103530000E94542A71F4A4ECB1E00E94E52E0E948E
:10354000EB2E31F0AEE0B0E00E94F32E0E94053386
:103550000DC0ACE1B4E00E94E52E0E94EB2E31F0EC
:10356000A6E2B0E00E94F32E0E940533E7E04E2E63
:10357000DCC0AF81AF3FC9F40E94CD120E94CD29BB
:10358000EEEBF9E0FA93EA93F3010E94F1290E942D
:10359000952DE8EFF5E00E94042AE1E0F0E00E94BA
:1035A000F82EE1E0EE83EEEFEF83AF81A53529F54C
:1035B0000E94FD2EE093A507F093A6070E94E52E3A
:1035C0000E94F82EE32F0E94022FAE17BF0720F4AF
:1035D0000E942A2E0E94F82E0E94082F09F4A5C0EE
:1035E000E02F0E94022F0E947E32309711F4E1E01A
:1035F00001C0E0E0EE83EEEFEF83AF81A43431F55C
:103600000E94FD2EE093A507F093A6070E94FD2ED1
:1036100031960E94F82EE22F0E94102F0E94602DFA
:1036200020F40E943A2E0E94F82E0E94082F09F4DE
:103630007CC0E02F0E94022F0E947E32319711F44D
:10364000E1E001C0E0E0EE83EEEFEF83AF81AE3268
:1036500079F40E94542A19F4AEE0B0E002C0A6E268
:10366000B0E0F3010E943D2EEEEFEF83E1E0EE8348
:10367000AF81AE3F11F00C94951B0E94CD290E94A2
:10368000442E0E94FD2E0E94FF290E94952DAE819E
:10369000A13081F5512F051760F10E94152F0E946E
:1036A000532EDF01E52FF0E0EA0F4E2F0E94542A3F
:1036B00039F40E94CD290E94172F0E94EA0606C005
:1036C0000E94CD290E94172F0E941907662777278D
:1036D0000E941F2F0E94222F0E94222F0E94152F2E
:1036E0000E942A2FEA17FB0711F40E942F2F5F5F19
:1036F000D2CF1BC0512F0517C0F0A091A507B091E4
:10370000A6070E949C2E0E942A2FEA17FB0711F49D
:103710000E942F2F0E94152F0E942A2FEA17FB07C5
:1037200011F40E942F2F5F5FE6CF0E94FA34289693
:1037300008950E94F5340BE011E0AC81AE3221F423
:10374000EAE0F0E00E94372FAC81A13310F0AA33F9
:1037500008F006C0EC81E153EF5FF0E00E94372FE4
:10376000AC81A03339F4E0E0E093A707E093A80729
:10377000EFE4EC83AC81A33419F4EBE04E2EC5C02A
:10378000AC81AF3411F00C94181C0E94542AC1F47F
:103790000E943E2F309709F4B8C0E130A0E0FA074C
:1037A00009F4B3C0E230A0E0FA0709F4AEC00E9409
:1037B000432F0E943E2F339733960E94053335C026
:1037C0000E943E2F309731F40E944A2FE3EF0E946F
:1037D00005332BC0E130A0E0FA0731F40E944A2FF4
:1037E000E1EF0E94053321C0E230A0E0FA07E1F4E6
:1037F0000E94CD29E5E3FAE00E94E4290E94512FBE
:103800000E947F2CFF93EF930E94512F0E94DB298F
:103810000E94562FAF91BF910E94F2320E944A2F10
:10382000E2EF0E94053301C070C0EBE04E2E6DC088
:10383000AC81AF3FC9F40E94CD120E94CD29EEE3C6
:10384000FAE00E94592F0E94952DEEE4F6E00E94C6
:10385000042A312F031730F00E945D2F0E94042AA2
:103860003F5FF8CFEEEFEC83AC81A53591F40E9479
:10387000652F31970E946B2FE12F0E94702FF0E08F
:10388000AE17BF0724F40E94752F0E946B2FEEEF36
:10389000EC83AC81A43489F40E94652F31960E9498
:1038A0006B2FE02F0E94702F0E94602D24F4E12FD7
:1038B000F0E00E946B2FEEEFEC83AC81AE3F29F578
:1038C0000E943E2FA091A907B091AA07EA17FB0713
:1038D00009F41BC0312F0317C0F0E32FA091A907F3
:1038E000B091AA070E94602D21F40E945D2F0E94D2
:1038F000F62DE32F0E94702F0E94602D21F40E946C
:103900005D2F0E94F62D3F5FE6CF0E94FC34259686
:103910000895E881E33F49F40E94782FE7EDF9E04C
:103920000E94E429EBEAF7E0FEC1E23F49F40E947D
:10393000782FE0E5FAE00E94E429EBEAF7E0F3C132
:10394000E13F49F40E94782FE7E5FAE00E94E4297C
:10395000EBEAF7E0E8C1E93049F40E94782FEEE5A0
:10396000FAE00E94E429EBEAF7E0DDC1E33049F434
:103970000E94782FE5E6FAE00E94E429EBEAF7E0FE
:10398000D2C1E43049F40E94782FECE6FAE00E94BC
:10399000E429EBEAF7E0C7C1E53049F40E94782F4B
:1039A000E3E7FAE00E94E429EBEAF7E0BCC1E63085
:1039B00049F40E94782FEAE7FAE00E94E429EBEA52
:1039C000F7E0B1C1E73049F40E94782FE1E8FAE06E
:1039D0000E94E429EBEAF7E0A6C1E83049F40E942E
:1039E000782FE8E8FAE00E94E429EBEAF7E09BC1CF
:1039F000EA3049F40E94782FEFE8FAE00E94E429C7
:103A0000EBEAF7E090C10E94782FE6E9FAE00E9425
:103A1000E429EBEAF7E087C1A881A33419F4EAE0CE
:103A20004E2E81C1A881AF3F11F00C94ED1D0E9474
:103A3000CD120E94542AA1F50E94CD29E6EBFAE0AE
:103A40000E94592F0E94952DEAECF6E00E94042A6C
:103A5000EAE3E093C8050E94CD290E947D2F0E94D1
:103A6000822F0E94EA060E94FF290E94952DE4ED14
:103A7000F6E00E94042AEEEDF6E00E94042A0E947D
:103A8000CD290E947D2F0E94432F0E94862F0E94E5
:103A9000952DE8EEF6E00E94042AE2EFF6E097C0EA
:103AA0000E94CD29E7ECFAE00E94592F0E94952D43
:103AB000EAECF6E00E94042AEAE3E093C8050E94DB
:103AC0004A2F0E94E632E23F59F00E94CD290E941F
:103AD0007D2F0E94822F0E94802E0E94952D14C05F
:103AE0000E94CD29E8EDFAE0FA93EA930E94822F32
:103AF0000E94802E0E94512F0E94DB290E94DD32FD
:103B00000E94CB320E947B2EE4EDF6E00E94042A54
:103B1000EEEDF6E00E94042A0E94CD290E947D2F3E
:103B20000E944A2F0E94862F0E94952DE8EEF6E013
:103B30000E94042AE2EFF6E00E94042A0E944A2F23
:103B40000E94E632E23F79F00E94CD29E4EEFAE0ED
:103B50000E948C2F0E94932FE8E3F7E00E94042A32
:103B6000E2E4F7E034C00E94CD29EEEEFAE0FA93E9
:103B7000EA930E94962F0E94932FECEFF6E00E94AA
:103B8000042AE6E0F7E00E94042A0E94CD29E6EF2D
:103B9000FAE0FA93EA930E949B2F0E94DB290E948D
:103BA000932FE0E1F7E00E94042AEAE1F7E00E94A7
:103BB000042A0E94CD29EEEFFAE00E948C2F0E9489
:103BC000932FE4E2F7E00E94042AEEE2F7E0FA9392
:103BD000EA93E1E0EA9390D3A6C0A881A13359F417
:103BE000E7E00E94F32DE6E0FBE00E94E42961D1CA
:103BF000EBE04E2E98C0A881A23319F4E9E04E2ED6
:103C000092C0A881A333B1F50E94EB2991F5EAE0B7
:103C1000E093C3070E944A2F0E94E632E23F89F0F8
:103C20000E94CD29E7E1FBE00E94E4290E94A02F39
:103C3000FF93EF930E94962F0E94562FAF91BF9152
:103C400014C00E94CD29E1E2FBE00E94E429F401C6
:103C50003197ACE9B2E00E947F2CFF93EF930E9472
:103C6000962F0E94562FAF91BF910E94F232EBE047
:103C70004E2E59C0A881A43351F50E94EB2931F58D
:103C80000E944A2F0E94E632E13F09F44CC00E9494
:103C90004A2F0E94E632E33F09F445C00E94DC2D22
:103CA000EBE2FBE00E94E4290E949B2F0E947F2C04
:103CB000FF93EF930E949B2F0E94DB290E94562FB7
:103CC000AF91BF910E94F232EBE04E2E2CC0A88142
:103CD000A53349F50E94EB2931F50E944A2F0E9435
:103CE000E632E13F09F41FC00E944A2F0E94E632EB
:103CF000E33F09F418C00E94DC2DE5E3FBE00E94DD
:103D0000E4290E94A02FFF93EF93ACE5B3E0F40108
:103D100031970E94DB290E94562FAF91BF910E94DC
:103D2000F232EBE04E2E219608950E94F53401E028
:103D300034E0AC81A533D1F4E4E00E94F32DE2E855
:103D4000FBE00E94E4290E94F92C1E2F1A9385D1D2
:103D50001E2F113011F0123011F4E12F01C0E1E0FB
:103D6000A4EFB4E00E940533EFEFEC83AC81AF3FEA
:103D7000A1F40E94CD12EFEFE093B307ECE4F7E07B
:103D80000E94042A102F311730F00E94A52F0E94A4
:103D9000042A1F5FF8CFEEEFEC83AC81A43471F4FA
:103DA0000E94AD2FEF5FE093B207A091B2073A17E0
:103DB00018F4E1E0E093B207EEEFEC83AC81A535B7
:103DC00059F40E94AD2FE150E093B207E03011F4B6
:103DD0003093B207EEEFEC83AC81AF3421F4E09185
:103DE000B207E05DEC83AC81A13369F40E94122A32
:103DF0000E942B290E941B2A0E942B29E2E04E2EB2
:103E00000E94FC342EC2AC81A23369F40E94122AB3
:103E10000E942B290E941B2A0E942B29E3E04E2E90
:103E20000E94FC341EC2AC81A33349F40E942B2AA9
:103E30000E94FC2DE2E04E2E0E94FC3412C2AC81A6
:103E4000A43349F40E942B2A0E94FC2DE4E04E2E5C
:103E50000E94FC3406C2AC81AE3FF1F4E091B2079F
:103E6000A091B307EA1719F40E94FC34FAC1102F8D
:103E7000311790F0A091B3071A1721F40E94A52FD3
:103E80000E94F62DA091B2071A1721F40E94A52FC7
:103E90000E94F62D1F5FECCF0E94FC34E2C10E940D
:103EA000B42F0E94EA2508950E94B42F0E94B725DE
:103EB00008951A930A930E94B92FEFEF5E2EEDE258
:103EC000E515E9F3152D1F3F71F40E94BF2FE8E9B6
:103ED000F7E00E94042A0E94B42FE3EDF7E00E946D
:103EE000E4290E94C42F143519F4EDE25E2EB2C00D
:103EF000133419F4EDE25E2EADC0143469F5E0918F
:103F0000C207E03021F40E94CA2F0E94D02F0E94E5
:103F1000DC2FEA54F84FE081E03339F40E94DC2FC3
:103F2000EA54F84FAAE5A08316C00E94DC2FEA5499
:103F3000F84FE081E13439F40E94DC2FEA54F84F65
:103F4000A9E3A08308C00E94DC2FEA54F84FDF01E8
:103F5000EC91E150EC931EEF153569F5E091C20745
:103F6000E03021F40E94CA2F0E94D02F0E94DC2F43
:103F7000EA54F84FE081E93339F40E94DC2FEA5427
:103F8000F84FA1E4A08316C00E94DC2FEA54F84F3A
:103F9000E081EA3539F40E94DC2FEA54F84FA0E3BF
:103FA000A08308C00E94DC2FEA54F84FDF01EC9197
:103FB000EF5FEC931EEF103310F01A3308F008C0D7
:103FC0000E94DF2F20F40E94CA2F0E94E52F1EEFCF
:103FD0001F34C9F50E94542A99F400E0E091C20709
:103FE0000E1758F4A4ECB1E00E94F02FEA54F84FF9
:103FF000E0810E9405330F5FF1CFA4ECB1E012C065
:1040000000E0E091C2070E1758F4ACE1B4E00E9462
:10401000F02FEA54F84FE0810E9405330F5FF1CF93
:10402000ACE1B4E0F40131970E94E031AE0FBF1F64
:10403000E091C207F0E0AE0FBF1FE0E00E94053341
:10404000EDE25E2E07C01E3F11F40E94FA2FEDE252
:104050005E2E35CF0991199108951A93EFEF5E2ED8
:104060000E94B92FE0E0E093C407EDE2E51511F0FE
:10407000152D01C0FACF1F3F21F40E94BF2F0E94CF
:10408000C42F143501F4143401F4153501F4103340
:1040900010F01A3308F008C00E94DF2F28F40E94A5
:1040A000CA2F0E94E52F1EEF133429F4EDE25E2E95
:1040B000E98118811FC11F3431F4EDE25E2E0E94A8
:1040C000541F188117C11E3F11F40E94FA2FEDE210
:1040D0005E2ECBCF1A93EBE2E093B607E7EBF7E067
:1040E000A0E0A083E1E0E093C207E0E0E093C40732
:1040F000EFEF5E2EEDE2E51511F0152D01C0FACFC0
:104100001F3F41F40E94BF2FEEE8F7E00E94042A0F
:104110000E94C42F143509F41EEF153511F00C94CC
:10412000D320A091C207A130A9F4E091C407E170A7
:1041300039F4EDE2E093B607E091C407E16007C00F
:10414000EBE2E093B607A091C407E1E0EA27E09331
:10415000C40728C00E94DF2F48F4E091C207E25054
:10416000F0E0EA54F84FE081E53409F01AC0E0913C
:10417000C407E87051F40E94DC2FEA54F84FADE216
:10418000A083E091C407E8600AC00E94DC2FEA54D3
:10419000F84FABE2A083A091C407E8E0EA27E093E0
:1041A000C4071EEF1EEF143411F50E94DF2F20F418
:1041B000E091C407E47009F019C00E94CA2FEA54C4
:1041C000F84FA5E4A0830E94CA2FEA54F84FABE24F
:1041D000A083E091C207F0E0EA54F84FA0E0A0838A
:1041E000E091C407E460E093C4071EEF1EEF1E32A7
:1041F00091F40E94DF2F20F4E091C407E27009F0EF
:104200000AC00E94CA2F0E94E52FE091C407E26015
:10421000E093C4071EEF103310F01A3308F008C003
:104220000E94DF2F28F40E94CA2F0E94E52F1EEF64
:10423000133441F4EDE25E2EE981FA816B817C81D9
:1042400018810FC01F3431F4EDE25E2E0E944F1F23
:10425000188107C01E3F11F40E94FA2FEDE25E2E76
:1042600049CF259608950E94FD2F0E94D512E8811E
:10427000F9810E94042A0E94FD2F0E94EF120E94E1
:10428000293038970E942F3031970E943630AE0F78
:10429000BF1FE0E1F0E00E94D632EA1BFB0B0E9458
:1042A00045307196EA930E94EF1224C00E94293093
:1042B0003A970E942F3033970E943630EA0FFB1F47
:1042C0000E9445307396EA930E94D5120E942930CD
:1042D0003A970E942F3033970E943630EA0FFB1F27
:1042E0000E9445307396EA930E94EF12E881F981AB
:1042F0000E94042A229608951A93EA81FB81369639
:104300000E94C1321E2F0E944C30319709F5E9817D
:10431000E17099F0E981E47041F40E9451300E940B
:104320005E303896EA930E94D5120E9451300E9466
:1043300070300E942613188177C0E981E27031F055
:104340000E947630E8E0EA930E94EB1218816CC07C
:104350000E944C30329709F5E981E17099F0E981CA
:10436000E47041F40E9451300E945E307096EA93EE
:104370000E94D5120E9451300E9470300E942A1370
:10438000188152C0E981E27031F00E947630E0E19C
:10439000EA930E94EB12188147C00E944C30349778
:1043A000F9F4E981E17089F0E981E47041F40E9457
:1043B00051300E9482303C96EA930E94D5120E94AE
:1043C00051300E9470300E941E13E981E27031F07A
:1043D0000E949330ECE0EA930E94EB12188124C013
:1043E0000E944C303597F9F4E981E17089F0E98158
:1043F000E47041F40E9451300E9482307096EA933A
:104400000E94D5120E9451300E9470300E942213E7
:10441000E981E27031F00E949330E0E1EA930E947A
:10442000EB12188101C01881249608955F9BFECF7E
:10443000ECB108955D9BFECFE881ECB9219608951B
:104440001A930A93AC81BD810E94B2323097B9F0C1
:10445000AA81BB810E94B2328F01309749F00230AD
:10446000E0E01E0758F0F80131978F01ED93FC93BF
:10447000AC81BD810E94A130AE81A08304C0EE81D9
:10448000EA930E941A221981088127960895249799
:104490001A930A93A885A73010F0E6E0E887E8852C
:1044A000ACEAB7E0F0E00E947F2C0E94C5320E9487
:1044B000A8300E94DB330E94AD3010E00E943D2DF9
:1044C0000E94192C0E94462B0E94A8300E94BC34E6
:1044D00030F00E94B2300E94B8301F5FF3CF10302E
:1044E00029F40E94BB30E0E3EC9324C0E12F11508B
:1044F000E03001F10E94B2300E94C2300E94192CBB
:104500000E94462B0E94A8300E9477340E946A3392
:104510000E2F0E94BB300E94CE300E94302B0E9492
:10452000D3300E9429340E94A8300E94C3290E94DF
:10453000AD30DCCFE885E03029F4AE81BF81E0E02A
:10454000EC9327C00E94BB30EEE2EC93E885E1508B
:10455000E887EF5FD1F00E94A8300E94D9300E9416
:10456000AD30E985FA856B857C850E9468330E2F16
:104570000E94BB300E94CE300E94A8300E94D330EF
:104580000E94C3290E94AD30E1CFAE81BF81E0E03F
:10459000EC93198108812D96089524970E94F53493
:1045A0000E943D2D0E947A2CAB85A73010F0E6E0EA
:1045B000EB871B85E12F1150E03029F00E94E0309D
:1045C0000E947A2CF7CF0E94E5300E94DC3431F44F
:1045D00030E00E94E0300E947A2C32C03B850E947D
:1045E000EA3009F010F40C9402230E94E0300E949B
:1045F0007A2C0E94EA3028F00E94F2300E94F730B4
:10460000F8CF0DC00E94EA3030F40E9403310E94BE
:1046100005313150F7CF0E94E0300E947A2C0E9481
:10462000E530A0E0B0E080E09FE30E94DB330E9431
:1046300005310E94EA3020F00E94F2300E94F730EB
:1046400010E0EB85E11760F10E940A31E0E0F0E054
:1046500060E271E40E94C2300E947A2C0E94842C95
:104660000E94F2300E9477340E946A330E2F0E941B
:104670000F310E94CE300E94D3300E940A310E9436
:1046800029340E94F2300E94C3290E940531E12F93
:104690001F5FE030B1F60E940F31EEE2EC93D1CF14
:1046A0000E94962E3197AA85A08330302CF40E9468
:1046B0000F31EDE2EC9331953A305CF00E94962E8A
:1046C0003197BF01A32FEAE00E943232E05DDB01A7
:1046D000EC930E94962E3197BF01A32FEAE00E942F
:1046E0006F32E05DDB01EC93A885B985E0E0EC93E7
:1046F0000E94FC3460960895EF972F970E94F33440
:1047000010E0FE01EC5AFF4F0190F081E02DE88BA4
:10471000F98BDE01A65ABF4F0E94A130E4912E2FE3
:10472000E03011F40C948425E12FE03039F4253287
:1047300011F411E002C00E941631E5C1E130C1F46C
:10474000253219F40E941631DDC112E0E0E0EB8B56
:1047500000E02D3211F401E0D6C12B3219F4EBE266
:10476000EB8BD1C1203219F4E0E2EB8BCCC102C05B
:10477000E23039F450E013E0203311F40068C3C193
:1047800002C0E330A1F4203310F02A3308F009C04E
:10479000A52FEAE0EA9FF0015E2FE22FE0535E0FC3
:1047A000B2C140E02E3211F414E0ADC111C0E430CA
:1047B000A9F4203310F02A3308F00AC00062A42FB5
:1047C000EAE0EA9FF0014E2FE22FE0534E0F9BC12B
:1047D0002C3619F4026015E096C104C0E53011F0E2
:1047E0000C948325E22FE33631F40E942531E481D5
:1047F0000E942E3187C1E53411F0E53609F404C07A
:10480000E63611F00C944824FE017496EA87FB8783
:104810000E9425313496DF010E94B6320E949D2B02
:10482000DF01CB010E94E43424F0AB89AB3249F0C4
:1048300012C00E94412B0E9435330E949D2BEDE255
:10484000EB8B07FF04C0EB890E942E3104C00E944D
:104850003D31AB89A08305FF46E0263651F40E9426
:10486000B92B4A93EF85F889FA93EA930E9447227D
:104870000AC00E94B92B4A932A93E889F989FA93CE
:10488000EA930E94CD22FE0174960E9444311EC01C
:10489000E33739F40E9425310E944C310E944431A3
:1048A0000EC0E037C1F40E9425310E944C31EA87E6
:1048B000FB87FA93EA930E948A311E2F08600F77D4
:1048C000403011F0411708F001C0142F40E0E0E043
:1048D000EA8B30E06FC0E43611F0E93611F4046081
:1048E00002C0E537A1F4EAE0EA8B01FF08C0E0E08E
:1048F000FAEC6AE97BE30E9405311AE023C0E0E1AB
:10490000F7E260E070E00E94053115E01BC0E83579
:1049100011F4086004C0E83711F00C948225E0E13E
:10492000EA8B01FF08C0E0E0F0E060E070E10E9487
:10493000053118E007C0E0E0F0E160E070E00E94BF
:10494000053114E0403011F00F7701C041E001FF64
:1049500007C00E9425313496DF010E94B6320FC095
:1049600002FF07C00E9425310E944C310E94ED31A8
:1049700006C00E9425310E944C3166277727EE83BE
:10498000FF836887798702FF14C00E943C2B0E9436
:10499000E43444F40E94412B0E94D5310E949D2BA7
:1049A000EDE2EB8BEB89E03019F01F5F4F5F01C048
:1049B0000B7F342F00FD14C0151710F4351708F0C5
:1049C0000FC007FF08C002FF04C00B7F2B891150E6
:1049D00001C020E301C020E20E9416315150ECCF0B
:1049E000141788F4006102FF06C00E94513109F0DB
:1049F000515011504150E0E30E942E31503009F0E7
:104A000051504150EDCF312FEA89E03011F530306F
:104A1000F9F003FF04C00E943D31E49105C0AA856E
:104A2000BB85ED91AA87BB87EA93FE01E95AFF4F48
:104A30000190F081E02DFA93EA93FE017396FA93C8
:104A4000EA930E942022503009F051503150DFCFBC
:104A500050C00E94E5300E943C2B0E944A322E2F0B
:104A60002A3030F003FF02C0295C01C0295A01C07E
:104A7000205D04FD20C0213350F40E94F230A130AB
:104A8000E0E0BE07E0E08E07E0E09E0709F40CC01E
:104A9000431708F008C0531710F000FF01C010C002
:104AA00020E207FF08C020E3006102FF04C00E946B
:104AB000513109F051500E941631503009F05150D7
:104AC00031500E94E5300E943C2B0E948F320E94A0
:104AD0009D2BEA890E94F230FF27662777270E94E4
:104AE0004A320E9405310E94E5300E94DC3409F010
:104AF000B0CF00FF07C0503029F05150E0E20E94D3
:104B00002E31F9CF10E005CE0E94FA34EF966D9663
:104B10000895FF92F82E22971A930A93DE010E94BD
:104B2000CD318D01DE0116960E94CD310E94B23248
:104B3000EA83FB83DE0114960E94CD310E94B232DB
:104B4000FA93EA931A930A93FE013696FA93EA933C
:104B5000E0E0F0E0FA93EA930E947C23AA81BB8113
:104B6000E0E0EC93198108812496FF900895B981C3
:104B7000A881EC91EA930E947631EE2311F0119610
:104B8000F8CFE894EC91ED3211F4689402C0EB3266
:104B900009F4119666277727EC91EA930E946E310B
:104BA000EE2381F0E62FF72F660F771F660F771F32
:104BB0006E0F7F1F660F771FED91FF27E0536E0F7B
:104BC0007F1FEACFE62FF72F1EF4E095F095319680
:104BD000229608952A970E94F334E0E0E887E98757
:104BE000EA87EB87A889B989EC915E2FEA930E9446
:104BF0007631E03031F0E889F9893196E88BF98B2C
:104C0000F1CFE0E0EF835B3209F404C05D3239F4A8
:104C1000E1E0EF83E889F9893196E88BF98BE0E0F0
:104C20004E2F5E2F08891989A889B989EC91EA93DA
:104C30000E946E31E03049F4A889B989AC91EEE266
:104C40000E94F2315E2FE03039F0452BE889F98976
:104C50003196E88BF98BE8CF28893989403011F1FA
:104C6000E889F9893197E88BF98BA889B989AC91E2
:104C7000AE32C1F0A889B989EC91E0530E94653148
:104C80000E94D3300E94C92BE0E0F0E060E271E4C2
:104C90000E9477340E94612CE889F9893197E88B6A
:104CA000F98BE3CF0E943D2D0E940531A889B98977
:104CB0001197A88BB98BA017B10768F0EC91E0535E
:104CC0000E94F2300E94D3300E94712C0E94033166
:104CD0000E940531EBCFD9012F5F3F4F5C915536D4
:104CE00019F0553409F05BC0E0E04E2FEE83D90196
:104CF0005C915B3209F404C05D3221F4E1E0EE83A3
:104D00002F5F3F4FD9012F5F3F4FEC915E2FEA930A
:104D10000E946E31E03041F0A42FEAE0EA9FF001FA
:104D2000E50FE0534E2FEECF473268F0EF81E030D1
:104D300029F0EFEFFFEF6FE77FEF3AC0EFEFFFEF04
:104D40006FE77FE735C050E20E943D2D0E9405319C
:104D5000503089F00E94E5300E94F2300E942934E0
:104D60000E940531E42FE52321F00E9403310E94C7
:104D700005315695EDCFEE81E03039F00E94E530F7
:104D80000E9465310E94773406C00E94E5300E947F
:104D900065310E942934E887F9876A877B87EF812C
:104DA000E03021F00E946A310E94612C0E94892C1F
:104DB0000E94FA346296089524971A930A935CD459
:104DC0000E94E8342CF0EFEFFFEF6FE77FEF66C053
:104DD000D0D4EDB7FEB73197FA93EA931F930F93B0
:104DE0000E9414330F911F91A8D446D4E3EFF4E04E
:104DF00065E37FE30E94BC3428F443D43DD435D42A
:104E0000015010409FD47F936F93FF93EF9339D459
:104E1000A0E0B0E080E89FE30E94DB33AF91BF9158
:104E20008F919F910E94773488D526D40E94B83004
:104E30002DD4A6E2B2E485E69FE30E942934DF0187
:104E4000CB01EEE4F1E164E570E49DD215D40E945B
:104E500029347F936F93FF93EF9302D4EDE4F1E154
:104E600064ED7FE390D2AF91BF918F919F910E94AB
:104E700077347F936F93FF93EF93F801A8E1B2E744
:104E800081E39FE30E94ED310E94A1330E94293407
:104E9000AF91BF918F919F910E94DB33198108815F
:104EA0002A96089528971A930A939BD4E0E5FCEA82
:104EB0006EEA72EC0E94BC3410F4FED46FC095D33D
:104EC0000E94DC3411F4D9D569C08BD4E8E1F2E753
:104ED00061EB72E40E94BC3409F010F40C94752765
:104EE000EFEFFFEF6FE77FE759C07BD4EBE3FAEA20
:104EF00068EB7FE30E9429346ED377D30E94CB32D4
:104F00000E94C4310E946A338F01F8016AD40E9462
:104F1000ED310E94A13337D2DF01CB01E0E0F0E0B8
:104F200060E07FE330D209D5A7D30E94B830AED37A
:104F3000ADE6BCE48CE69DE30E942934A6EAB3EE1C
:104F400086EE90E40E94DB3397D30E942934F5D398
:104F50009DD3A8E2BDE886EA91E40E94DB3369D4E0
:104F600090D37ED30E94DB33A3EFB4E085EB9FE3C5
:104F70000E9429347F936F93FF93EF937DD386D361
:104F80000E94D433AF91BF918F919F910E9477344B
:104F90000E94CB321A930A930E9427331981088109
:104FA0002E9608952497B5D40E94DC3411F484D44D
:104FB00030C00E9465310E94E83464F4A5D40E9498
:104FC000DC3411F45AD525C0A4D4E8D30E940A31A8
:104FD00083D41FC099D4DE010E946A330E94BC3280
:104FE00028D00E94A133DF01CB018ED40E94EE3481
:104FF00011F062D40EC00E946A31D0D30E940A31EF
:105000006BD45FD4E881E17011F483D402C00E94B4
:105010006A312C960895EA930E94A313E0E8F4E81D
:10502000FA93EA930C944907A881B9818A819B81FC
:105030000895E881F9816A817B810895E12FF0E08C
:10504000E85FF94F0895E981F0E00E94E031AE0F8A
:10505000BF1FEE27A10FBE1F0E94E632D001EC93C6
:10506000EDCFA8E0B0E00E94DD32DF01CB01089572
:10507000E0E0F0E06AEC72E40E94BC340895E0E005
:10508000F0E066EC72E40E94BC340895A8E0B0E061
:10509000E0E0F0E068EC72E40E94F2320895A0E4EF
:1050A000B0E00E94DD32DF01CB010895E0E0F0E8DE
:1050B0006CE774E40E94BC340895E0E0F0E867E730
:1050C00074E40E94BC340895A0E4B0E0E0E0F0E0B5
:1050D0006AE774E40E94F2320895EEE0F0E0EC0D2D
:1050E000FD1DDF010E94E6320895A0E6B5E0F6015D
:1050F0000E94E231AE0FBF1FE0E0FCE36CE176EC12
:105100000E94BC32E2E0E09302060895A4E8B2E017
:10511000EE27A10FBE1F0E94E6320895F6013196D8
:10512000EA930C944313E093FA05F093FB05609324
:10513000FC057093FD05E0E0E093FE05E093FF05BC
:10514000E0930006E09301060895F601A0E0B5E0C3
:105150000E94E23108950E94BC32E8ECF5E0FA9337
:10516000EA930895E7EEF7E0FA93EA93F6013196B1
:105170000E94ED310E94CB320895AE0FBF1F0E94F6
:10518000B6320E94CB32089588E00E9489252C9681
:10519000E8ECF5E0FA93EA93E8ECF5E0FA93EA93A9
:1051A0000E948031EA93E3E0EA930E94F10CA0E6CA
:1051B000B5E0F6010E94E231EA0FFB1F0895EFEE21
:1051C000F7E0FA93EA93A0E6B5E0F6010E94E23137
:1051D000D4CF84E00E9489252896E8ECF5E0FA9384
:1051E000EA93E8ECF5E0FA93EA930E948031EA93BF
:1051F000E3E0EA930C94F10CEEEFEA930E94AA1418
:10520000E0E0E09302060895E6E2F0E0EC0DFD1D1B
:10521000DF010E94E6320895A0E6B5E0F6010E94A3
:10522000E231AE0FBF1FE0E0FCE36CE176EC0E94E0
:10523000BC32E5E0E09302060895ACEDB4E0EE2761
:10524000A10FBE1F0E94E6320895E9E6EA93E1E06D
:10525000EA930C94D912C798E0ECF7E2FA93EA9338
:105260000E944907C79AEFEFE8BB0895C298E0ECA7
:10527000F7E2FA93EA930E944907C29AEFEFE8BB7C
:10528000C198E0ECF7E2FA93EA930E944907C19AC9
:10529000EFEFE8BBEFE0E09362000895C098E0EC28
:1052A000F7E2FA93EA930E944907C09AEFEFE8BB4E
:1052B000C398E0ECF7E2FA93EA930E944907C39A95
:1052C000EFEFE8BB0895ACE0B0E00E94E232A0EA64
:1052D000B6E881E090E00E94ED310E941F3223CFBA
:1052E000AFE3B0E00E94E632E13008950E9400147E
:1052F0000E94CB320C94DC06E093C405F093C50504
:105300006093C6057093C7050895EA93E0E0EA93B9
:105310000C94D912C698E0ECF7E2FA93EA930E9453
:105320004907C69AEFEFE8BB0895E0930306F093B0
:10533000040660930506709306060895A09103067F
:10534000B091040680910506909106060895E091BB
:10535000C405F091C5056091C6057091C705089513
:10536000F0E0AE0FBF1F0E94E63208950E94DD32CA
:10537000E5DF0E942934DF01CB01E9CFA0E0B0E0F6
:105380000E94DD3208950E94D0320E94D4330895E5
:10539000AE0FBF1F0E94B6320895E8ECF5E0FA9315
:1053A000EA930895E091C005F091C1056091C205AE
:1053B0007091C30508950E94E231AE0FBF1F08959A
:1053C000FE01FA93EA930895FA93EA9380E00E942B
:1053D000892524960895AEE3B0E00E94E632E130DC
:1053E00008950E94ED310E94CB320895A091FA05F4
:1053F000B091FB058091FC059091FD05089566270D
:1054000077270E94CB320895FA93EA93E1E0EA937A
:105410000C947C21FA93EA930C944907FA93EA934B
:105420000C943321AEE3B0E0E1E00E9405330E942A
:105430002F13E1E66ACF0E94D50607CFE1E0F0E046
:105440005F010895EAEAF4E1A091B407B091B507CD
:10545000EA17FB070895AEE3B0E0E0E00E940533F1
:105460000E942F13E1E6EA93E1E0EA930E94D91249
:1054700051CFEA93E1E0EA930C94D912E0E0E09393
:10548000FA05E093FB05E093FC05E093FD05E0E001
:10549000E093FE05E093FF05E0930006E09301062C
:1054A000E0E0E09302060895AEE3B0E00E94E63249
:1054B000E0300895AEE0B0E0F5013197AE0FBF1FC8
:1054C0000E94E6320895E4E8F2E0E00FF11FDF0108
:1054D0000E94E6320895F5013197A0E0B5E00E9400
:1054E000E2310895DF01CB01E0E0F0EA6CE076EC18
:1054F0000E94BC340895A0E6B5E0F50131970E9402
:10550000E2310895EF5FFF4F6F4F7F4F0895A091F5
:10551000FE05B091FF058091000690910106089567
:10552000ECEDF4E0E00FF11FDF010E94E632089598
:105530000E94F731E60FF71F0E94C13208950A92C8
:105540001A92FA926A937A938A939A93AA93BA9345
:10555000EA93FA93EFB7EA931A930A93089509919D
:105560001991E991EFBFF991E991B991A9919991B7
:10557000899179916991F990199009900895E15074
:10558000F0E008950A921A92FA926A937A938A93B3
:105590009A93AA93BA93EA93FA93EFB7EA931A937A
:1055A00008951991E991EFBFF991E991B991A99104
:1055B0009991899179916991F9901990099008953B
:1055C000AC81BD81ED91AC83BD830895EE87FF87EB
:1055D000688B798B0895EA87FB876C877D870895B0
:1055E000AE85BF85888999890895EA85FB856C8594
:1055F0007D8508950E94D433DF01CB01E7E1F7EB0D
:1056000061E578E30E94BC340895D8010F5F1F4F15
:10561000A436E0E0BE070895E8DFE2DF0E94DB3356
:10562000DF01CB01E0E0F0E060E070E40E9477345D
:10563000EA83FB836C837D830895AE8DBF8D88A143
:1056400099A108950E942934AA81BB818C819D81F2
:105650000E9429340895EE89FF89688D798D089517
:10566000AA81BB818C819D8108950E94DB33EE83EA
:10567000FF83688779870895AE81BF818885998582
:105680000895EE81FF81688579850895EA81FB811F
:105690006C817D810895FADF99CFA2DFE0E0F0E42C
:1056A0006CE176E40E9429340895AA85BB858C8537
:1056B0009D85E0E0F0E46CE176E40E9429340895F1
:1056C0000E94DB33DF01CB01E0E0F0E060E070E45A
:1056D0000E947734A0E0B0E080E09FE30E94DB33DB
:1056E0000E94CB320E94C431DF01CB01E0E0F0E444
:1056F0006CE176E40E9477340895F0E05CCEACED86
:10570000B4E0EE8D2DCEEF8DF8A169A17AA10E94B3
:10571000CB32A1DF0E94CB320C94B20DAF8DB8A179
:1057200089A19AA10895DF01CB01E0E0F0E060E8F3
:105730007FE329CE55DF59DF5DCFEE83FF83688796
:105740007987089599DFE0E0F0E060E87FE31BCE21
:10575000AA8DBB8D8C8D9D8D0E9429348DDF0E947A
:10576000DB330895AE89BF89888D998D0E942934D5
:10577000089587DF0E94CB32089588DF2CCF2897C9
:105780001A930A93AA85BB858C859D850E94E43473
:1057900008950E94DB33DF01CB0108950E94CB32D4
:1057A0000BCBEA83FB836C837D83E7CFD801F0E0EA
:1057B000AE17BF0708950E94E231EA0FFB1F0E9457
:1057C000C532AA85BB858C859D850E94293454DF0E
:1057D0004CCF5CDFAA85BB858C859D850E942934D2
:1057E000FACEAA85BB858C859D8508950E94773465
:1057F000A4DF47DFF0CE0E94C532EA83FB836C83CF
:105800007D8301E010E008950E94E231EA0FFB1F62
:105810000E94C532E6DF0E94293422DF0E94DB337A
:10582000EA83FB836C837D832CDFDBDF0E942934DA
:10583000D2CEEA83FB836C837D830895AD85BE85DC
:105840008F8598890E94E4340895E0931807F093B7
:105850001907F4CFAD85BE858F859889ECE5F7EA09
:105860006DE174E40E94BC340895E0931807F0934E
:1058700019070895AD85BE858F859889E0E0F0E031
:105880006EE374E40E94BC340895AD85BE858F85B7
:1058900098890895E3ECF5E065E874E40E94BC346F
:1058A0000895F3DFE0E0F0E160ED74E40E94BC34C1
:1058B0000895DBDFEADFEECFE0E0F0E060E070E0EB
:1058C0000895E887F9876A877B870895DEDFECEE25
:1058D000FFEE6DEF72E457CD0E9429340E94CB3267
:1058E000E1CA0E942934A885B9858A859B850E94D2
:1058F000DB33E7CFEC83FD836E837F8308950E94C3
:10590000E231EA0FFB1F0895EC81FD816E817F81FA
:105910000895E885F9856A857B850895E0E0F0E0E3
:1059200067E873EC53CEE0E0F0E068E472EC4EDE42
:10593000E0E0F0E06DED74E44ECEFFDEA2CEFA932F
:10594000EA93E3E0EA93E4E0EA930C94F10CE12FAC
:10595000F0E0E55EF84FE0810895EA930E943E1280
:10596000E9E4F7E0FA93EA93E2E0EA93E4E0EA9309
:105970000C94F10CEC81EA930E945D12E0E0E88364
:10598000E983EA83EB830895E3E0E0931B07E1E01A
:10599000EA930C948512E0931B07EB81E0931C07BC
:1059A000EA81E0931D07E981E0931E07E881E09317
:1059B0001F07E5E0EA930C948512E12FF0E0E25E28
:1059C000F84F0895EA93EC81EA93EC81EA93EB8136
:1059D000FC81FA93EA930C94F312AAE0A083E2E824
:1059E000F7E0FA93EA930895EA93E2E0EA930C94DD
:1059F000F10CA4EFB4E00E94E6320895A881EAE039
:105A00000E947B32E883E05D0895E5E8F7E0ADE0D1
:105A1000A083E6E8F7E0E1CFE7E8F7E0FA93EA935E
:105A20000895E0E0E0935507E0E0F0E06AE774EC09
:105A3000E0935607F0935707609358077093590700
:105A4000EBCFE9E0EA930E94A313E0E0E093930731
:105A5000E0939407E0939507E09396070895E0E0BC
:105A6000F0E06AE774EC0895E0935607F093570767
:105A700060935807709359070895E0E0F0E060E8FC
:105A80007FE30895E0E0E0935507E9DFEDCFE09193
:105A90005507F0E0E65AF84F0895F50131965F0199
:105AA000E8E1F0E0EA15FB050895F5012E2FD50198
:105AB0001197F8010E948132AE1ABF0A30E00895B2
:105AC000F0E0EA17FB070895E0E7F8E0FA93EA93BD
:105AD000F50187CC84E00E9489252896EAE0E39FBF
