:0E0000000C9444000C9410110C9400000C940D
:10000E0000000C9474000C9400000C9400000C94EE
:10001E0000000C9466090C9492090C9400000C9448
:10002E00F60A0C9400000C94080B0C9400000C942F
:10003E0048100C94E3080C9400000C9400000C94EF
:10004E0000000C9400000600E8EEF0F2F4F5F6F76E
:10005E00F8F9FE006800FE0068000100F801540087
:10006E0001002702600001002802620001003E022A
:10007E00640001003F0266000000F894EE27ECBB1E
:10008E00F1E0FBBFEBBFE5BFF8E1F1BDE1BD8DE0F7
:10009E00A2E0BB27ED938A95E9F780E094E0A0E615
:1000AE00ED930197E9F7E8E6F0E0859195910097D9
:1000BE0061F0A591B59105901590BF01F0010590E5
:1000CE000D920197E1F7FB01F0CFEFE5EDBFE4E014
:1000DE00EEBFC0E6D1E00C9499050E94B0120A93CF
:1000EE00E8B7E064E8BFE8EBE4BDE091C001E030C2
:1000FE0011F40C94C70000E0083010F00C94C60008
:10010E00E02FA1E00E943515A091C001EA23A9F1CC
:10011E000E94B9120E94B515309741F00E94B91293
:10012E00ED91FD913197FE93EE9327C0E02FE330D2
:10013E0039F4E894C49B6894A8B3A4F9A8BB11C081
:10014E00E43039F4E894C59B6894A8B3A5F9A8BB2C
:10015E0008C0E53031F4E894C69B6894A8B3A6F9BC
:10016E00A8BBA0ECB1E0AF931C90E02FA1E00E94E1
:10017E003515E095E121AF91EC930F5FBDCF03C034
:10018E00E9B7EF7BE9BF09910E94C2121895AA81C7
:10019E00A83020F4E881F981309711F42396089560
:1001AE00F894EA810E94CB12EA0FFB1FA881B98155
:1001BE00A083B183A0ECB1E0AF931C90EA81A1E0E3
:1001CE000E943515E129AF91EC937894E9B7E0746C
:1001DE0051F4F894E8EBE4BDE8B7E064E8BFE9B7A2
:1001EE00E064E9BF789423960895A0ECB1E0AF9354
:1001FE001C90E881A1E00E943515E095E121AF91B8
:10020E00EC93E8810E94CB12AE0FBF1FE0E0F0E04E
:10021E00ED93FC9321960895E5E0E3BFE2EFE2BF94
:10022E00E0E0EFBDE3E0EEBDE0E0EDBDECBDE7BD2F
:10023E00E6BDEBBDEABDE9BDE8BDE2BDE7E0E5BD6B
:10024E00E0E0E4BDE3BDE9BF0895EFE3EBBBEFEB08
:10025E00EABBE2E1E8BBE3EBE7BBE0ECE5BBE0E0E9
:10026E00E4BBE2EFE2BBE1BBE0E0E5BFE4BFE9BF28
:10027E00E3E0E8B9E0E0E0BF949A979A959A969AEF
:10028E00E3B3E07CE295EF70E695E6955E2EE0E056
:10029E00E5BB089508950895E091F401F091F501FC
:1002AE003196E093F401F093F501E881F981A09184
:1002BE00F401B091F501EA17FB0709F49498E8816F
:1002CE00F981EE0FFF1FA091F401B091F501AE1769
:1002DE00BF0730F0949AE0E0E093F401E093F5016B
:1002EE00229608950A9300E0E0E00E94D1120E9447
:1002FE00640EE03031F00E94D81211F401E001C01A
:10030E00F6CFE0E0EA930E94FC00003031F40E9448
:10031E00DD12E0937701F0937801E02F3AC3992430
:10032E00AA24BB24CC24D0907901E0907A01E091EC
:10033E00F601E03051F40E94A70AE03029F4E7E517
:10034E000E94E212E093F6010895A091F601A13009
:10035E0091F40E94A70AE03069F4A0918801A130BF
:10036E0030F0E0E0EA93E09188010E94EB12E2E0C7
:10037E00E093F6010895A091F601A23051F40E9487
:10038E00D81231F4E7E50E94F012E3E0E093F601B3
:10039E000895A091F601A33091F40E94A70AE030CF
:1003AE0069F4A0918501A13030F0E0E0EA93E0918C
:1003BE0085010E94EB12E4E0E093F6010895A0910E
:1003CE00F601A43011F00C9427020E94D812B9F550
:1003DE006092AE017092AF01E0918001E03019F1B0
:1003EE00E0918001D301F0E0AE17BF0778F06624EC
:1003FE007724E0E0EA93E4E6F0E00E94F712E5E00D
:10040E00E093F601E0E0E093F7010CC0F3013196C2
:10041E003F010E94FB1219F4E1E0E093A401E0E039
:10042E00E093F6010CC0E0E0E093A301E093F60147
:10043E00A091A101A03519F4E1E0E093A401089583
:10044E00A091F601A530E9F40E94D812C9F4E0910A
:10045E00F701EF5FE093F701E1500E947901E03080
:10046E0021F0A091F701A73058F00E94FB1219F469
:10047E00E1E0E093A401E0E0E093F601E093F70100
:10048E00089508950E94D415E091F301E695E6953E
:10049E001E2F00E021E0293188F40E940213EF3F65
:1004AE00A0E0FA0749F00E940213DF01EB81FC8104
:1004BE00AE17BF0708F4022F2F5FEDCFA02FB0E0CD
:1004CE00AA0FBB1FAD53BE4F0E94B515EF3FA0E064
:1004DE00FA0709F40F5FE02FEE0FEE0FAE2FE0914B
:1004EE008101EC5EEA1720F4E0918101EC5E03C01D
:1004FE00E02FEE0FEE0FE093F3010E94DB15259631
:10050E000895A091F801A630B9F4E0918101E0932D
:10051E00F3010E940D13309721F0EA92DA920E94B5
:10052E0049020E941213E091F301EA930E944F0ACE
:10053E00E7E0E093F8010895A091F801A730B9F42F
:10054E000E94AA0A309719F00E94191369F4A0911B
:10055E008401A13030F0E1E0EA93E09184010E9441
:10056E00EB12E5E0E093F801E091F8010895A09117
:10057E00F801A53049F40E941F1319F4E0E0E0934E
:10058E00F801E091F8010895E091F80108950A93B9
:10059E000E948802E73009F4FCC10E948802E5300F
:1005AE0009F4F7C1E091F801E03051F40E94A70A76
:1005BE00E03029F4E3E50E94E212E093F801E9C18C
:1005CE00A091F801A13091F40E94A70AE03069F4DD
:1005DE00A0918701A13030F0E1E0EA93E09187012C
:1005EE000E94EB12E2E0E093F801D3C1A091F80172
:1005FE00A23051F40E941F1331F4E3E50E94F01271
:10060E00E4E0E093F801C5C1A091F801A43091F4A3
:10061E000E94A70AE03069F4A0918601A13030F063
:10062E00E1E0EA93E09186010E94EB12E9E0E093AB
:10063E00F801AFC1A091F801A93039F40E941F133F
:10064E0019F4EAE0E093F801A4C1A091F801AA30F0
:10065E0011F00C94A403E0E0E093A4010E94241393
:10066E00E6E0E093F801E89421F8E091A401E0308F
:10067E0011F00C94A103E0E0F0E2FA93EA930E94E9
:10068E005301A091A101A03521F4E091A301E03026
:10069E0029F0D0907901E0907A017BC1E3E0E51575
:1006AE00F1F50E94640E0E945A0FA0917901B0914B
:1006BE007A010E94CD1510F421FE01C030C00E94B7
:1006CE002B1368F59B2CAC2CB0908F01C090900131
:1006DE00E091F301E695E6950E2F9B14AC0438F4E9
:1006EE000E943313EB2DFC2DE919FA0904C00E9468
:1006FE003313E0E0F0E0ED93FC93A0917901B0911B
:10070E007A01BA16CB0638F40E940D13EB19FC09C8
:10071E00DE2EEF2E02C0DD24EE24689421F821FC9B
:10072E0004C00E940D13309711F40E9488020E949B
:10073E0051019BCF0E9424132CC12BC10A93E0E0E0
:10074E00E093A101E093A201E093A001E093A40144
:10075E00E093A3010E942413E0E0E0939F01E09355
:10076E009201E0E8E0939301E0E0E09394010E94AF
:10077E003C13A1E6B1E0EC91EC930E944213E0939E
:10078E009D01F0939E018824E0E0E093C0016894FF
:10079E0020F89924AA24BB24CC2400E0093140F48B
:1007AE000E943313EFEFF0E0ED93FC930F5FF6CF63
:1007BE00F0C0EFEFE0936001E8E0E0937E01E0E04F
:1007CE00E0936201E2E1E0937D01E0E1E0936101FB
:1007DE00E0E0F0E00E944713EAEDFEE3E0937701DC
:1007EE00F0937801EBEDF3E4E0936D01F0936E017D
:1007FE00E2E3F0E0E0936301F0936401E9EFF8E4E3
:10080E00E0936F01F0937001E4E6F0E0E093650190
:10081E00F0936601EEE1F3E5E0937101F09372015E
:10082E00E8ECF0E0E0936701F0936801ECE4FDE59D
:10083E00E0937301F0937401ECE2F1E0E09369014F
:10084E00F0936A01EFE9F1E7E0937501F093760119
:10085E00E4EFF1E0E0936B01F0936C01E2E3E093DF
:10086E008101EAE0F0E0E0938201F0938301E1E0A0
:10087E00E0937F01EAE0E0938401E0938501E09349
:10088E008601E0938701E09388010E944C130E9439
:10089E005313EAEAE0938A010E945C1308950A93C7
:1008AE0000E0A0916201A53020F0E0E0E09362014B
:1008BE000FEFA0917B01E0918B01EA1731F4E091EB
:1008CE007B01A0916001EA1709F405C0E0917B015C
:1008DE00E09360010FEFA0917B01E0916001EA17B8
:1008EE0031F4A0918B01E0917B01EA1709F405C068
:1008FE00E0917B01E0938B010FEFA0918B01E091D2
:10090E006001EA1731F4A0917B01E0918B01EA17A7
:10091E0009F405C0E0918B01E0937B010FEFA091EC
:10092E007C01E0918C01EA1731F4A0916101E09114
:10093E007C01EA1709F405C0E0917C01E0936101A6
:10094E000FEFA0917C01E0916101EA1731F4A091C3
:10095E008C01E0917C01EA1709F405C0E0917C015D
:10096E00E0938C010FEFA0918C01E0916101EA17E9
:10097E0031F4A0917C01E0918C01EA1709F405C0D5
:10098E00E0918C01E0937C010FEF003011F00E949A
:10099E005C130991089524970E94D215E3E0E515A2
:1009AE0009F042C003E00130A0F10E94B50DE03025
:1009BE00A0E0FA07A0E06A07A0E17A0741F533E06C
:1009CE0040E0A32FB42FEBE00E943D15F4603E2FC4
:1009DE004F2F20FE03C018E020E002C010E020E000
:1009EE002A931A934A933A930E94C40DE8E0ED833A
:1009FE00E0E0EE83EF83E887FE013596FA93EA9303
:100A0E00E2E0EA930E94F00D0E94D10D02C0015067
:100A1E00CACF003021F0E0919201EF7E03C0E09149
:100A2E009201E061E09392010E94D91529960895F2
:100A3E00A5E9B1E0EC91E070EC93A5E9B1E0EC91A1
:100A4E00E661EC9308950E94D41520E00E94651390
:100A5E0011F0E22F63C0E091FA01E03001F50E943F
:100A6E00AA0A309759F4E7E00E94D112E0E0F0E0D4
:100A7E00FA93EA93EA930E944F0A02C0E22F4EC005
:100A8E000E94A70AE03011F0E22F48C00E944C0AE3
:100A9E00E093F901E1E0E093FA01E22F3FC00E94FA
:100AAE004C0A0E2FE091F901E01728F4A091F901FC
:100ABE00E02FEA1B03C0E091F901E01B1E2FE12F8E
:100ACE00EE0FE0939901173110F01D3108F008C0B8
:100ADE0068940E946A13EF7BE093930121E01AC0A1
:100AEE001D3110F0133208F008C0E8940E946A130A
:100AFE00E064E093930121E00DC0689420F8E0914A
:100B0E009201E160E0939201E0919301EF7BE0931B
:100B1E00930120E0E0E0E093FA01E22F0E94DB1562
:100B2E0023960895E894F1F840E0F2F80E942C0123
:100B3E000E9413010E940711E0E8F0E0FA93EA9395
:100B4E00E0E6F1E0FA93EA93EDE2EA930E94E61012
:100B5E000E94A5030E941F050E947313EDB7FEB7F6
:100B6E00FA93EA930F930E94F7100F910F3F51F0F3
:100B7E000E947313EFEFEA930E947D10EAE0F0E01B
:100B8E000E947813A0918A01AA3A19F00E94E003FC
:100B9E0002C00E9456040E94500BE3E0E51549F492
:100BAE008FD20E94D20420FAF0F8E0919301EF7DEB
:100BBE0006C00E947C138A98E0919301E062E09354
:100BCE0093017894A0916001A03011F0A53218F035
:100BDE00E4E2E093600140906001E7E0EA93E1E037
:100BEE00F0E00E94F71220E030E010E0A091A001AA
:100BFE00A130C8F0E091A001E295EF70EA3039F42F
:100C0E000E947313E091A001EA930E947D10F89464
:100C1E00A895E1B5E861E1BDE9E0E1BD7894E0E0D9
:100C2E00E093A001FFCFE0E0F4E0FA93EA930E9494
:100C3E0053012131E7E23E0718F020E030E002C018
:100C4E002F5F3F4FE0919701E070E0939701E091A5
:100C5E009801E070E0939801A5E9B1E0BF93AF93DE
:100C6E000E94B915DF01CB01F901662777270E9493
:100C7E006A150E943015AF91BF910E94BF150E9458
:100C8E005101E2E0E51511F00C949106F1FC0BC058
:100C9E00E2EDF0E00E944713EEE1E0937D010E9449
:100CAE0051116894F1F80E94B911E09394010E94D9
:100CBE00B911E030D1F0F2FC09C0E6E0EA93E8EEBB
:100CCE00F3E00E94F7126894F2F80EC0A091C001F2
:100CDE00E0E4EA2321F0E0919301ED7F03C0E0917F
:100CEE009301E260E09393010BC0E6E0EA930E9469
:100CFE00FC00E894F2F8E0919301ED7FE09393010C
:100D0E00403041F00E9442124E2F403019F4E0E084
:100D1E00E093A101283CE0E03E0710F4103009F00A
:100D2E001BC00E942A051E2FE894979B6894A2B3BD
:100D3E00A7F9A2BBE3E0E51579F4E0E020FCE1E0E1
:100D4E00AE2FE0E0F0FCE1E0EA1731F00E942F0E4A
:100D5E000E94D20420FAF0F80E942B1320F40E9475
:100D6E00DD12309709F416C00E948313A130E8E01B
:100D7E00BE0730F00E948313A030E0ECBE0708F0EF
:100D8E0004C0E0919201EF7703C0E0919201E06818
:100D9E00E09392010E94560440906001A0919F0141
:100DAE00A13010F1A0919F01AE3218F0EDE2E09368
:100DBE009F01E0919F01ADEA0E94C915EA1BF0E088
:100DCE00FA93EA93ADE8B1E0E0919F01F0E0AE1B3B
:100DDE00BF0BBA93AA93E0919F01EA930E94AF10C2
:100DEE00E0939F010C94FD05E091A501E77FE09350
:100DFE00A501A091A601E0ECEA23E03CC1F4A0918C
:100E0E00A601EFE1EA23E09360010E944C134090AB
:100E1E006001E3E0E51511F4E0E101C0E0E0E093EC
:100E2E0061010E9453130E9488130C94FD05A0913A
:100E3E00A601E0ECEA23E038D9F4E091A601EF73C5
:100E4E00E093A601A091A601A03141F0A091A601C8
:100E5E00A03021F0A091A601A03241F4E091A601AC
:100E6E00E09361010E9453130E9488130C94FD05B8
:100E7E00E091A401E03011F00E942413A091A10191
:100E8E00A13020F0A091A101A03508F0DAC00E9497
:100E9E005201E3E0E515A1F4A091F801A63019F096
:100EAE000E94CE02F9CF0E942413E091A301E030FC
:100EBE0021F4A091F601A03019F00E949601F5CF11
:100ECE00E091A101E13021F4E0E5E093A101B7C08A
:100EDE00E23049F4E3E0E51511F40E94D204E0E0BB
:100EEE00E093A101ACC0E33001F50E94A70AE03007
:100EFE00E1F7E3E5EA93E4E6EA93E1E0EA930E94A0
:100F0E00680A0E94A70AE030E1F7E0918701F0E05D
:100F1E000E947813E3E50E94F0120E94A70AE030C7
:100F2E00E1F7E0E0E093A1018AC0E43071F4E1E082
:100F3E00E093A301A091A301A13019F40E949601A0
:100F4E00F9CFE0E0E093A1017AC0E530D9F40E9438
:100F5E00AA0A309721F00E94191309F0F8CF0E94C7
:100F6E001213E0918101EA930E944F0A0E94AA0A8D
:100F7E00309721F00E94191309F0F8CFE0E0E093CA
:100F8E00A1015DC0E73099F4E3E0E51561F404E1F9
:100F9E00013048F00E947901E03019F40E945C1390
:100FAE0002C00150F5CFE0E0E093A10148C0E83067
:100FBE0049F4E2E0E51511F40E945111E0E0E093EE
:100FCE00A1013DC0E93081F4E2E0E51549F4EEE11E
:100FDE00E0937D01E2EDF0E00E9447130E94511173
:100FEE00E0E0E093A1012BC0EA30A1F4E2E0E515C8
:100FFE0069F40E94B911E03041F40E9442124E2F62
:10100E00403019F4E0E0E093A10103C0E0E0E0938A
:10101E00A10115C0EB3049F4E2E0E51511F40E9490
:10102E00FD11E0E0E093A1010AC0EC3041F4E2E0F2
:10103E00E51511F40E941412E0E0E093A1010C9466
:10104E00FD05E091A101E03029F5E0E0E093A40177
:10105E00E3E0E515D1F4A091F801A63029F00E9445
:10106E0051010E94CE02F7CFE091A301E03021F4AE
:10107E00A091F601A03029F00E9451010E94960124
:10108E00F3CF0E94640E0E945A0FE0E0E093A40199
:10109E000C94FD05E3E0E51511F00C94FD05E091CF
:1010AE00A301E03041F00E9424130E9496010E9499
:1010BE0088020C94FD050E94CE020C94FD05FFCF14
:1010CE00BD9ABF9ABC9ABE98C49AEEB1EFB1E1E058
:1010DE00EEB9E1E5EDB908950A93C498E981EFB947
:1010EE00779BFECF0FB1088109C0E981F070EA93BA
:1010FE00F3DFE881F981F070EA93EEDF229608952E
:10110E00EB810E948F130E9496130E9465150E9418
:10111E008F13E881F981EF2F0E948F130E9496138F
:10112E000E948F1338C0C498E0E0EFB9779BFECFD2
:10113E00EFB108952497F7DFFF27662777270E94E0
:10114E009B137F936F93FF93EF93EDDFAF91BF915F
:10115E008F919F910E94A7137F936F93FF93EF93AD
:10116E00E2DFAF91BF918F919F910E94A7137F9362
:10117E006F93FF93EF93D7DFAF91BF918F919F91B5
:10118E00FF27662777270E942B15E883F9836A834A
:10119E007B830E949613249608950A9304E10130EE
:1011AE0018F0DC980150FBCF04E1013018F0DC9A06
:1011BE000150FBCF099108950E94B0121A930A9321
:1011CE000E94651331F0E091FD01EF5FE093FD01A8
:1011DE00E150E091AA01F091AB01309741F0AAEAFB
:1011EE00B1E0ED91FD913197FE93EE9310C00E9408
:1011FE00651321F44398E9B7EB7FE9BFE3E0E09391
:10120E00FC01C19A099119910E94C2121895A091E0
:10121E00FC01A33011F00C946109E8B7E460E8BF5B
:10122E00E0916101E03061F520FE16C0A0916001F1
:10123E00AB3041F4E091FB01A6E0EA9FF001EA55E4
:10124E00F54008C0A0916001AF3029F40E94AD13A3
:10125E00E050F6408F0113C0A0916001AB3031F425
:10126E00E091FB01A6E0EA9FF00106C0A0916001AB
:10127E00AF3029F40E94AD13E654F5408F0112C031
:10128E0020FE08C0E091FB01A3E0EA9FF001EA55C1
:10129E00F54007C0E091FB01A3E0EA9FF001E654A0
:1012AE00F5408F011DBD0CBDE9B7E460E9BFE1E07B
:1012BE00E093FC01099119910E94C2121895AA930C
:1012CE00EA93FA93EFB7EA93A091FC01A13049F4A7
:1012DE00C198ECEDFFEFFDBDECBDE2E0E093FC014B
:1012EE0014C0B1990BC0CE9B04C0E0919201E26094
:1012FE0003C0E0919201ED7FE0939201C19AE3E089
:10130E00E093FC01E9B7EB7FE9BFE991EFBFF991FB
:10131E00E991A99118950E94B313E091A901E030CB
:10132E0011F40C94120AE091A901E150E093A90185
:10133E00EF5FA091A801EFE3EA2349F0E091A80145
:10134E00E150E093A801EF5FE6E5F0E002C00E94F5
:10135E00C113E491E2BF21DFA091A801E0E4EA23EA
:10136E0011F00C94110AA091A701A735D9F4A09100
:10137E00A901A13020F0A091A901A23308F012C05A
:10138E00E2E0E51511F4989901C003C0E0E0E093A6
:10139E00A901E3E0E51511F4829901C003C0E0E074
:1013AE00E093A901A091A701A335D9F4A091A901B9
:1013BE00A13020F0A091A901A23308F012C0E2E002
:1013CE00E51511F4999901C003C0E0E0E093A9017D
:1013DE00E3E0E51511F4839901C003C0E0E0E0936A
:1013EE00A901E3E0E51551F4829902C0839B05C083
:1013FE00E091A801E068E093A8010CC0E2E0E515D9
:10140E0049F4989902C0999B05C0E091A801E06843
:10141E00E093A80137C0E091A801E03019F0E0E8B0
:10142E00E03009F413C0A091A701A33529F4E0918F
:10143E009201E77FE0939201A091A701A73529F4CD
:10144E00E0919201EB7FE093920112C0A091A7016F
:10145E00A33529F4E0919201E860E0939201A09106
:10146E00A701A73529F4E0919201E460E09392017F
:10147E00A091A801E0E4EA2311F4D89AD99AE9B729
:10148E00EE7FE9BF0E94C7131895E091FD01089504
:10149E00E881E093FB01A881A53618F0E4E6E0931D
:1014AE00FB01E0E0E093FD01E981FA81E093AA01FE
:1014BE00F093AB01E3E0E093FC01EBE1E8B9239696
:1014CE0008950A930AE0A0917F01A01720F0E02F63
:1014DE00E150E0937F01EA81E093A901E9E1E09315
:1014EE00A801E981E03021F0E091A801E06403C099
:1014FE00E091A801EF7BE093A801EB81E093A701B7
:10150E00DD9ADA9ADB9AE091A701E73519F4D99AB8
:10151E00D89807C0E33519F4D89AD99802C0D89A4A
:10152E00D99A00E8013010F00150FCCF0E94C1138F
:10153E00E491E2BFE9B7E160E9BF0881249608951E
:10154E00E091A90108950E94D513309759F4E0E077
:10155E00E093FE01E0E0E093FF01E0930002E0E0A3
:10156E00F0E00895E091FE01E030B9F4E6E0EA9390
:10157E00E4E0F0E00E94F712EFEFE093FE010E942C
:10158E00D513E093FF01F0930002E0919201EE7FFC
:10159E00E09392010E94D5130895A091C001E0E45A
:1015AE00EA23D1F40E94D513A091FF01B09100025D
:1015BE00EA17FB0771F4E0E0F0E0E093AA01F09384
:1015CE00AB01E0919201E160E0939201EFEFFFEF4A
:1015DE0008950E94D51308950E94D51308950E9470
:1015EE00B3131A930A930BB11CB1E02FEC7121F4D3
:1015FE001A93E0E0EA930ED1099119910E94C71354
:10160E001895AA93EA93FA93EFB7EA93E09123021F
:10161E00E030B1F0C09AE150E0932302E091220253
:10162E00F0E0EF5FFD4FE081ECB9A0912202AF5FD9
:10163E00A0932202A03219F4E0E0E093220201C04E
:10164E00C098E991EFBFF991E991A9911895E091B0
:10165E006201E03009F418C0E13021F4E0E0E0BDB1
:10166E00E7E015C0E23021F4E0E0E0BDEBE00FC0B2
:10167E00E33021F4E0E0E0BDE7E109C0E43021F41D
:10168E00E0E0E0BDEFE203C0E0E0E0BDE3E0E9B999
:10169E000895C098E89422F8E0E0E0932102E093E8
:1016AE002202E0932302E0932402E0932502E093CA
:1016BE002602F894E0E0EBB9E8EDEAB9E6EAE0BD1F
:1016CE00C6DF0895A0912302A032E0F7C09AF894E5
:1016DE00E0912302E03011F45D9917C0E0912102F0
:1016EE00F0E0EF5FFD4FA881A083A0912102AF5FD4
:1016FE00A0932102A03219F4E0E0E0932102E091E0
:10170E002302EF5FE093230202C0E881ECB97894E4
:10171E007FC0A981A150A983AF5FA13040F0AA81FB
:10172E00BB81ED91AA83BB83EA93CCDFF2CF30C2AB
:10173E000A93A981BA811197A983BA8311960E943F
:10174E00CD1530F40AE0013010F00150FCCFF1CF8E
:10175E00088123960895A881B9811197A883B9832A
:10176E0011960E94CD1530F4E4E6F0E0FA93EA9378
:10177E00DFDFF1CF11C10A9300E0A981A150A98347
:10178E00AF5FA13038F0AA81BB81ED91AA83BB83F4
:10179E000E0FF3CFE02FE095EF5F0E2FE02F0881B5
:1017AE00F7C10E94DA13EC5AFD4FFF93EF930E949C
:1017BE00DF13E1DFEF930E94DA130E94EA13DBDFFF
:1017CE00AF91EA0FAF91BF91EC930E94DF130E948D
:1017DE00F9130E94DA13A3E4B2E0AE0FBF1FAC916F
:1017EE00A13030F00E94DA130E94EA130E94F9131E
:1017FE000E94DA13EC5AFD4FFA93EA93E1E0EA9372
:10180E000E94F913E894969B6894A2B3A6F9A2BB22
:10181E00219608950E94FD13E83009F4BDC00E9480
:10182E00FD13E73081F5BFD7E35CFD4FA981A0839F
:10183E00E881A7E1EA9FF001E95DFD4FFA93EA9393
:10184E00E6E0EA9398DFEF93AED7E35DFD4FFA93B0
:10185E00EA93AA810E940314EA938DDFAF91AE0F33
:10186E00EFEFEA23AE2FE981EA1749F40E940C1438
:10187E00AA5ABD4FE8E0EC93E881EA938FD0A88195
:10188E00B0E0C6D789C0B2D7E630D1F48CD7C5D771
:10189E00C9D7E0810E941E140E942214AB5ABD4F7C
:1018AE00EC91EF5FEC93BED780817DD7C7D7EC91DB
:1018BE00E81729F4AAD7AA5ABD4FE7E0EC936CC0FB
:1018CE0095D7E530E1F4A981A131B0F46CD7E45D90
:1018DE00FD4FB1D7AB5ABD4FE0E0EC93E981E0305C
:1018EE0029F493D7AA5ABD4FE7E004C08ED7AA5A5F
:1018FE00BD4FE6E0EC9302C088D78AD74DC076D7AD
:10190E00E43049F450D7E55DFD4F95D7AA5ABD4F47
:10191E00E5E0EC9341C06AD7E33049F444D7E65D85
:10192E00FD4F89D7AA5ABD4FE4E0EC9335C05ED780
:10193E00E23049F438D7E75DFD4F7DD7AA5ABD4F47
:10194E00E3E0EC9329C052D7E13019F4A981A8360F
:10195E0009F006C05AD7AA5ABD4FE2E0EC931CC05C
:10196E0045D7E13019F4A981AE3F09F006C04DD735
:10197E00AA5ABD4FE1E0EC930FC038D7E03019F40E
:10198E00A981AE3F09F006C040D7AA5ABD4FE1E08B
:10199E00EC9302C03AD73CD7229608950A93A091B1
:1019AE006101EFE0EA23E0580E2F4DD751D7AC91ED
:1019BE004A1621F04DD7AC910A1769F4E0E6F1E032
:1019CE00FA93EA93EB81EA9309D0E894959B689495
:1019DE00A2B3A5F9A2BB0881229608950A9333D724
:1019EE003CD7A63419F4EDE2E0939F012CD735D7FE
:1019FE00A735F9F400E0A981FFD60E17D0F423D74E
:101A0E0032D7EC91AA81BB8112D736D738D72BD7D4
:101A1E00AC91A13428F017D726D7AC91A53408F095
:101A2E0006C0E0919B01EF5FE0939B01E1500E5FDA
:101A3E00E2CF09D712D7A835C9F400E0A981DCD6C8
:101A4E000E17A0F400D70FD7EC91AA81BB81EFD669
:101A5E0013D715D708D7EC91AA81BB811196E7D67B
:101A6E000BD7E02FEE5F14D70D5FE8CFECD6F5D68F
:101A7E00A23539F5E8D613D718D71BD7A2E4B2E0B2
:101A8E00AE0FBF1FE7E5EC93DED61DD7EC91EE0F40
:101A9E00DB01EC9300E0A981AFD60E1778F4D3D614
:101AAE0018D720D721D701D714D7EF5F1BD71CD754
:101ABE00EC91AA81BB81ECD60F5FEDCFE981EA9361
:101ACE0070DEC1D6CAD6A33599F5BDD6E8D6EDD609
:101ADE00F0D6A2E4B2E0AE0FBF1FE8E5EC93B3D6AA
:101AEE00F2D6AC91E3E0EA9FF001DB01EC9300E06B
:101AFE00A98182D60E17C8F4A6D6F9D6F3D6F4D697
:101B0E00D4D6F5D6EF5FEED6EFD6EC91AA81BB8197
:101B1E00BFD699D6ECD6EE5FE5D6E6D6EC91AA8185
:101B2E00BB811196B5D60F5FE3CFE981EA9339DE1B
:101B3E0008812EC0E5D6E0E0F0E060E070E2E4D689
:101B4E00E1E0F0E0CED5DCD6E0E0F0E060E070E081
:101B5E00DBD6EBE0EA93C0DAEDDA08950A9302E100
:101B6E00013028F0EFEFEA93B7DA0150F9CFEEEF3C
:101B7E00EA93B2DADFDF09910895C2D6EA81FB81DA
:101B8E00FA93EA93B2DAE881F981FA93EA93ADDA3D
:101B9E0024960895E0ECEA939FDA08950E94D415F6
:101BAE001B812C81B69B02C0EFEF0FC0B1D604E0B3
:101BBE00013050F02F931F931F5F2F4FB4DAAF9168
:101BCE00BF91EC930150F4CFE0E00E94DB15259617
:101BDE00089528971A930A930B851C859DD6A2D635
:101BEE00AA81BB818C819D81E8E10E944615A6D613
:101BFE00EA81FB816C817D810E946A15A4D69ED6F6
:101C0E00AA81BB818C819D81E8E00E9446159BD6FE
:101C1E00A1D6D801EC91A3D6FF2766277727A4D6A5
:101C2E00E1E0EA9359DAEE81FF81688579856CD619
:101C3E00E2E0EA9351DAEA85A1E00E943515EA93D3
:101C4E004BDA66D665D664D6198108812D9608952D
:101C5E00B69B02C0EFEF0895EFEFEA933DDA6ADA32
:101C6E00E0E0089524970E94D315FE013496FA936E
:101C7E00EA9394DFE03019F0EDEFFFEF1AC0EF8139
:101C8E00E03041F0E0919201E062E0939201ECEFDE
:101C9E00FFEF0FC0E0919201EF7DE09392012C8156
:101CAE003327F22FE0E08F01ED81D801C0D58F01EF
:101CBE00F8010E94DA152896089564970E94D115AE
:101CCE00D1DF9F01EDEFFFEFE217F30711F4E1E033
:101CDE00E6C0ECEFFFEFE217F30731F420938D012E
:101CEE0030938E01E2E0DBC0E0916702EF5FE0939C
:101CFE006702E1503CD6AE0FBF1F2D933C93A091CF
:101D0E006702A83018F0E0E0E0936702A091680245
:101D1E00A43040F4E0916802EF5FE09368022DD6A4
:101D2E00E3E0BDC040E0F8D54430A8F4A0916702CE
:101D3E004A1728F4E0916702E150E41B05C0E7E082
:101D4E00E41BA0916702EA0F5E2FE52F10D61CD67A
:101D5E0020D64F5FE9CF03D6E4E0F0E060E070E01C
:101D6E001CD68F0140E0D8D5443058F5A0916702BB
:101D7E004A1728F4E0916702E150E41B05C0E7E042
:101D8E00E41BA0916702EA0F5E2FE52FF0D5FCD57C
:101D9E00E017F10740F4E52FEAD5F6D5DF01F8019B
:101DAE00EA1BFB0B05C0E52FE2D5EED5E01BF10BD0
:101DBE00AE81BF818885998566277727D5D54F5FF8
:101DCE00D3CFCDD5A531E0E0BE07E0E08E07E0E051
:101DDE009E0730F0D2D5E4E0E0936802E3E05FC006
:101DEE00A0916802A83058F4E0916802EF5FE0938A
:101DFE00680200938D0110938E01E0E050C050E018
:101E0E00583060F4D1D5EA0FFB1F0F01E52FAFD587
:101E1E00BBD5D001ED93FC935F5FF2CF40E0443031
:101E2E0030F550E0E7E0E41B5E17F8F4BDD5AE0FD9
:101E3E00BF1F0D901C90BFD5A7D5E015F10598F4E6
:101E4E00BAD5AE0FBF1F2D913C91B5D5EA0FFB1F32
:101E5E000F01AAD599D5D001ED93FC93A5D5AE0F60
:101E6E00BF1F2D933C935F5FDDCF4F5FD8CF54D50F
:101E7E0041E0542FE8E0E41B5E1728F495D584D595
:101E8E0088D55F5FF7CF46E0E42F69D5FF27662739
:101E9E00772783D5E0938D01F0938E01E0E00E94C9
:101EAE00D8156A9608952E970E94D11525D4A13F74
:101EBE00EFEFBE0718F07AD386D5DFC01DD4DBD383
:101ECE00AE17BF0730F4E0E0E88BE98BEA8BEB8BC3
:101EDE000AC06CD37DD5EA1BFB0B66277727E88BF0
:101EEE00F98B6A8B7B8B74D578D5EA17FB0780F458
:101EFE006FD573D5AE1BBF0B3A2F4B2F50E055301D
:101F0E0038F470D5E30FF41FFE93EE935F5FF7CFB7
:101F1E005FD563D5AE17BF0798F4A0919D01B09120
:101F2E009E01A9D3AE1BBF0B3A2F4B2F50E055305D
:101F3E0038F458D5E31BF40BFE93EE935F5FF7CFA7
:101F4E009AD3E0939D01F0939E01A091A501E0E844
:101F5E00EA2311F000E020C0EFEFFFEFEE83FF83E6
:101F6E0050E05530C8F449D5C7D3EA17FB0718F42B
:101F7E0044D5C2D303C041D5DF0118D3AE1BBF0B6E
:101F8E003A2F4B2FEE81FF813E174F0718F43E83F9
:101F9E004F83052F5F5FE5CF37D5DF016CD3AE17CB
:101FAE00BF0718F410E020E007C02ED5DF0163D381
:101FBE00AE1BBF0B1A2F2B2FA3E6B1E0E02FF0E0E4
:101FCE00EE0FFF1FE1D4DF01E889F9896A897B8969
:101FDE00882799270E946F15EC87FD876E877F876C
:101FEE00AC85BD858E859F85E6E00E944615EC8703
:101FFE00FD876E877F87012E022A79F1E12FF22F5E
:10200E00AC85BD858E859F85662777270E948F15A7
:10201E00E887F9876A877B87A885B9858A859B8536
:10202E00E6E00E945215CFD4A0918F01B09190019D
:10203E00AF3FEFEFBE0719F4E9EFFFEFC4D4E88529
:10204E00F9856A857B85EF73F07060707070E09330
:10205E009101E0919201EF7B06C0EAEFFFEFB3D45E
:10206E00E0919201E064E0939201A091A501E0E17C
:10207E00EA23E13011F49AD2A6D40E94D8156496C0
:10208E00089567D2A091FB02A03069F1E199FECFCD
:10209E00E091FA02A3E0EA9FF001E759FD4FDF015C
:1020AE000E94B515FFBBEEBBA091FA02E3E0EA9FDA
:1020BE00F001ABE6B2E0AE0FBF1FEC91EDBBE29AC2
:1020CE00E19AE091FA02EF5FE093FA02A091FA0230
:1020DE00A03318F0E0E0E093FA02E091FB02E15049
:1020EE00E093FB0201C0E39846D21895A091FB0243
:1020FE00A03319F4EFEF23960895F894E091F902C6
:10210E00A3E0EA9FF001E759FD4FA981BA81A083B0
:10211E00B183A091F902E3E0EA9FF001E559FD4F8A
:10212E00A881A083E091F902EF5FE093F902A091FC
:10213E00F902A03318F0E0E0E093F902E091FB021F
:10214E00EF5FE093FB02E39A7894E0E02396089524
:10215E000A93A981A13078F1EC81FD81FA93EA937B
:10216E00EDB7FEB7FA93EA930F933AD00F91E030A2
:10217E0011F0E98121C0AA81BB81EC91E01769F0D1
:10218E00EC81FD81FA93EA93AC81BD81EC91EA93E7
:10219E00ADDFE03011F0E9810FC0E981E150E98354
:1021AE00EC81FD813196EC83FD83EA81FB813196D2
:1021BE00EA83FB83CECFE981088126960895A88114
:1021CE00A150A883AF5FA13040F025D424D408D00D
:1021DE00E03011F0EFEF02C0F2CFE0E02596089567
:1021EE00E19B02C0EFEF0AC0EA81FB81FFBBEEBBB1
:1021FE00E09AEDB3A881B981EC93E0E024960895BE
:10220E00E0E0ECBBE093F902E093FA02E093FB020C
:10221E000895EA93EFB7EA93E2E0E51551F0EBB7D4
:10222E00EF7BEBBFEAB7E064EABFE991EFBFE9915C
:10223E001895E0919A01EF5FE0939A01E150EAB7A9
:10224E00E064EABFE091FC02E27061F0829B04C0A0
:10225E00E0910003E26003C0E0910003E160E093CF
:10226E00000311C0E0910103E03011F4E0E009C079
:10227E00829B04C0E0910003E26003C0E091000382
:10228E00E160E0930003E0E0E0930403E991EFBF27
:10229E00E9911895BBD1E093FC02F093FD02E09119
:1022AE007D01F0E0E093FE02F093FF02A091FE02AA
:1022BE00B091FF02159730F4E5E0F0E0E093FE02F6
:1022CE00F093FF02B1D3E07831F4EBB7EF7BEBBFC5
:1022DE008A980BD20895E7B3E06FE7BBAAD321F03B
:1022EE00E830A0E0FA0721F4E8B3EF70E8BB0BC0CA
:1022FE00E031A0E0FA0721F0E831A0E0FA0719F486
:10230E00E8B3E06FE8BBE0910503E03099F48A98FA
:10231E00E5B7EB7FE5BFE5B7E160E5BFEAB7EF7B79
:10232E00EABFEBB7E064EBBFE0E0E0930003E1E06F
:10233E00E093050379D3E070F770EF2FF0E031965C
:10234E00E0930303E0E0E0930403E091FC02E1700C
:10235E0019F0E3E0E0930003E0E0E0930103E09383
:10236E0002030895E091FC02E078E9F1E0910203A6
:10237E00E03011F0E0E00895E091FC02E07661F4C7
:10238E00829904C0E0910003E17009F402C0E0E01C
:10239E000895EFEF089526C047D3E076E03661F456
:1023AE00829B04C0E0910003E27009F402C0E0E0F9
:1023BE000895EFEF089516C037D3E076F070B0971A
:1023CE0049F4E0910003E27011F0E0E00895EFEFC0
:1023DE00089508C0E0910003E17011F0E0E0089567
:1023EE00EFEF089502C0E0E00895089522D321F0A2
:1023FE00E830A0E0FA0711F4C49809C0E031A0E07B
:10240E00FA0721F0E831A0E0FA0709F4C49AE1E0F6
:10241E00E0930103E3E012D308950BD321F0E830EB
:10242E00A0E0FA0711F4C69809C0E031A0E0FA075F
:10243E0021F0E831A0E0FA0709F4C69AE5E0FED2F1
:10244E000895F7D211F4C59804C0E830A0E0FA0759
:10245E0021F4C598E4E0F2D20DC0E831A0E0FA070D
:10246E0011F4C59A04C0E031A0E0FA0719F4C59A38
:10247E00E4E0E4D208951A930A93A091C001E0E13A
:10248E00EA2311F0EFEF62C0E0910603E03049F06D
:10249E00D8DFE0E0E0930603E1E0E0930703EFEF1F
:1024AE0055C0E0910703E03091F0A091C001E0E14A
:1024BE00EA2311F0EFEF4AC0E0E0E0930703E0916A
:1024CE009C01EF5FE0939C01E150E0E03FC0E0E053
:1024DE00E0930103E0910403EF5FE0930403E15006
:1024EE00A0910403E0910303AE1740F4E3E0E09300
:1024FE000003E1E0E0930203E0E028C0E0E0E093B7
:10250E000003E0930203E0930403E091FD02E87FF1
:10251E00C1F08AD2E070F87F0E945E15EF2FF0E0D6
:10252E008F01A4E1A09FF001A19FF00D8F01E2E0C9
:10253E00EA931A930A930E94CE00EFEFE0930603FC
:10254E0005C07FDFE1E0E0930703EFEF09911991FA
:10255E0008950A921A92AA93BA93EA93FA93EFB74E
:10256E00EA930895E02FA0EBB1E0F0E0EE0FFF1F2D
:10257E00AE0FBF1F0895E991EFBFF991E991B9919F
:10258E00A991199009900895A0EBB1E0F0E0EE0F3B
:10259E00FF1F0895EA93E2E3F0E0FA93EA930C94B6
:1025AE00CE00A091C001E1E0EA230895E0918D01F3
:1025BE00F0918E010895EA93E4E6EA93E1E0EA935E
:1025CE000E94680AE1E00895F0E0FA93EA930C9411
:1025DE00CE00EA93E2E8EA93E0E0EA930C94680A0C
:1025EE00FA93EA930C94CE00E0E0E093A301A0915D
:1025FE00A101A0350895E22FA1ECB1E0F0E0EE0FBD
:10260E00FF1FAE0FBF1F0E94B5150895E09179010F
:10261E00F0917A010895E0918201F0918301FA938D
:10262E00EA9308950E94AA0AEF3FAFEFFA070895C2
:10263E00A091C001E2E0EA230895EEEFFFEFE093F0
:10264E008F01F09390010895A0918D01B0918E01AC
:10265E00A03FEFEFBE070895E02FA1ECB1E0F0E050
:10266E00EE0FFF1FAE0FBF1F0895E093A501E0E030
:10267E00E093A6010895E0917701F0917801089515
:10268E00E0937901F0937A010895E0916001E0936F
:10269E007B01E0938B010895E0916101E0937C0151
:1026AE00E0916101E0938C010895EDE2E0939F01CA
:1026BE00E091A501E860E093A5010895A091C00105
:1026CE00E0E8EA23089520F8E0919201EE7FE0938E
:1026DE009201E09193010895E0E4F0E0FA93EA9319
:1026EE000895FA93EA930C94B20BE7B3E06FE7BB4D
:1026FE00E8B3E06FE8BB0895A0918D01B0918E0113
:10270E000895EDE2E0939F01E091A501E860ADCF61
:10271E00EF7FF07060707070EA930C947308E8812C
:10272E00F9816A817B810895E883F9836A837B83CB
:10273E00A881B9818A819B81E8E00E94461508959F
:10274E00FF27662777270E942B15EECFE091FB011E
:10275E00F0E0EE0FFF1F08950A921A92FA926A9312
:10276E007A938A939A93AA93BA93EA93FA93EFB7CA
:10277E00EA930895E0917F01F0E0EA5AFF4F089541
:10278E00E991EFBFF991E991B991A9919991899147
:10279E0079916991F990199009900895E091AA01A3
:1027AE00F091AB010895A881E7E1EA9FF001089549
:1027BE00E881A7E1EA9FF001E25CFD4FFA93EA930C
:1027CE00E6E0EA930895EC5BFD4FFA93EA93AA8153
:1027DE00E7E1EA9FF001A3E4B2E0AE0FBF1FEC9178
:1027EE00EA930895EB81EA930C94900BE881F0E064
:1027FE00EA5AFD4FE0810895E7E1EA9FF001ACE26D
:10280E00B2E0AE0FBF1FEC910895A881B0E008951D
:10281E00AA5ABD4FE0E0EC930895ADE2B2E0AE0FE0
:10282E00BF1F0895E881F0E0EB5AFD4F0895F0E0E8
:10283E00EA0FFB1F0895A981A083E7CFACE2B2E0B7
:10284E00AE0FBF1F0895A981E7E1EA9FF001089539
:10285E00AAE2B2E0AE0FBF1F0895ABE2B2E0AE0F38
:10286E00BF1FAC910895ADE2B2E0AE0FBF1FE02FD7
:10287E00F0E0AE0FBF1F0895BF01F001CECFE02FE5
:10288E00EF5FF0E0AE0FBF1FEC91DB01EC93DBCFFF
:10289E00F0E0AE0FBF1FEC91DB01EC930895DF016A
:1028AE00E05CFD4FBF01FD01D3CFEC91DB01EC935A
:1028BE00CACFDF01EF5BFD4FBF01FD01A9E2B2E020
:1028CE00AE0FBF1FF2CFDF01ED5BFD4FBF01FD016C
:1028DE00B5CFCF01EC5BFD4FBF01E02FA2E0EA9F29
:1028EE00F0010895DB01A3CFBF01FC01BCCFCF01E6
:1028FE00EC5BFD4FBF01E02FA3E0EA9FF0010895CE
:10290E00E3E0EA930C9473080E94C4150C948708B4
:10291E00E0E0EA930C947308E0E0EE83EF83E8873F
:10292E00E9870895D8010F5F1F4FEC91FF276627A7
:10293E007727EA83FB836C837D830895EE83FF8381
:10294E0068877987EFCFAE81BF81888599850E9490
:10295E002B150895EE83FF83688779870895AE81DE
:10296E00BF818885998508950E942B15F3CFA7E521
:10297E00B2E0F0E0EE0FFF1F0895EBEFFFEFE093F4
:10298E008D01F0938E010895AE0FBF1F0E94B515F5
:10299E000895E5DF66277727E7CF0E948F15EF7F33
:1029AE00FF7F607070700895E52FF0E0DE011A96DB
:1029BE00EE0FFF1F0895E52FEF5FF0E0DE011A9690
:1029CE00EE0FFF1F0895E0938F01F093900108958D
:1029DE00A0917701B09178010895E0919D01F09159
:1029EE009E010895ADE6B1E0E52FF0E0EE0FFF1F7A
:1029FE00AE0FBF1FED91FD910895ADE6B1E0E52F4D
:102A0E00F0E0EE0FFF1FC0CFADE6B1E0E02FF0E03B
:102A1E00EE0FFF1FB9CFEB81FC813196EB83FC8368
:102A2E003197FA93EA930895E091FC02F091FD023A
:102A3E000895FADFE871F07030970895EA93E09107
:102A4E00FE02F091FF02CCCDEA0FFB1F681F791F2B
:102A5E000895EA2BFB2B682B792B0895EE230E2E6F
:102A6E00EA2F19F0EE0F0A94E9F70895EE230E2ED1
:102A7E00FD0121F0EE0FFF1F0A94E1F70895EE23FA
:102A8E000E2EFD01BC0131F0EE0FFF1F661F771FEA
:102A9E000A94D1F70895EE230E2EFD01BC0131F0FC
:102AAE0076956795F795E7950A94D1F70895F6957B
:102ABE00E795F695E795F695E7950895E62FF72FA6
:102ACE0060E070E008956E2F7F2FE0E0F0E0089553
:102ADE007A9F702D6B9F700DF89F700DE99F700D92
:102AEE006A9F602D710DFB9F600D711DE89F600D3B
:102AFE00711D8827FA9FF02D610D781FEB9FF00D49
:102B0E00611D781FEA9FE02DF10D681F781F089553
:102B1E003F934F935F93002411243327442750E2B1
:102B2E00AA0FBB1F881F991F001C111C331F441FA7
:102B3E000E1A1F0A360B470B28F40E0E1F1E361FD9
:102B4E00471F01C0A1605A9559F7FD01BC01D00184
:102B5E00832F942F5F914F913F910895ED91FC91AA
:102B6E0011970895ED91FD916D917C9113970895B4
:102B7E00ED93FD936D937C9308957A936A93FA93F4
:102B8E00EA9308951A2EAE2FE12D089500240A1609
:102B9E000B0608955A934A933A932A931A930A93DB
:102BAE0008955D814C813B812A81198108810895A8
:00000001FF
