:080000000C944E000C947012E8
:100008000C9400000C9400000C947E000C940000EA
:100018000C9400000C9400000C94DA090C94000A6B
:100028000C9400000C94090B0C9400000C941B0B0E
:100038000C9400000C9483110C9457090C94000044
:100048000C9400000C9400000C9400000600E8EEEC
:10005800F0F2F4F5F6F7F8F9FE006800FE00680023
:10006800140032006400C8002C019001F401BC02A5
:100078008403E803010019025400010048026000EB
:1000880001004902620001005F0264000100600291
:1000980066000000F894EE27ECBBF1E0FBBFEBBF75
:1000A800E5BFF8E1F1BDE1BD8DE0A2E0BB27ED932E
:1000B8008A95E9F780E094E0A0E6ED930197E9F7E7
:1000C800ECE7F0E085919591009761F0A591B591E5
:1000D80005901590BF01F00105900D920197E1F789
:1000E800FB01F0CFEFE5EDBFE4E0EEBFC0E6D1E005
:1000F8000C94CF050E94F6130A93E8B7E064E8BFB2
:10010800E8EBE4BDE091DE01E03011F40C94D70097
:1001180000E0083010F00C94D600E02FA1E00E9417
:100128007416A091DE01EA23D9F10E94FF130E9400
:100138000217309741F00E94FF13ED91FD9131971E
:10014800FE93EE932DC0E02FE33039F4E894C49B7E
:100158006894A8B3A4F9A8BB17C0E43069F4E8947C
:10016800C59B6894A8B3A5F9A8BBE894C79B6894F5
:10017800A8B3A7F9A8BB08C0E53031F4E894C69B3A
:100188006894A8B3A6F9A8BBAEEDB1E0AF931C90F4
:10019800E02FA1E00E947416E095E121AF91EC9365
:1001A8000F5FB7CF03C0E9B7EF7BE9BF09910E94A2
:1001B80008141895AA81A83020F4E881F9813097AD
:1001C80011F423960895F894EA810E941114EA0F15
:1001D800FB1FA881B981A083B183AEEDB1E0AF93D5
:1001E8001C90EA81A1E00E947416E129AF91EC937A
:1001F8007894E9B7E07451F4F894E8EBE4BDE8B713
:10020800E064E8BFE9B7E064E9BF7894239608950D
:10021800F894AEEDB1E0AF931C90E881A1E00E94A4
:100228007416E095E121AF91EC93E8810E941114D6
:10023800AE0FBF1FE0E0F0E0ED93FC9378942196B9
:100248000895E5E0E3BFE2EFE2BFE0E0EFBDE3E001
:10025800EEBDE0E0EDBDECBDE7BDE6BDEBBDEABD42
:10026800E9BDE8BDE2BDE7E0E5BDE0E0E4BDE3BD32
:10027800E9BF0895EFE3EBBBEFEBEABBE2E1E8BBD4
:10028800E3EBE7BBE0ECE5BBE0E0E4BBE2EFE2BBBD
:10029800E1BBE0E0E5BFE4BFE9BFE3E0E8B9E0E0E7
:1002A800E0BF949A979A959A969AE3B3E07CE29580
:1002B800EF70E695E6955E2EE0E0E5BB08950895BB
:1002C8000895E0911502F09116023196E093150217
:1002D800F0931602E881F981A0911502B0911602F7
:1002E800EA17FB0709F49498E881F981EE0FFF1FDC
:1002F800A0911502B0911602AE17BF0730F0949A7C
:10030800E0E0E0931502E0931602229608950A931E
:1003180000E0E0E0EA930E940C01E0E00E9417147C
:100328000E94E90EE03031F00E941E1411F401E041
:1003380001C0F6CFE0E0EA930E940C01003041F4DE
:100348000E942314E093CC01F093CD010E94211167
:10035800E02F58C3E0911702E093AC01AA24BB2414
:10036800CC24DD240E9428140E942D14E091170249
:10037800E03051F40E94010BE03029F4E7E50E94D7
:100388003214E09317020895A0911702A13091F456
:100398000E94010BE03069F4A0918801A13030F08F
:1003A800E0E0EA93E09188010E943B14E2E0E093E8
:1003B80017020895A0911702A23051F40E941E144A
:1003C80031F4E7E50E944014E3E0E0931702089552
:1003D800A0911702A33091F40E94010BE03069F458
:1003E800A0918501A13030F0E0E0EA93E091850129
:1003F8000E943B14E4E0E09317020895A0911702CD
:10040800A43081F50E941E1461F56092AE017092CD
:10041800AF01E0918001E030C1F0E0918001D301AB
:10042800F0E0AE17BF0770F066247724E0E0E093B1
:100438001802EA93E4E6F0E00E944714E5E0E0934E
:1004480017020895F30131963F01E0E0E093A3011C
:10045800E0931702A091A101A03519F4E1E0E0931F
:10046800A4010895A0911702A530F9F40E941E1462
:10047800D9F4E0911802EF5FE0931802E1500E946E
:100488008B01E03021F0A0911802A73068F0E0E07D
:10049800E093A301A091A101A03519F4E1E0E09354
:1004A800A401E0E0E0931702089508950E94301730
:1004B800EE2DE695E6951E2F00E021E0293188F41F
:1004C8000E944B14EF3FA0E0FA0749F00E944B143A
:1004D800DF01EC81FD81AE17BF0708F4022F2F5F03
:1004E800EDCFA02FB0E0AA0FBB1FAF51BE4F0E94A7
:1004F8000217EF3FA0E0FA0709F40F5FE0918101CE
:10050800EC5E3E2FE02FEE0FEE0F3E1710F4E32EB9
:1005180004C0E02FEE0FEE0FEE2E0E94371726963E
:1005280008951A930A93A0911902A63021F5E09034
:1005380081010E942814309741F0E0911102F09156
:100548001202FA93EA930E945A02E09294010091EF
:1005580013021091140200240016010619F0C016A7
:10056800D10628F40E945614EA920E94AC0AE7E0E9
:10057800E09319022CC0A0911902A730B9F40E9487
:10058800040B309719F00E945D1469F4A09184015E
:10059800A13030F0E1E0EA93E09184010E943B143D
:1005A800E5E0E0931902E091190211C0A091190247
:1005B800A53049F40E94631419F4E0E0E0931902AD
:1005C800E091190204C0E0911902E093AD0109918C
:1005D800199108950A93E0911902E093AD010E94E0
:1005E8009502E73009F40EC20E949502E53009F43D
:1005F80009C2E0911902E03051F40E94010BE03089
:1006080029F4E3E50E943214E0931902FBC1A0919A
:100618001902A13091F40E94010BE03069F4A09115
:100628008701A13030F0E1E0EA93E09187010E9470
:100638003B14E2E0E0931902E5C1A0911902A2304F
:1006480051F40E94631431F4E3E50E944014E4E09D
:10065800E0931902D7C1A0911902A43091F40E9425
:10066800010BE03069F4A0918601A13030F0E1E09F
:10067800EA93E09186010E943B14E9E0E0931902B5
:10068800C1C1A0911902A93039F40E94631419F468
:10069800EAE0E0931902B6C1A0911902AA3011F05C
:1006A8000C94DF03E0E0E093A4010E946814E6E004
:1006B800E0931902E89421F8E091A401E03011F0E8
:1006C8000C94DC03E0E0F0E2FA93EA930E946501FF
:1006D800A091A101A03521F4E091A301E03089F0B7
:1006E8000E9428140E942D14A0911902A03021F410
:1006F8000E942814309709F403C0E6E0E093190239
:1007080081C1E3E0E51511F00C94D103A0918F01AC
:10071800B0919001A13FEFEFBE0720F00E94E90ED3
:100728000E942111A0911302B09114020E94251772
:1007380010F421FE01C031C00E946F1470F5AC2C7A
:10074800BD2CC0908F01D0909001EE2DE695E695D6
:100758000E2FAC14BD0430F40E947714F601EA1988
:10076800FB0904C00E947714E0E0F0E0ED93FC93ED
:10077800A0911302B0911402CA16DB0638F40E9445
:100788002814EC19FD090E942D1405C0E0E0E0933F
:100798001102E0931202689421F821FC04C00E941F
:1007A8002814309711F40E9495020E94630184CFA7
:1007B8000E94681427C126C10A93E0E0E093A101D2
:1007C800E093A201E093A001E093A401E093A301C8
:1007D8000E948014E0E0E0939F01E0939201E0E83A
:1007E800E0939301E0E0E09394010E948714A1E66E
:1007F800B1E0EC91EC9388249924E0E0E093DE01E9
:10080800689420F8AA24BB24CC24DD2400E0093114
:1008180040F40E947714EFEFF0E0ED93FC930F5F44
:10082800F6CFF0C0EFEFE0936001E8E0E0937E01DF
:10083800E0E0E0936201E2E1E0937D01E0E1E09332
:100848006101E0E0F0E00E948D14E1EBFDE4E0934B
:100858007701F0937801E8EBFFE4E0936301F0930C
:100868006401E1ECF2E5E0936501F0936601EDEDDA
:10087800F7E5E0936701F0936801E9E0F2E6E093B9
:100888006901F0936A01E5E3FCE6E0936B01F093FC
:100898006C01E2E6F6E7E0936D01F0936E01E1E9A1
:1008A800F0E8E0936F01F0937001E8EEF4E9E0936B
:1008B8007101F0937201E5E4F9EAE0937301F093B2
:1008C8007401E3E7F3EBE0937501F0937601E2E35B
:1008D800E0938101EAE0F0E0E0938201F093830184
:1008E800E1E0E0937F01EAE0E0938401E093850191
:1008F800E0938601E0938701E09388010E949214B7
:100908000E949914EAEAE0938A010E94A2140895C9
:100918000A9300E0A0916201A53020F0E0E0E093A6
:1009280062010FEFA0917B01E0918B01EA1731F48E
:10093800E0917B01A0916001EA1709F405C0E091FC
:100948007B01E09360010FEFA0917B01E0916001D2
:10095800EA1731F4A0918B01E0917B01EA1709F4C1
:1009680005C0E0917B01E0938B010FEFA0918B0113
:10097800E0916001EA1731F4A0917B01E0918B01CD
:10098800EA1709F405C0E0918B01E0937B010FEFB2
:10099800A0917C01E0918C01EA1731F4A0916101EA
:1009A800E0917C01EA1709F405C0E0917C01E0932D
:1009B80061010FEFA0917C01E0916101EA1731F428
:1009C800A0918C01E0917C01EA1709F405C0E0913F
:1009D8007C01E0938C010FEFA0918C01E091610103
:1009E800EA1731F4A0917C01E0918C01EA1709F42F
:1009F80005C0E0918C01E0937C010FEF003011F00D
:100A08000E94A2140991089524970E942F17E3E0E9
:100A1800E51509F042C003E00130A0F10E942B0E59
:100A2800E030A0E0FA07A0E06A07A0E17A0741F504
:100A380033E040E0A32FB42FEBE00E947C16F46073
:100A48003E2F4F2F20FE03C018E020E002C010E028
:100A580020E02A931A934A933A930E943A0EE8E0C8
:100A6800ED83E0E0EE83EF83E887FE013596FA93A5
:100A7800EA93E2E0EA930E94660E0E94470E02C0E3
:100A88000150CACF003021F0E0919201EF7E03C0FF
:100A9800E0919201E061E09392010E943617299655
:100AA8000895A5E9B1E0EC91E070EC93A5E9B1E017
:100AB800EC91E462EC9308950E94311720E00E94C3
:100AC800AB1411F0E22F63C0E0911B02E03001F596
:100AD8000E94040B309759F4E7E00E941714E0E0F5
:100AE800F0E0FA93EA93EA930E94AC0A02C0E22F7C
:100AF8004EC00E94010BE03011F0E22F48C00E9466
:100B0800A90AE0931A02E1E0E0931B02E22F3FC03A
:100B18000E94A90A0E2FE0911A02E01728F4A0916A
:100B28001A02E02FEA1B03C0E0911A02E01B1E2FF5
:100B3800E12FEE0FE0939901173110F01D3108F005
:100B480008C068940E94B014EF7BE093930121E001
:100B58001AC01D3110F0133208F008C0E8940E9442
:100B6800B014E064E093930121E00DC0689420F88C
:100B7800E0919201E160E0939201E0919301EF7BB3
:100B8800E093930120E0E0E0E0931B02E22F0E9453
:100B9800381723960895E894F1F840E0F2F80E9497
:100BA8003E010E9425010E944212E0E8F0E0FA931B
:100BB800EA93E0E6F1E0FA93EA93EDE2EA930E9421
:100BC8002112E0ECF0E0FA93EA93E0EBF1E0FA931B
:100BD800EA93EEE1EA930E9421120E94E0030E9448
:100BE80055050E94B914EDB7FEB7FA93EA930F932F
:100BF8000E9432120F910F3F51F00E94B914EFEF8B
:100C0800EA930E94B811EAE0F0E00E94BE14A091B5
:100C18008A01AA3A19F00E94160402C00E948C04A4
:100C28000E94630BE3E0E51549F4C1D20E94080570
:100C380020FAF0F8E0919301EF7D06C00E94C214FB
:100C48008A98E0919301E062E09393017894A091EF
:100C58006001A03011F0A53218F0E4E2E0936001E1
:100C6800409060010E940910EF3F11F40E942A1081
:100C7800E7E0EA93E1E0F0E00E94471420E030E08A
:100C880010E0A091A001A130C8F0E091A001E29588
:100C9800EF70EA3039F40E94B914E091A001EA93A8
:100CA8000E94B811F894A895E1B5E861E1BDE9E0C2
:100CB800E1BD7894E0E0E093A001FFCFE0E0F4E04C
:100CC800FA93EA930E9465012131E7E23E0718F0A2
:100CD80020E030E002C02F5F3F4FE0919701E070C5
:100CE800E0939701E0919801E070E0939801A5E9FD
:100CF800B1E0BF93AF930E940617DF01CB01F90162
:100D0800662777270E94B2160E946F16AF91BF918F
:100D18000E940C170E946301E2E0E51511F00C94A3
:100D2800D906F1FC0BC0E2EDF0E00E948D14EEE173
:100D3800E0937D010E94B0126894F1F80E941B13A1
:100D4800E09394010E941B13E030D1F0F2FC09C03B
:100D5800E6E0EA93E8EEF3E00E9447146894F2F8BC
:100D68000EC0A091DE01E0E4EA2321F0E0919301B6
:100D7800ED7F03C0E0919301E260E09393010BC023
:100D8800E6E0EA930E940C01E894F2F8E0919301FE
:100D9800ED7FE0939301403041F00E947E134E2F87
:100DA800403019F4E0E0E093A101283CE0E03E0780
:100DB80010F4103009F01BC00E9460051E2FE89443
:100DC800979B6894A2B3A7F9A2BBE3E0E51579F471
:100DD800E0E020FCE1E0AE2FE0E0F0FCE1E0EA1723
:100DE80031F00E94B40E0E94080520FAF0F80E9423
:100DF8006F1420F40E942314309709F416C00E943F
:100E0800C914A130E8E0BE0730F00E94C914A03030
:100E1800E0ECBE0708F004C0E0919201EF7703C050
:100E2800E0919201E068E09392010E948C04409066
:100E38006001E0917901F0917A01E0931302F09357
:100E48001402A0919F01A130F8F0A0919F01AE3249
:100E580018F0EDE2E0939F01E0919F01ADEA0E9456
:100E68001D17EA1BF0E0FA93EA93ADE8B1E0E091D0
:100E78009F010E94CE14E0919F01EA930E94EA111B
:100E8800E0939F010C944506E091A501E77FE0936C
:100E9800A501E0E0E91518F4EEE1E91508F40EC043
:100EA800EEEDE919F0E0FA93EA93AEECB1E0E92D42
:100EB8000E94CE149A920E94EA119E2EA091A60139
:100EC800E0ECEA23E03CC1F4A091A601EFE1EA23BB
:100ED800E09360010E94921440906001E3E0E51500
:100EE80011F4E0E101C0E0E0E09361010E9499148F
:100EF8000E94D4140C944506A091A601E0ECEA23C4
:100F0800E038D9F4E091A601EF73E093A601A0912F
:100F1800A601A03141F0A091A601A03021F0A09136
:100F2800A601A03241F4E091A601E09361010E947C
:100F380099140E94D4140C944506E091A401E03061
:100F480011F00E946814A091A101A13020F0A09195
:100F5800A101A03508F0E6C00E946401E3E0E515B0
:100F6800A1F4A0911902A63019F00E94EE02F9CF5F
:100F78000E948014E091A301E03021F4A0911702AF
:100F8800A03019F00E94AE01F5CFE091A101E13047
:100F980021F4E0E5E093A101C3C0E23049F4E3E0C5
:100FA800E51511F40E940805E0E0E093A101B8C03E
:100FB800E33001F50E94010BE030E1F7E3E5EA9345
:100FC800E4E6EA93E1E0EA930E94C50A0E94010B75
:100FD800E030E1F7E0918701F0E00E94BE14E3E51C
:100FE8000E9440140E94010BE030E1F7E0E0E0933A
:100FF800A10196C0E43071F4E1E0E093A301A0916F
:10100800A301A13019F40E94AE01F9CFE0E0E0930A
:10101800A10186C0E530D9F40E94040B309721F075
:101028000E945D1409F0F8CF0E945614E0918101E6
:10103800EA930E94AC0A0E94040B309721F00E94A8
:101048005D1409F0F8CFE0E0E093A10169C0E73052
:10105800B1F4E3E0E51579F404E1013060F00E94B1
:101068008B01E03031F40E946F1410F4E2E09E2E00
:1010780002C00150F2CFE0E0E093A10151C0E83096
:1010880049F4E2E0E51511F40E94B012E0E0E093C3
:10109800A10146C0E93081F4E2E0E51549F4EEE14A
:1010A800E0937D01E2EDF0E00E948D140E94B01201
:1010B800E0E0E093A10134C0EA30A1F4E2E0E515F4
:1010C80069F40E941B13E03041F40E947E134E2FF6
:1010D800403019F4E0E0E093A10103C0E0E0E093C0
:1010E800A1011EC0ED3071F4E3E0E51539F40E946A
:1010F8002A10E03019F4EDE2E0939F01E0E0E0937C
:10110800A1010EC0EE3061F4E3E0E51531F40E9470
:101118005810E03011F4EEE19E2EE0E0E093A101DA
:101128000C944506E091A101E03029F5E0E0E09358
:10113800A401E3E0E515D1F4A0911902A63029F045
:101148000E9463010E94EE02F7CFE091A301E03014
:1011580021F4A0911702A03029F00E9463010E9497
:10116800AE01F3CF0E94E90E0E942111E0E0E09366
:10117800A4010C944506E3E0E51511F00C9445062E
:10118800E091A301E03041F00E9480140E94AE017A
:101198000E9495020C944506A091A101A03521F466
:1011A8000E94EE020C9445060C944506FFCFBD9AAA
:1011B800BF9ABC9ABE98C49AEEB1EFB1E1E0EEB91D
:1011C800E1E5EDB908950A93C498E981EFB9779BF1
:1011D800FECF0FB1088109C0E981F070EA93F3DF0F
:1011E800E881F981F070EA93EEDF22960895EB81A9
:1011F8000E94DB140E94E2140E94AD160E94DB14C8
:10120800E881F981EF2F0E94DB140E94E2140E940A
:10121800DB1438C0C498E0E0EFB9779BFECFEFB19C
:1012280008952497F7DFFF27662777270E94E7149A
:101238007F936F93FF93EF93EDDFAF91BF918F9102
:101248009F910E94F3147F936F93FF93EF93E2DFD4
:10125800AF91BF918F919F910E94F3147F936F93E9
:10126800FF93EF93D7DFAF91BF918F919F91FF27A6
:10127800662777270E946516E883F9836A837B834C
:101288000E94E214249608950A9304E1013018F0AC
:10129800DC980150FBCF04E1013018F0DC9A0150D2
:1012A800FBCF099108950E94F6131A930A930E949E
:1012B800AB1431F0E0911E02EF5FE0931E02E150A3
:1012C800E091AA01F091AB01309711F40C94C80990
:1012D800AAEAB1E0ED91FD913197FE93EE93A091CA
:1012E8001D02A33011F00C94C709E0916101E030B0
:1012F80071F520FE17C0A0916001AB3039F40E944F
:10130800F9140E949D16EA55F5400AC0A0916001A3
:10131800AF3039F40E94F914EE0FFF1FE050F64089
:101328008F0114C0A0916001AB3029F40E94F91418
:101338000E949D1608C0A0916001AF3039F40E9448
:10134800F914EE0FFF1FE654F5408F0112C020FE7E
:1013580008C0E0911C02A3E0EA9FF001EA55F540BD
:1013680007C0E0911C02A3E0EA9FF001E654F540B3
:101378008F011DBD0CBDE3E0EEBDE9B7E460E9BF38
:10138800E1E0E0931D020DC00E94AB1409F44398FC
:10139800E9B7EB7FE9BFE0E0EEBDE3E0E0931D02D3
:1013A800C19A099119910E9408141895AA93EA9371
:1013B800FA93EFB7EA93A0911D02A13021F4ECB59E
:1013C800FDB5F09708F009C0C198E8EFFFEFFDBD43
:1013D800ECBDE2E0E0931D0209C0C19AE3E0E093AE
:1013E8001D02E0E0EEBDE9B7EB7FE9BFE991EFBF91
:1013F800F991E991A99118950E94FD14E091A9012C
:10140800E03011F40C946C0AE091A901E150E093EA
:10141800A901EF5FE091A801E03049F0E091A8014F
:10142800E150E093A801EF5FE6E5F0E002C00E941A
:101438000B15E491E2BF28DF23FC49C0A091A70166
:10144800A735B1F4A091A901A23390F4E2E0E51523
:1014580011F4989901C003C0E0E0E093A901E3E02A
:10146800E51511F4829901C003C0E0E0E093A901F9
:10147800A091A701A335B1F4A091A901A23390F4DA
:10148800E2E0E51511F4999901C003C0E0E0E093AA
:10149800A901E3E0E51511F4839901C003C0E0E078
:1014A800E093A901E3E0E51529F4829902C0839B42
:1014B80001C001C001C009C0E2E0E51529F4829924
:1014C80002C0839B01C001C002C0689422F83AC0E0
:1014D80022FE13C0A091A701A33529F4E09192013F
:1014E800E77FE0939201A091A701A73529F4E09145
:1014F8009201EB7FE09392011CC024FC08C0689421
:1015080024F8E4E6E093A9010E9411151895A0912A
:10151800A701A33529F4E0919201E860E0939201D4
:10152800A091A701A73529F4E0919201E460E09326
:10153800920123FC02C0D89AD99AE0E0E3BFE9B748
:10154800EE7FE9BF0E9411151895E0911E020895DB
:10155800E881E0931C02A881A93C18F0E8ECE0932C
:101568001C02E0E0E0931E02E981FA81E093AA01FF
:10157800F093AB01E3E0E0931D02EBE1E8B92396B9
:1015880008950A930AE0A0917F01A01720F0E02FA8
:10159800E150E0937F01EA81E093A901E9E1E0935A
:1015A800A801E981E03011F0689401C0E89423F8BB
:1015B800EB81E093A701DD9ADA9ADB9AE091A70123
:1015C800E73519F4D99AD89807C0E33519F4D89AA9
:1015D800D99802C0D89AD99A00E8013010F0015081
:1015E800FCCF0E940B15E491E2BFE5E0E3BFE9B749
:1015F800E160E9BF088124960895E091A901089562
:10160800E091AA01F091AB0108950E94FD141A938C
:101618000A930BB11CB1E02FEC7121F41A93E0E0AE
:10162800EA930CD1099119910E9411151895AA9362
:10163800EA93FA93EFB7EA93E0914402E030B1F00D
:10164800C09AE150E0934402E0914302F0E0EE5D7D
:10165800FD4FE081ECB9A0914302AF5FA093430234
:10166800A03219F4E0E0E093430201C0C098E99188
:10167800EFBFF991E991A9911895E0916201E030E5
:1016880009F418C0E13021F4E0E0E0BDE7E015C05E
:10169800E23021F4E0E0E0BDEBE00FC0E33021F4FC
:1016A800E0E0E0BDE7E109C0E43021F4E0E0E0BDBE
:1016B800EFE203C0E0E0E0BDE3E0E9B90895C098D7
:1016C800E0E0E0934202E0934302E0934402E093B7
:1016D8004502E0934602E0934702F894E0E0EBB954
:1016E800E8EDEAB9E6EAE0BDC8DF0895A091440252
:1016F800A032E0F7C09AF894E0914402E03011F487
:101708005D9917C0E0914202F0E0EE5DFD4FA881BF
:10171800A083A0914202AF5FA0934202A03219F4C5
:10172800E0E0E0934202E0914402EF5FE09344027C
:1017380002C0E881ECB978947FC0A981A150A9833F
:10174800AF5FA13040F0AA81BB81ED91AA83BB8332
:10175800EA93CCDFF2CF95C20A93A981BA81119797
:10176800A983BA8311960E94251730F40AE0013044
:1017780010F00150FCCFF1CF088123960895A8817D
:10178800B9811197A883B98311960E94251730F45F
:10179800E4E6F0E0FA93EA93DFDFF1CF34C10A938D
:1017A80000E0A981A150A983AF5FA13038F0AA81D8
:1017B800BB81ED91AA83BB830E0FF3CFE02FE09599
:1017C800EF5F0E2FE02F08815CC20E941F15EB58B7
:1017D800FD4FFF93EF930E942415E1DFEF930E94E2
:1017E8001F150E942F15DBDFAF91EA0FAF91BF9154
:1017F800EC930E9424150E943E150E941F15A4E632
:10180800B2E0AE0FBF1FAC91A13030F00E941F159F
:101818000E942F150E943E150E941F15EB58FD4F80
:10182800FA93EA93E1E0EA930E943E15E894969BC6
:101838006894A2B3A6F9A2BB219608950E94421506
:10184800E83009F4E0C00E944215E73099F50E949B
:101858001F15E25AFD4FA981A083E881A7E1EA9FFD
:10186800F001E85BFD4FFA93EA93E6E0EA9397DF2D
:10187800EF930E941F15E25BFD4FFA93EA93AA814A
:101888000E944815EA938BDFAF91AE0FEFEFEA2382
:10189800AE2FE981EA1749F40E945115A958BD4FA6
:1018A800E8E0EC93E881EA93B0D0A881B0E00E9428
:1018B8005415A9C00E944215E63009F50E941F156B
:1018C8000E9459150E945E15E0810E9463150E94CE
:1018D8006715AA58BD4FEC91EF5FEC930E945E1517
:1018E80080810E941F150E946A15EC91E81731F457
:1018F8000E945115A958BD4FE7E0EC9384C00E949F
:101908004215E53011F5A981A131D0F40E941F15C7
:10191800E35BFD4F0E946715AA58BD4FE0E0EC93CA
:10192800E981E03031F40E945115A958BD4FE7E034
:1019380005C00E945115A958BD4FE6E0EC9304C0BC
:101948000E9451150E9454155EC00E944215E43051
:1019580059F40E941F15E45BFD4F0E946715A958B2
:10196800BD4FE5E0EC934FC00E944215E33059F4B7
:101978000E941F15E55BFD4F0E946715A958BD4FD2
:10198800E4E0EC9340C00E944215E23059F40E9412
:101998001F15E65BFD4F0E946715A958BD4FE3E090
:1019A800EC9331C00E944215E13019F4A981A836A0
:1019B80009F007C00E945115A958BD4FE2E0EC9309
:1019C80022C00E944215E13019F4A981AE3F09F006
:1019D80007C00E945115A958BD4FE1E0EC9313C010
:1019E8000E944215E03019F4A981AE3F09F007C002
:1019F8000E945115A958BD4FE1E0EC9304C00E9424
:101A080051150E945415229608950A93A0916101D8
:101A1800EFE0EA23E0580E2F0E946F150E9474151C
:101A2800AC914A1629F00E947415AC910A1769F412
:101A3800E0E6F1E0FA93EA93EB81EA9309D0E894BF
:101A4800959B6894A2B3A5F9A2BB08812296089534
:101A58000A930E946F150E947915A63419F4EDE2D5
:101A6800E0939F010E946F150E947915A73541F5F3
:101A780000E0A9810E9448150E1710F50E946F1505
:101A88000E947F15EC91AA81BB810E9463150E9478
:101A980088150E948B150E947F15AC91A13438F0EF
:101AA8000E946F150E947F15AC91A53408F006C0FE
:101AB800E0919B01EF5FE0939B01E1500E5FD9CF6E
:101AC8000E946F150E947915A83519F500E0A981C3
:101AD8000E9448150E17E8F40E946F150E947F15A2
:101AE800EC91AA81BB810E9463150E9488150E940F
:101AF8008B150E947F15EC91AA81BB8111960E94DB
:101B080063150E948815E02FEE5F0E9494150D5F03
:101B1800DECF0E946F150E947915A235B1F50E949B
:101B28006F150E949B150E94A1150E94A515A3E69A
:101B3800B2E0AE0FBF1FE7E5EC930E946F150E945D
:101B4800AF15EC91EE0FDB01EC9300E0A9819CD777
:101B58000E17C0F40E946F150E94B5150E94BE159D
:101B68000E94C0150E94A1150E94B515EF5F0E9442
:101B7800BE150E94C015EC91AA81BB810E949415E4
:101B88000F5FE4CFE981EA9320DEA5D7AED7A3356E
:101B980011F00C940F0E9FD70E949B150E94A1155F
:101BA8000E94A515A3E6B2E0AE0FBF1FE8E5EC93CF
:101BB80092D70E94AF15AC91E3E0EA9FF001DB01F8
:101BC800EC9300E0A98160D70E1710F584D70E9426
:101BD800C3150E94BE150E94C015AFD70E94C31539
:101BE800EF5F0E94BE150E94C015EC91AA81BB81CF
:101BF80097D771D70E94C315EE5F0E94BE150E9449
:101C0800C015EC91AA81BB8111968AD70F5FDACFF4
:101C1800E981EA93DADD088134C0689425F80895EB
:101C28000E94CC15E0E0F0E060E070E20E94D01580
:101C3800E1E0F0E09FD60E94CC15E0E0F0E060E043
:101C480070E0AAD7EBE0EA93BEDAEBDA08950A93DC
:101C580002E1013028F0EFEFEA93B5DA0150F9CF4D
:101C6800EEEFEA93B0DADCDF0991089591D7EA81C3
:101C7800FB81FA93EA93B0DAE881F981FA93EA935F
:101C8800ABDA24960895E0ECEA939DDA08950E9471
:101C980031171B812C81B69B02C0EFEF0FC080D794
:101CA80004E0013050F02F931F931F5F2F4FB2DADB
:101CB800AF91BF91EC930150F4CFE0E00E94381748
:101CC8002596089528971A930A930B851C85E0E0BA
:101CD800EE83EF83E887E98767D7AA81BB818C8188
:101CE8009D81E8E10E9485166BD7EA81FB816C81B2
:101CF8007D810E94B21669D763D7AA81BB818C8186
:101D08009D81E8E00E94851660D7EE83FF8368878F
:101D18007987D801EC91AE81BF8188859985FF27A5
:101D2800662777270E946516EE83FF836887798781
:101D3800E1E0EA9348DAEE81FF81688579852CD75E
:101D4800E2E0EA9340DAEA85A1E00E947416EA9399
:101D58003ADA26D725D724D7198108812D960895F0
:101D6800B69B02C0EFEF0895EFEFEA932CDA59DA49
:101D7800E0E0089524970E943017FE013496FA9304
:101D8800EA9385DFE03019F0EDEFFFEF1AC0EF813D
:101D9800E03041F0E0919201E062E0939201ECEFD3
:101DA800FFEF0FC0E0919201EF7DE09392012C814B
:101DB8003327F22FE0E08F01ED81D80180D68F0123
:101DC800F8010E9437172896089566970E942E17E3
:101DD80025FE09C0E0E0E0938802E0938902E093E1
:101DE8008A02E89425F8C6DF9F01EDEFFFEFE217BE
:101DF800F30711F4E1E005C1ECEFFFEFE217F30799
:101E080031F420938D0130938E01E2E0FAC0E09125
:101E18008802EF5FE0938802E150DED6AE0FBF1F65
:101E28002D933C93A0918802A83018F0E0E0E0934D
:101E38008802A0918902A43038F4E0918902EF5F0A
:101E4800E0938902CFD6DDC0E0918A02E03011F03C
:101E58000C949F0FA0917E01A43010F4E4E008C018
:101E6800A0917E01A13210F0E0E202C0E0917E0173
:101E7800EE83EE0FEE0FEF83BDD64430B0F4A091A1
:101E880088024A1728F4E0918802E150E41B05C053
:101E9800E7E0E41BA0918802EA0F5E2FE52F9CD6AD
:101EA800B0D6B4D6B8D64F5FE8CFB0D6E4E0F0E00D
:101EB80060E070E0B9D68F019DD6443048F5A09116
:101EC80088024A1728F4E0918802E150E41B05C013
:101ED800E7E0E41BA0918802EA0F5E2FE52F7CD68D
:101EE80090D6E017F10740F4E52F76D68AD6DF01C1
:101EF800F801EA1BFB0B05C0E52F6ED682D6E01B66
:101F0800F10BA885B9858A859B8585D64F5FD5CF86
:101F1800EF817CD6FF27662777270E94291710F4C0
:101F280061D66FC0E1E0E0938A0200938D011093BF
:101F38008E01E0E066C0E13011F00C940210A0912F
:101F48008902A83030F4E0918902EF5FE0938902BA
:101F580057C050E0583060F46ED6EA0FFB1F0F01EF
:101F6800E52F3AD64ED6D001ED93FC935F5FF2CFC2
:101F780040E0443030F550E0E7E0E41B5E17F8F449
:101F88005AD6AE0FBF1F0D901C905CD63AD6E015FE
:101F9800F10598F457D6AE0FBF1F2D913C9152D63C
:101FA800EA0FFB1F0F0147D62CD6D001ED93FC9307
:101FB80042D6AE0FBF1F2D933C935F5FDDCF4F5FBF
:101FC800D8CFE0E0E887E987EA87EB8741E0542F3C
:101FD800E8E0E41B5E1730F42ED613D617D61BD6CE
:101FE8005F5FF6CF46E0E42F11D6FF2766277727F5
:101FF8001BD6E0938D01F0938E0102C0689425F8FA
:10200800E0E00E9435176C9608951A930A9310E041
:1020180000E00930B8F41ED60F01DF0122D6EA1716
:10202800FB0760F4F001E853FF4F0F01A3E6B1E0AE
:10203800E02FEF5F1BD6E015F10510F41FEF02C08B
:102048000F5FE7CFE12F09911991089522970E9418
:102058002E1710E022EB31E0E0E0EE83EF8300E0A2
:102068000C3020F407D60CD60F5FFACFEE81FF8133
:102078003097A9F422EB31E043E651E0F89400E010
:102088000B3058F45F934F934E5F5F4FF3D5AF918A
:10209800BF91ED93FC930F5FF3CF789401C01FEFCE
:1020A800E12F0E94351729C122970E942E17ADDF14
:1020B8001E2F103011F523E631E042EB51E0E0E04D
:1020C800EE83EF8300E00B3078F4D9010E94021709
:1020D800D7D55F934F934E5F5F4FCCD5AF91BF91EC
:1020E800ED93FC930F5FEFCFEE81FF81E095F095C4
:1020F8003196E093C801F093C901E12F0E9435178A
:10210800FCC062970E942F171AE0EFEFFFEFED83F4
:10211800FE8300E0011718F59DD5AF89B88DEA1741
:10212800FB0740F497D5AF89B88DAE1BBF0BAF83C3
:10213800B88707C08FD5AF89B88DEA1BFB0BEF8333
:10214800F887ED81FE81AF81B885AE17BF0728F407
:10215800EF81F885ED83FE83202F0F5FDBCF81D5DC
:10216800AF89B88DAE17BF0720F47BD5AF89B88D7E
:1021780005C077D5AF89B88D0E941A17EA1BFB0BEB
:1021880066277727E98BFA8B6B8B7C8BA989BA89B1
:102198008B899C89E6E00E948516E98BFA8B6B8B0C
:1021A8007C8BA3E6B1E0E22F61D5DF015AD5AE1BE7
:1021B800BF0B3A2F4B2FE22FA8E6B0E0F0E0EE0F6E
:1021C800FF1FEA0FFB1F0E941117ED8BFE8BA989D9
:1021D800BA898B899C89662777270E94BC16ED8768
:1021E800FE876F87788BE32FF42FAD85BE858F85AB
:1021F8009889662777270E94DC16E987FA876B8714
:102208007C872FD5AF89B88DAE17BF0770F4E985E5
:10221800FA856B857C850E94B716EF5FFF4F6F4F7D
:102228007F4FE987FA876B877C87E985FA856B8515
:102238007C850E943617699608952897A6D3A13FF2
:10224800EFEFBE0718F0FBD222D557C0DEDEEF3F16
:1022580049F4EAEFFFEF1BD5E0919201E064E093C7
:1022680092014BC0ECD2FA93EA934BDFEC83FD83E7
:102278006E837F83A091CC01B091CD01A03FEFEF99
:10228800BE0740F5E091CC01F091CD01FA93EA93B5
:1022980038DFE883F9836A837B83A881B9818A81DF
:1022A8009B81EC81FD816E817F810E946A16EC839F
:1022B800FD836E837F83AC81BD818E819F81EFE139
:1022C8000E9491160E94211729F0E0E0EC83ED832B
:1022D800EE83EF83AC81BD818E819F81E6E00E9411
:1022E8009116D5D4EC81FD81EF73F070E0939101E4
:1022F800E0919201EF7BE09392012896089572D2C3
:10230800A0911D03A03069F1E199FECFE0911C0373
:10231800A3E0EA9FF001E557FD4FDF010E94021795
:10232800FFBBEEBBA0911C03E3E0EA9FF001ADE820
:10233800B2E0AE0FBF1FEC91EDBBE29AE19AE091DB
:102348001C03EF5FE0931C03A0911C03A03318F05B
:10235800E0E0E0931C03E0911D03E150E0931D03CE
:1023680001C0E39851D21895A0911D03A03319F428
:10237800EFEF23960895F894E0911B03A3E0EA9FFA
:10238800F001E557FD4FA981BA81A083B183A091DF
:102398001B03E3E0EA9FF001E357FD4FA881A08308
:1023A800E0911B03EF5FE0931B03A0911B03A03395
:1023B80018F0E0E0E0931B03E0911D03EF5FE0936A
:1023C8001D03E39A7894E0E0239608950A93A9817F
:1023D800A13078F1EC81FD81FA93EA93EDB7FEB76D
:1023E800FA93EA930F933AD00F91E03011F0E98114
:1023F80021C0AA81BB81EC91E01769F0EC81FD81D5
:10240800FA93EA93AC81BD81EC91EA93ADDFE030B9
:1024180011F0E9810FC0E981E150E983EC81FD8188
:102428003196EC83FD83EA81FB813196EA83FB8355
:10243800CECFE981088126960895A881A150A88366
:10244800AF5FA13040F028D427D408D0E03011F095
:10245800EFEF02C0F2CFE0E025960895E19B02C0BD
:10246800EFEF0AC0EA81FB81FFBBEEBBE09AEDB358
:10247800A881B981EC93E0E024960895E0E0ECBBF4
:10248800E0931B03E0931C03E0931D0308950DD410
:10249800E871F070309719F4C59AC79A1CC0E830F3
:1024A800A0E0FA0739F4E4E0EA930E940C01C59A27
:1024B800C79A11C0E031A0E0FA0739F4E4E0EA93E2
:1024C8000E940C01C598C79806C0E831A0E0FA0739
:1024D80011F4C598C79808958CD2E0919A01EF5FDE
:1024E800E0939A01E150EAB7E064EABFE2E0E5155B
:1024F80029F0EBB7EF7BEBBF90D21895829B0BC00E
:10250800E0912303E07629F0D0D3E076F070B0971D
:1025180009F4BDDF09C0C9D3E076E03621F0C5D3A0
:10252800E076E03409F4B3DFE0912303E27021F4AC
:10253800E0911F03E03059F0829B04C0E0911E0334
:10254800E26003C0E0911E03E160E0931E03E0E057
:10255800E093220362D21895E0917901F0917A0113
:10256800E0932303F0932403E0917D01F0E0E093EE
:102578002503F0932603A0912503B0912603119714
:1025880030F4E1E0F0E0E0932503F09326038DD3E7
:10259800E07819F48A98F2D10895E0912703E030A1
:1025A80099F48A98E5B7EB7FE5BFE5B7E160E5BF49
:1025B800EAB7EF7BEABFEBB7E064EBBFE0E0E0939C
:1025C8001E03E1E0E0932703E7B3E06FE7BB6DD3B9
:1025D800E871F070309721F0E830A0E0FA0721F4B4
:1025E800E8B3E06FE8BB0BC0E031A0E0FA0721F0E8
:1025F800E831A0E0FA0719F4E8B3EF70E8BB55D367
:10260800E070F770EF2FF0E03196E0932103E0E0FF
:10261800E0932203E0912303E17019F0E3E0E093F3
:102628001E03E0E0E0931F03E093200308950A935C
:1026380000E0E0912303E07821F0E0912003E0300E
:1026480009F037C00FEF31D3E076F070309769F4B6
:1026580082990AC0E0911E03E17009F004C0E6E91E
:10266800F0E088D1829B00E024C0E036A0E0FA07C1
:1026780069F4829B0AC0E0911E03E27009F004C06D
:10268800E6E9F0E077D1829900E013C0E032A0E0FB
:10269800FA0731F4E0911E03E27009F000E009C086
:1026A800E034A0E0FA0729F4E0911E03E17009F094
:1026B80000E0E02F09910895F8D2E871F0703097A2
:1026C80019F4C598C79815C0E830A0E0FA0721F4B6
:1026D800C598C798EFD20DC0E031A0E0FA0721F401
:1026E800C59AC79AE7D205C0E831A0E0FA0709F40D
:1026F800C59A08951A930A93A091DE01E4E0EA23AB
:1027080011F0EFEF6CC0E0912803E03049F0D4DF1E
:10271800E0E0E0932803E1E0E0932903EFEF5FC0F6
:10272800E0912903E03091F0A091DE01E0E1EA2395
:1027380011F0EFEF54C0E0E0E0932903E0919C0131
:10274800EF5FE0939C01E150E0E049C0E0E0E093F6
:102758001F03E0912203EF5FE0932203E150A09171
:102768002203E0912103AE1740F4E3E0E0931E0357
:10277800E1E0E0932003E0E032C0E0E0E0931E03F4
:10278800E0932003E0932203E0912403E87FC9F05B
:102798008CD2E070F87F0E94A616EF2FF0E08F0130
:1027A800A4E1A09FF001A19FF00D8F01E2E0EA9360
:1027B8001A930A930E94DE00E1E0E0932803EFEF0A
:1027C8000EC0A091DE01E4E0EA2321F0E2E0EA9302
:1027D8000E940C0171DFE1E0E0932903EFEF09911A
:1027E800199108950A921A92AA93BA93EA93FA93BE
:1027F800EFB7EA930895E02FAEECB1E0F0E0EE0F0A
:10280800FF1FAE0FBF1F0895E991EFBFF991E9913E
:10281800B991A991199009900895AEECB1E0F0E052
:10282800EE0FFF1F0895EA93E2E3F0E0FA93EA93CC
:102838000C94DE00A091DE01E1E0EA230895E09126
:102848008D01F0918E010895E0911302F091140228
:102858000895E0931102F09312020895EA93E4E6D2
:10286800EA93E1E0EA930E94C50AE1E00895F0E006
:10287800FA93EA930C94DE00EA93E2E8EA93E0E044
:10288800EA930C94C50AFA93EA930C94DE00E22FBB
:10289800AFEDB1E0F0E0EE0FFF1FAE0FBF1F0E94DB
:1028A80002170895E0918201F0918301FA93EA9367
:1028B80008950E94040BEF3FAFEFFA070895A09127
:1028C800DE01E2E0EA230895EEEFFFEFE0938F01E7
:1028D800F0939001A2C9A0918D01B0918E01A03F03
:1028E800EFEFBE070895E02FAFEDB1E0F0E0EE0F97
:1028F800FF1FAE0FBF1F0895EEEFFFEFE0938F01AC
:10290800F09390010895E093A501E0E0E093A6011B
:102918000895E0937901F0937A010895E0916001B8
:10292800E0937B01E0938B010895E0916101E093CE
:102938007C01E0916101E0938C010895EDE2E09360
:102948009F01E091A501E860E093A5010895A09199
:10295800DE01E0E8EA23089520F8E0919201EE7F95
:10296800E0939201E09193010895E0E4F0E0FA9396
:10297800EA930895FA93EA930C94C30BE7B3E06FD4
:10298800E7BBE8B3E06FE8BB0895A0918D01B09173
:102998008E010895F0E0AE1BBF0BBA93AA93089579
:1029A800EDE2E0939F01E091A501E860ACCFEF7FF5
:1029B800F07060707070EA930C94E708E881F98110
:1029C8006A817B810895E883F9836A837B83A88180
:1029D800B9818A819B81E8E00E9485160895FF27C6
:1029E800662777270E946516EECFE0911C02F0E07B
:1029F80008950A921A92FA926A937A938A939A930A
:102A0800AA93BA93EA93FA93EFB7EA930895E091F9
:102A18007F01F0E0EA5AFF4F0895E991EFBFF9917D
:102A2800E991B991A9919991899179916991F990CF
:102A3800199009900895A881E7E1EA9FF0010895A7
:102A4800E881A7E1EA9FF001E15AFD4FFA93EA9382
:102A5800E6E0EA930895EB59FD4FFA93EA93AA81C9
:102A6800E7E1EA9FF001A4E6B2E0AE0FBF1FEC91E8
:102A7800EA930895EB81EA930C94A10BE881F0E0C6
:102A8800E958FD4FE0810895E7E1EA9FF001ADE4E0
:102A9800B2E0AE0FBF1FEC910895A881B0E0089591
:102AA800A958BD4FE0E0EC930895AEE4B2E0AE0F54
:102AB800BF1F0895E881F0E0EA58FD4F0895F0E05F
:102AC800EA0FFB1F0895A981A083E7CFADE4B2E028
:102AD800AE0FBF1F0895A981E7E1EA9FF0010895AD
:102AE800ABE4B2E0AE0FBF1F0895ACE4B2E0AE0FA6
:102AF800BF1FAC910895AEE4B2E0AE0FBF1FE02F48
:102B0800F0E0AE0FBF1F0895BF01F001CECFE02F58
:102B1800EF5FF0E0AE0FBF1FEC91DB01EC93DBCF72
:102B2800F0E0AE0FBF1FEC91DB01EC930895DF01DD
:102B3800EF59FD4FBF01FD01D3CFEC91DB01EC93C1
:102B4800CACFDF01EE59FD4FBF01FD01AAE4B2E093
:102B5800AE0FBF1FF2CFDF01EC59FD4FBF01FD01E2
:102B6800B5CFCF01EB59FD4FBF01E02FA2E0EA9F9F
:102B7800F0010895DB01A3CFBF01FC01BCCFCF0159
:102B8800EB59FD4FBF01E02FA3E0EA9FF001089544
:102B9800E3E0EA930C94E7080E9415170C94FB08ED
:102BA800E0E0EA930C94E708D8010F5F1F4FEC911F
:102BB800FF2766277727EA83FB836C837D83089545
:102BC800EE83FF8368877987EFCFAE81BF818885E1
:102BD80099850E9465160895A8E7B2E0F0E0EE0F27
:102BE800FF1F0895EBEFFFEFE0938D01F0938E0147
:102BF800E3E0089540E0E0E0E887E987EA87EB87CB
:102C08000895AE0FBF1F0E9402170895A885B985C1
:102C18008A859B850895662777270E946516E88729
:102C2800F9876A877B8708950E94DC16EF7FFF7F0C
:102C3800607070700895E52FF0E0DE011C96EE0FCD
:102C4800FF1F0895E52FEF5FF0E0DE011C96EE0F01
:102C5800FF1F0895A3E6B1E0E02FF0E0EE0FFF1F9D
:102C6800D0CFE0917701F09178010895F0E0EE0F70
:102C7800FF1FC7CFD9012E5F3F4F0E94021708954B
:102C8800AE81BF81EA0FFB1FEE83FF830895E093B7
:102C98008F01F09390010895EB81FC813196EB83CD
:102CA800FC833197FA93EA930895E0912303F09116
:102CB80024030895E4E0EA93E0912503F0912603C4
:102CC800E2CDEA0FFB1F681F791F0895EA1BFB0B73
:102CD800680B790B0895EA2BFB2B682B792B089549
:102CE800EE230E2EEA2F19F0EE0F0A94E9F7089555
:102CF800EE230E2EFD0121F0EE0FFF1F0A94E1F7DF
:102D08000895EE230E2EFD01BC0131F0EE0FFF1FDA
:102D1800661F771F0A94D1F70895EE230E2EFD0142
:102D2800BC0131F076956795F795E7950A94D1F748
:102D38000895EE0FFF1FEE0FFF1FEE0FFF1FEE0FA0
:102D4800FF1F0895F695E795F695E795F695E795AB
:102D58000895E62FF72F60E070E008956E2F7F2F1B
:102D6800E0E0F0E00895E095F0956095709508959D
:102D78007A9F702D6B9F700DF89F700DE99F700DF5
:102D88006A9F602D710DFB9F600D711DE89F600D9E
:102D9800711D8827FA9FF02D610D781FEB9FF00DAC
:102DA800611D781FEA9FE02DF10D681F781F0895B7
:102DB8003F934F935F93002411243327442750E215
:102DC800AA0FBB1F881F991F001C111C331F441F0B
:102DD8000E1A1F0A360B470B28F40E0E1F1E361F3D
:102DE800471F01C0A1605A9559F7FD01BC01D001E8
:102DF800832F942F5F914F913F910895ED91FC910E
:102E080011970895ED91FD916D917C911397089517
:102E1800ED93FD936D937C9308950590F491E02DC7
:102E280008957A936A93FA93EA9308951B2EBF2F15
:102E3800F12D1A2EAE2FE12D089530976040704085
:102E4800089500240A160B060895EA17FB07680779
:102E5800790708955A934A933A932A931A930A93AF
:102E680008955D814C813B812A81198108810895EB
:00000001FF
