:0C0000000C948B060C9400000C94000083
:10000C000C9400000C9400000C94190C0C94310C02
:10001C000C94490C0C94620C0C9400000C94000091
:10002C000C9400000C9400000C9400000C94BD0681
:10003C000C9400000C9400000C9400000C944B0BDE
:10004C000C9400000C94540B0C9400000C940000C5
:10005C000C9400000C9400000C9400000C94000014
:10006C000C9400000C9400000C9400000C94740B85
:10007C000C9400000C94800B0C9400000C94000069
:10008C0005001E001E000700C50705001E001E000F
:10009C000800D10701000A001E000800C805010075
:1000AC000100010001000100640037001000C805C8
:1000BC00FF00FF0002531403A816042A17077D172C
:1000CC00088119099A1A0A9A180BB41B0D1A1D00EB
:1000DC0049053240D0C0D23F736F0CBE68EAD4BB26
:1000EC002DA519BB9ABAA73B4B64F63AB60006BBD2
:1000FC00E7CFF1B9B7B9EF3988A908C052BA4B406C
:10010C007495E6BF249F373F76E1003F63761EBFB0
:10011C0073695ABD29788F3EA272DB3DDA0796BE11
:10012C0026AD363DD011F33DACF656BD0D000A00A0
:10013C0068F7DB438235EC43ECBC1642C51AEF4042
:10014C00D9EE3A408BDEA93BCBBF76BFF64241BE1F
:10015C00B8CA433E70CE483D7AB93B3E3BC2763E70
:10016C009C20563EB202433E7312123E0ABB9F3D88
:10017C0081664C3C892A04BD71329ABDCA4D67BD5B
:10018C006B0F9C3DB8BBFD3D5737EFBC32B9BABDC8
:10019C008AB6AC3A7C33D53C0A0010000000000053
:1001AC0056B61E3D6A5D3938DB5AFE33FA14AC3252
:1001BC00FEC47730DF3DC72D0310CB2A65B08A27EC
:1001CC00A61C0224CD402820ED64131C890DA71712
:1001DC00C0F7DC129C79810D0000000056B61E3D64
:1001EC0042A30B38FF625D34AC5F16B18D75412DA7
:1001FC0027C80AA949BC51240FED019F000000003B
:10020C00C40CB13B5E48533772B2C7B239A10D2E44
:10021C00564715A9E7E1EB23983F6C9EDC04521876
:10022C00D11CAA3F5A395B3B56B7DB36A493E2B0DC
:10023C00202B6A28D4A01243015184BE29A52B3946
:10024C0028EC0DB384EA29A8000000008754AD3BCC
:10025C00987B6937EC2CCDB22BF91C2E0F3950A999
:10026C005DF16624BC31309FB688981968A95E93FD
:10027C00ADE63C40DC3025BB37DA8537DB4403B2D6
:10028C008378102C3F1CA9A56C3B1843C3A289BED4
:10029C00B3993339A38F14B3625E28A80000000011
:1002AC009F4BD63C09D63737B285C9B3501F4CAEDD
:1002BC00EB1739AC460BCCA83273AFA4B994DC9FC6
:1002CC0000000000E269D43C46C98337C93A3C338C
:1002DC00F0DF8AAF8D05352BA80791A6B932932193
:1002EC00A8F2379CEC0C8116C5931B900000000003
:1002FC00815C4E3D5DA6FF37AAFFB7B30F72112F7D
:10030C00CEFF3FAADA837125FA0614A0472E97195F
:10031C00673A9443C7B1BFBFE951503BE9B955B6F1
:10032C00B710D830EDC6ACAA000000003F4B703DB2
:10033C000AE13C384252F83272BBB5AF0507372B95
:10034C0001555DA5F001B9A1315E221DE8A4DE972F
:10035C00E5EDE3114C3479C04C0FEA3C5804B2B8CB
:10036C003F7E2934481B39AF9A2BFA298B4A4DA46E
:10037C00AFF53A1E93229197000000003F4B703D61
:10038C000AE13C384252F83272BBB5AF0507372B45
:10039C0001555DA5F001B9A1315E221DE8A4DE97DF
:1003AC00E5EDE311000000003F4B703DAA773E38AD
:1003BC00DA5F51B5279FDDB2096C23B0E1FB23ADA9
:1003CC0002A8E7A9AFA667A67641A2A27E089B9ECB
:1003DC0090D93F9AC6388A9573BC2F9000000000C4
:1003EC007596213DA928C637F068B0B4C078ABB17A
:1003FC00397494AE809821ABD90460A754CC40A337
:10040C004CD9BB9E0BDD9D99BE2E90BCD76B1F3D6E
:10041C00A8AE9B376495D5B3260CAF2FBED41DABBD
:10042C0017A021265804BDA0A6E5EA1A3BC26F947A
:10043C000F0009000900050005000A000600050070
:10044C0009000B00090006000B0009000E000B0050
:10045C000B000A00AAAAAA0055555500AAAAAA314F
:10046C0032454455555500007AC401000300030081
:10047C000500C8050100030010000500C8050100B7
:10048C0003001D000500C805010003002A0005003B
:10049C00C8050100280003000A00C8050100280057
:1004AC0010000A00C805010028001D000A00C8053C
:1004BC00010028002A000A00C80501008C00030076
:1004CC000A00C80501008C0010000A00C8050100D4
:1004DC008C001D000A00C80501008C002A000A00CF
:1004EC00C8050500030003000700E10705001E0016
:1004FC001E000800F007010058001C000300C8058E
:10050C0005000A001700060000080500820017000D
:10051C0007000B0805000A002D000800180805004C
:10052C0082002D00070027080000000001000100D8
:10053C000500030003000700360805002800190019
:10054C0008004508050028002D0008005608010089
:10055C00010005000300030006006708010082008B
:10056C0003000200C80501000A001E000A00C805AD
:10057C00010082001E000A00C80501000A002800C4
:10058C000A00C8050100820028000A00C805010005
:10059C000A0032000A00C8050100820032000A007D
:1005AC00C8050100010005000300030008007808DD
:1005BC000100B40003000200C80501000A001E007F
:1005CC000A00C805010082001E000A00C8050100CF
:1005DC000A0028000A00C8050100820028000A0051
:1005EC00C80501000A0032000A00C805010082009B
:1005FC0032000A00C80501000100010005000300DB
:10060C0003000800C8050100B40003000200C8057F
:10061C0001000A001E000A00C805010082001E002D
:10062C000A00C80501000A0028000A00C8050100DC
:10063C00820028000A00C80501000A0032000A00E6
:10064C00C8050100820032000A00C8050100010043
:10065C0001000500030003000800C80501000A00A2
:10066C00140008008B0801005000140008009308C7
:10067C0001000A001E0008009A08010050001E002C
:10068C000800A308010096001E000800AC08010039
:10069C000A0028000800B5080100500028000800D6
:1006AC00BE080100960028000800C70801000A00D7
:1006BC0032000800D0080100010004000300030010
:1006CC000800C80504000A0011000400D908010044
:1006DC004B0016000A00C80504000A001F000300A6
:1006EC00E20801003B0024000A00C8050400820057
:1006FC001F000300E9080100930024000A00C8054C
:10070C0004000A002D000300EC0801001B0032005D
:10071C000A00C805040082002D000300EF08010048
:10072C00930032000A00C80504000A002D000700DF
:10073C00F20801001B0032000A00C8050500030086
:10074C0003000700F50805000A001700070004095C
:10075C000500820017000700110905000A002D0092
:10076C0007001E09050082002D0007002B0901005F
:10077C000100000005000A000A000800C80501007D
:10078C008C0036000800380901008C003600080087
:10079C004609050014001E000900B6070000003FC2
:1007AC00CDCC4C3D0AD7A33B6F12033A17B7513847
:1007BC00ACC5A736BD370635D5FDD4DAC6F4B6AF11
:1007CC002E2E2E00D5FDD4DAB8FCD0C2CAFDBEDD6B
:1007DC002E2E2E0025660D0A002532643B25663B25
:1007EC000025663B0D0A0020202020002A20202016
:1007FC00002A2A2020002A2A2A20002A2A2A2A0013
:10080C002863682532692C2532642C25732900282D
:10081C0063683A2532692C2532642C25732900250E
:10082C002530313B31323B30320D00252530313B08
:10083C0031323B30310D00252530313B31323B30EC
:10084C00300D00252530313B32360D002525303159
:10085C003B32370D00252530313B30360D00252538
:10086C0030313B30300D00252530313B30310D001F
:10087C00C7EBCAE4C8EBB2ACB5E7D7E85230D7E85F
:10088C00D6B500C7EBCAE4C8EB5630D6B500C7EBFB
:10089C00CAE4C8EBC4DAB1EAD7BCD7E8D6B5004392
:1008AC0048253032693A00202D2D2D2D2D2D2D204F
:1008BC002000253866002A6D5600206D5600204F0A
:1008CC00564552202020200020253866002021206B
:1008DC00256300202D2D2D2D2D2D2D206F686D00C5
:1008EC00204E4F20524541442020202000202D2D09
:1008FC002D2D2D2D2D20202020002A6F686D00B26B
:10090C00ACB5E7D7E8B2CECAFDC5E4D6C300C4DAAD
:10091C00B1EAD7BCD0A3D7BCD6D02E2E2E00312E08
:10092C00B5E7C1F7BBBBCFF200322EC4DAB1EAD7C0
:10093C00BCD0A3D7BC00332ECDA8B5C0CCBDCDB791
:10094C00D1A1D4F100342EC9E8D6C3CCBDCDB7B2F9
:10095C00CECAFD00C7EBCAE4C8EBCDE2B1EAD7BC06
:10096C002843483129D7E8D6B5002825692900B590
:10097C00E7C1F7BBBBCFF2CAB1BCE4C9E8D6C30030
:10098C00C8C8B5E7C5BCB2CECAFDC5E4D6C30031F4
:10099C002ED1A1D4F1B8F7CDA8B5C0CCBDCDB70040
:1009AC00322EC9E8D6C3B8F7CCBDCDB7B2CECAFD8E
:1009BC0000D1A1D4F1D2AAC5E4D6C3B5C4CDA8B593
:1009CC00C000256900434825693A2A004348256937
:1009DC003A257300C7EBD1A1D4F1D2AAC5E4D6C392
:1009EC00B5C4CCBDCDB70025692E257300C7EBD19E
:1009FC00A1D4F1CDA8B5C02569CAB9D3C3B5C4CCAF
:100A0C00BDCDB700312E505431303000322E505401
:100A1C00323500332E4B2D5459504500342E4E2D6B
:100A2C005459504500352E452D5459504500362EFD
:100A3C00422D5459504500372E4A2D5459504500DB
:100A4C00382E532D5459504500392E522D5459508F
:100A5C004500CCBDCDB72569C0E0D0CDC9E8D6C323
:100A6C00CEAA3A0050542020323500505420313058
:100A7C0030004B2054595045004E205459504500DD
:100A8C0045205459504500422054595045004A20A5
:100A9C005459504500532054595045005220545934
:100AAC005045003F205459504500312ED0F2C1D052
:100ABC00BAC500322EC0E0D0CD00332E00342E004B
:100ACC00352E00C8C8B5E7C5BCCCBDCDB72569B2BD
:100ADC00CECAFD00B2ACB5E7D7E8CCBDCDB7256921
:100AEC00B2CECAFD0052283021293A253766006162
:100AFC003A25392E334500623A25392E33450063A9
:100B0C003A25392E334500C7EBCAE4C8EBCCBDCD32
:100B1C00B7D0F2C1D0BAC500CAE4C8EB5228302114
:100B2C002900CAE4C8EBCFB5CAFD6100CAE4C8EB22
:100B3C00CFB5CAFD6200CAE4C8EBCFB5CAFD6300ED
:100B4C00C7EBD1A1D4F1B9A4D7F7C4A3CABD003166
:100B5C002EB2ACB5E7D7E8B2E2C1BF00322EB2ACD0
:100B6C00B5E7D7E8C5E4D6C300332EC8C8B5E7C58A
:100B7C00BCB2E2C1BF00342EC8C8B5E7C5BCC5E4E1
:100B8C00D6C30055503A2B2F2D2C444E3A274527CF
:100B9C000055502F444E3A2741272D275A27000045
:100BAC000C00C507C4071000D107D00702000600CF
:100BBC00AA0002000800AC0002000A00AE0001000E
:100BCC000706B00001001006BC0001001106BE00B3
:100BDC000300430760040300460764040A004B0744
:100BEC0068040400560772040F00E1070B0910009B
:100BFC00F0071A090B0000082A090D000B0835092B
:100C0C000F00180842090F00270851090100970727
:100C1C003805010098073A050F0036088C091100B9
:100C2C0045089B0911005608AC09010099075A05A3
:100C3C0001009A075C0511006708BD0902009B07BB
:100C4C00AE0502009D07B00513007808E00902000C
:100C5C009F0702060200A10704060200A30758061C
:100C6C000200A5075A0608008B08100A0700930813
:100C7C00180A09009A081F0A0900A308280A090083
:100C8C00AC08310A0900B5083A0A0900BE08430A43
:100C9C000900C7084C0A0900D008550A0200A7072A
:100CAC00C2060200A907C4060900D908B60A070043
:100CBC00E208BF0A0300E908C60A0300EC08C90AE7
:100CCC000300EF08CC0A0300F208C60A0F00F5086F
:100CDC004C0B0D0004095B0B0D001109680B0D008A
:100CEC001E09750B0D002B09820B0100B2077A0748
:100CFC000100B3077C070200B4077E070E00380919
:100D0C008F0B0E0046099D0B0000F894EE27ECBBF0
:100D1C00F1E0F5BFE5BFE0936C00F8E1F1BDE1BD9A
:100D2C008DE0A2E0BB27ED938A95E9F780E090E196
:100D3C00A0E0B1E0ED930197E9F7ECEAFBE08591D7
:100D4C009591009761F0A591B59105901590BF0113
:100D5C00F00105900D920197E1F7FB01F0CFEFEF59
:100D6C00EDBFE0E1EEBFC0E0D5E00C948909189529
:100D7C000E943B26E0EEF7E0FA93EA930E944026AD
:100D8C000E9445260E943B260E944C2632C00895A4
:100D9C00E0E0E0930706EFE8F2EC65EF7DEB0E94F4
:100DAC005326E4E00E9457260895E1E0E0930706FD
:100DBC00E0E0F0E060E87FEB0E945326E1E00E9467
:100DCC005726E3E00E945726E7E00E945726E6E00C
:100DDC000E9457260895A881B9818A819B810E941F
:100DEC0062322CF40E9460260E94B33002C00E9432
:100DFC006026249608951A9310E010E0183030F510
:100E0C000E9465260F01A0E6B1E00E946A26E081EF
:100E1C00E030E1F00E946526E081E03328F00E948A
:100E2C006526E081EA3358F00E946526E081E134C2
:100E3C0028F00E946526E081EB3508F001C004C063
:100E4C00E0E0E093080602C01F5FD8CFE8E0F6E0D0
:100E5C00188138C01A9310E010E0183030F50E9459
:100E6C0065260F01A8E5B3E00E946A26E081E03018
:100E7C00E1F00E946526E081E03328F00E946526AF
:100E8C00E081EA3358F00E946526E081E13428F0D5
:100E9C000E946526E081EB3508F001C004C0E0E05B
:100EAC00E093080602C01F5FD8CFE8E0F6E0188197
:100EBC0009C0A881B9811197A883B98311960E94A2
:100ECC005E32B8F32296089508951A93EEE0F0E09E
:100EDC000E94782611F40E948026E0910206E030F0
:100EEC00B1F40E949126E33020F00E949126EA3062
:100EFC0008F00BC00E9499260E949E260E94A326F1
:100F0C00E1E0E0930206E0E0ADC10E948026A091F2
:100F1C000206A130E1F50E94B526EA0FFB1FFF93F4
:100F2C00EF930E94A913AF91BF910E943A300E9497
:100F3C003B260E94BB260E94B5260E94C6260E9414
:100F4C00CD260E943B260E944C260E94D226EA0FF8
:100F5C00FB1FFF93EF930E94B5260E94C6260E94AA
:100F6C009126EA930E946811AF91BF910E943A308A
:100F7C000E943B260E94D8260E94DD260E94452610
:100F8C000E943B260E944C26E2E0E0930206A091D0
:100F9C000206A23011F40E94E226E1E063C11A932A
:100FAC00E6E2F0E00E94782621F40E94D2260E940C
:100FBC00EA26E0910206E030F9F40E94F626E33FBF
:100FCC0020F40E94F626E13F08F412C00E949926F4
:100FDC000E94FE260E9404270E940A270E941727BF
:100FEC0011F4E1E001C0E2E0E0930206E0E03AC176
:100FFC000E94D2260E94EA26A0910206A13071F42A
:10100C000E941D270E942327E9E60E942C270E949C
:10101C000A27E2E0E0930206E0E024C1A091020678
:10102C00A23001F50E94172781F40E941D27A09180
:10103C00C405B091C5058091C6059091C7050E9465
:10104C0059310E942327E3E005C00E941D270E940E
:10105C002327E4E0E09302060E9431270E940A272E
:10106C00E0E000C1A0910206A33069F40E941D27A4
:10107C000E9437270E94FE260E940A27E4E0E09394
:10108C000206E0E0EFC0A0910206A43011F00C942F
:10109C0031090E941727E9F50E941D270E9440275D
:1010AC000E9459310E943727E0910306F091040603
:1010BC0060910506709106060E9453260E944927EE
:1010CC0009F010F40C9475080E9440270E945127D7
:1010DC000E943A3220F4A0910706A03009F002C019
:1010EC000E94DB060E94492780F40E944027E7E11A
:1010FC00F7EB61E579E30E943A3209F010F40C94B5
:10110C008B08A0910706A13009F002C00E94CE0600
:10111C002EC00E941D270E9437270E94562709F0D7
:10112C0010F40C94A4080E9440270E945E270E9491
:10113C003A3220F4A0910706A03009F002C00E94B8
:10114C00DB060E94562780F40E944027E7E1F7EB6C
:10115C0061ED78E30E943A3209F010F40C94BA086D
:10116C00A0910706A13009F002C00E94CE060E9491
:10117C0063270E945A3211F40C9424090E94B5265C
:10118C00EA0FFB1FFF93EF930E946C270E944027EE
:10119C000E9471270E9463270E94F5317F936F9301
:1011AC00FF93EF930E947627AF91BF918F919F9100
:1011BC000E947B27AF91BF910E943A300E94B526C6
:1011CC000E94DD26DF01CB010E946632B4F50E943D
:1011DC003B260E94BB260E9480270E9449300E9419
:1011EC00CD260E943B260E944C260E94D226EA0F56
:1011FC00FB1FFF93EF930E94B5260E94C6261A93FD
:10120C0041D5AF91BF910E943A300E94B5260E9401
:10121C00DD26E093C005F093C1056093C205709381
:10122C00C3050E943B260E94D8260E94DD260E9400
:10123C0045260E943B260E944C260AC00E94D226BC
:10124C00AE0FBF1FE0E0FCE36CE176EC0E943A309D
:10125C00E5E0E0930206A0910206A53011F40E948D
:10126C00E226E1E01991089526970E948927E3EF81
:10127C00F7E00E948D27E0910206E03031F40E94E5
:10128C008927E8EFF7E00E948D27A0910206A13094
:10129C0031F40E948927EDEFF7E00E948D27A09191
:1012AC000206A23031F40E948927E2E0F8E00E94A5
:1012BC008D27A0910206A33031F40E948927E7E024
:1012CC00F8E00E948D270E94942761F40E94172752
:1012DC0001F4E8ECF5E0FA93EA93ECE0F8E00E9414
:1012EC009A2706C00E943B26EBE1F8E00E949A2761
:1012FC00E2EBF0E00E94BA2726960895E881E0938D
:10130C0010062196089524970E946A07EED362D2A4
:10131C000BD4F6D20E94CD060E94F811E0E0E1BD9C
:10132C0078944424E0EDF7E00E94C0270E949612C6
:10133C00ECE8F0E00E94C427E1E00E945726E3E0CD
:10134C000E945726E7E00E945726E6E00E945726A7
:10135C00E0E4FDE00E94C0270E943A140E94C827D6
:10136C000E94FE260E940427EDE04E2EEDE25E2E3A
:10137C00E1E0F0E03F010E94D127442051F04A9275
:10138C0063D1EFEFEA93E091B407F091B5070995BB
:10139C004424EDE2E51511F40C948E0AE1E6E51512
:1013AC0051F0E2E6E51539F0E3E6E51521F0E4E667
:1013BC00E51509F0A4C00E94D52731F40E949E12B5
:1013CC00E6E9F0E00E94C427E1E6E51521F50E946C
:1013DC00942749F40E94DE270E9404270E94FE26CF
:1013EC000E94CE0608C00E94C8270E9431270E9486
:1013FC00FE260E94DB06E0E0E093FA05E093FB0595
:10140C00E093FC05E093FD050E94EB27E0E0E09300
:10141C0002060E94FE26E2E6E515E1F40E949427FE
:10142C00C9F40E94172749F4AFE3B0E0E0E00E9452
:10143C008330E2E6EA93E1E008C0AFE3B0E0E1E03C
:10144C000E948330E2E6EA93E0E0EA930E94AA125B
:10145C000E94FE26E3E6E51569F5EA93E1E0EA93DE
:10146C000E94AA120E94F52711F50E94FB270E2F4D
:10147C001127EFEFF0E0E017F107C9F00E94042804
:10148C00E33020F00E940428EA3008F010C00E94DB
:10149C000428E93039F4E0E2F2E0E00FF11FDF015B
:1014AC00E3E003C00E940428EF5F0E948330E3E670
:1014BC000E942C27E4E6E515D1F4EA93E1E0EA93E7
:1014CC000E94AA120E94942739F40E948027A0E05F
:1014DC00B0E00E94703008C0E8E0EA930E944C1320
:1014EC00E0EAF6E80E94C027E4E60E942C270E945E
:1014FC00D52721F4EFEFEA930E94531406C05A92B9
:10150C00E091B407F091B5070995EDE25E2E9AC013
:10151C000E94D52709F031CFA091FA05B091FB05B7
:10152C008091FC059091FD05A230E0E0BE07E0E063
:10153C008E07E0E09E07F0F1E091FE05F091FF05CB
:10154C0060910006709101060E940C28E093FE0544
:10155C00F093FF0560930006709301060E9411281A
:10156C00A639E6E8BE07E1E08E07E0E09E0711F43D
:10157C000E943A090E941128A03AE6E8BE07E1E071
:10158C008E07E0E09E0711F40E94EB27E091FA052C
:10159C00F091FB056091FC057091FD053197604061
:1015AC007040E093FA05F093FB056093FC05709393
:1015BC00FD05E3CE0E943A090E94F52731F40E9402
:1015CC006B07E03009F4D9CE05C00E94D507E03096
:1015DC0009F4D3CEF60131966F01E8E1F0E0CE16B6
:1015EC00DF061CF0CC24DD242DC00E94F52719F455
:1015FC00EEE0F0E002C0E6E2F0E0EC0DFD1DDF01F4
:10160C000E9464300E2F1127EFEFF0E0E017F10786
:10161C0009F30E94F52759F40E940428E33020F0C6
:10162C000E940428EA3008F001C00CC00AC00E94D5
:10163C001A28E33F20F40E941A28E13F08F401C065
:10164C0001C0C8CF9ACEFFCF1A9310E01930D0F456
:10165C00E3E0E19FF001E054FF4FE491AE2FE9810C
:10166C00EA1771F4A12FBB2761EC70E0E3E0F0E026
:10167C000E942228E093B407F093B507188103C0A9
:10168C001F5FE4CF1881229608950E9429281BB170
:10169C000CB10A93AAD60E9439281895EA93FA93AA
:1016AC00EFB7EA93E0919406E03099F0E150E093C3
:1016BC009406E0919306EF5FE09393060E9449280D
:1016CC00EE5EF94FE081ECB9E0919306EF77E09391
:1016DC009306E991EFBFF991E99118950E94292899
:1016EC0010919B0000919C000A930E94ED130E94A4
:1016FC0039281895EA93FA93EFB7EA93E091170714
:10170C00E030A1F0E150E0931707E0911607EF5F8E
:10171C00E09316070E944928EB56F94FE081E093BD
:10172C009C00E0911607EF77E0931607E991EFBF65
:10173C00F991E9911895A0919406A038E1F3F894E9
:10174C00E0919406E03011F45D9916C0E091920698
:10175C00EF5FE09392060E944928EE5EF94FA88154
:10176C00A083E0919206EF77E0939206E0919406C5
:10177C00EF5FE093940602C0E881ECB9789421966F
:10178C000895A0911707A038E1F3F894E09117079A
:10179C00E03021F4E0919B00E072B1F4E091150788
:1017AC00EF5FE09315070E944928EB56F94FA8818B
:1017BC00A083E0911507EF77E0931507E0911707E9
:1017CC00EF5FE093170703C0E881E0939C007894E7
:1017DC0021960895E0E0EBB9E8EDEAB9E6E0E09394
:1017EC009500E0E0E0939000EFE0E9B9E0E0E093F1
:1017FC009B00E8EDE0939A00E6E0E0939D00E0E0CA
:10180C00E0939800EFE0E0939900E0E0E09392061B
:10181C00E0939306E0939406E0931507E093160784
:10182C00E093170708950E944C28E0910072EF7026
:10183C00EC3019F4109100E009C0E43039F4109147
:10184C0000701A9322D70E945B281895109100758E
:10185C000E945B2818950E944C28E09100B2EF7012
:10186C00EC3019F4109100E009C0E43039F4109117
:10187C0000B01A9309D70E945B281895109100B5F7
:10188C000E945B2818950E944C28E09100D2EF70C2
:10189C00EC3019F4109100E00AC0E43041F41091DE
:1018AC0000D01A930E9484090E945B28189510910D
:1018BC0000D50E945B2818950E944C28E09100E20C
:1018CC00EF70EC3019F4109100E00AC0E43041F4F0
:1018DC00109100E01A930E9484090E945B281895CD
:1018EC00109100E50E945B281895C09AE4EFF1E096
:1018FC000E94C027C098E4EFF1E00E94C027089531
:10190C000E947B0CE0E8E0930073E0E3E09300704E
:10191C00E0E0E0930071EBE1E0930073E7E0E0932B
:10192C000072E8E0E0930074E1E0E0930071E0E81D
:10193C00E09300B3E0E3E09300B0E0E0E09300B1AB
:10194C00EBE1E09300B3E7E0E09300B2E8E0E09372
:10195C0000B4E1E0E09300B1E0E8E09300D3E0E311
:10196C00E09300D0E0E0E09300D1EBE1E09300D312
:10197C00E7E0E09300D2E8E0E09300D4E1E0E0930C
:10198C0000D1E0E8E09300E3E0E3E09300E0E0E086
:10199C00E09300E1EBE1E09300E3E7E0E09300E2A9
:1019AC00E8E0E09300E4E1E0E09300E108951A93AD
:1019BC000A93EB81EF701E2FEA81E030E1F41030D6
:1019CC00C9F0E0910075E072E1F300E0103110F421
:1019DC00E12F01C0E0E10E1730F40E946A28E09379
:1019EC0000700F5FF3CF103110F4E12F01C0E0E174
:1019FC001E1BE5CF76C0E130E1F41030C9F0E09168
:101A0C0000B5E072E1F300E0103110F4E12F01C0F9
:101A1C00E0E10E1730F40E946A28E09300B00F5FEB
:101A2C00F3CF103110F4E12F01C0E0E11E1BE5CF24
:101A3C0058C0E230E1F41030C9F0E09100D5E0720A
:101A4C00E1F300E0103110F4E12F01C0E0E10E17DA
:101A5C0030F40E946A28E09300D00F5FF3CF10316E
:101A6C0010F4E12F01C0E0E11E1BE5CF3AC0E330DA
:101A7C00E1F41030C9F0E09100E5E072E1F300E030
:101A8C00103110F4E12F01C0E0E10E1730F40E9488
:101A9C006A28E09300E00F5FF3CF103110F4E12FD0
:101AAC0001C0E0E11E1BE5CF1CC0E43059F4A12FAE
:101ABC001150A13030F00E946A28EA930E94A10BC9
:101ACC00F6CF0FC0E53059F4A12F1150A13030F0F2
:101ADC000E946A28EA930E94C70BF6CF02C0E0EF7F
:101AEC00E5BB1981088126960895E0E0EBBBEABBC3
:101AFC00E1E0E8BBE1EFE7BBE0EFE5BBEFEFE4BB18
:101B0C00E0E0E2BBE0EFE1BBE0E0E3B9E4E0E2B946
:101B1C00E0E0E0936200E0936100EFEFE09365009A
:101B2C00EFE1E09364000895E0ECE5BFEEE4E093B0
:101B3C006D00E0E8E0936C0008956C971A930A939B
:101B4C00EEEAFEE060E87BE3EA8FFB8F6C8F7D8F23
:101B5C00EFE7F5E06BE175EBEE8BFF8B688F798F20
:101B6C00EDE1FDE263E97CEAEA8BFB8B6C8B7D8B10
:101B7C00E0E0F0E068E473EC0E947028E0E0F0E84C
:101B8C0064E574E40E94752800E010E00E947A2855
:101B9C000E947F280E94842809F010F40C94D90D1F
:101BAC000E948F280CF05CC00E949628EA8DFB8D59
:101BBC006C8D7D8D0E94A4280E94A9280E94A428C7
:101BCC000E9459317F936F93FF93EF93EE89FF89B6
:101BDC00688D798D0E94A4280E94A9280E94B228A1
:101BEC000E94A731AF91BF918F919F910E94B7280E
:101BFC000E94B2280E94623214F5EA89FB896C8932
:101C0C007D890E94A4280E94A7317F936F93FF9334
:101C1C00EF930E94B228E0E0F0E068EC72E40E94DE
:101C2C007B27AF91BF918F919F910E94A9280E9411
:101C3C00B2280E94A9280E94BE280E94B7280E94A0
:101C4C00C328AAA1BBA18CA19DA10E943A3228F461
:101C5C000E94C8280E94752802C00E94CD2896CFE9
:101C6C000E94CF287F936F93FF93EF930E94D72806
:101C7C00AF91BF918F919F910E94E22819810881A9
:101C8C00A69608956C971A930A93EE8DA8E3B2E08A
:101C9C000E94FC28EA8FFB8F6C8F7D8FA8E9B2E045
:101CAC00EE8D0E94FC28EE8BFF8B688F798FA8EF4E
:101CBC00B2E0EE8D0E94FC28EA8BFB8B6C8B7D8B4B
:101CCC000E940429E13F59F40E940D29EE89FF89F5
:101CDC00688D798D0E9449300E94A30DDBC00E9453
:101CEC000429E23F79F4AF8DB8A189A19AA1E0E073
:101CFC00F0E068EC71E40E94F531EF8FF8A369A372
:101D0C007AA305C0EFEFFFE36CE176ECC3C00E9451
:101D1C000D292BD10E9414290E947028EE85FF8575
:101D2C0068897989A0E0B0E080E090E40E945931A4
:101D3C000E94752800E010E00E94182909F010F4A8
:101D4C000C94AB0E0E948F280CF096C00E94962823
:101D5C000E941B29A3D00E941F290E94B228EDE1EA
:101D6C00F8E56DE373EC0E943A3268F00E94B228F9
:101D7C00EAE0F7ED63E27CE30E943A3219F010F0EE
:101D8C000C94C90E01C01FC00E9424290E9427294F
:101D9C007F936F93FF93EF930E9424290E94312924
:101DAC007F936F93FF93EF930E9438290E94132522
:101DBC00AF91BF918F919F910E94A731AF91BF912D
:101DCC008F919F9146C00E9424290E9427297F93BE
:101DDC006F93FF93EF930E9424290E9431297F93E4
:101DEC006F93FF93EF930E942429AF91BF918F9132
:101DFC009F910E94A731AF91BF918F919F910E94AB
:101E0C0059317F936F93FF93EF930E942429AA89F2
:101E1C00BB898C899D890E94A7317F936F93FF9317
:101E2C00EF930E942429AF91BF918F919F910E94B3
:101E3C00A7317F936F93FF93EF930E942429AF9167
:101E4C00BF918F919F910E94A731AF91BF918F91BC
:101E5C009F910E9459310E941F290E94C328AF8D67
:101E6C00B8A189A19AA10E943A3218F40E943C2987
:101E7C0002C00E94CD2860CF0E94CF287F936F9321
:101E8C00FF93EF930E94D728AF91BF918F919F91B1
:101E9C000E94E22819810881A39608950E943E2988
:101EAC00ECF5E4E0F1E00E9443300E941F290E940F
:101EBC007F28A3E3B3E988E893E40E944829EBE781
:101ECC00F4E968E873E40E94F5310E944D29A0E022
:101EDC00B0E080EC9FE30E944829E0E0F0E060EC89
:101EEC007FE30E94F5310E94502901E010E0E8E305
:101EFC00F1E0E4910E94552954F4F801A4E0B1E01A
:101F0C000E945A290E9468290F5F1F4FF0CF0E9430
:101F1C0038290E9484250E941F2924C0ECEDF0E092
:101F2C000E9443300E941F290E947029E0E0F0E8D3
:101F3C0060EF73E40E94F5310E9414290E9450292D
:101F4C0001E010E0EAE3F1E0E4910E94552954F439
:101F5C00F801ACEDB0E00E945A290E9468290F5F8D
:101F6C001F4FF0CF0E94C32866C00E943E291CF16F
:101F7C000E947029E3ECF5EF68E270E40E947B2785
:101F8C00DF01CB01E5E8FBEE61ED7FE30E947529F3
:101F9C00ECE3F1E00E947A29E4EAF1E0E4910E949A
:101FAC00552944F4F801ACE3B1E00E9483290F5F9A
:101FBC001F4FF2CF3EC00E947F280E944930EBEAAF
:101FCC00FAEA6AE27EE30E9449300E940226DF01AF
:101FDC00CB01E6E6F6E666E27FE30E947B27DF01B3
:101FEC00CB01E3E3F3E363EB7EE30E947529E4E6C4
:101FFC00F1E00E947A29E6EAF1E0E4910E94552989
:10200C0044F4F801A4E6B1E00E9483290F5F1F4F4E
:10201C00F2CF0E94C828A3E3B3E988E893E40E94B6
:10202C007127E3E3F3E968E873E40E947B270E94DD
:10203C0098290E94C828198108812E9608952897FE
:10204C000E94733220E030E0EC85E435B1F40E945C
:10205C009D291CF4E8EAF1E002C0E4EEF1E00E94F4
:10206C00A4292CF4ECE3F4E00E943F3004C0EEE32E
:10207C00F4E00E943F309F01CFC0EB34B1F40E94DA
:10208C009D291CF4E8EEF3E002C0E4E1F4E00E94C8
:10209C00A4292CF4ECE5F4E00E943F3004C0EEE5FA
:1020AC00F4E00E943F309F01B7C0EE34B1F40E94BF
:1020BC009D291CF4E8EAF2E002C0ECECF2E00E948C
:1020CC00A4292CF4ECE4F4E00E943F3004C0EEE4CC
:1020DC00F4E00E943F309F019FC0E534B1F40E94B0
:1020EC009D291CF4E0EBF3E002C0E4E8F3E00E946D
:1020FC00A4292CF4E8E5F4E00E943F3004C0EAE5A2
:10210C00F4E00E943F309F0187C0E234C1F40E948A
:10211C00A92918F4E4E3F3E002C0E0E6F3E00E943E
:10212C00B4290E94A92928F4E4E5F4E00E943F3088
:10213C0004C0E6E5F4E00E943F309F016DC0EA3434
:10214C00C1F40E94B92918F4E8EFF2E002C0ECE106
:10215C00F3E00E94B4290E94B92928F4E0E5F4E0E8
:10216C000E943F3004C0E2E5F4E00E943F309F0142
:10217C0053C0E33531F50E94C4290E94C92918F4D3
:10218C00E8E0F2E008C00E94D02918F4ECE2F2E09A
:10219C0002C0E0E4F2E00E94D82928F4E0E4F4E084
:1021AC000E943F300CC00E94D02928F4E2E4F4E0F5
:1021BC000E943F3004C0E4E4F4E00E943F309F01F1
:1021CC002BC0E23531F50E94C4290E94C92918F4AC
:1021DC00E4E5F2E008C00E94D02918F4ECE7F2E044
:1021EC0002C0E4E9F2E00E94D82928F4E6E4F4E025
:1021FC000E943F300CC00E94D02928F4E8E4F4E09F
:10220C000E943F3004C0EAE4F4E00E943F309F019A
:10221C0003C00E94DB2952C0022E032A19F40E942B
:10222C00DB294CC0E0911807F09119070E9443304C
:10223C000E94E029AC85AB34D1F40E94E529A6E0DC
:10224C00BFE288EF98EB0E94A7317F936F93FF93C7
:10225C00EF930E94E529AF91BF918F919F910E94BE
:10226C00EB29ACE4B3EE82EF9DE30E94F029ED85FF
:10227C00FE856F8578890E94F92901E010E002172C
:10228C001307D4F4F801A0911807B09119070E9414
:10229C00FE290E9443300E94C4290E94F0290E940A
:1022AC0040260E94C4290E94A731ED87FE876F87C4
:1022BC00788B0F5F1F4FE3CF0E94032A0E947A3264
:1022CC006196089560971A930A9300E010E0EA89EA
:1022DC00E43549F40E94082AE0E0F0E068EC73E48D
:1022EC000E9475284DC0EB3449F40E94082AE0E0A6
:1022FC00F0E86BEA74E40E94752842C0EE3449F4AD
:10230C000E94082AE0E0F0E862EA74E40E94752872
:10231C0037C0E53449F40E94082AE0E0F0E06AE7AF
:10232C0074E40E9475282CC0E23461F4E0E0EE877E
:10233C00EF87E88BE98BE0E0F0E060EA74E40E9460
:10234C0075281EC0EA3469F4E0E0F0E062E573EC55
:10235C000E947028E0E0F0E066E974E40E947528C1
:10236C000FC0E33519F40E940D2A0AC0E23519F4A6
:10237C000E940D2A05C0E0E0F0E46CE176EC2EC082
:10238C000E94182919F010F00C94CF110E948F287C
:10239C00BCF40E9496280E941B29EE89EA930E94A5
:1023AC0025100E94172AAB89BC898D899E890E94B1
:1023BC003A3218F40E943C2902C00E94CD28E0CF8A
:1023CC000E94CF287F936F93FF93EF930E94D7289F
:1023DC00AF91BF918F919F910E94E2281981088142
:1023EC0067960895EDE25E2E0895A881A03F31F026
:1023FC00A13F21F0A23F11F0A33F21F4E881E0932B
:10240C001A0730C2EDE2E51509F458802BC21A9375
:10241C000A93EA81E07FE295EF701E2FEA81EF705C
:10242C000E2F1A3018F4E12FE05D03C0E12FEF5BA3
:10243C00EA50E09349070A3018F4E02FE05D03C03E
:10244C00E02FEF5BEA50E0934A0724C01A930A93FB
:10245C0010E000E0E3E4F7E00E94192A10E0EA81C2
:10246C001E1748F40E94212A0E94272A0E94212A22
:10247C000E0F1F5FF4CFA12FB0E0A55EB84FEFEFAA
:10248C00E01BEC930E94212A0E94272AE6E4F7E045
:10249C000E94192A19810881239608952497A091E6
:1024AC001A07A03F91F0A23FD1F3A13F69F4EBE4EE
:1024BC00F7E0FA93EA93EAE0EA93E4E0EA930E9405
:1024CC00DD0CE2EFE0931A07EACF0E94342AE3EF27
:1024DC00E0931A07A0911A07A03F01F1A13F11F454
:1024EC000E94342AA881B9818A819B81A63FEFEF93
:1024FC00BE07E9E08E07E0E09E0768F4E1E0F0E05B
:10250C000E94C0270E9460260E940C28E883F98351
:10251C006A837B8302C00E94342ADCCF25960895FF
:10252C00E0EFE0931A070E943E2A0E943E2A08958B
:10253C00E4E0E0931B07E1E0EA930E945412089553
:10254C00E6E00E94452A54C0E2E0E0931B07E881D4
:10255C00E03019F4E981EC5FE983E981E0931C0731
:10256C00E2E0EA930E94541222960895E5E00E945C
:10257C00452A3EC0E7E00E94452A3AC01A9310E073
:10258C00ED81E0931B07EC81E0931C07EB81E0935A
:10259C001D0711E0A981BA81EC91E03061F00E9435
:1025AC00572A0F01A981BA81ED91A983BA83D00171
:1025BC00EC931F5FEFCF0E94572AA0E0A083EEE1BF
:1025CC00F7E010831C5F1A930E9454121881269610
:1025DC000895E8E00E945C2A0BC0E9E00E945C2AA6
:1025EC0007C0E0E10E945C2A03C0E1E10E945C2A82
:1025FC00249608950E94942711F4E3E201C0E1E2CD
:10260C00E0938207E3E8F7E0ADE0A083E4E8F7E0CD
:10261C000E94672AE3E00E946E2A0895A881AA30DE
:10262C00A0F4E881E05DE0938207E3E8F7E0A1E441
:10263C00A083E4E8F7E0ADE0A083E5E8F7E00E94D2
:10264C00672AE4E00E946E2A0DC1A881EAE00E948C
:10265C00A22FE05DE0938207A881EAE00E94F92FA7
:10266C00E883E05DE0938307E4E8F7E0A1E4A0836E
:10267C00E5E8F7E0ADE0A083E6E8F7E00E94672A22
:10268C00E5E00E946E2AEEC0EDC0ECC0A881A2303D
:10269C0031F40E94732AEBE2F8E00E948D27A881A6
:1026AC00A33031F40E94732AE7E3F8E00E948D27EF
:1026BC00A881A43031F40E94732AE3E4F8E00E946C
:1026CC008D27A881A53031F40E94732AEFE4F8E03D
:1026DC000E948D27A881A63031F40E94732AE8E568
:1026EC00F8E00E948D27A881A73031F40E94732A4C
:1026FC00E8E5F8E00E948D27A881A83031F40E940B
:10270C00732AE1E6F8E00E948D27A881A13031F40C
:10271C000E94782AEAE6F8E00E948D27A881A93069
:10272C0031F40E94782AE3E7F8E00E948D270E949A
:10273C00732A0E94732A0E94FE2EEA93E5E0EA9324
:10274C000E94DD0C8FC00E94882AA0915607B09180
:10275C00570780915807909159070E94962A0E941A
:10276C003A3288F4EEE6F7E0FA93EA930E942124D9
:10277C000E949B2AE0915607F091570760915807E9
:10278C00709159070895E0919307F0919407609127
:10279C009507709196070E940C28E0939307F0938D
:1027AC00940760939507709396073197604070403B
:1027BC00E73FAFEFFA07A9E06A07A0E07A0710F04D
:1027CC000E94882AE1E0F0E00E94C027BECFA091D1
:1027DC005507A33110F00E94A42AA881A03310F051
:1027EC00AA3358F0A881AE3241F0AD3231F0AB32A1
:1027FC0021F0A53611F0A53481F4E0915507EF5F77
:10280C00E09355070E944928E65AF84FA881A08307
:10281C000E94962A0E949B2A25C0A0915507A4309D
:10282C0018F40E94A42A1EC00E94A92AA0E0A0832A
:10283C00A0915507B0E0A259B84F0E94A92AE08197
:10284C00EC93A0915507A150A0935507AF5FA13011
:10285C0078F7E0E0E0935507E0E0F0E06AEF74EC25
:10286C000E949B2A21960895E1E6EA93AEE3B0E03C
:10287C000E946430EA930E94AA12E2E6EA93AFE364
:10288C00B0E00E946430EA930E94AA12E3E60E9430
:10289C002C27E4E60E942C27089522970E9471327F
:1028AC0004E010E050E0A885A43541F40E94F5271F
:1028BC0011F4E4E001C0E3E04E2EE6C1E1E3E515DE
:1028CC00C1F4EAE0E093C3070E94942769F40E94E4
:1028DC003B26ECE7F8E00E948D270E9476270E94A9
:1028EC00AF2AA0E0B0E001C0CFC10E947030EFEF82
:1028FC00E887E2E3E515B9F40E949427A1F40E945D
:10290C00B32AEAE9F8E00E948D27E8E0F0E0FF93B3
:10291C00EF930E946C270E94AF2AAF91BF910E9447
:10292C007030EFEFE887A885A53561F4E1E0F0E0C1
:10293C00AE1ABF0A0A2C0B2819F4E8E1F0E05F018B
:10294C00EFEFE887A885A43439F40E94B72A14F471
:10295C000E94D127EFEFE887A885AF3F81F551E0C2
:10296C000E949E120E94BF2A343028F5E22FD50116
:10297C000E94CA2A79F40E943B260E94CE2A0E9409
:10298C00BA27EAE0E39FF001EA58FB4FFA93EA9387
:10299C00E2E007C00E943B260E94CE2AFA93EA93FB
:1029AC00E1E0EA930E94B31F0E94B72A14F40E943C
:1029BC00D1273F5FD9CFA22EBB24EEEFE887A885A5
:1029CC00AE3F11F00C944A160E94BF2A343010F01E
:1029DC000C9448160E94F52711F00C9495150E9442
:1029EC00FB27A0E2B2E00E94E12A0E94FB27EF3F06
:1029FC0029F0AE81BF81AC91A035E1F40E943B2659
:102A0C000E94EC2A0E94EF2A11F0513041F40E94EE
:102A1C00F42A0E94BA270E94FA2AE1E007C00E9419
:102A2C00F42A0E94022B0E94FA2AE5E0EA930E9403
:102A3C00B31F74C00E943B260E94082B0E94132BCC
:102A4C000E94EF2A29F40E94182BE2ECF8E004C053
:102A5C000E94182BE6ECF8E0FA93EA930E941D2BE7
:102A6C000E94EF2A11F0513011F50E94F42A0E94B5
:102A7C00BA270E94222B0E94DD260E94292B38F4B3
:102A8C000E943B26EAECF8E00E948D2708C00E94C9
:102A9C003B260E94322B0E94C6260E94132B0E94BA
:102AAC00182B0E94372B0E94FA2AE1E021C00E94C9
:102ABC00F42A0E94022B0E94222B0E94DD260E94E7
:102ACC00292B38F40E943B26EAECF8E00E948D2773
:102ADC0008C00E943B260E94322B0E94C6260E94F0
:102AEC00132B0E94182B0E94372B0E94FA2AE5E028
:102AFC00EA930E94B31F0E94442B39F40E944D2B81
:102B0C000E94562B32973A9606C00E944D2B0E947B
:102B1C00562B32977096EA930E94C012ACC00E945A
:102B2C00612BA8E1B4E00E94E12A0E94612BEF3FE7
:102B3C0061F00E94222B0E94DD260E94292B28F096
:102B4C00AE81BF81AC91A035F1F10E94612BEF3FBA
:102B5C0031F40E943B26EFEDF8E00E948D270E9495
:102B6C00222B0E94DD260E94292B28F40E943B2652
:102B7C00ECEEF8E004C00E943B26E9EFF8E0FA9393
:102B8C00EA930E941D2B0E94EF2A11F0513061F440
:102B9C000E94F42A0E94BA270E943B260E94EC2A2B
:102BAC000E94FA2AE1E00BC00E94F42A0E94022B38
:102BBC000E943B260E94EC2A0E94FA2AE5E0EA9346
:102BCC000E94B31F58C00E943B260E94082B0E94F3
:102BDC00132B0E94EF2A29F40E94182BE6E0F9E04F
:102BEC0004C00E94182BE7EEF8E0FA93EA930E94D7
:102BFC001D2B0E94EF2A11F05130A1F40E94F42AEF
:102C0C000E94BA270E943B260E94322B0E94C626A5
:102C1C000E94132B0E94182B0E94372B0E94FA2A19
:102C2C00E1E013C00E94F42A0E94022B0E943B2672
:102C3C000E94322B0E94C6260E94132B0E94182B36
:102C4C000E94372B0E94FA2AE5E0EA930E94B31FF8
:102C5C000E94442B39F40E944D2B0E94562B329724
:102C6C003A9606C00E944D2B0E94562B32977096B6
:102C7C00EA930E94C0120E94B72A14F40E94D12732
:102C8C003F5FA4CEA22EBB240E94783229960895D1
:102C9C00249784E0A0E0B0E0E4E3F5E00E947F320A
:102CAC001A930A930E94B32AE0E6F9E00E948D275A
:102CBC000E941B290E94A11E0E946A2B0E945A325C
:102CCC0009F43CC0E8EFF4E00E94C427E8E0F0E02F
:102CDC00FF93EF930E9476270E94B2280E945931ED
:102CEC007F936F93FF93EF930E946C27AF91BF91EB
:102CFC008F919F910E94A7317F936F93FF93EF93D6
:102D0C00F5013197A0E0B5E00E94602F0E94DD260E
:102D1C007F936F93FF93EF930E947627AF91BF91B0
:102D2C008F919F910E945931AF91BF918F919F913B
:102D3C000E94F531AF91BF910E94703019810881CA
:102D4C00269608950E94733201E034E0AC81A435DC
:102D5C0021F0A33411F0AF3429F40E94C827E2E02B
:102D6C004E2EC1C0AC81AF3F09F50E949E12EEEE13
:102D7C00F4E00E94BA27102F311730F00E946C2B10
:102D8C000E94BA271F5FF8CF0E943B26E6E7F9E0C6
:102D9C00FA93EA93ACE0B0E00E9460300E94742B8E
:102DAC00E2E0F5E00E94BA27EEEFEC83AC81A133B0
:102DBC00B9F4E4E0E093C3070E943B26EBE7F9E0AB
:102DCC000E948D27ACE0B0E00E946430EA9376D785
:102DDC00ACE0B0E0F0E00E947B30E3E04E2E83C02C
:102DEC00AC81A23329F40E944E16E3E04E2E7BC038
:102DFC00AC81A33319F4E7E04E2E75C0AC81A4333B
:102E0C0019F4EAE04E2E6FC0AC81AE3FE1F4E091D4
:102E1C009707A0919807EA1709F465C0102F31178E
:102E2C0090F0A09198071A1721F40E946C2B0E9425
:102E3C00792BA09197071A1721F40E946C2B0E94F2
:102E4C00792B1F5FECCF4FC00E94733201E032E050
:102E5C00AC81A43521F0A33411F0AF3429F40E94D5
:102E6C00DE27E2E04E2E3FC0AC81AF3F89F40E94DA
:102E7C009E12ECE3F5E00E94BA27102F311730F0C8
:102E8C000E947F2B0E94BA271F5FF8CFEEEFEC83D6
:102E9C00AC81A13319F4E7E04E2E25C0AC81A233EE
:102EAC0019F4EAE04E2E1FC0AC81AE3FE1F4E09184
:102EBC009907A0919A07EA1709F415C0102F31173A
:102ECC0090F0A0919A071A1721F40E947F2B0E9470
:102EDC00792BA09199071A1721F40E947F2B0E943D
:102EEC00792B1F5FECCF0E947A3225960895249798
:102EFC000E94872B50E0AA85A43511F0A33441F42D
:102F0C000E94942711F4E3E001C0E4E04E2E08C1C6
:102F1C00AA85A53509F50E948E2B0E94932B31971B
:102F2C000E94982BE32F0E949D2BAE17BF0720F415
:102F3C000E94A32B0E94982B0E94A62B09F4F0C090
:102F4C00E02F0E949D2B0E94FC2F309711F451E032
:102F5C0001C050E0EEEFEA87AA85A43409F50E947F
:102F6C008E2B0E94932B31960E94982BE22F0E945D
:102F7C00AE2B0E94CA2A20F40E94B32B0E94982BDD
:102F8C000E94A62B09F4CCC0E02F0E949D2B0E941E
:102F9C00FC2F319711F451E001C050E0EEEFEA87BD
:102FAC00AA85AF3439F460909B0770909C07E8E0D9
:102FBC004E2EB6C0AA85A03310F0AA3300F0AA8515
:102FCC00AE3289F40E94F52719F4AEE0B0E002C0ED
:102FDC00A6E2B0E0E0919B07F0919C070E94B62B13
:102FEC00EEEFEA8751E0AA85AF3F69F40E949E128A
:102FFC00EEE5F5E00E94BA27E1E0F0E00E94982BA4
:10300C0051E0EEEFEA87AA85AE3F11F00C949618CA
:10301C000E943B260E94BD2B0E948E2B0E94C22B2D
:10302C000E94132B513011F00C9475180E94C72B71
:10303C00E02FA885B9850E94CA2A14F40C94741840
:10304C000E94CC2B0E94D12BA885B985EA0FFB1FBF
:10305C00EE83FF830E94F527C9F4AEE0B0E00E9436
:10306C00D92B29F40E943B260E94E22B0EC00E9411
:10307C003B260E94E92BAEE0B0E00E94F42B0E94AC
:10308C0001070E94C22B0E94FD2B18C0A6E2B0E0E3
:10309C000E94D92B29F40E943B260E94E22B0EC0E1
:1030AC000E943B260E94E92BA6E2B0E00E94F42B82
:1030BC000E9430070E94C22B0E94FD2B0E94022C02
:1030CC000E94BA270E94CC2B0E940C2C21F40E9447
:1030DC00022C0E94792B0E94152CAACF21C00E9491
:1030EC00C72BE02FA885B9850E94CA2ACCF0A091E5
:1030FC009D07B0919E070E941B2C0E940C2C21F462
:10310C000E94022C0E94792B0E94CC2B0E940C2C2A
:10311C0021F40E94022C0E94792B0E94152CE1CFE5
:10312C000E9478322B960895239781E0A0E0B0E0BE
:10313C00E6E0F6E00E947F320E94872BA985A0333F
:10314C0010F0AA3300F0A985A33411F0A43541F492
:10315C000E94F52711F4E4E001C0E3E04E2EC7C055
:10316C00A985AF3439F480909F079090A007EBE0CD
:10317C004E2EBDC0A985AF3F71F40E949E12E2EBAA
:10318C00F5E00E94BA27E1E0F0E00E941F2CE1E09C
:10319C00EE83EEEFE987A985A53511F50E94242C65
:1031AC000E94292C31970E941F2CE32F0E942E2C59
:1031BC00AE17BF0720F40E94A32B0E941F2C0E9465
:1031CC00342C09F494C0E02F0E942E2C0E94FC2F6A
:1031DC00309711F4E1E001C0E0E0EE83EEEFE98717
:1031EC00A985A43411F50E94242C0E94292C319617
:1031FC000E941F2CE22F0E943C2C0E94CA2A20F411
:10320C000E94B32B0E941F2C0E94342C09F46FC017
:10321C00E02F0E942E2C0E94FC2F319711F4E1E03C
:10322C0001C0E0E0EE83EEEFE987A985AE3F11F037
:10323C000C947D190E943B260E94BD2B0E94242CCD
:10324C000E94C22B0E94132BAE81A130A1F5412FFD
:10325C005527E02FDA010E94CA2A64F10E94412C02
:10326C000E94D12BE40FF51FEF83F8870E94F527FE
:10327C0039F40E943B260E94432C0E94010706C091
:10328C000E943B260E94432C0E943007662777271A
:10329C000E9449300E94FD2B0E94522C0E94522CFD
:1032AC000E94412C0E945B2C11F40E94632C4F5FF6
:1032BC005F4FCFCF1CC0412F5527E02FDA010E9462
:1032CC00CA2AACF0A091A107B091A2070E941B2CB6
:1032DC000E945B2C11F40E94632C0E94412C0E94D2
:1032EC005B2C11F40E94632C4F5F5F4FE6CF0E9462
:1032FC0078322A960895219781E0A0E0B0E0ECE5C1
:10330C00F6E00E947F320E94872BAF81A03310F031
:10331C00AA3300F0AF81A43511F0A33419F4E7E01F
:10332C004E2EFEC0AF81AF3409F50E94F52771F423
:10333C00A0E6B1E00E946C2C0E94722C31F0AEE041
:10334C00B0E00E947A2C0E9483300DC0A8E5B3E057
:10335C000E946C2C0E94722C31F0A6E2B0E00E940C
:10336C007A2C0E948330E7E04E2EDAC0AF81AF3F5B
:10337C00B9F40E949E120E943B26E9EFF9E0FA9301
:10338C00EA93F3010E94742BE8E0F6E00E94BA275E
:10339C00E1E0F0E00E947F2CE1E0EE83EEEFEF83C2
:1033AC00AF81A53529F50E94842CE093A507F093F5
:1033BC00A6070E946C2C0E947F2CE32F0E94892C64
:1033CC00AE17BF0720F40E94A32B0E947F2C0E94F3
:1033DC008F2C09F4A5C0E02F0E94892C0E94FC2F91
:1033EC00309711F4E1E001C0E0E0EE83EEEFEF8303
:1033FC00AF81A43431F50E94842CE093A507F0939F
:10340C00A6070E94842C31960E947F2CE22F0E94EA
:10341C00972C0E94CA2A20F40E94B32B0E947F2C66
:10342C000E948F2C09F47CC0E02F0E94892C0E94F2
:10343C00FC2F319711F4E1E001C0E0E0EE83EEEFF8
:10344C00EF83AF81AE3279F40E94F52719F4AEE028
:10345C00B0E002C0A6E2B0E0F3010E94B62BEEEFA2
:10346C00EF83E1E0EE83AF81AE3F11F00C94961A3E
:10347C000E943B260E94BD2B0E94842C0E94C22BD2
:10348C000E94132BAE81A13081F5512F051760F1ED
:10349C000E949C2C0E94D12BDF01E52FF0E0EA0F5B
:1034AC004E2F0E94F52739F40E943B260E949E2C39
:1034BC000E94010706C00E943B260E949E2C0E947F
:1034CC003007662777270E94A62C0E94A92C0E9401
:1034DC00A92C0E949C2C0E94B12CEA17FB0711F41A
:1034EC000E94B62C5F5FD2CF1BC0512F0517C0F0C6
:1034FC00A091A507B091A6070E941B2C0E94B12C8D
:10350C00EA17FB0711F40E94B62C0E949C2C0E9417
:10351C00B12CEA17FB0711F40E94B62C5F5FE6CFC3
:10352C000E947832289608950E94733209E011E0C7
:10353C00AC81A13310F0AA3308F026C00E94F52705
:10354C0079F4EC81E13309F498C0E23309F495C0C5
:10355C000E94BE2CEC81E353ED5F0E94833012C0BD
:10356C00EC81E13331F40E94C52CE1EF0E948330F1
:10357C0009C0E23331F40E94C52CE2EF0E94833083
:10358C0001C07BC0EFE4EC83AC81A43521F0A33403
:10359C0011F0AF3419F4EBE04E2E6FC0AC81AF3F9D
:1035AC00B9F40E949E120E943B26EEE5FAE00E94BE
:1035BC00CC2CEEE5F6E00E94BA27312F031730F041
:1035CC000E94D02C0E94BA273F5FF8CFEEEFEC831D
:1035DC00AC81A535A1F40E94D82C0E94DD2C31972A
:1035EC000E94E22CE12F0E94E72CF0E0AE17BF07FF
:1035FC0024F40E94EC2C0E94E22CEEEFEC83AC81C4
:10360C00A43499F40E94D82C0E94DD2C31960E948F
:10361C00E22CE02F0E94E72C0E94CA2A24F4E12F0E
:10362C00F0E00E94E22CEEEFEC83AC81AE3F29F58A
:10363C000E94D82CA091A907B091AA07EA17FB0702
:10364C0009F41BC0312F0317C0F0E32FA091A90779
:10365C00B091AA070E94CA2A21F40E94D02C0E9481
:10366C00792BE32F0E94E72C0E94CA2A21F40E9496
:10367C00D02C0E94792B3F5FE6CF0E947A322596A0
:10368C000895E881E23F49F40E94EF2CE0E7FAE06C
:10369C000E948D27EBEAF7E0C5C1E13F49F40E9497
:1036AC00EF2CE7E7FAE00E948D27EBEAF7E0BAC1CE
:1036BC00E33049F40E94EF2CEEE7FAE00E948D27EC
:1036CC00EBEAF7E0AFC1E43049F40E94EF2CE5E8F7
:1036DC00FAE00E948D27EBEAF7E0A4C1E53049F44B
:1036EC000E94EF2CECE8FAE00E948D27EBEAF7E061
:1036FC0099C1E63049F40E94EF2CE3E9FAE00E940C
:10370C008D27EBEAF7E08EC1E73049F40E94EF2CED
:10371C00EAE9FAE00E948D27EBEAF7E083C1E83092
:10372C0049F40E94EF2CE1EAFAE00E948D27EBEAC3
:10373C00F7E078C1E93049F40E94EF2CE8EAFAE0AE
:10374C000E948D27EBEAF7E06DC10E94EF2CEFEAA7
:10375C00FAE00E948D27EBEAF7E064C1A881AF3450
:10376C0019F4EAE04E2E5EC1A881A43511F0A33401
:10377C0019F4EAE04E2E56C1A881AF3F11F00C941B
:10378C007E1C0E949E120E94F52799F50E943B26F2
:10379C00EFECFAE00E94CC2CE6ECF6E00E94BA27A3
:1037AC00EAE3E093C8050E943B260E94F42CF40146
:1037BC003197EA930E9401070E94C22B0E94132B9F
:1037CC00E0EDF6E00E94BA27EAEDF6E00E94BA2797
:1037DC000E943B260E94F42C0E94BE2C0E94F92CC5
:1037EC000E94132BE4EEF6E00E94BA27EEEEF6E010
:1037FC0079C00E943B26E0EEFAE00E94CC2CE6EC6D
:10380C00F6E00E94BA27EAE3E093C8050E943B2643
:10381C000E94F42CF4013197EA930E9430070E9425
:10382C00C22B0E94132BE0EDF6E00E94BA27EAEDC2
:10383C00F6E00E94BA270E943B260E94F42C0E94BC
:10384C00C52C0E94F92C0E94132BE4EEF6E00E948A
:10385C00BA27EEEEF6E00E94BA270E94C52C0E9411
:10386C006430E13F69F40E943B26E1EFFAE00E94EC
:10387C00FF2CE4E3F7E00E94BA27EEE3F7E032C056
:10388C000E943B26EBEFFAE0FA93EA930E940C2D90
:10389C000E94A62CE8EFF6E00E94BA27E2E0F7E0DF
:1038AC000E94BA270E943B26E3E0FBE0FA93EA93DE
:1038BC000E94172D0E941C2D0E94A62CECE0F7E014
:1038CC000E94BA27E6E1F7E00E94BA270E943B2645
:1038DC00EBE0FBE00E94FF2CE0E2F7E00E94BA274D
:1038EC00EAE2F7E0FA93EA93E1E0EA9336D39AC07E
:1038FC00A881A13369F4E7E0E093C3070E943B265B
:10390C00E3E1FBE00E948D2705D1EBE04E2E8AC04F
:10391C00A881A23319F4E9E04E2E84C0A881A33308
:10392C00B1F50E94942791F5EAE0E093C3070E9459
:10393C00C52C0E946430E13F89F40E943B26E4E2EE
:10394C00FBE00E948D270E94232DFF93EF930E9492
:10395C000C2D0E94AF2AAF91BF9114C00E943B2640
:10396C00EEE2FBE00E948D27F4013197A8E3B2E070
:10397C000E94FE29FF93EF930E940C2D0E94AF2A08
:10398C00AF91BF910E947030EBE04E2E4BC0A881DE
:10399C00A43319F50E949427F9F40E94C52C0E94B7
:1039AC006430E13F09F43EC00E94B32AE8E3FBE037
:1039BC000E948D270E94172D0E94FE29FF93EF93E2
:1039CC000E94172D0E941C2D0E94AF2AAF91BF910F
:1039DC000E947030EBE04E2E25C0A881A53311F566
:1039EC000E949427F9F40E94C52C0E946430E13F98
:1039FC0009F418C00E94B32AE2E4FBE00E948D2770
:103A0C000E94232DFF93EF93A8EFB2E0F4013197BE
:103A1C000E941C2D0E94AF2AAF91BF910E94703062
:103A2C00EBE04E2E219608950E94733201E034E0B3
:103A3C00AC81AF3F89F40E949E12E8E4F7E00E944B
:103A4C00BA27102F311730F00E94282D0E94BA2768
:103A5C001F5FF8CFEEEFEC83AC81A13349F40E94E9
:103A6C00C8270E943127E2E04E2E0E947A322AC2E9
:103A7C00AC81A23349F40E94C8270E943127E3E0AD
:103A8C004E2E0E947A321EC2AC81A33349F40E949E
:103A9C00DE270E940427E2E04E2E0E947A3212C2E8
:103AAC00AC81A43349F40E94DE270E940427E4E091
:103ABC004E2E0E947A3206C2AC81AE3FF1F4E091F8
:103ACC00B207A091B307EA1719F40E947A32FAC12F
:103ADC00102F311790F0A091B3071A1721F40E9400
:103AEC00282D0E94792BA091B2071A1721F40E945D
:103AFC00282D0E94792B1F5FECCF0E947A32E2C1F5
:103B0C000E94302D0E94212408950E94302D0E9485
:103B1C00EE2308951A930A930E94352DEFEF5E2E33
:103B2C00EDE2E515E9F3152D1F3F71F40E943B2DD5
:103B3C00E4E9F7E00E94BA270E94302DEFECF7E0A1
:103B4C000E948D270E94402D143519F4EDE25E2E53
:103B5C00B2C0133419F4EDE25E2EADC0143469F525
:103B6C00E091C207E03021F40E94462D0E944C2DBA
:103B7C000E94582DEA54F84FE081E03339F40E944A
:103B8C00582DEA54F84FAAE5A08316C00E94582D70
:103B9C00EA54F84FE081E13439F40E94582DEA548C
:103BAC00F84FA9E3A08308C00E94582DEA54F84F9F
:103BBC00DF01EC91E150EC931EEF153569F5E091C6
:103BCC00C207E03021F40E94462D0E944C2D0E9429
:103BDC00582DEA54F84FE081E93339F40E94582DFE
:103BEC00EA54F84FA1E4A08316C00E94582DEA5461
:103BFC00F84FE081EA3539F40E94582DEA54F84F19
:103C0C00A0E3A08308C00E94582DEA54F84FDF01AE
:103C1C00EC91EF5FEC931EEF103310F01A3308F0B9
:103C2C0008C00E945B2D20F40E94462D0E94612D3D
:103C3C001EEF1F34C9F50E94F52799F400E0E091BE
:103C4C00C2070E1758F4A0E6B1E00E946C2DEA549E
:103C5C00F84FE0810E9483300F5FF1CFA0E6B1E016
:103C6C0012C000E0E091C2070E1758F4A8E5B3E0CB
:103C7C000E946C2DEA54F84FE0810E9483300F5F54
:103C8C00F1CFA8E5B3E0F40131970E945E2FAE0F9F
:103C9C00BF1FE091C207F0E0AE0FBF1FE0E00E9433
:103CAC008330EDE25E2E07C01E3F11F40E94762D8C
:103CBC00EDE25E2E35CF0991199108951A93EFEF2D
:103CCC005E2E0E94352DE0E0E093C407EDE2E51591
:103CDC0011F0152D01C0FACF1F3F21F40E943B2D8E
:103CEC000E94402D143501F4143401F4153501F4FF
:103CFC00103310F01A3308F008C00E945B2D28F422
:103D0C000E94462D0E94612D1EEF133429F4EDE222
:103D1C005E2EE98118811FC11F3431F4EDE25E2E55
:103D2C000E948B1D188117C11E3F11F40E94762D25
:103D3C00EDE25E2ECBCF1A93EBE2E093B607E7EB06
:103D4C00F7E0A0E0A083E1E0E093C207E0E0E093BD
:103D5C00C407EFEF5E2EEDE2E51511F0152D01C055
:103D6C00FACF1F3F41F40E943B2DEAE8F7E00E9496
:103D7C00BA270E94402D143509F41EEF153511F0A9
:103D8C000C940A1FA091C207A130A9F4E091C407BA
:103D9C00E17039F4EDE2E093B607E091C407E1601D
:103DAC0007C0EBE2E093B607A091C407E1E0EA2775
:103DBC00E093C40728C00E945B2D48F4E091C20731
:103DCC00E250F0E0EA54F84FE081E53409F01AC013
:103DDC00E091C407E87051F40E94582DEA54F84F52
:103DEC00ADE2A083E091C407E8600AC00E94582DA0
:103DFC00EA54F84FABE2A083A091C407E8E0EA27AD
:103E0C00E093C4071EEF1EEF143411F50E945B2DD6
:103E1C0020F4E091C407E47009F019C00E94462D0B
:103E2C00EA54F84FA5E4A0830E94462DEA54F84FBB
:103E3C00ABE2A083E091C207F0E0EA54F84FA0E0B7
:103E4C00A083E091C407E460E093C4071EEF1EEF6B
:103E5C001E3291F40E945B2D20F4E091C407E270B5
:103E6C0009F00AC00E94462D0E94612DE091C40702
:103E7C00E260E093C4071EEF103310F01A3308F021
:103E8C0008C00E945B2D28F40E94462D0E94612DD3
:103E9C001EEF133441F4EDE25E2EE981FA816B8161
:103EAC007C8118810FC01F3431F4EDE25E2E0E942C
:103EBC00861D188107C01E3F11F40E94762DEDE27D
:103ECC005E2E49CF259608950E94792D0E94A61248
:103EDC00E881F9810E94BA270E94792D0E94C012B4
:103EEC000E94A52D38970E94AB2D31970E94B22DC0
:103EFC00AE0FBF1FE0E1F0E00E945430EA1BFB0B59
:103F0C000E94C12D7196EA930E94C01224C00E9497
:103F1C00A52D3A970E94AB2D33970E94B22DEA0F34
:103F2C00FB1F0E94C12D7396EA930E94A6120E9459
:103F3C00A52D3A970E94AB2D33970E94B22DEA0F14
:103F4C00FB1F0E94C12D7396EA930E94C012E88158
:103F5C00F9810E94BA27229608951A93EA81FB816F
:103F6C0036960E943F301E2F0E94C82D319709F5BE
:103F7C00E981E17099F0E981E47041F40E94CD2D62
:103F8C000E94DA2D3896EA930E94A6120E94CD2D3B
:103F9C000E94EC2D0E94F712188177C0E981E27023
:103FAC0031F00E94F22DE8E0EA930E94BC121881D5
:103FBC006CC00E94C82D329709F5E981E17099F027
:103FCC00E981E47041F40E94CD2D0E94DA2D7096A7
:103FDC00EA930E94A6120E94CD2D0E94EC2D0E9405
:103FEC00FB12188152C0E981E27031F00E94F22D6F
:103FFC00E0E1EA930E94BC12188147C00E94C82DD0
:10400C003497F9F4E981E17089F0E981E47041F4C5
:10401C000E94CD2D0E94FE2D3C96EA930E94A61282
:10402C000E94CD2D0E94EC2D0E94EF12E981E270CE
:10403C0031F00E940F2EECE0EA930E94BC12188122
:10404C0024C00E94C82D3597F9F4E981E17089F0FC
:10405C00E981E47041F40E94CD2D0E94FE2D7096F2
:10406C00EA930E94A6120E94CD2D0E94EC2D0E9474
:10407C00F312E981E27031F00E940F2EE0E1EA9335
:10408C000E94BC12188101C01881249608955F9B70
:10409C00FECFECB108955D9BFECFE881ECB9219683
:1040AC0008951A930A93AC81BD810E9430303097E9
:1040BC00B9F0AA81BB810E9430308F01309749F052
:1040CC000230E0E01E0758F0F80131978F01ED93B4
:1040DC00FC93AC81BD810E941D2EAE81A08304C0D7
:1040EC00EE81EA930E945120198108812796089548
:1040FC0024971A930A93A885A73010F0E6E0E88776
:10410C00E885A8EAB7E0F0E00E94FE290E9443305F
:10411C000E94242E0E9459310E94292E10E00E94E8
:10412C005E270E9498290E94C8280E94242E0E9473
:10413C003A3240F00E942E2E0E94A7310E949829FC
:10414C001F5FF1CF103029F40E94342EE0E3EC9382
:10415C0022C0E12F1150E030F1F00E942E2E0E946F
:10416C003B2E0E946A2B0E94242E0E94F5310E9445
:10417C00E8300E2F0E94342E0E94472E0E94B22847
:10418C000E944C2E0E94A7310E94242E0E947B2755
:10419C000E94292EDECFE885E03029F4AE81BF8164
:1041AC00E0E0EC9327C00E94342EEEE2EC93E8851D
:1041BC00E150E887EF5FD1F00E94242E0E94522E2E
:1041CC000E94292EE985FA856B857C850E94E63054
:1041DC000E2F0E94342E0E94472E0E94242E0E94E5
:1041EC004C2E0E947B270E94292EE1CFAE81BF81ED
:1041FC00E0E0EC93198108812D96089524970E9494
:10420C0073320E945E270E94F929AB85A73010F00B
:10421C00E6E0EB871B85E12F1150E03029F00E947E
:10422C00592E0E94F929F7CF0E945E2E0E945A3215
:10423C0031F430E00E94592E0E94F92932C03B859E
:10424C000E94632E09F010F40C9439210E94592E0F
:10425C000E94F9290E94632E28F00E946C2E0E9465
:10426C00712EF8CF0DC00E94632E30F40E947D2E6B
:10427C000E947F2E3150F7CF0E94592E0E94F929AF
:10428C000E945E2EA0E0B0E080E09FE30E945931D6
:10429C000E947F2E0E94632E20F00E946C2E0E94A2
:1042AC00712E10E0EB85E11760F10E94842EE0E0A6
:1042BC00F0E060E271E40E943B2E0E94F9290E941A
:1042CC0040260E946C2E0E94F5310E94E8300E2F81
:1042DC000E94892E0E94472E0E944C2E0E94842EF2
:1042EC000E94A7310E946C2E0E947B270E947F2E79
:1042FC00E12F1F5FE030B1F60E94892EEEE2EC93C5
:10430C00D1CF0E94152C3197AA85A08330302CF484
:10431C000E94892EEDE2EC9331953A305CF00E94CC
:10432C00152C3197BF01A32FEAE00E94B02FE05D5E
:10433C00DB01EC930E94152C3197BF01A32FEAE00F
:10434C000E94ED2FE05DDB01EC93A885B985E0E0E0
:10435C00EC930E947A3260960895EF972F970E9403
:10436C00713210E0FE01EC5AFF4F0190F081E02D0C
:10437C00E88BF98BDE01A65ABF4F0E941D2EE491EB
:10438C002E2FE03011F40C94BB23E12FE03039F4E4
:10439C00253211F411E002C00E94902EE5C1E130EB
:1043AC00C1F4253219F40E94902EDDC112E0E0E038
:1043BC00EB8B00E02D3211F401E0D6C12B3219F455
:1043CC00EBE2EB8BD1C1203219F4E0E2EB8BCCC1E8
:1043DC0002C0E23039F450E013E0203311F40068ED
:1043EC00C3C102C0E330A1F4203310F02A3308F02B
:1043FC0009C0A52FEAE0EA9FF0015E2FE22FE053FF
:10440C005E0FB2C140E02E3211F414E0ADC111C008
:10441C00E430A9F4203310F02A3308F00AC000620B
:10442C00A42FEAE0EA9FF0014E2FE22FE0534E0F4B
:10443C009BC12C3619F4026015E096C104C0E5301E
:10444C0011F00C94BA23E22FE33631F40E949F2E24
:10445C00E4810E94A82E87C1E53411F0E53609F4F9
:10446C0004C0E63611F00C947F22FE017496EA87A4
:10447C00FB870E949F2E3496DF010E9434300E94ED
:10448C001F29DF01CB010E94623224F0AB89AB32D1
:10449C0049F012C00E94C3280E94B3300E941F2909
:1044AC00EDE2EB8B07FF04C0EB890E94A82E04C041
:1044BC000E94B72EAB89A08305FF46E0263651F447
:1044CC000E9438294A93EF85F889FA93EA930E945F
:1044DC007E200AC00E9438294A932A93E889F989D8
:1044EC00FA93EA930E940421FE0174960E94BE2E58
:1044FC001EC0E33739F40E949F2E0E94C62E0E94E4
:10450C00BE2E0EC0E037C1F40E949F2E0E94C62E14
:10451C00EA87FB87FA93EA930E94082F1E2F086004
:10452C000F77403011F0411708F001C0142F40E014
:10453C00E0E0EA8B30E06FC0E43611F0E93611F4BC
:10454C00046002C0E537A1F4EAE0EA8B01FF08C081
:10455C00E0E0FAEC6AE97BE30E947F2E1AE023C0CC
:10456C00E0E1F7E260E070E00E947F2E15E01BC0F6
:10457C00E83511F4086004C0E83711F00C94B92345
:10458C00E0E1EA8B01FF08C0E0E0F0E060E070E100
:10459C000E947F2E18E007C0E0E0F0E160E070E0E0
:1045AC000E947F2E14E0403011F00F7701C041E0E3
:1045BC0001FF07C00E949F2E3496DF010E94343009
:1045CC000FC002FF07C00E949F2E0E94C62E0E94A1
:1045DC006B2F06C00E949F2E0E94C62E662777273F
:1045EC00EE83FF836887798702FF14C00E94BE2880
:1045FC000E94623244F40E94C3280E94532F0E94EE
:10460C001F29EDE2EB8BEB89E03019F01F5F4F5F58
:10461C0001C00B7F342F00FD14C0151710F4351793
:10462C0008F00FC007FF08C002FF04C00B7F2B89E6
:10463C00115001C020E301C020E20E94902E515085
:10464C00ECCF141788F4006102FF06C00E94CB2E39
:10465C0009F0515011504150E0E30E94A82E503007
:10466C0009F051504150EDCF312FEA89E03011F56E
:10467C003030F9F003FF04C00E94B72EE49105C05E
:10468C00AA85BB85ED91AA87BB87EA93FE01E95AFF
:10469C00FF4F0190F081E02DFA93EA93FE0173969F
:1046AC00FA93EA930E945720503009F05150315040
:1046BC00DFCF50C00E945E2E0E94BE280E94C82FE1
:1046CC002E2F2A3030F003FF02C0295C01C0295A7A
:1046DC0001C0205D04FD20C0213350F40E946C2EDB
:1046EC00A130E0E0BE07E0E08E07E0E09E0709F4B1
:1046FC000CC0431708F008C0531710F000FF01C09E
:10470C0010C020E207FF08C020E3006102FF04C0D4
:10471C000E94CB2E09F051500E94902E503009F07F
:10472C00515031500E945E2E0E94BE280E940D30C6
:10473C000E941F29EA890E946C2EFF276627772783
:10474C000E94C82F0E947F2E0E945E2E0E945A3219
:10475C0009F0B0CF00FF07C0503029F05150E0E213
:10476C000E94A82EF9CF10E005CE0E947832EF9669
:10477C006D960895FF92F82E22971A930A93DE01F4
:10478C000E944B2F8D01DE0116960E944B2F0E942A
:10479C003030EA83FB83DE0114960E944B2F0E947B
:1047AC003030FA93EA931A930A93FE013696FA93F1
:1047BC00EA93E0E0F0E0FA93EA930E94B321AA8135
:1047CC00BB81E0E0EC93198108812496FF90089559
:1047DC00B981A881EC91EA930E94F42EEE2311F09A
:1047EC001196F8CFE894EC91ED3211F4689402C074
:1047FC00EB3209F4119666277727EC91EA930E9425
:10480C00EC2EEE2381F0E62FF72F660F771F660F45
:10481C00771F6E0F7F1F660F771FED91FF27E053F9
:10482C006E0F7F1FEACFE62FF72F1EF4E095F09561
:10483C003196229608952A970E947132E0E0E8871B
:10484C00E987EA87EB87A889B989EC915E2FEA930F
:10485C000E94F42EE03031F0E889F9893196E88B2A
:10486C00F98BF1CFE0E0EF835B3209F404C05D32E9
:10487C0039F4E1E0EF83E889F9893196E88BF98B1B
:10488C00E0E04E2F5E2F08891989A889B989EC912F
:10489C00EA930E94EC2EE03049F4A889B989AC91D6
:1048AC00EEE20E94702F5E2FE03039F0452BE88944
:1048BC00F9893196E88BF98BE8CF28893989403012
:1048CC0011F1E889F9893197E88BF98BA889B989B5
:1048DC00AC91AE32C1F0A889B989EC91E0530E9439
:1048EC00DF2E0E944C2E0E944829E0E0F0E060E2AE
:1048FC0071E40E94F5310E94E029E889F989319729
:10490C00E88BF98BE3CF0E945E270E947F2EA8894B
:10491C00B9891197A88BB98BA017B10768F0EC91E6
:10492C00E0530E946C2E0E944C2E0E94F0290E9493
:10493C007D2E0E947F2EEBCFD9012F5F3F4F5C91D4
:10494C00553619F0553409F05BC0E0E04E2FEE837C
:10495C00D9015C915B3209F404C05D3221F4E1E0D1
:10496C00EE832F5F3F4FD9012F5F3F4FEC915E2FAE
:10497C00EA930E94EC2EE03041F0A42FEAE0EA9F8B
:10498C00F001E50FE0534E2FEECF473268F0EF8188
:10499C00E03029F0EFEFFFEF6FE77FEF3AC0EFEF7A
:1049AC00FFEF6FE77FE735C050E20E945E270E9461
:1049BC007F2E503089F00E945E2E0E946C2E0E9439
:1049CC00A7310E947F2EE42FE52321F00E947D2E3B
:1049DC000E947F2E5695EDCFEE81E03039F00E948B
:1049EC005E2E0E94DF2E0E94F53106C00E945E2EC4
:1049FC000E94DF2E0E94A731E887F9876A877B87A0
:104A0C00EF81E03021F00E94E42E0E94E0290E9408
:104A1C00032A0E9478326296089524971A930A9377
:104A2C00A7D30E9466322CF0EFEFFFEF6FE77FEF1A
:104A3C0061C018D4EDB7FEB73197FA93EA931F9380
:104A4C000F930E9492300F911F91F3D391D3E3EF08
:104A5C00F4E065E37FE30E943A3228F48ED388D3E6
:104A6C0080D301501040EAD37F936F93FF93EF9361
:104A7C0084D3A0E0B0E080E89FE30E945931AF916D
:104A8C00BF918F919F910E94F531CBD40E94E82E5B
:104A9C001BD6A6E2B2E485E69FE31DD2EEE4F1E17B
:104AAC0064E570E422D20E94E82E7F936F93FF930B
:104ABC00EF9352D3EDE4F1E164ED7FE316D2AF91C5
:104ACC00BF918F919F910E94F5317F936F93FF93CC
:104ADC00EF93F801A8E1B2E781E39FE30E946B2F0B
:104AEC000E941F310E94A731AF91BF918F919F916E
:104AFC000E945931198108812A96089528971A9392
:104B0C000A93E8D3E0E5FCEA6EEA72EC0E943A32D2
:104B1C0010F44BD46DC0EDD20E945A3211F4C8D1AE
:104B2C0067C0D8D3E8E1F2E761EB72E40E943A3255
:104B3C0009F010F40C94A725EFEFFFEF6FE77FE778
:104B4C0057C0C8D3EBE3FAEA68EB7FE30E94A731C6
:104B5C00C6D2CFD20E9449300E94422F0E94E83028
:104B6C008F01F801B7D30E946B2F0E941F31BDD16A
:104B7C00DF01CB01E0E0F0E060E07FE3B6D151D49F
:104B8C000E94E82EA1D5ADE6BCE48CE69DE30E9424
:104B9C00A731A6EAB3EE86EE90E40E9459310E944A
:104BAC00E82E47D3EFD2A8E2BDE886EA91E40E9452
:104BBC005931B8D3E2D2D0D20E945931A3EFB4E02C
:104BCC0085EB9FE30E94A7317F936F93FF93EF9345
:104BDC00CFD2D8D20E945231AF91BF918F919F9179
:104BEC000E94F5310E9449301A930A930E94A53015
:104BFC00198108812E9608952497FFD30E945A326A
:104C0C0011F4D3D330C00E94DF2E0E94663264F4BC
:104C1C0031D00E945A3211F44BD125C0EED337D388
:104C2C000E94842ED2D31FC025D0DE010E94E83012
:104C3C000E943A303FD00E941F31DF01CB011AD0C5
:104C4C000E946C3211F0B1D30EC00E94E42E1FD31F
:104C5C000E94842EBAD3AED3E881E17011F4CDD387
:104C6C0002C00E94E42E2C960895E8ECF5E0FA932D
:104C7C00EA930895EC81FD816E817F8108950E94F5
:104C8C00493084E00E94C0232896EFCF0E94FE2E6C
:104C9C00EA93E3E0EA930C94DD0C0E9449300C9407
:104CAC00BE06EA930E944C13E0E2FEE4FA93EA9308
:104CBC000C945F07E881F9816A817B810895E12F6B
:104CCC00F0E0E85FF94F0895E981F0E00E945E2F73
:104CDC00AE0FBF1FEE27A10FBE1F0E946430D00184
:104CEC00EC93EDCFEC0DFD1DDF010E9464301E2F07
:104CFC001F3F0895A0E6B5E0F6010E94602FAE0FAD
:104D0C00BF1FE0E0FCE36CE176EC0E943A30E2E09D
:104D1C00E09302060895A0E2B2E0EE27A10FBE1FB9
:104D2C000E9464300895F6013196EA930C941413A2
:104D3C00E0EAF6E861E070E00895E093FA05F0939C
:104D4C00FB056093FC057093FD05E0E0E093FE0528
:104D5C00E093FF05E0930006E09301060895F60149
:104D6C00A0E0B5E00E94602F0895E5EEF7E0FA931D
:104D7C00EA93F60131960E946B2F0E9449300895F8
:104D8C00AE0FBF1F0E9434300E944930089588E056
:104D9C000E94C0232C9669CFA0E6B5E0F6010E94D4
:104DAC00602F0895EDEEF7E0FA93EA93F5CFAE0F8E
:104DBC00BF1F0E9434300895EEEFEA930E94531403
:104DCC00E0E0E09302060895AE0FBF1FE0E0FCE3C5
:104DDC006CE176EC0E943A30E5E0E093020608952F
:104DEC00A8E1B4E0EE27A10FBE1F0E946430089525
:104DFC00E9E6EA93E1E0EA930C94AA12EAE6EA9374
:104E0C00E0E0EA930C94AA12ACE0B0E00E946030AF
:104E1C00A0EAB6E881E090E00E946B2F0E949D2FE3
:104E2C008CCFAFE3B0E00E946430E13008950E9473
:104E3C00A9130E9449300C94F106E093C405F09339
:104E4C00C5056093C6057093C7050895EA93E0E025
:104E5C00EA930C94AA12EAE6EA93E1E0EA930C9442
:104E6C00AA12E0930306F093040660930506709370
:104E7C0006060895A0910306B091040680910506DC
:104E8C00909106060895F6DFEDE3FAE067E57EE320
:104E9C000E943A320895E0E0F0E060E070E408959A
:104EAC00E9DFEDE3FAE067ED7DE30E943A32089525
:104EBC00E0E0F0E060E87FE30895E091C405F09154
:104ECC00C5056091C6057091C7050895A8E0B0E0CE
:104EDC000E945B3008950E94A731DF01CB01089539
:104EEC00A0E0B0E00E945B3008950E944E300E941A
:104EFC0052310895E091C005F091C1056091C20551
:104F0C007091C3050895FE01FA93EA930895FA93FC
:104F1C00EA9380E00E94C02324960895AEE3B0E0AB
:104F2C000E946430E1300895FA93EA93F6013196C9
:104F3C000E946B2F0E944930A091FA05B091FB059D
:104F4C008091FC059091FD05F3DE0E94C82F0E9414
:104F5C004930FE013C96662777270E9449308CE049
:104F6C000E94C02360960895FA93EA93E1E0EA93D5
:104F7C000C94B31FFA93EA930C945F07FA93EA9399
:104F8C000C946A1FAEE3B0E0E1E00E9483300E9413
:104F9C000013E1E65BCFE1E0F0E05F010895E3E5AB
:104FAC00F4E1A091B407B091B507EA17FB07089597
:104FBC00AEE3B0E0E0E00E9483300E940013E1E633
:104FCC00EA93E1E0EA930C94AA12E0E0E093FE0588
:104FDC00E093FF05E0930006E09301060895AEE32D
:104FEC00B0E00E946430E0300895AEE0B0E0F5012E
:104FFC003197AE0FBF1F0E9464300895E0E2F2E0DB
:10500C00E00FF11FDF010E9464300895EF5FFF4F46
:10501C006F4F7F4F0895A091FE05B091FF058091D1
:10502C000006909101060895E8E1F4E0E00FF11F0D
:10503C00DF010E94643008950E94752FE60FF71F60
:10504C000E943F3008950A921A92FA926A937A93C8
:10505C008A939A93AA93BA93EA93FA93EFB7EA9343
:10506C001A930A93089509911991E991EFBFF99157
:10507C00E991B991A9919991899179916991F99055
:10508C00199009900895E150F0E008950A921A924F
:10509C00FA926A937A938A939A93AA93BA93EA931D
:1050AC00FA93EFB7EA931A9308951991E991EFBF28
:1050BC00F991E991B991A991999189917991699114
:1050CC00F990199009900895AC81BD81ED91AC8354
:1050DC00BD830895EE87FF87688B798B0895EA87E7
:1050EC00FB876C877D870895AE85BF8588899989F4
:1050FC000895EA85FB856C857D8508950E94523163
:10510C00DF01CB01E7E1F7EB61E578E30E943A328E
:10511C000895D8010F5F1F4FA436E0E0BE07089535
:10512C00E8DFE2DF0E945931DF01CB01B4DE0E94DF
:10513C00F531EA83FB836C837D830895AE8DBF8D3F
:10514C0088A199A108950E94A731AA81BB818C8165
:10515C009D810E94A7310895AA81BB818C819D817C
:10516C0008950E945931EE83FF83688779870895EB
:10517C00AE81BF81888599850895EE81FF81688510
:10518C0079850895EA81FB816C817D810895FADF30
:10519C00A1CFAADFE0E0F0E46CE176E40E94A73155
:1051AC000895AA85BB858C859D85E0E0F0E46CE1D3
:1051BC0076E40E94A73108950E945931DF01CB019A
:1051CC006ADE0E94F531A0E0B0E080E09FE30E942F
:1051DC0059310E9449300E94422FDF01CB01E0E09F
:1051EC00F0E46CE176E40E94F5310895F0E00E9461
:1051FC00602FAE0FBF1F0E945B300895A8E1B4E092
:10520C00EE8DF0E0AE0FBF1F0E9464300895EF8D5D
:10521C00F8A169A17AA10E9449300895DF01CB0160
:10522C0047DE63CE61DF65DF69CFACDF0E944930BA
:10523C000895EE83FF8368877987089599DF38DEB8
:10524C0054CEAA8DBB8D8C8D9D8D0E94A73190DF85
:10525C000E9459310895AE89BF89888D998D0E941D
:10526C00A73108958ADF0E94493008958BDF37CF2C
:10527C0028971A930A93AA85BB858C859D850E94D5
:10528C00623208950E945931DF01CB0108950E94CA
:10529C004930C3CBEA83FB836C837D83E7CFD80192
:1052AC00F0E0AE17BF0708950E94602FEA0FFB1FB6
:1052BC000E944330AA85BB858C859D850E94A731B1
:1052CC0057DF4FCF5FDFAA85BB858C859D850E94FC
:1052DC00A73105CFAA85BB858C859D8508950E9435
:1052EC00F531A7DF4ADFFBCE0E944330EA83FB8314
:1052FC006C837D8301E010E008950E94602FEA0F1B
:10530C00FB1F0E944330E6DF0E94A73125DF0E947D
:10531C005931EA83FB836C837D832FDFDBDF0E94B3
:10532C00A731DDCEEA83FB836C837D830895AD8545
:10533C00BE858F8598890E9462320895E093180784
:10534C00F0931907F4CFAD85BE858F859889ECE570
:10535C00F7EA6DE174E40E943A320895E09318077D
:10536C00F09319070895AD85BE858F859889E0E087
:10537C00F0E06EE374E40E943A320895AD85BE8588
:10538C008F8598890895E3ECF5E065E874E40E9454
:10539C003A320895F3DFE0E0F0E160ED74E40E944E
:1053AC003A320895DBDFEADFEECFE0E0F0E060E0D8
:1053BC0070E00895E887F9876A877B870895DEDFB8
:1053CC00ECEEFFEE6DEF72E490CD0E94A7310E94DF
:1053DC00493094CB0E94A731A885B9858A859B85D5
:1053EC000E945931E7CFEC83FD836E837F83089550
:1053FC000E94602FEA0FFB1F0895E885F9856A85E6
:10540C007B850895E0E0F0E067E873EC63CEE0E0C4
:10541C00F0E068E472EC5EDEE0E0F0E06DED74E488
:10542C005ECE07DFAACEFA93EA93E3E0EA93E4E0D8
:10543C00EA930C94DD0CE12FF0E0E55EF84FE0818F
:10544C000895EA930E940D12E9E4F7E0FA93EA93C7
:10545C00E2E0EA93E4E0EA930C94DD0CEC81EA934D
:10546C000E942C12E0E0E883E983EA83EB83089541
:10547C00E3E0E0931B07E1E0EA930C945412E09311
:10548C001B07EB81E0931C07EA81E0931D07E98180
:10549C00E0931E07E881E0931F07E5E0EA930C9484
:1054AC005412E12FF0E0E25EF84F0895EA93EC819C
:1054BC00EA93EC81EA93EB81FC81FA93EA930C94E6
:1054CC00C412AAE0A083E2E8F7E0FA93EA93089505
:1054DC00EA93E2E0EA930C94DD0CE7E8F7E0FA9348
:1054EC00EA930895E0E0E0935507E0E0F0E06AE726
:1054FC0074ECE0935607F09357076093580770933A
:10550C005907EBCFE9E0EA930E944C13E0E0E093FB
:10551C009307E0939407E0939507E093960708951B
:10552C00E0E0F0E06AE774EC0895E0935607F0933E
:10553C00570760935807709359070895E0E0E0937C
:10554C005507EEDFF2CFE0915507F0E0E65AF84F41
:10555C0008950E9449300C94A11EEAE0E093C30721
:10556C0084CBF50131965F01E8E1F0E0EA15FB052B
:10557C000895F5012E2FD5011197F8010E94FF2FE8
:10558C00AE1ABF0A30E00895F0E0EA17FB07089561
:10559C00EBEAF8E0FA93EA93F5010E946B2F0E9474
:1055AC00493084E00E94C0232896EAE0E39FF00192
:1055BC00EA58FB4F0895F0E0AE0FBF1F0E94643015
:1055CC00EA930E94471BEE83FF830895E3EBF8E018
:1055DC009ECCD5011197CA16DB060895EAE0E39F2D
:1055EC00F001E256FB4F0895EAE0E39FF001EA5325
:1055FC00FB4FFA93EA930895FA93EA93E5E0EA9362
:10560C000C94B31FEEEBF8E0FA93EA93F5013197A3
:10561C00A0E0B5E00E94602FB3CB84E00E94C023D1
:10562C0028960895E0EDF5E0FA93EA93089580E06A
:10563C000E94C02324960895A0E6B5E0F5013197A9
:10564C000E94602F0895DF01CB01E0E0F0EA6CE0EE
:10565C0076EC0E943A320895E4EDF8E0FA93EA937E
:10566C00EBCFE9EDF8E0FA93EA93AA85BB85EC91D0
:10567C00FF27662777270E944930CFCFEAE0E39FC8
:10568C00F001EA53FB4F0E943F3031970895EDED46
:10569C00EA93A32FBB276AEC74E0EAE0F0E0CCCCF1
:1056AC003297EA93E9EEEA93A32FBB276AEC74E0F6
:1056BC00EAE0F0E0C1CCA6E2B0E0F5013197AE0F24
:1056CC00BF1F0E94643008952DDE5CCDE12FE150A8
:1056DC00AAE0EA9FF001E45FFA4F08950E946B2F55
:1056EC000E9449309ACFFA93EA93E2E0EA930C9441
:1056FC00B31FE12FE150AAE0EA9FF001EA5BFA4FF9
:10570C0008950E94713206E011E028E131E008951D
:10571C00E0919B07F0919C070895E0939D07F0930F
:10572C009E07F6CFE0939B07F0939C070895A091FA
:10573C009B07B0919C07F0E00895E22FF0E00895EC
:10574C00E7DFA0919D07B0919E07EA17FB0708952C
:10575C00A0919B07B0919C070895E32FF0E008956A
:10576C003197AE0FBF1FEFEF0E9483300895EEEC20
:10577C00F9E0FA93EA930895662777270E94493057
:10578C000895E12FF0E0E887F9870895E1DF11979C
:10579C00E02FF0E008950E94B52FDF01E02FF0E03C
:1057AC000E94752F0895EE81FF813197AE0FBF1FB8
:1057BC000E946430EF3F0895E1EDF9E0FA93EA932B
:1057CC00EA85FB858BCFE8EDF9E0FA93EA93EA855D
:1057DC00FB850E946B2F0E9449300895EE85FF8552
:1057EC003197AE0FBF1F0E946430EA93089588E092
:1057FC000E94C0232C960895A885B9851197EAE0DC
:10580C00F0E00E94752FEE58FA4F08950E94FC2F7D
:10581C00DF01E885F9853197EA17FB070895E885DC
:10582C00F9853196E887F98708951197E02FF0E014
:10583C000895E0939F07F093A0070895E0919F07C8
:10584C00F091A0070895E093A107F093A207F6CF7B
:10585C00A0919F07B091A007F0E00895EFDFA09111
:10586C00A107B091A207EA17FB070895A0919F0723
:10587C00B091A0070895FADFD8CFE3EFF9E0FA93DF
:10588C00EA93EB85FC850E946B2F0E944930EF85D3
:10589C00F8893197EA930895DA011197EAE0F0E07C
:1058AC000E94752FEA53FA4F5FCB0E94FC2FDF0149
:1058BC00FA013197EA17FB070895DA011197EAE02C
:1058CC00F0E00E94752FEA53FA4F0DCFE091A30739
:1058DC00F091A407319708950E945E2FAE0FBF1F61
:1058EC000E946430E0300895F3013197AE0FBF1F72
:1058FC00EDCFE093A307F093A4070895E091A307DD
:10590C00F091A4070895A091A307B091A407F0E02B
:10591C000895F4DFA091A507B091A607EA17FB073D
:10592C000895A091A307B091A4070895FADF7DCF45
:10593C00EDEDF9E0FA93EA93E42FE150EA93089540
:10594C000E9449306ACEE52FE150AAE0EA9FF001AF
:10595C00E45EF94F09CB0E94FC2FDF01E52F93CBBE
:10596C00E52FE150AAE0EA9FF001E45EF94FBBCECF
:10597C00A0E2B2E0F4013197AE0FBF1F0895A8E189
:10598C00B4E0F4013197AE0FBF1F0895FA93EA9378
:10599C00F401A4CEE32FE150AAE0EA9FF001E8590C
:1059AC00F94F0895E091A707F091A8070895E093A7
:1059BC00A907F093AA07F6CFE093A707F093A807DF
:1059CC000895A091A707B091A8070895E02FF0E0E3
:1059DC000895EBEAF7E0FA93EA930895ECEDF9E019
:1059EC00FA93EA9308950E946430EA930E94471B4D
:1059FC00C3CEFA93EA93A8EFB2E0F40131970E9478
:105A0C00602FAE0FBF1F0E945B309ACFF40131970D
:105A1C00A8E3B2E00E94602FAE0FBF1F0E945B3064
:105A2C000895A8E9B2E0F401319708950E94602F1F
:105A3C00AE0FBF1F0E945B300895A8EFB2E0F401D7
:105A4C003197D6CCE12FE150AAE0EA9FF001EE5A53
:105A5C00F84F0895E6EBF7E0FA93EA930895E0E047
:105A6C00E093B607E093C20708950E949E12E0E807
:105A7C00F7E07ACAEEE9F7E0FA93EA930C948D1FFB
:105A8C00E091C207EF5FE093C207FDCAEA54F84FFA
:105A9C00A0E3A083E091C207F0E0EA54F84FA0E045
:105AAC00A0830895E091C207EECAE091C307A091CC
:105ABC00C207AE170895EA54F84F1083E091C2075D
:105ACC00F0E0EA54F84FA0E0A0830895F401319778
