:0A0000000C9444000C94C3100C94FF
:10000A0000000C9400000C9474000C9400000C94F2
:10001A0000000C9400000C94C9090C94EF090C948C
:10002A0000000C94F80A0C9400000C940A0B0C942F
:10003A0000000C94D60F0C9446090C9400000C9402
:10004A0000000C9400000C9400000600E8EEF0F2A8
:10005A00F4F5F6F7F8F9FE006800FE006800010002
:10006A00FA01540001002902600001002A0262001C
:10007A000100400264000100410266000000F89499
:10008A00EE27ECBBF1E0FBBFEBBFE5BFF8E1F1BD4A
:10009A00E1BD8DE0A2E0BB27ED938A95E9F780E008
:1000AA0094E0A0E6ED930197E9F7E8E6F0E08591A0
:1000BA009591009761F0A591B59105901590BF01B2
:1000CA00F00105900D920197E1F7FB01F0CFEFE502
:1000DA00EDBFE4E0EEBFC0E6D1E00C94C9050E9492
:1000EA006D120A93E8B7E064E8BFE8EBE4BDE0917B
:1000FA00C001E03011F40C94CD0000E0083010F09B
:10010A000C94CC00E02FA1E00E94CC14A091C00175
:10011A00EA23D9F10E9476120E946615309741F0BF
:10012A000E947612ED91FD913197FE93EE932DC0C8
:10013A00E02FE33039F4E894C49B6894A8B3A4F997
:10014A00A8BB17C0E43069F4E894C59B6894A8B3C7
:10015A00A5F9A8BBE894C79B6894A8B3A7F9A8BB5C
:10016A0008C0E53031F4E894C69B6894A8B3A6F9B0
:10017A00A8BBA0ECB1E0AF931C90E02FA1E00E94D5
:10018A00CC14E095E121AF91EC930F5FB7CF03C098
:10019A00E9B7EF7BE9BF09910E947F121895AA81FE
:1001AA00A83020F4E881F981309711F42396089554
:1001BA00F894EA810E948812EA0FFB1FA881B9818C
:1001CA00A083B183A0ECB1E0AF931C90EA81A1E0D7
:1001DA000E94CC14E129AF91EC937894E9B7E074CA
:1001EA0051F4F894E8EBE4BDE8B7E064E8BFE9B796
:1001FA00E064E9BF789423960895F894A0ECB1E0FE
:10020A00AF931C90E881A1E00E94CC14E095E12113
:10021A00AF91EC93E8810E948812AE0FBF1FE0E015
:10022A00F0E0ED93FC93789421960895E5E0E3BF1E
:10023A00E2EFE2BFE0E0EFBDE3E0EEBDE0E0EDBDFE
:10024A00ECBDE7BDE6BDEBBDEABDE9BDE8BDE2BD7B
:10025A00E7E0E5BDE0E0E4BDE3BDE9BF0895EFE313
:10026A00EBBBEFEBEABBE2E1E8BBE3EBE7BBE0ECBD
:10027A00E5BBE0E0E4BBE2EFE2BBE1BBE0E0E5BF07
:10028A00E4BFE9BFE3E0E8B9E0E0E0BF949A979AF7
:10029A00959A969AE3B3E07CE295EF70E695E69537
:1002AA005E2EE0E0E5BB089508950895E091F60119
:1002BA00F091F7013196E093F601F093F701E881A6
:1002CA00F981A091F601B091F701EA17FB0709F449
:1002DA009498E881F981EE0FFF1FA091F601B09181
:1002EA00F701AE17BF0730F0949AE0E0E093F60109
:1002FA00E093F701229608950A9300E0E0E0EA937A
:10030A000E940201E0E00E948E120E945C0EE03020
:10031A0031F00E94951211F401E001C0F6CFE0E03D
:10032A00EA930E940201003041F40E949A12E0937B
:10033A007701F09378010E940B0FE02F5CC3E091E4
:10034A00F801E093AC019924AA24BB24CC24D090D0
:10035A00F401E090F501E03051F40E94F00AE03037
:10036A0029F4E7E50E949F12E093F8010895A0910D
:10037A00F801A13091F40E94F00AE03069F4A091EA
:10038A008801A13030F0E0E0EA93E09188010E9410
:10039A00A812E2E0E093F8010895A091F801A230D2
:1003AA0051F40E94951231F4E7E50E94AD12E3E0A0
:1003BA00E093F8010895A091F801A33091F40E9406
:1003CA00F00AE03069F4A0918501A13030F0E0E054
:1003DA00EA93E09185010E94A812E4E0E093F80113
:1003EA000895A091F801A43081F50E94951261F553
:1003FA006092AE017092AF01E0918001E030C1F0ED
:10040A00E0918001D301F0E0AE17BF0770F06624D7
:10041A007724E0E0E093F901EA93E4E6F0E00E9451
:10042A00B412E5E0E093F8010895F30131963F0133
:10043A00E0E0E093A301E093F801A091A101A035C7
:10044A0019F4E1E0E093A4010895A091F801A53020
:10045A00F9F40E949512D9F4E091F901EF5FE09363
:10046A00F901E1500E948101E03021F0A091F901E7
:10047A00A73068F0E0E0E093A301A091A101A035C4
:10048A0019F4E1E0E093A401E0E0E093F8010895B3
:10049A0008950E948915E091F301E695E6951E2FCD
:1004AA0000E021E0293188F40E94B812EF3FA0E071
:1004BA00FA0749F00E94B812DF01EC81FD81AE17FC
:1004CA00BF0708F4022F2F5FEDCFA02FB0E0AA0FCD
:1004DA00BB1FAD53BE4F0E946615EF3FA0E0FA075F
:1004EA0009F40F5FE0918101EC5E3E2FE02FEE0FE1
:1004FA00EE0F3E1718F43093F30105C0E02FEE0F0C
:10050A00EE0FE093F3010E949015269608951A9330
:10051A000A93A091FA01A63029F5E0918101E093AE
:10052A00F3010E94C31221F0EA92DA920E944E026B
:10053A00E091F301E09394010091F4011091F50127
:10054A0000240016010619F0B016C10638F40E94FC
:10055A00C912E091F301EA930E949B0AE7E0E09353
:10056A00FA012CC0A091FA01A730B9F40E94F30A4B
:10057A00309719F00E94D01269F4A0918401A13039
:10058A0030F0E1E0EA93E09184010E94A812E5E0EC
:10059A00E093FA01E091FA0111C0A091FA01A530A5
:1005AA0049F40E94D61219F4E0E0E093FA01E091CE
:1005BA00FA0104C0E091FA01E093AD0109911991A1
:1005CA0008950A93E091FA01E093AD010E948C022A
:1005DA00E73009F410C20E948C02E53009F40BC21C
:1005EA00E091FA01E03051F40E94F00AE03029F477
:1005FA00E3E50E949F12E093FA01FDC1A091FA017E
:10060A00A13091F40E94F00AE03069F4A0918701C8
:10061A00A13030F0E1E0EA93E09187010E94A8124C
:10062A00E2E0E093FA01E7C1A091FA01A23051F4A5
:10063A000E94D61231F4E3E50E94AD12E4E0E093A1
:10064A00FA01D9C1A091FA01A43091F40E94F00AEA
:10065A00E03069F4A0918601A13030F0E1E0EA933C
:10066A00E09186010E94A812E9E0E093FA01C3C171
:10067A00A091FA01A93039F40E94D61219F4EAE0DD
:10068A00E093FA01B8C1A091FA01AA3011F00C94D2
:10069A00D403E0E0E093A4010E94DB12E6E0E093D9
:1006AA00FA01E89421F8E091A401E03011F00C94E9
:1006BA00D103E0E0F0E2FA93EA930E945B01A09191
:1006CA00A101A03521F4E091A301E03081F0D0909E
:1006DA00F401E090F501A091FA01A03019F40E940A
:1006EA00C31209F403C0E6E0E093FA0184C1E3E02F
:1006FA00E51511F00C94C7030E94E212A13FEFEF37
:10070A00BE0720F00E945C0E0E940B0FA091F4011C
:10071A00B091F5010E947E1510F421FE01C032C08D
:10072A000E94E71278F59B2CAC2CB0908F01C090F8
:10073A009001E091F301E695E6950E2F9B14AC0427
:10074A0038F40E94EF12EB2DFC2DE919FA0904C0C6
:10075A000E94EF12E0E0F0E0ED93FC93A091F40127
:10076A00B091F501BA16CB0648F4E091F401F09184
:10077A00F501EB19FC09DE2EEF2E02C0DD24EE2472
:10078A00689421F821FC03C00E94C31211F40E944C
:10079A008C020E94590187CF0E94DB122CC12BC107
:1007AA000A93E0E0E093A101E093A201E093A001A3
:1007BA00E093A401E093A3010E94DB12E0E0E0933E
:1007CA009F01E0939201E0E8E0939301E0E0E09377
:1007DA0094010E94F812A1E6B1E0EC91EC930E9418
:1007EA00FE12E0939D01F0939E018824E0E0E093DD
:1007FA00C001689420F89924AA24BB24CC2400E0E0
:10080A00093140F40E94EF12EFEFF0E0ED93FC9310
:10081A000F5FF6CFF0C0EFEFE0936001E8E0E093FE
:10082A007E01E0E0E0936201E2E1E0937D01E0E134
:10083A00E0936101E0E0F0E00E940313EAEDFEE3D9
:10084A00E0937701F0937801EBEDF3E4E0936D0127
:10085A00F0936E01E2E3F0E0E0936301F093640148
:10086A00E9EFF8E4E0936F01F0937001E4E6F0E059
:10087A00E0936501F0936601EEE1F3E5E09371011F
:10088A00F0937201E8ECF0E0E0936701F0936801FD
:10089A00ECE4FDE5E0937301F0937401ECE2F1E01E
:1008AA00E0936901F0936A01EFE9F1E7E0937501DA
:1008BA00F0937601E4EFF1E0E0936B01F0936C01C1
:1008CA00E2E3E0938101EAE0F0E0E0938201F09351
:1008DA008301E1E0E0937F01EAE0E0938401E093A1
:1008EA008501E0938601E0938701E09388010E94E5
:1008FA0008130E940F13EAEAE0938A010E94181370
:10090A0008950A9300E0A0916201A53020F0E0E08A
:10091A00E09362010FEFA0917B01E0918B01EA174E
:10092A0031F4E0917B01A0916001EA1709F405C056
:10093A00E0917B01E09360010FEFA0917B01E091D0
:10094A006001EA1731F4A0918B01E0917B01EA176B
:10095A0009F405C0E0917B01E0938B010FEFA091B0
:10096A008B01E0916001EA1731F4A0917B01E091DB
:10097A008B01EA1709F405C0E0918B01E0937B0132
:10098A000FEFA0917C01E0918C01EA1731F4A0915C
:10099A006101E0917C01EA1709F405C0E0917C014C
:1009AA00E09361010FEFA0917C01E0916101EA17E8
:1009BA0031F4A0918C01E0917C01EA1709F405C099
:1009CA00E0917C01E0938C010FEFA0918C01E09102
:1009DA006101EA1731F4A0917C01E0918C01EA17D8
:1009EA0009F405C0E0918C01E0937C010FEF00301F
:1009FA0011F00E9418130991089524970E948815EE
:100A0A00E3E0E51509F042C003E00130A0F10E94DD
:100A1A00A40DE030A0E0FA07A0E06A07A0E17A0797
:100A2A0041F533E040E0A32FB42FEBE00E94D41449
:100A3A00F4603E2F4F2F20FE03C018E020E002C0D2
:100A4A0010E020E02A931A934A933A930E94B30D36
:100A5A00E8E0ED83E0E0EE83EF83E887FE01359678
:100A6A00FA93EA93E2E0EA930E94DF0D0E94C00D36
:100A7A0002C00150CACF003021F0E0919201EF7E0E
:100A8A0003C0E0919201E061E09392010E948F1508
:100A9A0029960895A5E9B1E0EC91E070EC93A5E9F7
:100AAA00B1E0EC91E162EC9308950E948A1520E08E
:100ABA000E94211311F0E22F63C0E091FC01E030A3
:100ACA0001F50E94F30A309759F4E7E00E948E126A
:100ADA00E0E0F0E0FA93EA93EA930E949B0A02C0EC
:100AEA00E22F4EC00E94F00AE03011F0E22F48C017
:100AFA000E94980AE093FB01E1E0E093FC01E22FF7
:100B0A003FC00E94980A0E2FE091FB01E01728F4DB
:100B1A00A091FB01E02FEA1B03C0E091FB01E01B5F
:100B2A001E2FE12FEE0FE0939901173110F01D31BE
:100B3A0008F008C068940E942613EF7BE0939301A3
:100B4A0021E01AC01D3110F0133208F008C0E894F1
:100B5A000E942613E064E093930121E00DC068949B
:100B6A0020F8E0919201E160E0939201E091930113
:100B7A00EF7BE093930120E0E0E0E093FC01E22FB9
:100B8A000E94911523960895E894F1F840E0F2F84E
:100B9A000E9434010E941B010E949510E0E8F0E0D7
:100BAA00FA93EA93E0E6F1E0FA93EA93EDE2EA9344
:100BBA000E9474100E94D5030E944F050E942F13B1
:100BCA00EDB7FEB7FA93EA930F930E9485100F913F
:100BDA000F3F51F00E942F13EFEFEA930E940B1080
:100BEA00EAE0F0E00E943413A0918A01AA3A19F0CF
:100BFA000E94100402C00E9486040E94520BE3E085
:100C0A00E51549F4C2D20E94020520FAF0F8E091F3
:100C1A009301EF7D06C00E9438138A98E0919301F0
:100C2A00E062E09393017894A0916001A03011F002
:100C3A00A53218F0E4E2E093600140906001E7E039
:100C4A00EA93E1E0F0E00E94B41220E030E010E024
:100C5A00A091A001A130C8F0E091A001E295EF7047
:100C6A00EA3039F40E942F13E091A001EA930E941E
:100C7A000B10F894A895E1B5E861E1BDE9E0E1BDA2
:100C8A007894E0E0E093A001FFCFE0E0F4E0FA938B
:100C9A00EA930E945B012131E7E23E0718F020E067
:100CAA0030E002C02F5F3F4FE0919701E070E09380
:100CBA009701E0919801E070E0939801A5E9B1E00D
:100CCA00BF93AF930E946A15DF01CB01F901662732
:100CDA0077270E940A150E94C714AF91BF910E94FC
:100CEA0070150E945901E2E0E51511F00C94C10655
:100CFA00F1FC0BC0E2EDF0E00E940313EEE1E09399
:100D0A007D010E9403116894F1F80E946811E09332
:100D1A0094010E946811E030D1F0F2FC09C0E6E0CB
:100D2A00EA93E8EEF3E00E94B4126894F2F80EC077
:100D3A00A091C001E0E4EA2321F0E0919301ED7F64
:100D4A0003C0E0919301E260E09393010BC0E6E0F7
:100D5A00EA930E940201E894F2F8E0919301ED7F90
:100D6A00E0939301403041F00E94F5114E2F40303C
:100D7A0019F4E0E0E093A101283CE0E03E0710F41A
:100D8A00103009F01BC00E945A051E2FE894979B49
:100D9A006894A2B3A7F9A2BBE3E0E51579F4E0E011
:100DAA0020FCE1E0AE2FE0E0F0FCE1E0EA1731F0F0
:100DBA000E94270E0E94020520FAF0F80E94E7120C
:100DCA0020F40E949A12309709F416C00E943F1329
:100DDA00A130E8E0BE0730F00E943F13A030E0ECFB
:100DEA00BE0708F004C0E0919201EF7703C0E091DA
:100DFA009201E068E09392010E94860440906001AB
:100E0A00A42DE3E00E9463155E2F503039F40E944E
:100E1A004413E093F401F093F50117C0513059F4EB
:100E2A000E9449130E940015EA0FFB1FE093F40188
:100E3A00F093F5010AC00E9449130E940015AE1BE7
:100E4A00BF0BA093F401B093F501A0919F01A130CB
:100E5A0010F1A0919F01AE3218F0EDE2E0939F01EC
:100E6A00E0919F01ADEA0E947A15EA1BF0E0FA933D
:100E7A00EA93ADE8B1E0E0919F01F0E0AE1BBF0B51
:100E8A00BA93AA93E0919F01EA930E943D10E093DE
:100E9A009F010C942D06E091A501E77FE093A5013F
:100EAA00A091A601E0ECEA23E03CC1F4A091A601DE
:100EBA00EFE1EA23E09360010E9408134090600189
:100ECA00E3E0E51511F4E0E101C0E0E0E09361013F
:100EDA000E940F130E944E130C942D06A091A60196
:100EEA00E0ECEA23E038D9F4E091A601EF73E0934D
:100EFA00A601A091A601A03141F0A091A601A030BF
:100F0A0021F0A091A601A03241F4E091A601E0935C
:100F1A0061010E940F130E944E130C942D06E0915A
:100F2A00A401E03011F00E94DB12A091A101A130CE
:100F3A0020F0A091A101A03508F0E2C00E945A0158
:100F4A00E3E0E515A1F4A091FA01A63019F00E9498
:100F5A00E602F9CF0E94DB12E091A301E03021F40E
:100F6A00A091F801A03019F00E94A401F5CFE091F8
:100F7A00A101E13021F4E0E5E093A101BFC0E23034
:100F8A0049F4E3E0E51511F40E940205E0E0E0937C
:100F9A00A101B4C0E33001F50E94F00AE030E1F7A4
:100FAA00E3E5EA93E4E6EA93E1E0EA930E94B40A0D
:100FBA000E94F00AE030E1F7E0918701F0E00E9438
:100FCA003413E3E50E94AD120E94F00AE030E1F723
:100FDA00E0E0E093A10192C0E43071F4E1E0E09333
:100FEA00A301A091A301A13019F40E94A401F9CF91
:100FFA00E0E0E093A10182C0E530D9F40E94F30A4F
:10100A00309721F00E94D01209F0F8CF0E94C9123D
:10101A00E0918101EA930E949B0A0E94F30A3097A9
:10102A0021F00E94D01209F0F8CFE0E0E093A1018C
:10103A0065C0E730D9F4E3E0E515A1F404E1013035
:10104A0088F00E948101E03059F40E940B0F0E943F
:10105A00E212A03FEFEFBE0710F40E94181302C07D
:10106A000150EDCFE0E0E093A10148C0E83049F437
:10107A00E2E0E51511F40E940311E0E0E093A1011A
:10108A003DC0E93081F4E2E0E51549F4EEE1E09390
:10109A007D01E2EDF0E00E9403130E940311E0E0FB
:1010AA00E093A1012BC0EA30A1F4E2E0E51569F46E
:1010BA000E946811E03041F40E94F5114E2F403031
:1010CA0019F4E0E0E093A10103C0E0E0E093A1019C
:1010DA0015C0EB3049F4E2E0E51511F40E94AD11B8
:1010EA00E0E0E093A1010AC0EC3041F4E2E0E5154A
:1010FA0011F40E94C411E0E0E093A1010C942D06C2
:10110A00E091A101E03029F5E0E0E093A401E3E0F9
:10111A00E515D1F4A091FA01A63029F00E945901EF
:10112A000E94E602F7CFE091A301E03021F4A091FA
:10113A00F801A03029F00E9459010E94A401F3CFBE
:10114A000E945C0E0E940B0FE0E0E093A4010C9455
:10115A002D06E3E0E51511F00C942D06E091A301AC
:10116A00E03041F00E94DB120E94A4010E948C022E
:10117A000C942D06A091A101A03521F40E94E6024B
:10118A000C942D060C942D06FFCFBD9ABF9ABC9ADB
:10119A00BE98C49AEEB1EFB1E1E0EEB9E1E5EDB97E
:1011AA0008950A93C498E981EFB9779BFECF0FB1EE
:1011BA00088109C0E981F070EA93F3DFE881F981D7
:1011CA00F070EA93EEDF22960895EB810E945513A0
:1011DA000E945C130E9405150E945513E881F9814B
:1011EA00EF2F0E9455130E945C130E94551338C0BA
:1011FA00C498E0E0EFB9779BFECFEFB1089524974A
:10120A00F7DFFF27662777270E9461137F936F9383
:10121A00FF93EF93EDDFAF91BF918F919F910E9462
:10122A006D137F936F93FF93EF93E2DFAF91BF91BB
:10123A008F919F910E946D137F936F93FF93EF930A
:10124A00D7DFAF91BF918F919F91FF2766277727AD
:10125A000E94C214E883F9836A837B830E945C1329
:10126A00249608950A9304E1013018F0DC9801509D
:10127A00FBCF04E1013018F0DC9A0150FBCF099151
:10128A0008950E946D121A930A930E94211331F055
:10129A00E091FF01EF5FE093FF01E150E091AA01C5
:1012AA00F091AB01309711F40C94B709AAEAB1E0B6
:1012BA00ED91FD913197FE93EE93A091FE01A3303B
:1012CA0011F00C94B609E0916101E03071F520FE4D
:1012DA0017C0A0916001AB3039F40E9473130E94C9
:1012EA00F514EA55F5400AC0A0916001AF3039F40F
:1012FA000E947313EE0FFF1FE050F6408F0114C0D7
:10130A00A0916001AB3029F40E9473130E94F51476
:10131A0008C0A0916001AF3039F40E947313EE0F38
:10132A00FF1FE654F5408F0112C020FE08C0E0916D
:10133A00FD01A3E0EA9FF001EA55F54007C0E091FC
:10134A00FD01A3E0EA9FF001E654F5408F011DBDBF
:10135A000CBDE3E0EEBDE9B7E460E9BFE1E0E0938C
:10136A00FE010DC00E94211309F44398E9B7EB7FEF
:10137A00E9BFE0E0EEBDE3E0E093FE01C19A099126
:10138A0019910E947F121895AA93EA93FA93EFB7DC
:10139A00EA93A091FE01A13021F4ECB5FDB5F097D6
:1013AA0008F009C0C198E8EFFFEFFDBDECBDE2E02F
:1013BA00E093FE0109C0C19AE3E0E093FE01E0E098
:1013CA00EEBDE9B7EB7FE9BFE991EFBFF991E9918A
:1013DA00A99118950E947713E091A901E03011F4C0
:1013EA000C945B0AE091A901E150E093A901EF5F37
:1013FA00E091A801E03049F0E091A801E150E093C2
:10140A00A801EF5FE6E5F0E002C00E948513E491CF
:10141A00E2BF28DF23FC49C0A091A701A735B1F498
:10142A00A091A901A23390F4E2E0E51511F498998C
:10143A0001C003C0E0E0E093A901E3E0E51511F47F
:10144A00829901C003C0E0E0E093A901A091A7013D
:10145A00A335B1F4A091A901A23390F4E2E0E51515
:10146A0011F4999901C003C0E0E0E093A901E3E017
:10147A00E51511F4839901C003C0E0E0E093A901E6
:10148A00E3E0E51529F4829902C0839B01C001C0FB
:10149A0001C009C0E2E0E51529F4829902C0839BE4
:1014AA0001C001C002C0689422F83AC022FE13C0EB
:1014BA00A091A701A33529F4E0919201E77FE09377
:1014CA009201A091A701A73529F4E0919201EB7F3F
:1014DA00E09392011CC024FC08C0689424F8E4E656
:1014EA00E093A9010E948B131895A091A701A33537
:1014FA0029F4E0919201E860E0939201A091A7019A
:10150A00A73529F4E0919201E460E093920123FC6B
:10151A0002C0D89AD99AE0E0E3BFE9B7EE7FE9BF03
:10152A000E948B131895E091FF010895E881E093DA
:10153A00FD01A881A93C18F0E8ECE093FD01E0E088
:10154A00E093FF01E981FA81E093AA01F093AB01EC
:10155A00E3E0E093FE01EBE1E8B9239608950A93EC
:10156A000AE0A0917F01A01720F0E02FE150E0935C
:10157A007F01EA81E093A901E9E1E093A801E98109
:10158A00E03011F0689401C0E89423F8EB81E0930D
:10159A00A701DD9ADA9ADB9AE091A701E73519F4F7
:1015AA00D99AD89807C0E33519F4D89AD99802C0BD
:1015BA00D89AD99A00E8013010F00150FCCF0E9465
:1015CA008513E491E2BFE5E0E3BFE9B7E160E9BF73
:1015DA00088124960895E091A9010895E091AA014D
:1015EA00F091AB0108950E9477131A930A930BB1F5
:1015FA001CB1E02FEC7121F41A93E0E0EA9301D1D7
:10160A00099119910E948B131895AA93EA93FA9358
:10161A00EFB7EA93E0912502E030B1F0C09AE150C9
:10162A00E0932502E0912402F0E0ED5FFD4FE081B6
:10163A00ECB9A0912402AF5FA0932402A03219F45E
:10164A00E0E0E093240201C0C098E991EFBFF9916C
:10165A00E991A9911895E0916201E03009F418C066
:10166A00E13021F4E0E0E0BDE7E015C0E23021F42A
:10167A00E0E0E0BDEBE00FC0E33021F4E0E0E0BDE4
:10168A00E7E109C0E43021F4E0E0E0BDEFE203C0A5
:10169A00E0E0E0BDE3E0E9B90895C098E0E0E09356
:1016AA002302E0932402E0932502E0932602E093CA
:1016BA002702E0932802F894E0E0EBB9E8EDEAB9F2
:1016CA00E6EAE0BDC8DF0895A0912502A032E0F75E
:1016DA00C09AF894E0912502E03011F45D9917C0A0
:1016EA00E0912302F0E0ED5FFD4FA881A083A09175
:1016FA002302AF5FA0932302A03219F4E0E0E09343
:10170A002302E0912502EF5FE093250202C0E881FF
:10171A00ECB9789474C0A981A150A983AF5FA130B4
:10172A0040F0AA81BB81ED91AA83BB83EA93CCDF07
:10173A00F2CF1FC20A93A981BA811197A983BA83EA
:10174A0011960E947E1530F40AE0013010F0015023
:10175A00FCCFF1CF088123960895A881B98111970A
:10176A00A883B98311960E947E1530F4E4E6F0E06E
:10177A00FA93EA93DFDFF1CF00C10A9300E0A9816F
:10178A00A150A983AF5FA13038F0AA81BB81ED9146
:10179A00AA83BB830E0FF3CFE02FE095EF5F0E2FE6
:1017AA00E02F0881E6C1C0D7EA5AFD4FFF93EF93B5
:1017BA00C0D7E3DFEF93B8D7C7D7DFDFAF91EA0F20
:1017CA00AF91BF91EC93B5D70E94B813ADD7A5E4FA
:1017DA00B2E0AE0FBF1FAC91A13018F0A5D7B4D7B5
:1017EA00C2D7A2D7EA5AFD4FFA93EA93E1E0EA9305
:1017FA00BAD7E894969B6894A2B3A6F9A2BB21969D
:10180A000895B5D7E83009F4B8C0B1D7E73071F513
:10181A008BD7E15CFD4FA981A083E881A7E1EA9F0C
:10182A00F001E75DFD4FFA93EA93E6E0EA93A5DF5C
:10183A00EF937AD7E15DFD4FFA93EA93AA819DD798
:10184A00EA939BDFAF91AE0FEFEFEA23AE2FE98168
:10185A00EA1741F49BD7A85ABD4FE8E0EC93E88118
:10186A00EA938DD0A881B0E094D787C080D7E630BC
:10187A00C1F45AD793D797D7E0819AD79DD7A95A57
:10188A00BD4FEC91EF5FEC938ED780814DD797D700
:10189A00EC91E81729F47AD7A85ABD4FE7E0EC9300
:1018AA006CC065D7E530E1F4A981A131B0F43CD729
:1018BA00E25DFD4F81D7A95ABD4FE0E0EC93E98183
:1018CA00E03029F463D7A85ABD4FE7E004C05ED7D9
:1018DA00A85ABD4FE6E0EC9302C058D75AD74DC07C
:1018EA0046D7E43049F420D7E35DFD4F65D7A85ABF
:1018FA00BD4FE5E0EC9341C03AD7E33049F414D741
:10190A00E45DFD4F59D7A85ABD4FE4E0EC9335C0CA
:10191A002ED7E23049F408D7E55DFD4F4DD7A85AD6
:10192A00BD4FE3E0EC9329C022D7E13019F4A98135
:10193A00A83609F006C02AD7A85ABD4FE2E0EC93B0
:10194A001CC015D7E13019F4A981AE3F09F006C0D1
:10195A001DD7A85ABD4FE1E0EC930FC008D7E0307D
:10196A0019F4A981AE3F09F006C010D7A85ABD4F95
:10197A00E1E0EC9302C00AD70CD7229608950A93A5
:10198A00A0916101EFE0EA23E0580E2F1DD721D77D
:10199A00AC914A1621F01DD7AC910A1769F4E0E61A
:1019AA00F1E0FA93EA93EB81EA9309D0E894959BE4
:1019BA006894A2B3A5F9A2BB0881229608950A9356
:1019CA0003D70CD7A63419F4EDE2E0939F01FCD6B5
:1019DA0005D7A735F9F400E0A981CFD60E17D0F4C0
:1019EA00F3D602D7EC91AA81BB81E2D606D708D7F3
:1019FA00FBD6AC91A13428F0E7D6F6D6AC91A53443
:101A0A0008F006C0E0919B01EF5FE0939B01E15073
:101A1A000E5FE2CFD9D6E2D6A835C9F400E0A98193
:101A2A00ACD60E17A0F4D0D6DFD6EC91AA81BB8132
:101A3A00BFD6E3D6E5D6D8D6EC91AA81BB8111965A
:101A4A00B7D6DBD6E02FEE5FE4D60D5FE8CFBCD683
:101A5A00C5D6A23539F5B8D6E3D6E8D6EBD6A4E48E
:101A6A00B2E0AE0FBF1FE7E5EC93AED6EDD6EC9130
:101A7A00EE0FDB01EC9300E0A9817FD60E1778F414
:101A8A00A3D6E8D6F0D6F1D6D1D6E4D6EF5FEBD618
:101A9A00ECD6EC91AA81BB81BCD60F5FEDCFE98170
:101AAA00EA9381DE91D69AD6A33599F58DD6B8D622
:101ABA00BDD6C0D6A4E4B2E0AE0FBF1FE8E5EC93F2
:101ACA0083D6C2D6AC91E3E0EA9FF001DB01EC9346
:101ADA0000E0A98152D60E17C8F476D6C9D6C3D665
:101AEA00C4D6A4D6C5D6EF5FBED6BFD6EC91AA811E
:101AFA00BB818FD669D6BCD6EE5FB5D6B6D6EC9189
:101B0A00AA81BB81119685D60F5FE3CFE981EA935B
:101B1A004ADE08812EC0B5D6E0E0F0E060E070E26F
:101B2A00B4D6E1E0F0E09BD5ACD6E0E0F0E060E0CE
:101B3A0070E0ABD6EBE0EA9334DB61DB08950A93FD
:101B4A0002E1013028F0EFEFEA932BDB0150F9CFE5
:101B5A00EEEFEA9326DBDFDF0991089592D6EA8158
:101B6A00FB81FA93EA9326DBE881F981FA93EA93F7
:101B7A0021DB24960895E0ECEA9313DB08950E9492
:101B8A008A151B812C81B69B02C0EFEF0FC081D64C
:101B9A0004E0013050F02F931F931F5F2F4F28DB73
:101BAA00AF91BF91EC930150F4CFE0E00E94911500
:101BBA002596089528971A930A930B851C85E0E0C9
:101BCA00EE83EF83E887E98768D6AA81BB818C8197
:101BDA009D81E8E10E94DD146CD6EA81FB816C816B
:101BEA007D810E940A156AD664D6AA81BB818C813E
:101BFA009D81E8E00E94DD1461D667D6D801EC9198
:101C0A00AE81BF8188859985FF27662777270E943D
:101C1A00C2145BD6E1E0EA93C4DAEE81FF816885FB
:101C2A00798533D6E2E0EA93BCDAEA85A1E00E943C
:101C3A00CC14EA93B6DA2DD62CD62BD61981088184
:101C4A002D960895B69B02C0EFEF0895EFEFEA9341
:101C5A00A8DAD5DAE0E0089524970E948915FE01F2
:101C6A003496FA93EA938BDFE03019F0EDEFFFEF49
:101C7A001AC0EF81E03041F0E0919201E062E09316
:101C8A009201ECEFFFEF0FC0E0919201EF7DE0933C
:101C9A0092012C813327F22FE0E08F01ED81D801E8
:101CAA0087D58F01F8010E949015289608952697E6
:101CBA000E948715A0917E01A33010F4E3E008C0CA
:101CCA00A0917E01A13210F0E0E202C0E0917E0113
:101CDA00EE83EE0FEE0FEF83BFDF9F01EDEFFFEF15
:101CEA00E217F30711F4E1E08DC0ECEFFFEFE21722
:101CFA00F30731F420938D0130938E01E2E082C024
:101D0A00E0916902EF5FE0936902E150E3D5AE0F1B
:101D1A00BF1F2D933C93A0916902A83018F0E0E010
:101D2A00E0936902A0916A02A43040F4E0916A0249
:101D3A00EF5FE0936A02D4D5E3E064C0D8D54430BB
:101D4A00B0F4A09169024A1728F4E0916902E150BF
:101D5A00E41B05C0E7E0E41BA0916902EA0F5E2FCD
:101D6A00E52FB8D5CBD5CFD5D3D54F5FE8CFCBD5D7
:101D7A00E4E0F0E060E070E00E943D15EF7FFF7F55
:101D8A00607070708F01B3D5443048F5A091690234
:101D9A004A1728F4E0916902E150E41B05C0E7E024
:101DAA00E41BA0916902EA0F5E2FE52F93D5A6D511
:101DBA00E017F10740F4E52F8DD5A0D5DF01F80132
:101DCA00EA1BFB0B05C0E52F85D598D5E01BF10B67
:101DDA00A885B9858A859B859BD54F5FD5CFEF812D
:101DEA0092D5FF27662777270E94821530F478D587
:101DFA00E4E0E0936A02E3E005C000938D011093EA
:101E0A008E01E0E00E948E152C9608952E970E946E
:101E1A00871530D4A13FEFEFBE0718F086D381D5DE
:101E2A00BCC000E00530B0F481D5EA0FFB1FFF9378
:101E3A00EF9300801180DDD3A0919D01B0919E01A6
:101E4A00EA1BFB0BE00DF11DAF91BF91ED93FC93E3
:101E5A000F5FE8CFCED3E0939D01F0939E01EFEFA1
:101E6A00FFEFEA8BFB8B10E000E00530D8F45ED57B
:101E7A0045D500D4EA17FB0720F458D53FD5FAD345
:101E8A0004C054D53BD5DF0150D3AE1BBF0BAD0107
:101E9A00EA89FB894E175F0718F44A8B5B8B102F70
:101EAA000F5FE3CF4AD5DF01A4D3AE17BF0748F4CB
:101EBA00EAEFFFEF36D5E0919201E064E0939201F8
:101ECA006CC03BD5DF0195D3AE1BBF0B9D01D2D3AE
:101EDA0090D3AE17BF0730F4E0E0EE87EF87E88BC8
:101EEA00E98B0DC022D3A0917701B0917801EA1B4A
:101EFA00FB0B66277727EE87FF87688B798BA3E62C
:101F0A00B1E0E12FF0E0EE0FFF1FF8D4DF01EE851C
:101F1A00FF8568897989882799270E940F15EA879A
:101F2A00FB876C877D87AA85BB858C859D85E6E0C6
:101F3A000E94DD14EA87FB876C877D87F901AA85F1
:101F4A00BB858C859D85662777270E943D15BDD464
:101F5A00AE81BF8188859985E6E00E94E914E1D4C3
:101F6A002CD3A13FEFEFBE0748F0EAEFFFEFD9D439
:101F7A00E0919201E064E09392010FC0EE81FF814B
:101F8A0068857985EF73F07060707070E0939101E5
:101F9A00E0919201EF7BE09392010E948E15649684
:101FAA00089596D2A091FD02A03069F1E199FECF81
:101FBA00E091FC02A3E0EA9FF001E559FD4FDF0141
:101FCA000E946615FFBBEEBBA091FC02E3E0EA9F0C
:101FDA00F001ADE6B2E0AE0FBF1FEC91EDBBE29AA5
:101FEA00E19AE091FC02EF5FE093FC02A091FC020F
:101FFA00A03318F0E0E0E093FC02E091FD02E1502A
:10200A00E093FD0201C0E39875D21895A091FD02F4
:10201A00A03319F4EFEF23960895F894E091FB02A8
:10202A00A3E0EA9FF001E559FD4FA981BA81A08397
:10203A00B183A091FB02E3E0EA9FF001E359FD4F6F
:10204A00A881A083E091FB02EF5FE093FB02A091DD
:10205A00FB02A03318F0E0E0E093FB02E091FD02FE
:10206A00EF5FE093FD02E39A7894E0E02396089507
:10207A000A93A981A13078F1EC81FD81FA93EA9360
:10208A00EDB7FEB7FA93EA930F933AD00F91E03087
:10209A0011F0E98121C0AA81BB81EC91E01769F0B6
:1020AA00EC81FD81FA93EA93AC81BD81EC91EA93CC
:1020BA00ADDFE03011F0E9810FC0E981E150E98339
:1020CA00EC81FD813196EC83FD83EA81FB813196B7
:1020DA00EA83FB83CECFE981088126960895A881F9
:1020EA00A150A883AF5FA13040F02ED42DD408D0E0
:1020FA00E03011F0EFEF02C0F2CFE0E0259608954C
:10210A00E19B02C0EFEF0AC0EA81FB81FFBBEEBB95
:10211A00E09AEDB3A881B981EC93E0E024960895A2
:10212A00E0E0ECBBE093FB02E093FC02E093FD02EB
:10213A00089513D4E871F070309719F4C59AC79AC4
:10214A001CC0E830A0E0FA0739F4E4E0EA930E9400
:10215A000201C59AC79A11C0E031A0E0FA0739F422
:10216A00E4E0EA930E940201C598C79806C0E831E4
:10217A00A0E0FA0711F4C598C7980895B3D2E09180
:10218A009A01EF5FE0939A01E150EAB7E064EABF8F
:10219A00E2E0E51529F0EBB7EF7BEBBFB7D2189574
:1021AA00829B0BC0E0910303E07629F0D6D3E07658
:1021BA00F070B09709F4BDDF09C0CFD3E076E036FE
:1021CA0021F0CBD3E076E03409F4B3DFE0910303E6
:1021DA00E27021F4E091FF02E03059F0829B04C0E2
:1021EA00E091FE02E26003C0E091FE02E160E0934A
:1021FA00FE02E0E0E093020389D2189540D2E09310
:10220A000303F0930403E0917D01F0E0E0930503FA
:10221A00F0930603A0910503B0910603119730F4D9
:10222A00E1E0F0E0E0930503F093060396D3E0784B
:10223A0019F48A9818D20895E0910703E03099F4C6
:10224A008A98E5B7EB7FE5BFE5B7E160E5BFEAB796
:10225A00EF7BEABFEBB7E064EBBFE0E0E093FE029E
:10226A00E1E0E0930703E7B3E06FE7BB7BD321F03C
:10227A00E830A0E0FA0721F4E8B3E06FE8BB0BC04E
:10228A00E031A0E0FA0721F0E831A0E0FA0719F4FA
:10229A00E8B3EF70E8BB61D3E070F770EF2FF0E0BE
:1022AA003196E0930103E0E0E0930203E091030337
:1022BA00E17019F0E3E0E093FE02E0E0E093FF0250
:1022CA00E093000308950A9300E0E0910303E078A5
:1022DA0021F0E0910003E03009F037C00FEF3DD361
:1022EA00E076F070309769F482990AC0E091FE02B4
:1022FA00E17009F004C0E6E9F0E0B1D1829B00E0A8
:10230A0024C0E036A0E0FA0769F4829B0AC0E09193
:10231A00FE02E27009F004C0E6E9F0E0A0D1829979
:10232A0000E013C0E032A0E0FA0731F4E091FE02C7
:10233A00E27009F000E009C0E034A0E0FA0729F4ED
:10234A00E091FE02E17009F000E0E02F09910895A2
:10235A0009D321F0E830A0E0FA0711F4C49809C0C3
:10236A00E031A0E0FA0721F0E831A0E0FA0709F429
:10237A00C49AE1E0E093FF02E3E0F9D20895F2D2D1
:10238A0021F0E830A0E0FA0711F4C69809C0E0315C
:10239A00A0E0FA0721F0E831A0E0FA0709F4C69AAA
:1023AA00E5E0E5D20895DED219F4C598C79817C0BA
:1023BA00E830A0E0FA0729F4C598C798E4E0D7D234
:1023CA000EC0E031A0E0FA0729F4C59AC79AE4E002
:1023DA00CED205C0E831A0E0FA0709F4C59A0895FB
:1023EA001A930A93A091C001E4E0EA2311F0EFEFF7
:1023FA006CC0E0910803E03049F0D5DFE0E0E093FB
:10240A000803E1E0E0930903EFEF5FC0E0910903FD
:10241A00E03091F0A091C001E0E1EA2311F0EFEF82
:10242A0054C0E0E0E0930903E0919C01EF5FE09380
:10243A009C01E150E0E049C0E0E0E093FF02E09156
:10244A000203EF5FE0930203E150A0910203E091DF
:10245A000103AE1740F4E3E0E093FE02E1E0E0930B
:10246A000003E0E032C0E0E0E093FE02E093000304
:10247A00E0930203E0910403E87FC9F06ED2E070B2
:10248A00F87F0E94FE14EF2FF0E08F01A4E1A09FD5
:10249A00F001A19FF00D8F01E2E0EA931A930A93EB
:1024AA000E94D400E1E0E0930803EFEF0EC0A09190
:1024BA00C001E4E0EA2321F0E2E0EA930E9402018B
:1024CA0072DFE1E0E0930903EFEF099119910895B2
:1024DA000A921A92AA93BA93EA93FA93EFB7EA93F3
:1024EA000895E02FA0EBB1E0F0E0EE0FFF1FAE0F72
:1024FA00BF1F0895E991EFBFF991E991B991A991A7
:10250A00199009900895A0EBB1E0F0E0EE0FFF1FDB
:10251A000895EA93E2E3F0E0FA93EA930C94D40084
:10252A00A091C001E1E0EA230895E0918D01F091C4
:10253A008E010895EA93E4E6EA93E1E0EA930E94C1
:10254A00B40AE1E00895F0E0FA93EA930C94D40017
:10255A00EA93E2E8EA93E0E0EA930C94B40AFA9385
:10256A00EA930C94D400E22FA1ECB1E0F0E0EE0F74
:10257A00FF1FAE0FBF1F0E9466150895E091F40178
:10258A00F091F50130970895E0918201F09183016D
:10259A00FA93EA9308950E94F30AEF3FAFEFFA071E
:1025AA000895A091C001E2E0EA230895EEEFFFEF5B
:1025BA00E0938F01F09390010895A0918F01B0915B
:1025CA0090010895A0918D01B0918E01A03FEFEF87
:1025DA00BE070895E02FA1ECB1E0F0E0EE0FFF1F77
:1025EA00AE0FBF1F0895E093A501E0E0E093A601B6
:1025FA000895E0917701F09178010895E0937901C7
:10260A00F0937A010895E0916001E0937B01E093F1
:10261A008B010895E0916101E0937C01E0916101F1
:10262A00E0938C010895EDE2E0939F01E091A5010A
:10263A00E860E093A5010895A091C001E0E8EA23CB
:10264A00089520F8E0919201EE7FE0939201E091E3
:10265A0093010895E0E4F0E0FA93EA930895FA9377
:10266A00EA930C94B20BE7B3E06FE7BBE8B3E06F11
:10267A00E8BB0895A0918D01B0918E010895E09173
:10268A007901F0917A010895A0917901B0917A01C6
:10269A00F6CFEDE2E0939F01E091A501E860A3CFB8
:1026AA00EF7FF07060707070EA930C94D608E8813E
:1026BA00F9816A817B810895E883F9836A837B8340
:1026CA00A881B9818A819B81E8E00E94DD1408957E
:1026DA00FF27662777270E94C214EECFE091FD01FB
:1026EA00F0E008950A921A92FA926A937A938A9378
:1026FA009A93AA93BA93EA93FA93EFB7EA9308954F
:10270A00E0917F01F0E0EA5AFF4F0895E991EFBFA7
:10271A00F991E991B991A9919991899179916991DF
:10272A00F990199009900895A881E7E1EA9FF001CC
:10273A000895E881A7E1EA9FF001E05CFD4FFA9372
:10274A00EA93E6E0EA930895EA5BFD4FFA93EA9387
:10275A00AA81E7E1EA9FF001A5E4B2E0AE0FBF1F4C
:10276A00EC91EA930895EB81EA930C94900BE8813B
:10277A00F0E0E85AFD4FE0810895E7E1EA9FF001B1
:10278A00AEE2B2E0AE0FBF1FEC910895A881B0E0AF
:10279A000895A85ABD4FE0E0EC930895AFE2B2E085
:1027AA00AE0FBF1F0895E881F0E0E95AFD4F089582
:1027BA00F0E0EA0FFB1F0895A981A083E7CFAEE2FC
:1027CA00B2E0AE0FBF1F0895A981E7E1EA9FF001C9
:1027DA000895ACE2B2E0AE0FBF1F0895ADE2B2E0D9
:1027EA00AE0FBF1FAC910895AFE2B2E0AE0FBF1FAC
:1027FA00E02FF0E0AE0FBF1F0895BF01F001CECF6A
:10280A00E02FEF5FF0E0AE0FBF1FEC91DB01EC931E
:10281A00DBCFF0E0AE0FBF1FEC91DB01EC93089524
:10282A00DF01EE5BFD4FBF01FD01D3CFEC91DB0170
:10283A00EC93CACFDF01ED5BFD4FBF01FD01ABE2B7
:10284A00B2E0AE0FBF1FF2CFDF01EB5BFD4FBF015E
:10285A00FD01B5CFCF01EA5BFD4FBF01E02FA2E03A
:10286A00EA9FF0010895DB01A3CFBF01FC01BCCFB1
:10287A00CF01EA5BFD4FBF01E02FA3E0EA9FF00121
:10288A000895E3E0EA930C94D6080E9475150C9417
:10289A00EA08E0E0EA930C94D608D8010F5F1F4FCC
:1028AA00EC91FF2766277727EA83FB836C837D8376
:1028BA000895EE83FF8368877987EFCFAE81BF8162
:1028CA00888599850E94C2140895EE83FF836887DC
:1028DA0079870895A9E5B2E0F0E0EE0FFF1F0895A9
:1028EA00EBEFFFEFE0938D01F0938E01089540E046
:1028FA00E0E0E887E987EA87EB870895AE0FBF1F14
:10290A000E9466150895A885B9858A859B850895CC
:10291A00662777270E94C214E887F9876A877B8728
:10292A000895E0938F01F09390010895ADE6B1E028
:10293A00E02FF0E0EE0FFF1F0895ADE6B1E0E12FC2
:10294A00F0E0EE0FFF1FDACFEB81FC813196EB83CB
:10295A00FC833197FA93EA930895E0910303F09187
:10296A0004030895FADFE871F07030970895EA9346
:10297A00E0910503F0910603F2CDEA0FFB1F681FF1
:10298A00791F0895EA2BFB2B682B792B0895EE23E8
:10299A000E2EEA2F19F0EE0F0A94E9F70895EE23A6
:1029AA000E2EFD0121F0EE0FFF1F0A94E1F70895A4
:1029BA00EE230E2EFD01BC0131F0EE0FFF1F661F44
:1029CA00771F0A94D1F70895EE230E2EFD01BC015C
:1029DA0031F076956795F795E7950A94D1F70895BA
:1029EA00EE0FFF1FEE0FFF1FEE0FFF1FEE0FFF1F71
:1029FA000895F695E795F695E795F695E79508957E
:102A0A00E62FF72F60E070E008956E2F7F2FE0E049
:102A1A00F0E008957A9F702D6B9F700DF89F700DEE
:102A2A00E99F700D6A9F602D710DFB9F600D711DEE
:102A3A00E89F600D711D8827FA9FF02D610D781FA0
:102A4A00EB9FF00D611D781FEA9FE02DF10D681FC5
:102A5A00781F0895002498E0AA0F001C0E1A10F49B
:102A6A000E0E01C0A1609A95B9F7EA2FA02D08951C
:102A7A003F934F935F93002411243327442750E256
:102A8A00AA0FBB1F881F991F001C111C331F441F4C
:102A9A000E1A1F0A360B470B28F40E0E1F1E361F7E
:102AAA00471F01C0A1605A9559F7FD01BC01D00129
:102ABA00832F942F5F914F913F910895CBDFEA2F97
:102ACA000895ED91FC9111970895ED91FD916D9105
:102ADA007C9113970895ED93FD936D937C930895DC
:102AEA007A936A93FA93EA9308951A2EAE2FE12DF8
:102AFA00089500240A160B060895EA17FB076807CB
:102B0A00790708955A934A933A932A931A930A9300
:102B1A0008955D814C813B812A811981088108953C
:00000001FF
