:040000000C94440018
:100004000C94D3100C9400000C9400000C94740015
:100014000C9400000C9400000C9400000C940F0944
:100024000C943B090C9400000C94E50A0C94000019
:100034000C94F70A0C9400000C940B100C94C30855
:100044000C9400000C9400000C9400000C9400002C
:100054000600E8EEF0F2F4F5F6F7F8F9FE006800B1
:10006400FE0068000100C70154000100F5016000B2
:100074000100F601620001000C02640001000D029F
:1000840066000000F894EE27ECBBF1E0FBBFEBBF89
:10009400E5BFF8E1F1BDE1BD8DE0A2E0BB27ED9342
:1000A4008A95E9F780E094E0A0E6ED930197E9F7FB
:1000B400E8E6F0E085919591009761F0A591B591FE
:1000C40005901590BF01F00105900D920197E1F79D
:1000D400FB01F0CFEFE5EDBFE4E0EEBFC0E6D1E019
:1000E4000C948D050E944F120A93E8B7E064E8BFB0
:1000F400E8EBE4BDE091C201E03011F40C94CA00D5
:1001040000E0083010F00C94C900E02FA1E00E9438
:10011400CE14A091C201EA23C1F10E9458120E9498
:100124005315309741F00E945812ED91FD9131978B
:10013400FE93EE932AC0E02FE33039F4E894C49B95
:100144006894A8B3A4F9A8BB14C0E43039F4E894C3
:10015400C59B6894A8B3A5F9A8BB0BC0E53039F4D6
:10016400E894C69B6894A8B3A6F9A8BB02C0E6307D
:1001740001F4A2ECB1E0AF931C90E02FA1E00E9447
:10018400CE14E095E121AF91EC930F5FBACF03C099
:10019400E9B7EF7BE9BF09910E9461121895AA8122
:1001A400A83020F4E881F981309711F4239608955A
:1001B400F894EA810E946A12EA0FFB1FA881B981B0
:1001C400A083B183A2ECB1E0AF931C90EA81A1E0DB
:1001D4000E94CE14E129AF91EC937894E9B7E074CE
:1001E40051F4F894E8EBE4BDE8B7E064E8BFE9B79C
:1001F400E064E9BF789423960895A2ECB1E0AF934C
:100204001C90E881A1E00E94CE14E095E121AF9119
:10021400EC93E8810E946A12AE0FBF1FE0E0F0E0A9
:10022400ED93FC9321960895E5E0E3BFE2EFE2BF8E
:10023400E0E0EFBDE3E0EEBDE0E0EDBDECBDE7BD29
:10024400E6BDEBBDEABDE9BDE8BDE2BDE7E0E5BD65
:10025400E0E0E4BDE3BDE9BF0895EFE3EBBBEFEB02
:10026400EABBE2E1E8BBE3EBE7BBE0ECE5BBE0E0E3
:10027400E4BBE2EFE2BBE1BBE0E0E5BFE4BFE9BF22
:10028400E3E0E8B9E0E0E0BF949A979A959A969AE9
:10029400E3B3E07CE295EF70E695E6955E2EE0E050
:1002A400E5BB089508950895E091C301F091C40158
:1002B4003196E093C301F093C401E881F981A091E0
:1002C400C301B091C401EA17FB0709F49498E881CB
:1002D400F981EE0FFF1FA091C301B091C401AE17C5
:1002E400BF0730F0949AE0E0E093C301E093C401C7
:1002F400229608950A9300917D01E0E0E0937D0148
:100304000E94370E00937D010E94701240F40E94F7
:100314007812E0937701F0937801E0E02CC3E1E0F8
:100324002AC3E091C501E03051F40E94990AE030FB
:1003340029F4E7E50E947D12E093C5010895A09198
:10034400C501A13091F40E94990AE03069F4A091AA
:100354008801A13030F0E0E0EA93E09188010E9446
:100364008612E2E0E093C5010895A091C501A23090
:10037400A1F40E948B1281F40E94901221F4E7E50B
:10038400EA93E2E803C0E7E5EA93E4E6EA930E942D
:100394009512E3E0E093C5010895A091C501A3304F
:1003A40091F40E94990AE03069F4A0918501A1308A
:1003B40030F0E0E0EA93E09185010E948612E4E0E7
:1003C400E093C5010895A091C501A43051F50E94A0
:1003D4008B1231F5C092AE01D092AF01E091800151
:1003E400E030E1F0E0918001D601F0E0EA17FB078C
:1003F40078F4CC24DD24E0E0EA93E4E6F0E00E9423
:100404009912E5E0E093C501E0E0E093C60105C080
:10041400F60131966F010E949D1202C00E949D1246
:100424000895A091C501A530B9F40E948B1299F4E6
:10043400E091C601EF5FE093C601E1500E947C01A8
:10044400E03021F0A091C601AB3028F00E949D124B
:10045400E0E0E093C60108950895A091C701A63095
:1004640031F40E94A312E7E0E093C7010895A0913C
:10047400C701A730B9F40E949C0A309719F00E9472
:10048400AB1269F4A0918401A13030F0E1E0EA9369
:10049400E09184010E948612E5E0E093C701E091B7
:1004A400C7010895A091C701A53049F40E94B11273
:1004B40019F4E0E0E093C701E091C7010895E091E9
:1004C400C70108950E942F02E73009F408950E949D
:1004D4002F02E53009F40895E091C701E030A9F452
:1004E4000E94990AE03081F40E94B6120E947012B0
:1004F40028F460908F017090900101C00895E3E5A5
:100504000E947D12E093C7010895A091C701A13014
:1005140091F40E94990AE03069F4A0918701A13016
:1005240030F0E1E0EA93E09187010E948612E2E074
:10053400E093C7010895A091C701A230A1F40E94DD
:10054400B11281F40E94901221F4E3E5EA93E2E807
:1005540003C0E3E5EA93E4E6EA930E949512E4E03B
:10056400E093C7010895A091C701A43091F40E94BB
:10057400990AE03069F4A0918601A13030F0E1E0FD
:10058400EA93E09186010E948612E9E0E093C701B4
:100594000895A091C701A93039F40E94B11219F449
:1005A400EAE0E093C7010895A091C701AA3011F0D1
:1005B4000C949D03E0E0E093A4010E94B812E6E0ED
:1005C400E093C701E89421F8E091A401E03011F030
:1005D4000C949A03E0E0F0E2FA93EA930E94560145
:1005E400A091A101A03521F4E091A301E03009F02C
:1005F4000895E3E0E51511F00C9495030E94B612FA
:10060400A091A501E2E0EA23E13011F421FE01C04A
:100614008AC00E94701210F00C94950380908F0190
:10062400909090016814790428F4F401E619F7090C
:100634005F0102C0AA24BB240E94BF12F695E7956D
:10064400AE16BF06D8F4A091B001AA3020F0A09154
:10065400B001A03828F0E091B001EE5FE093B00162
:10066400A091B101A43120F0A091B101A03828F0EB
:10067400E091B101EE5FE093B10153C00E94BF125B
:100684000E94F914DF010E94BF12F695E795EA0F64
:10069400FB1FAE16BF06D8F4A091B001AA3020F01B
:1006A400A091B001A03828F0E091B001EF5FE09391
:1006B400B001A091B101A43120F0A091B101A03802
:1006C40028F0E091B101EF5FE093B1012AC0F50198
:1006D400F695E795DF01F5010E94F914EA0FFB1F77
:1006E400A0917901B0917A01AE17BF07D0F4A0911F
:1006F400B101AC3E20F4A091B101A03828F4E091FE
:10070400B101E250E093B101A091B001A63F20F401
:10071400A091B001A03828F4E091B001E250E09338
:10072400B001689421F80E942F020E9454014CCF1A
:100734000E94B81208950895E0E0E093A101E093C7
:10074400A201E093A001E093A401E093A3010E941D
:10075400B812E0E0E0939F01E0939201E0E8E093B7
:100764009301E0E0E09394010E94C412A1E6B1E099
:10077400EC91EC930E94CA12E0939D01F0939E01C8
:10078400EE24E0E0E093C201689420F8E093B00125
:10079400E093B1010895EFEFE0936001E8E0E093A6
:1007A4007E01E0E0E0936201E2E1E0937D01E0E1BB
:1007B400E0936101E4E6F0E00E94CF12E4EEFCEB8A
:1007C400E0937701F0937801E8EBF1ECE0936D01AD
:1007D400F0936E01E2E3F0E0E0936301F0936401CF
:1007E400EFE8F6ECE0936F01F0937001E4E6F0E0DB
:1007F400E0936501F0936601EBE3F0EDE0937101A2
:10080400F0937201E8ECF0E0E0936701F093680183
:10081400E9EEF9EDE0937301F0937401ECE2F1E099
:10082400E0936901F0936A01E7E4FDEEE09375015A
:10083400F0937601E4EFF1E0E0936B01F0936C0147
:10084400E7E3E0938101EAE0F0E0E0938201F093D2
:100854008301E2E0E0937F01EAE0E0938401E09326
:100864008501E0938601E0938701E09388010E946B
:10087400D4120E94DB12EAEAE0938A010E94E41295
:1008840008950A9300E0A0916201A53020F0E0E011
:10089400E09362010FEFA0917B01E0918B01EA17D5
:1008A40031F4E0917B01A0916001EA1709F405C0DD
:1008B400E0917B01E09360010FEFA0917B01E09157
:1008C4006001EA1731F4A0918B01E0917B01EA17F2
:1008D40009F405C0E0917B01E0938B010FEFA09137
:1008E4008B01E0916001EA1731F4A0917B01E09162
:1008F4008B01EA1709F405C0E0918B01E0937B01B9
:100904000FEFA0917C01E0918C01EA1731F4A091E2
:100914006101E0917C01EA1709F405C0E0917C01D2
:10092400E09361010FEFA0917C01E0916101EA176E
:1009340031F4A0918C01E0917C01EA1709F405C01F
:10094400E0917C01E0938C010FEFA0918C01E09188
:100954006101EA1731F4A0917C01E0918C01EA175E
:1009640009F405C0E0918C01E0937C010FEF0030A5
:1009740011F00E94E4120991089524970E947D15B4
:10098400E3E0E51509F042C003E00130A0F10E9464
:10099400790DE030A0E0FA07A0E06A07A0E17A0749
:1009A40041F534E040E0A32FB42FEBE00E94D614CD
:1009B400F4603E2F4F2F20FE03C018E020E002C059
:1009C40010E020E02A931A934A933A930E94880DE8
:1009D400E8E0ED83E0E0EE83EF83E887FE013596FF
:1009E400FA93EA93E2E0EA930E94B40D0E94950D13
:1009F40002C00150CACF003021F0E0919201EF7E95
:100A040003C0E0919201E061E09392010E94841599
:100A140029960895A5E9B1E0EC91E070EC93A5E97D
:100A2400B1E0EC91E061EC9308950E947F1520E021
:100A34000E94ED1211F0E22F6AC0E091C901E0308A
:100A440011F50E949C0A309769F4E7E0EA93E2E327
:100A5400F0E00E949912E0E0F0E0FA93EA930E9439
:100A6400000A02C0E22F53C00E94990AE03011F03C
:100A7400E22F4DC00E94FD09E093C801E1E0E0933C
:100A8400C901E22F44C00E94FD090E2FE091C80164
:100A9400E01728F4A091C801E02FEA1B03C0E091FD
:100AA400C801E01B1E2FA9E9B1E0E12FEE0FFF27DB
:100AB400662777270E946215173110F01D3108F060
:100AC40008C068940E94F212EF7BE093930121E046
:100AD4001AC01D3110F0133208F008C0E8940E94C7
:100AE400F212E064E093930121E00DC0689420F8D1
:100AF400E0919201E160E0939201E0919301EF7B38
:100B0400E093930120E0E0E0E093C901E22F0E942A
:100B1400861523960895E894F1F850E0F2F80E94BF
:100B24002F010E9416010E94CA10E0E8F0E0FA9337
:100B3400EA93E0E6F1E0FA93EA93EDE2EA930E94A5
:100B4400A9100E949E030E940C050E94FB12EDB79F
:100B5400FEB7FA93EA931F930E94BA101F911F3FA6
:100B640051F00E94FB12EFEFEA930E944010EAE07A
:100B7400F0E00E940013A0918A01AA3A19F00E94A1
:100B8400CD0302C00E9443040E943F0BE3E0E5153D
:100B940049F47BD20E94BF0420FAF0F8E09193015B
:100BA400EF7D06C00E9404138A98E0919301E062ED
:100BB400E09393017894A0916001A03011F0A132E8
:100BC40018F0E0E2E093600140906001E7E0EA930E
:100BD400E1E0F0E00E94991230E040E020E0A091D2
:100BE400A001A130C8F0E091A001E295EF70EA30D5
:100BF40039F40E94FB12E091A001EA930E94401094
:100C0400F894A895E1B5E861E1BDE9E0E1BD789427
:100C1400E0E0E093A001FFCFE0E0F4E0FA93EA9390
:100C24000E9456013131E7E24E0718F030E040E00F
:100C340002C03F5F4F4FE0919701E070E09397014E
:100C4400E0919801E070E0939801A5E9B1E0BF93C9
:100C5400AF930E945715DF01CB01E32FF42F6627D2
:100C640077270E9408150E94C914AF91BF910E9472
:100C740062150E945401E2E0E51511F00C9481061E
:100C84000E947511E09394010E947511E030D1F037
:100C9400F2FC09C0E6E0EA93E8EEF3E00E94991260
:100CA4006894F2F80EC0A091C201E0E4EA2321F0B6
:100CB400E0919301ED7F03C0E0919301E260E09342
:100CC40093010BC0E6E0EA930E94FF00E894F2F877
:100CD400E0919301ED7FE0939301F1FC0BC0E2ED11
:100CE400F0E00E94CF12EEE1E0937D010E94191121
:100CF4006894F1F8503019F00E94FE115E2F383CD0
:100D0400E0E04E0710F4203009F01BC00E941705E4
:100D14002E2FE894979B6894A2B3A7F9A2BBE3E0B3
:100D2400E51579F4E0E020FCE1E0AE2FE0E0F0FC32
:100D3400E1E0EA1731F00E94020E0E94BF0420FA9B
:100D4400F0F80E94701220F40E947812309709F48F
:100D540016C00E940B13A130E8E0BE0730F00E94D9
:100D64000B13A030E0ECBE0708F004C0E091920140
:100D7400EF7703C0E0919201E068E09392010E9452
:100D8400430440906001A0919F01A13010F1A09113
:100D94009F01AE3218F0EDE2E0939F01E0919F01D4
:100DA400ADEA0E947415EA1BF0E0FA93EA93ADE809
:100DB400B1E0E0919F01F0E0AE1BBF0BBA93AA93A0
:100DC400E0919F01EA930E947210E0939F010C94BA
:100DD400F105E091A501E77FE093A501A091A601AB
:100DE400E0ECEA23E03CC1F4A091A601EFE1EA23A0
:100DF400E09360010E94D41240906001E3E0E515A5
:100E040011F4E0E101C0E0E0E09361010E94DB1233
:100E14000E9410130C94F105A091A601E0ECEA23C2
:100E2400E038D9F4E091A601EF73E093A601A09114
:100E3400A601A03141F0A091A601A03021F0A0911B
:100E4400A601A03241F4E091A601E09361010E9461
:100E5400DB120E9410130C94F105A091A101A130A2
:100E640020F0A091A101A03508F0D2C00E94550144
:100E7400E3E0E51581F4A091C701A63019F00E94C2
:100E84006402F9CF0E94B812E091A301E03019F096
:100E94000E949301F9CFE091A101E13021F4E0E552
:100EA400E093A101B3C0E23049F4E3E0E51511F4A5
:100EB4000E94BF04E0E0E093A101A8C0E33051F533
:100EC4000E94990AE030E1F7E3E5EA93E4E6EA9365
:100ED400E1E0EA930E945A0A0E94990AE030E1F79D
:100EE400E0918701F0E00E9400130E94901221F427
:100EF400E3E5EA93E2E803C0E3E5EA93E4E6EA9390
:100F04000E9495120E94990AE030E1F7E0E0E09334
:100F1400A1017CC0E43071F4E1E0E093A301A0916D
:100F2400A301A13019F40E949301F9CFE0E0E0930A
:100F3400A1016CC0E530B1F40E949C0A309721F005
:100F44000E94AB1209F0F8CF0E94A3120E949C0ADF
:100F5400309721F00E94AB1209F0F8CFE0E0E09363
:100F6400A10154C0E73081F4E3E0E51549F414E14C
:100F7400113030F00E947C01E03011F01150F8CFB4
:100F8400E0E0E093A10142C0E83049F4E2E0E51575
:100F940011F40E941911E0E0E093A10137C0E93097
:100FA40081F4E2E0E51549F4EEE1E0937D01E2ED40
:100FB400F0E00E94CF120E941911E0E0E093A10139
:100FC40025C0EA3071F4E2E0E51539F40E947511A8
:100FD400E03019F40E94FE115E2FE0E0E093A101DD
:100FE40015C0EB3049F4E2E0E51511F40E94B911A3
:100FF400E0E0E093A1010AC0EC3041F4E2E0E51541
:1010040011F40E94D011E0E0E093A1010C94F105E9
:10101400E091A101E030F9F4E0E0E093A401E3E021
:10102400E515A1F4A091C701A63029F00E9454014E
:101034000E946402F7CFE091C501E03029F00E94DC
:1010440054010E949301F7CF0E94B612E0E0E093AE
:10105400A4010C94F105E3E0E51511F00C94F105FD
:10106400E091A301E03061F00E94B8120E94930164
:1010740066247724882499240E942F020C94F10575
:101084000E9464020C94F105FFCFBD9ABF9ABC9AEA
:10109400BE98C49AEEB1EFB1E1E0EEB9E1E5EDB985
:1010A40008950A93C498E981EFB9779BFECF0FB1F5
:1010B400088109C0E981F070EA93F3DFE881F981DE
:1010C400F070EA93EEDF22960895EB810E941713E5
:1010D4000E941E130E9403150E941713E881F981D0
:1010E400EF2F0E9417130E941E130E94171338C07B
:1010F400C498E0E0EFB9779BFECFEFB10895249751
:10110400F7DFFF27662777270E9423137F936F93C8
:10111400FF93EF93EDDFAF91BF918F919F910E9469
:101124002F137F936F93FF93EF93E2DFAF91BF9100
:101134008F919F910E942F137F936F93FF93EF934F
:10114400D7DFAF91BF918F919F91FF2766277727B4
:101154000E94C414E883F9836A837B830E941E136C
:10116400249608950A9304E1013018F0DC980150A4
:10117400FBCF04E1013018F0DC9A0150FBCF099158
:1011840008950E944F121A930A930E94ED1231F0AF
:10119400E091CB01EF5FE093CB01E1500E94351366
:1011A40041F0AAEAB1E0ED91FD913197FE93EE93FF
:1011B40010C00E94ED1221F44398E9B7EB7FE9BF18
:1011C400E3E0E093CA01C19A099119910E94611266
:1011D4001895A091CA01A330D9F4E8B7E460E8BF38
:1011E400E0916101E03021F4E0918101A6E003C0C7
:1011F400E0918101A3E0EA9FF001EA55F5408F01F7
:101204001DBD0CBDE9B7E460E9BFE1E0E093CA01AC
:10121400099119910E9461121895AA93EA93FA937D
:10122400EFB7EA93A091CA01A13049F4C198ECED5B
:10123400FFEFFDBDECBDE2E0E093CA0114C0B1993B
:101244000BC0CE9B04C0E0919201E26003C0E09128
:101254009201ED7FE0939201C19AE3E0E093CA0129
:10126400E9B7EB7FE9BFE991EFBFF991E991A99162
:1012740018950E943B13E091A901E03011F40C94FD
:10128400C009E091A901E150E093A901EF5FA091A9
:10129400A801EFE3EA2349F0E091A801E150E093CB
:1012A400A801EF5FE6E5F0E002C00E944913E49173
:1012B400E2BF58DF0E94901211F00C94BF09A09174
:1012C400A801E0E4EA2311F00C94BF09A091A7015E
:1012D400A735D9F4A091A901A13020F0A091A901CA
:1012E400A23308F012C0E2E0E51511F4989901C0A8
:1012F40003C0E0E0E093A901E3E0E51511F482996D
:1013040001C003C0E0E0E093A901A091A701A335C7
:10131400D9F4A091A901A13020F0A091A901A23390
:1013240008F012C0E2E0E51511F4999901C003C078
:10133400E0E0E093A901E3E0E51511F4839901C02D
:1013440003C0E0E0E093A901E3E0E51551F48299DC
:1013540002C0839B05C0E091A801E068E093A80166
:101364000CC0E2E0E51549F4989902C0999B05C0C8
:10137400E091A801E068E093A8013AC00E949012AD
:1013840069F5E091A801E03019F0E0E8E03009F4F3
:1013940013C0A091A701A33529F4E0919201E77F3E
:1013A400E0939201A091A701A73529F4E09192015D
:1013B400EB7FE093920112C0A091A701A33529F419
:1013C400E0919201E860E0939201A091A701A73512
:1013D40029F4E0919201E460E0939201A091A801C4
:1013E400E0E4EA2311F4D89AD99AE9B7EE7FE9BF89
:1013F4000E944F131895E091CB0108950A93A09190
:101404008101A53618F0E4E6E0938101E0E0E09381
:10141400CB01E981FA810E945D13A091A501E2E06C
:10142400EA23E13019F40E94351309F439C0A0917C
:10143400B101A03880F4AAEAB1E0BF93AF930E944F
:101444005315DF01E091B1010E946213AF91BF9186
:10145400ED93FC9325C0E091B101E095EF5F0E2F71
:10146400A091AA01B091AB010E9466133496EA17C9
:10147400FB0790F4AAEAB1E0BF93AF930E9453151F
:10148400DF010E9466130E947115EA1BFB0BAF91EA
:10149400BF91ED93FC9304C0E4E0F0E00E945D137F
:1014A400E3E0E093CA01EBE1E8B9088123960895EB
:1014B4000A930AE0A0917F01A01720F0E02FE150E9
:1014C400E0937F01EA81E093A901E9E1E093A801B7
:1014D400E981E03021F0E091A801E06403C0E091EB
:1014E400A801EF7BE093A801EB81E093A701DD9ACB
:1014F400DA9ADB9AE091A701E73519F4D99AD898DA
:1015040007C0E33519F4D89AD99802C0D89AD99A61
:1015140000E8013010F00150FCCF0E944913E4911F
:10152400E2BFE9B7E160E9BF088124960895E0913C
:10153400A90108950E94351359F4E0E0E093CC0129
:10154400E0E0E093CD01E093CE01E0E0F0E0089527
:10155400E091CC01E030B9F4E6E0EA93E4E0F0E0B5
:101564000E949912EFEFE093CC010E946913E0937B
:10157400CD01F093CE01E0919201EE7FE0939201D0
:101584000E9469130895A091C201E0E4EA23C1F422
:101594000E946913A091CD01B091CE01EA17FB0717
:1015A40061F4E0E0F0E00E945D13E0919201E160FB
:1015B400E0939201EFEFFFEF08950E9469130895FD
:1015C4000E94691308950E943B131A930A930BB166
:1015D4001CB1E02FEC7121F41A93E0E0EA9302D1FC
:1015E400099119910E944F131895AA93EA93FA93BB
:1015F400EFB7EA93E091F101E030B1F0C09AE15025
:10160400E093F101E091F001F0E0E153FE4FE0815D
:10161400ECB9A091F001AF5FA093F001A03219F4EE
:10162400E0E0E093F00101C0C098E991EFBFF991C7
:10163400E991A9911895E0916201E03009F418C08C
:10164400E13021F4E0E0E0BDE7E015C0E23021F450
:10165400E0E0E0BDEBE00FC0E33021F4E0E0E0BD0A
:10166400E7E109C0E43021F4E0E0E0BDEFE203C0CB
:10167400E0E0E0BDE3E0E9B90895C098E89422F819
:10168400E0E0E093EF01E093F001E093F101E093F7
:10169400F201E093F301E093F401F894E0E0EBB994
:1016A400E8EDEAB9E6EAE0BDC6DF0895A091F101EC
:1016B400A032E0F7C09AF894E091F101E03011F41F
:1016C4005D9917C0E091EF01F0E0E153FE4FA8816E
:1016D400A083A091EF01AF5FA093EF01A03219F4B2
:1016E400E0E0E093EF01E091F101EF5FE093F101BD
:1016F40002C0E881ECB9789473C0A981A150A98390
:10170400AF5FA13040F0AA81BB81ED91AA83BB8376
:10171400EA93CCDFF2CF05C20A93A981BA8111976B
:10172400A983BA8311960E94781530F40AE0013037
:1017340010F00150FCCFF1CF088123960895A881C1
:10174400B9811197A883B98311960E94781530F452
:10175400E4E6F0E0FA93EA93DFDFF1CFFFC00A9307
:1017640000E0A981A150A983AF5FA13038F0AA811C
:10177400BB81ED91AA83BB830E0FF3CFE02FE095DD
:10178400EF5F0E2FE02F0881CCC1A6D7EE5DFD4F91
:10179400FF93EF93A6D7E3DFEF939ED7ADD7DFDFB9
:1017A400AF91EA0FAF91BF91EC939BD7B4D794D785
:1017B400A1E1B2E0AE0FBF1FAC91A13018F08CD7FD
:1017C4009BD7A9D789D7EE5DFD4FFA93EA93E1E061
:1017D400EA93A1D7E894969B6894A2B3A6F9A2BB16
:1017E400219608959CD7E83009F4B8C098D7E7301B
:1017F40071F572D7E55FFD4FA981A083E881A7E168
:10180400EA9FF001EB50FE4FFA93EA93E6E0EA9385
:10181400A6DFEF9361D7E550FE4FFA93EA93AA81CE
:1018240084D7EA939CDFAF91AE0FEFEFEA23AE2F9C
:10183400E981EA1741F482D7AC5DBD4FE8E0EC934F
:10184400E881EA938DD0A881B0E07BD787C067D7C1
:10185400E630C1F441D77AD77ED7E08131D780D73B
:10186400AD5DBD4FEC91EF5FEC9375D7808134D7BC
:101874007AD7EC91E81729F461D7AC5DBD4FE7E066
:10188400EC936CC04CD7E530E1F4A981A131B0F4FC
:1018940023D7E650FE4F64D7AD5DBD4FE0E0EC9337
:1018A400E981E03029F44AD7AC5DBD4FE7E004C0DC
:1018B40045D7AC5DBD4FE6E0EC9302C03FD741D7BE
:1018C4004DC02DD7E43049F407D7E750FE4F48D731
:1018D400AC5DBD4FE5E0EC9341C021D7E33049F462
:1018E400FBD6E850FE4F3CD7AC5DBD4FE4E0EC9333
:1018F40035C015D7E23049F4EFD6E950FE4F30D762
:10190400AC5DBD4FE3E0EC9329C009D7E13019F495
:10191400A981A83609F006C011D7AC5DBD4FE2E03D
:10192400EC931CC0FCD6E13019F4A981AE3F09F058
:1019340006C004D7AC5DBD4FE1E0EC930FC0EFD619
:10194400E03019F4A981AE3F09F006C0F7D6AC5DCA
:10195400BD4FE1E0EC9302C0F1D6F3D62296089590
:101964000A93A0916101EFE0EA23E0580E2F00D71B
:1019740004D7AC914A1621F000D7AC910A1769F448
:10198400E0E6F1E0FA93EA93EB81EA9309D0E89474
:10199400959B6894A2B3A5F9A2BB088122960895E9
:1019A4000A93E6D6EFD6A63419F4EDE2E0939F014C
:1019B400DFD6E8D6A73561F400E0A981B6D60E17C4
:1019C40038F4D6D6E5D6E9D6EED6F0D60E5FF5CF06
:1019D400CFD6D8D6A835A9F400E0A981A6D60E178B
:1019E40080F4C6D6D5D6D9D6DED6E0D6C1D6D0D6E2
:1019F400E6D6119665D6D7D6E02FEE5FE6D60D5F14
:101A0400ECCFB6D6BFD6A23539F5B2D6E5D6EAD6EE
:101A1400EDD6A0E1B2E0AE0FBF1FE7E5EC93A8D688
:101A2400EFD6EC91EE0FDB01EC9300E0A9817DD6BB
:101A34000E1778F49DD6EAD6F2D6F3D6AE0FBF1FB2
:101A4400D1D6E4D6EF5FEBD6ECD6B9D6BED60F5FCF
:101A5400EDCFE981EA9399DE8BD694D6A33589F547
:101A640087D6BAD6BFD6C2D6A0E1B2E0AE0FBF1FAA
:101A7400E8E5EC937DD6C4D6AC91E3E0EA9FF001AF
:101A8400DB01EC9300E0A98150D60E17B8F470D6B0
:101A9400CBD6C5D6C6D6AE0FBF1FA4D6C5D6EF5F6C
:101AA400BED6BFD68CD691D663D6BED6EE5FB7D699
:101AB400B8D685D6119689D60F5FE5CFE981EA932A
:101AC40064DE08812EC0B9D6E0E0F0E060E070E2A8
:101AD400B8D6E1E0F0E092D5B0D6E0E0F0E060E026
:101AE40070E0AFD6EBE0EA93DCDA09DB08950A9301
:101AF40002E1013028F0EFEFEA93D3DA0150F9CF95
:101B0400EEEFEA93CEDADFDF0991089596D6EA8103
:101B1400FB81FA93EA93CEDAE881F981FA93EA93A6
:101B2400C9DA24960895E0ECEA93BBDA08950E949A
:101B34007F151B812C81C69B02C0EFEF0FC085D699
:101B440004E0013050F02F931F931F5F2F4FD0DA22
:101B5400AF91BF91EC930150F4CFE0E00E94861561
:101B64002596089528971A930A930B851C85E0E01F
:101B7400EE83EF83E887E9876CD6AA81BB818C81E9
:101B84009D81E8E10E94DF1470D6EA81FB816C81BB
:101B94007D810E9408156ED668D6AA81BB818C818E
:101BA4009D81E8E00E94DF1465D6EE83FF83688799
:101BB4007987D801EC91AE81BF8188859985FF270B
:101BC400662777270E94C414EE83FF83688779878A
:101BD400E1E0EA9366DAEE81FF816885798531D6A2
:101BE400E2E0EA935EDAEA85A1E00E94CE14EA9389
:101BF40058DA2BD62AD629D6198108812D9608952C
:101C0400C69B02C0EFEF0895EFEFEA934ADA77DA62
:101C1400E0E0089524970E947E15FE013496FA931D
:101C2400EA9385DFE03019F0EDEFFFEF1AC0EF81A2
:101C3400E03041F0E0919201E062E0939201ECEF38
:101C4400FFEF0FC0E0919201EF7DE09392012C81B0
:101C54003327F22FE0E08F01ED81D80131D58F01D8
:101C6400F8010E94851528960895EF97EF97299714
:101C74000E947C15CFDF8F0100938D0110938E019C
:101C8400D1C0EE81AF81AE1760F4FBD5EA0FFB1F24
:101C94000F01FED5D001ED93FC93EF81EF5FEF834D
:101CA400F0CFE0E0E887EE81E695A885AE1798F5D9
:101CB400E0E0EF83EE81E150A885EA1BAF81AE1727
:101CC40030F5DFD5AE0FBF1F0D901C90ECD50E94F0
:101CD4005315E015F105B8F4E6D50D911C91EF818B
:101CE400EF5FF0E0DE011D96EE0FFF1FEA0FFB1F12
:101CF4000F01C7D5E2D5D001ED93FC93C2D5AE0F49
:101D0400BF1F0D931C93EF81EF5FEF83D3CFE88563
:101D1400EF5FE887C8CFE0E0E987EA87EB87EC87E5
:101D2400EE81E695E695E695E887EF83A885EE8152
:101D3400EA1BAF81AE1740F4A4D5BFD5C3D5C7D530
:101D4400EF81EF5FEF83F2CFEE81E695E695AE810A
:101D5400AE1BA887E885B6D5FF27662777270E949C
:101D64002D15BED58F01E0E0E987EA87EB87EC8784
:101D7400E0E0E887A885A830D0F4E885A091A50222
:101D8400EA1730F4E091A502E150A885EA1B07C0E8
:101D9400EE81E150A885EA1BA091A502EA0FEF832A
:101DA40077D590D594D5E885EF5FE887E3CF8AD5DA
:101DB400E3E00E94EB1494D59F010217130720F46B
:101DC400F901E01BF10B03C0F801E21BF30BAF01B7
:101DD4004032E0E05E0720F4F8016627772715C05B
:101DE4004134E0E05E0730F0F9017FD5E0E0E093B4
:101DF400A6020FC0F80179D5F90164D568D5E98543
:101E0400FA856B857C850E94FE14E987FA876B87C7
:101E14007C87E985FA856B857C8562D5E0938D01A5
:101E2400F0938E010E948315EF96EF962F960895F6
:101E34002E970E947C15EDD3A13FEFEFBE0718F05B
:101E440055D35AD5E2C0E5D3A3D3AE17BF0730F4B8
:101E5400E0E0E88BE98BEA8BEB8B0AC047D351D5E2
:101E6400EA1BFB0B66277727E88BF98B6A8B7B8B46
:101E740048D54CD5EA17FB0780F443D547D5AE1BAC
:101E8400BF0B3A2F4B2F50E0553038F444D5E30FB5
:101E9400F41FFE93EE935F5FF7CF33D537D5AE17BC
:101EA400BF0798F4A0919D01B0919E0171D3AE1B20
:101EB400BF0B3A2F4B2F50E0553038F42CD5E31B91
:101EC400F40BFE93EE935F5FF7CF62D3E0939D0133
:101ED400F0939E01A091A501E0E8EA2311F000E04F
:101EE40020C0EFEFFFEFEE83FF8350E05530C8F4DE
:101EF4001DD58FD3EA17FB0718F418D58AD303C06E
:101F040015D5DF01F3D2AE1BBF0B3A2F4B2FEE8159
:101F1400FF813E174F0718F43E834F83052F5F5F01
:101F2400E5CFADE6B1E0D0D308D5DF0131D3AE17AC
:101F3400BF0718F410E020E00AC0ADE6B1E0C4D356
:101F4400FCD4DF0125D3AE1BBF0B1A2F2B2FA3E626
:101F5400B1E0BAD3F2D4DF01E889F9896A897B89CF
:101F6400882799270E940D15EC87FD876E877F8748
:101F7400AC85BD858E859F85E6E00E94DF14EC87E5
:101F8400FD876E877F87012E022A79F1E12FF22FD8
:101F9400AC85BD858E859F85662777270E942D1584
:101FA400E887F9876A877B87A885B9858A859B85B1
:101FB400E6E00E94EB14A0D4A0918F01B0919001AF
:101FC400AF3FEFEFBE0719F4E9EFFFEF95D4E885D3
:101FD400F9856A857B85EF73F07060707070E093AB
:101FE4009101E0919201EF7B06C0EAEFFFEF84D408
:101FF400E0919201E064E0939201A091A501E0E1F7
:10200400EA23E13011F472D277D40E9483156496E6
:10201400089543D2A0913A03A03069F1E199FECF2B
:10202400E0913903A3E0EA9FF001E855FD4FDF0199
:102034000E945315FFBBEEBBA0913903E3E0EA9F76
:10204400F001AAEAB2E0AE0FBF1FEC91EDBBE29A39
:10205400E19AE0913903EF5FE0933903A0913903EA
:10206400A03318F0E0E0E0933903E0913A03E15043
:10207400E0933A0301C0E39822D21895A0913A0361
:10208400A03319F4EFEF23960895F894E091380300
:10209400A3E0EA9FF001E855FD4FA981BA81A0832E
:1020A400B183A0913803E3E0EA9FF001E655FD4FC8
:1020B400A881A083E0913803EF5FE0933803A091F7
:1020C4003803A03318F0E0E0E0933803E0913A03DA
:1020D400EF5FE0933A03E39A7894E0E0239608955F
:1020E4000A93A981A13078F1EC81FD81FA93EA93F6
:1020F400EDB7FEB7FA93EA930F933AD00F91E0301D
:1021040011F0E98121C0AA81BB81EC91E01769F04B
:10211400EC81FD81FA93EA93AC81BD81EC91EA9361
:10212400ADDFE03011F0E9810FC0E981E150E983CE
:10213400EC81FD813196EC83FD83EA81FB8131964C
:10214400EA83FB83CECFE981088126960895A8818E
:10215400A150A883AF5FA13040F0F2D3F1D308D0EF
:10216400E03011F0EFEF02C0F2CFE0E025960895E1
:10217400E19B02C0EFEF0AC0EA81FB81FFBBEEBB2B
:10218400E09AEDB3A881B981EC93E0E02496089538
:10219400E0E0ECBBE0933803E0933903E0933A03C7
:1021A40008956A937A93AA93BA93EA93FA93EFB74A
:1021B400EA93E2E0E51541F0EBB7EF7BEBBFEAB75A
:1021C400E064EABFC6D31895A9E9B1E00E945D15A1
:1021D400E050FF4F6F4F7F4F0E946715EAB7E064EE
:1021E400EABFE0913B03E27061F0829B04C0E0919E
:1021F4003F03E26003C0E0913F03E160E0933F03EB
:1022040011C0E0914003E03011F4E0E009C0829B8A
:1022140004C0E0913F03E26003C0E0913F03E1604A
:10222400E0933F03E0E0E093430393D31895A5D1F3
:10223400E0933B03F0933C03E0917D01F0E0E093F5
:102244003D03F0933E038ED3E07831F4EBB7EF7B9C
:10225400EBBF8A98D7D10895E7B3E06FE7BB87D384
:1022640021F0E830A0E0FA0721F4E8B3EF70E8BB0E
:102274000BC0E031A0E0FA0721F0E831A0E0FA0752
:1022840019F4E8B3E06FE8BBE0914403E03099F45B
:102294008A98E5B7EB7FE5BFE5B7E160E5BFEAB74C
:1022A400EF7BEABFEBB7E064EBBFE0E0E0933F0312
:1022B400E1E0E093440356D3E070F770EF2FF0E0D1
:1022C4003196E0934203E0E0E0934303E0913B0363
:1022D400E17019F0E3E0E0933F03E0E0E0934003B2
:1022E400E09341030895E0913B03E078E9F1E09144
:1022F4004103E03011F0E0E00895E0913B03E07623
:1023040061F4829904C0E0913F03E17009F402C0D2
:10231400E0E00895EFEF089526C024D3E076E03698
:1023240061F4829B04C0E0913F03E27009F402C0AF
:10233400E0E00895EFEF089516C014D3E076F0704E
:10234400B09749F4E0913F03E27011F0E0E00895A2
:10235400EFEF089508C0E0913F03E17011F0E0E071
:102364000895EFEF089502C0E0E008950895FFD2C4
:1023740021F0E830A0E0FA0711F4C49809C0E03174
:10238400A0E0FA0721F0E831A0E0FA0709F4C49AC2
:10239400E1E0E0934003E3E0EFD20895E8D221F0D6
:1023A400E830A0E0FA0711F4C69809C0E031A0E0D3
:1023B400FA0721F0E831A0E0FA0709F4C69AE5E04B
:1023C400DBD20895D4D211F4C59804C0E830A0E05B
:1023D400FA0721F4C598E4E0CFD20DC0E831A0E0BB
:1023E400FA0711F4C59A04C0E031A0E0FA0719F421
:1023F400C59AE4E0C1D208951A930A93A091C20148
:10240400E4E0EA2311F0EFEF45C0E0914503E0304A
:1024140029F0D8DFE0E0E09345033CC0E0E0E0933E
:102424004003E0914303EF5FE0934303E150A09145
:102434004303E0914203AE1740F4E3E0E0933F032B
:10244400E1E0E0934103E0E025C0E0E0E0933F03F6
:10245400E0934103E0934303E0913C03E87FC1F040
:1024640081D2E070F87F0E94F714EF2FF0E08F0123
:10247400A4E1A09FF001A19FF00D8F01E2E0EA9397
:102484001A930A930E94D100EFEFE093450302C030
:1024940099DFE0E00991199108950A921A92AA939A
:1024A400BA93EA93FA93EFB7EA930895E02FA2EB75
:1024B400B1E0F0E0EE0FFF1FAE0FBF1F0895E991EA
:1024C400EFBFF991E991B991A991199009900895F3
:1024D400A2EBB1E0F0E0EE0FFF1F0895A0918D0193
:1024E400B0918E01A03FEFEFBE070895E0918D01FA
:1024F400F0918E010895EA93E4E6EA93E1E0EA9329
:102504000E945A0AE1E00895F0E0FA93EA930C94E9
:10251400D100A091C201E1E0EA230895A091A501B0
:10252400E0E4EA230895E0E0EA930C945A0AFA936B
:10253400EA930C94D100E0E0E093A301E093C50199
:102544000895E0918201F0918301FA93EA930C9447
:10255400000A0E949C0AEF3FAFEFFA070895A0918A
:10256400C201E2E0EA23089580DB62CCEEEFFFEFE4
:10257400E0938F01F09390010895E0917901F09137
:102584007A010895E093A501E0E0E093A60108959F
:10259400E0917701F09178010895E0937901F09347
:1025A4007A010895E0916001E0937B01E0938B014F
:1025B4000895E0916101E0937C01E0916101E09371
:1025C4008C010895EDE2E0939F01E091A501E8609C
:1025D400E093A5010895A091C201E0E8EA230895DB
:1025E40020F8E0919201EE7FE0939201E091930153
:1025F4000895E0E4F0E0FA93EA930895FA93EA93F5
:102604000C94A10BE7B3E06FE7BBE8B3E06FE8BB62
:102614000895A0918D01B0918E010895EDE2E093AB
:102624009F01E091A501E860ADCFEF7FF07060708D
:102634007070EA930C945308E881F9816A817B8174
:102644000895E883F9836A837B83A881B9818A81A9
:102654009B81E8E00E94DF140895FF27662777270F
:102664000E94C414EECFE091AA01F091AB0130971F
:1026740008950A921A92FA926A937A938A939A9391
:10268400AA93BA93EA93FA93EFB7EA930895E09181
:102694007F01F0E0EA5AFF4F0895E991EFBFF99105
:1026A400E991B991A9919991899179916991F99057
:1026B400199009900895E093AA01F093AB0108954D
:1026C400F0E0EA0FFB1F0895E02FF0E00895E09199
:1026D400AA01F091AB010895A881E7E1EA9FF00116
:1026E4000895E881A7E1EA9FF001E45FFD4FFA93C2
:1026F400EA93E6E0EA930895EE5EFD4FFA93EA93D7
:10270400AA81E7E1EA9FF001A1E1B2E0AE0FBF1FA9
:10271400EC91EA930895EB81EA930C947F0BE881A2
:10272400F0E0EC5DFD4FE0810895E7E1EA9FF00100
:10273400AAEFB1E0AE0FBF1FEC910895A881B0E0FD
:102744000895AC5DBD4FE0E0EC930895ABEFB1E0CC
:10275400AE0FBF1F0895E881F0E0ED5DFD4F0895D1
:10276400A981A083EBCFAAEFB1E0AE0FBF1F0895FC
:10277400A981E7E1EA9FF0010895A8EFB1E0AE0F67
:10278400BF1F0895A9EFB1E0AE0FBF1FAC9108952C
:10279400ABEFB1E0AE0FBF1F97CFAE0FBF1FEC91F1
:1027A400AA81BB818DCFBF01F001D0CFE02FEF5FB5
:1027B400F0E0AE0FBF1FEC91DB01EC930895AE0F78
:1027C400BF1FEC91AA81BB810895F0E0AE0FBF1F3B
:1027D400EC91DB01EC930895DF01E25FFD4FBF0153
:1027E400FD01CBCFEC91DB01EC93C2CFDF01E15FC4
:1027F400FD4FBF01FD01A7EFB1E0AE0FBF1FF2CF48
:10280400DF01EF5EFD4FBF01FD01ADCFCF01EE5EF5
:10281400FD4FBF01E02FA2E0EA9FF0010895DB0124
:102824004FCFBF01FC01B4CFCF01EE5EFD4FBF011E
:10283400E02FA3E0EA9FF0010895E3E0EA930C940B
:1028440053080E946C150C946708E0E0EA930C941A
:102854005308D8010F5F1F4FEC91FF276627772796
:10286400EA83FB836C837D830895EE83FF8368870B
:102874007987EFCFAE81BF81888599850E94C41482
:102884000895EF81F0E0DE011D96EE0FFF1F08951D
:10289400EF81A5E2B2E0F0E0EE0FFF1FAE0FBF1F25
:1028A4000E9453150895EF81EF5FF0E0DE011D965D
:1028B400EE0FFF1FAE0FBF1F0895AE0FBF1F0E9484
:1028C40053150895A985BA858B859C850895662737
:1028D40077270E94C414E987FA876B877C87089559
:1028E400EF7FFF7F60707070089566277727E98710
:1028F400FA876B877C870895E0938F01F0939001AA
:102904000895A0917701B09178010895E0919D0117
:10291400F0919E010895ADE6B1E0E52FF0E0EE0FF1
:10292400FF1FAE0FBF1FED91FD910895ADE6B1E01D
:10293400E52FF0E0EE0FFF1FC0CFEE0FFF1FBDCF5E
:10294400EB81FC813196EB83FC833197FA93EA9314
:102954000895E991EFBFF991E991B991A99179911C
:1029640069910895E0913B03F0913C030895FADFE7
:10297400E871F07030970895EA93E0913D03F09187
:102984003E03D5CDEA0FFB1F681F791F0895EA2B7C
:10299400FB2B682B792B0895EE230E2EEA2F19F0CA
:1029A400EE0F0A94E9F70895EE230E2EFD0121F0AF
:1029B400EE0FFF1F0A94E1F70895EE230E2EFD019A
:1029C400BC0131F0EE0FFF1F661F771F0A94D1F789
:1029D4000895EE230E2EFD01BC0131F07695679526
:1029E400F795E7950A94D1F70895F695E795F69546
:1029F400E795F695E795089576956795F795E795A4
:102A04000895E62FF72F60E070E008956E2F7F2F72
:102A1400E0E0F0E008957A9F702D6B9F700DF89FB1
:102A2400700DE99F700D6A9F602D710DFB9F600D05
:102A3400711DE89F600D711D8827FA9FF02D610DAF
:102A4400781FEB9FF00D611D781FEA9FE02DF10DBB
:102A5400681F781F08953F934F935F9300241124B8
:102A64003327442750E2AA0FBB1F881F991F001C5D
:102A7400111C331F441F0E1A1F0A360B470B28F470
:102A84000E0E1F1E361F471F01C0A1605A9559F72D
:102A9400FD01BC01D001832F942F5F914F913F9191
:102AA4000895ED91FC9111970895ED91FD916D912B
:102AB4007C9113970895ED91FD916D917D91089509
:102AC400ED93FD936D937C9308957E936E93FE93A3
:102AD400EE9308957A936A93FA93EA9308951B2EDA
:102AE400BF2FF12D1A2EAE2FE12D089500240A16C2
:102AF4000B0608955A934A933A932A931A930A9386
:102B040008955D814C813B812A8119810881089552
:00000001FF
