:10002600E5A2543FF5A2759850438E40538EFE5379
:0D003600890F758B8F758DFDD28ED2AC2297
:10139E0043BA01759A50438E1475D78F75D6FD22B8
:03002300020E8E3C
:100E8E00C0E0C0F0C083C08263A201C083C082C034
:100E9E00D075D010309908C29990006674D8F03091
:100EAE00983B90008B120537E59912042990008C1F
:100EBE00E475F00112045D90008B120537740190F9
:100ECE0000666B7008E965827003EA6583700C7BBF
:100EDE00017A00794690008B120540C298D0D0D08E
:0F0EEE0082D08363A201D082D083D0F0D0E032D3
:03004300020D3774
:100D3700C0E0C0F0C083C08263A201C083C082C08C
:100D4700D075D018E59A30E109539AFD90008A745E
:100D5700D8F0E59A30E03C900043120537E59B1246
:100D67000429900044E475F00112045D90004312D9
:100D7700053774019000876B7008E965827003EA94
:100D87006583700C7B017A007967900043120540F8
:100D9700539AFED0D0D082D08363A201D082D08371
:050DA700D0F0D0E032A5
:100DAC0090008B120537C003C002C001900087125F
:100DBC000537D082D083D0E06B7008E96582700370
:100DCC00EA65837002FF22900087120537C003C0CA
:100DDC0002C00190008B120537D3D082D083D0E0B3
:100DEC00E99582EA95834012900087120537AF018E
:100DFC0090008B120537E99FFF2290008B1205376C
:100E0C00E92420F9AF01900087120537C3EF99FF51
:010E1C0022B3
:10136B0090006674D6F08F99900066E064D660F8B2
:01137B00224F
:100F6A0090008B120537C003C002C001900087129F
:100F7A000537D082D083D0E06B7008E965827003B0
:100F8A00EA658360DB900087120537120410FF9030
:100F9A000088E475F00112045D9000871205377429
:100FAA00019000666B7008E965827003EA658370D8
:0D0FBA000C7B017A007946900087120540FB
:010FC7002207
:100E1D00900043120537C003C002C001900040127C
:100E2D000537D082D083D0E06B7008E965827003FE
:100E3D00EA65837002FF22900040120537C003C09F
:100E4D0002C001900043120537D3D082D083D0E089
:100E5D00E99582EA95834012900040120537AF0163
:100E6D00900043120537E99FFF229000431205378A
:100E7D00E92420F9AF01900087120537C3EF99FFE0
:010E8D002242
:10137C0090008A74D6F08F9B90008AE064D660F857
:01138C00223E
:100FC800900043120537C003C002C00190004012D0
:100FD8000537D082D083D0E06B7008E96582700352
:100FE800EA658360DB900040120537120410FF9019
:100FF8000041E475F00112045D9000401205377459
:10100800019000876B7008E965827003EA65837058
:0D1018000C7B017A007967900040120540C2
:0110250022A8
:1010F0007B017A00794690008712054090008B12A0
:10110000054090006674D8F07A007967900040122C
:10111000054090004312054090008A74D8F01200F8
:041120002602139EF2
:0810B6004100D2004100D3000B
:10138D00438E805389F0758ABF758CFCC28DD28CCB
:01139D00222D
:0100090022D4
:100796009000D7E060459000CDE014F0D3648094DB
:1007A6008050389000CBE09000CEF05401F0FD90E0
:1007B60000CAE0C313F0A3E013F0ED6004D2B780E3
:1007C60002C2B79000CD7403F09000D1E014F0D3CC
:1007D600648094805005E49000D7F09000C8E060F3
:1007E6000302089D9000CFE0603B9000CCE014F03F
:1007F600D364809480400302089DE49000CFF0907B
:1008060000D6F09000C9E0F064C2700302089DE0D3
:10081600FF9000D2E02400F8EFF2E004F0C3942049
:100826004075E4F0229000D6E07027A2B63390001F
:10083600D4F0E070629000D604F0E49000C9F09025
:1008460000CC7404F09000D8E09000D0F09000DB6B
:1008560080429000CCE014F0D364809480503874C9
:1008660003F0A2B6E4339000D5F0E060109000C922
:10087600E0FF9000DBE0FEEF4E9000C9F09000DB59
:10088600E025E0F09000D0E014F0D364809480502E
:08089600069000CF7401F0226E
:10123C00D2B7E49000D7F09000D6F09000CFF090A9
:10124C0000C8F09000D87408F0A3740AF0C2B7E498
:0B125C009000C8F09000D2F0A3F02238
:101292009000D2E0FEA3E0FDB5060512000980F041
:1012A20074002DF8E2FF9000D3E004F0C3942040D4
:0812B20002E4F0EF64C260D811
:0112BA002211
:101158009000D7E070FA9000DAEFF09000CD7403B9
:10116800F09000D9E09000D1F0EF25E0FFE433449F
:0F117800029000CAF0A3EFF09000D77401F022AC
:1011E4009000D3E0FE9000D2E0FDB506037F00221C
:1011F400EDD39E40099000D3E0FFED9FFF22ED2444
:0C12040020FF9000D3E0FEC3EF9EFF220D
:100EFD00007FBFDFEFF7FBFDFE3736353D33323177
:100F0D0030262724252223202117161514131211FC
:100F1D001006070405020A00012B2F1FFF131117DE
:100F2D00152E2AFF1E1012141629392DFF00FF024F
:100F3D00363828FF2CFF013703041B3F06232127DA
:100F4D00251A05073E202224263D3B191D090B0DB0
:0D0F5D000F3A3C1C180A080E0C31303332DC
:0B10BE004400F1000000004100F000C1
:10000E00E4FEEEC39F500DE4FCECC39D50030C8048
:04001E00F80E80EE6A
:0100220022BB
:10112400EFC39444502DEF900F2693FFF46024EF07
:101134005407900EFE93F590EFC4540F93F5807FFF
:10114400C07ED412130B7590FF7580FF7DFF7F0660
:0311540012000E78
:011157002275
:10133000E49000B7F09000B7E0FFC394205011EFA5
:10134000900F0693FF1211249000B7E004F080E59F
:01135000227A
:03000B000211B629
:1011B600C0E0C0F0C083C08263A201C083C082C009
:1011C600D075D00812079612089EC28DD0D0D08254
:0E11D600D08363A201D082D083D0F0D0E0326B
:10130B007C007D0AED1DAA0470011CD39400EA94A5
:10131B00004011EF1FAA0670011ED39400EA94003F
:04132B0040E280EF2D
:01132F00229B
:100571009000B3120506000003E8E4F5A875A23C5B
:1005810075BA07758E1075D188F58F1210F07597B1
:100591008012123C12126712138DE49000ADF0D25A
:1005A1008E438E10D2B9D2A975A89275AF01D2AF80
:1005B1007F807E1A12130B7F02121124120B9B9063
:1005C10000B8120506000000007F041209A57DFF96
:1005D1007F0F12000E9000AA120537E41204299031
:1005E10000AA120537900001E412043B900002E4D6
:1005F10012043B900003E412043B121074120DAC80
:10060100EF700302077F120F6A9000B2EFF0BF553F
:1006110013120F6A9000B2EFF064556007E090008A
:10062100ADF080D99000ADE0647370509000B2E0FD
:1006310064557048120F6A9000B2EFF06456601A68
:100641009000B2E0B4580512133080E89000B2E097
:10065100FF645760DF12112480DA9000AD74FDF061
:100661007F5512136BE49000B2F0FF12136BE4900C
:1006710000B2F0FF12136B7F5612136B9000ADE0C6
:10068100646460030207539000B2E09000AEF01280
:100691000F6A9000AFEFF09000AEE02FF0120F6AFA
:1006A1009000B0EFF09000AEE02FF0120F6A9000D2
:1006B100B1EFF09000AEE02FF0120F6A9000B2EFB0
:1006C100F09000AEE02FF0E0FF70569000B2E064D1
:1006D1000170359000AA120537EF1204299000AF7E
:1006E100E0FF9000AA120537900001EF12043B9041
:1006F10000B0E090000212043B9000B1E0900003D2
:1007010012043B12107480129000B812050600000A
:1007110000009000B2E0FF1209A59000B2EFF08056
:1007210005E49000B2F09000AD74FDF07F55121316
:100731006B9000B2E0D394004009E4FF12136BE424
:10074100FF80077F0112136B7F0112136B7F56121B
:10075100136B9000ADE0B46E089000B2E0FF12138D
:100761007C9000ADE0B474169000B2E0F580120FF9
:100771006A8F909000AD74FDF07F5612136B120ECC
:100781001DEF70030205FE120FC89000B2EFF012C8
:05079100136B0205FEE0
:0810C9004100EE004100EF00C0
:01000A0022D3
:10089E009000DDE060449000E8E014F0D3648094B2
:1008AE008050379000E6E054019000E2F0FD900099
:1008BE00E5E0C313F0A3E013F0ED6004D2B58002BF
:1008CE00C2B59000E87403F09000EDE014F0D3642C
:1008DE008094805005E49000DDF09000E3E060032A
:1008EE000209A49000EBE0603B9000E7E014F0D327
:1008FE006480948040030209A4E49000EBF0900021
:10090E00DCF09000E4E0F064C270030209A4E0FFA2
:10091E009000EEE02420F8EFF2E004F0C3942040C3
:10092E0075E4F0229000DCE07027A2B4339000E969
:10093E00F0E070629000DC04F0E49000E4F09000CF
:10094E00E77404F09000DEE09000ECF09000E1809F
:10095E00429000E7E014F0D3648094805038740322
:10096E00F0A2B4E4339000EAF0E060109000E4E00E
:10097E00FF9000E1E0FEEF4E9000E4F09000E1E029
:10098E0025E0F09000ECE014F0D3648094805006E3
:07099E009000EB7401F02250
:10126700D2B5E49000DDF09000DCF09000EBF09058
:1012770000E3F09000DE7408F0A3740AF0C2B5E44E
:0B1287009000E3F09000EEF0A3F022D6
:1012BB009000EEE0FEA3E0FDB5060512000A80F0FB
:1012CB0074202DF8E2FF9000EFE004F0C39420406F
:0812DB0002E4F0EF64C260D8E8
:0112E30022E8
:101187009000DDE070FA9000E0EFF09000E8740363
:10119700F09000DFE09000EDF0EF25E0FFE433444E
:0F11A700029000E5F0A3EFF09000DD7401F0225C
:101210009000EFE0FE9000EEE0FDB506037F0022B7
:10122000EDD39E40099000EFE0FFED9FFF22ED24FB
:0C12300020FF9000EFE0FEC3EF9EFF22C5
:1010D1005400950000000000000000000000000026
:0E10E10000000000000000440091000000002C
:1012E400E4FEFDD2A5EF30E704D2A48002C2A4EF4D
:1012F40025E0FFEE25E0FEA2A0E4334EFEC2A50DDC
:06130400EDB408DFAF06A6
:01130A0022C0
:10135100E4FED2A5EF30E704D2A48002C2A4EF25B7
:09136100E0FFC2A50EEEB408E99C
:01136A002260
:100B9B00D2A3D2A6D2A2D2A5D2A4A2A0E433900013
:100BAB00A9F07B017A007999A31205407A0079A10B
:100BBB0090008E1205407F407E0D12130B12000326
:100BCB007F407E0D12130B90009D12050600000056
:100BDB0010120CB49000A11205060007FFFF7B0159
:100BEB007A0079957F03120CBC90009912050600D0
:100BFB0007FFFF7B017A0079957F01120CBC7F40C8
:100C0B007E0D12130B1213BE90009D1205060000F1
:0D0C1B0000009000A11205060007FFFF2257
:0B13AE00C2A1D2A17F017E0002130B40
:0513B900C2A2D2A22235
:0513BE00C2A3D2A3222E
:060003001213AE0213B956
:080CB4007B017A0079957F02B3
:090CBC009000C0EFF0A312054006
:100CC500C2A6D2A59000C0E075F004A4F58285F017
:100CD500831204B2781012049FA804A905AA06ABD2
:100CE500079000C0E075F010A4FFAEF0EE3395E07C
:100CF500FDFC120473121351A31205379000C0E0D6
:100D050075F004A4F58285F0831204B27808120404
:100D15009F1213519000C11205379000C0E075F085
:100D250004A4F58285F0831204B2121351D2A5D220
:010D3500A617
:010D3600229A
:10102600C2A6D2A5EFC454F04480FF121351E4FFC8
:10103600121351E4FF121351D2A5D2A6C2A5C2A61D
:10104600E4120429FF1212E4EF540F900001120477
:101056003BE4FF1212E4900002EF12043BE4FF129D
:0D10660012E4900003EF12043BD2A6D2A5C5
:01107300225A
:101074007B017A0079957F01120CBC1213BE7DFFAF
:101084007F0F12000E9000A11205060000000090D0
:10109400008E1205377F011210269000991204E287
:1010A4009000A11204EEC312048E70037F01227F0C
:0210B400002218
:0509A5009000B7EFF027
:1009AA0064016003020A387FF07EFF7D7F7C49A3E1
:1009BA001204EE12013EE4FBFA7920784112024752
:1009CA00E4FBFAF9783F12004D120AAB1202E490E6
:1009DA0000BC1204FA9000911204E29000BC1204C6
:1009EA00EEC312048E70089000B704F0020AA590B4
:1009FA0000BCE0FF9000AA120537EF12042990000C
:100A0A00BDE0FF9000AA120537900001EF12043BE7
:100A1A009000BEE090000212043B9000BFE09000FC
:100A2A000312043B1210749000B7EFF0806D90002F
:100A3A00B7E0FFB402051213B98056EFB4030812E7
:100A4A0013AE9000B7804A9000B7E06404703B9000
:100A5A00009D12050600000010120CB49000A112AD
:100A6A0005060007FFFF7B017A0079957F03120CC8
:100A7A00BC90009D120506000000009000A112051E
:100A8A00060007FFFF9000B780079000B7E0B405A3
:100A9A00057401F08005E49000B7F09000B7E0FF1C
:010AAA002229
:10004600020350E86480F8E933E83360110460F095
:10005600ED33EC337009E8FCE9FDEAFEEBFF220420
:1000660060DED3EB9FEA9EE99DE8C2E78CF0C2F71B
:1000760095F0400CE8CCF8E9CDF9EACEFAEBCFFBE7
:1000860012031B85D0F05804700320D5B3E8047022
:10009600075002B2D502035A92D5EC0460F7E4CCBD
:1000A600C0E0C398F8603B94186008400DD0E0FBB0
:1000B600020332E4FBFAC9FC8028E830E406E4C90E
:1000C600FBE4CAFCE830E305E4C9CACBFCE8540704
:1000D6006010F8C3E913F9EA13FAEB13FBEC13FC0F
:1000E600D8F130F52FC3E49CFCEF9BFFEE9AFEEDB2
:1000F60099FDD0E0FBEF4E4D4C701222DB0302035C
:1001060057EC2CFCEF33FFEE33FEED33FDED30E71D
:10011600EB020332EF2BFFEE3AFEED39FDD0E0FBAA
:1001260050130BBB000302035AED13FDEE13FEEF53
:0801360013FFEC13FC0203327D
:10013E00EC4D6011E8497017ED33EC3304600DE4BB
:10014E00FCFFFEFD22E933E8330470F8020350127F
:10015E00031B58046009E4CC248150062850090280
:10016E00035A284003020357C0E0EB4A7044B9809B
:10017E0006D0E0FB020346EF4E701CBD8008EBFF7D
:10018E00EAFEE9FD80EBE98DF0A4FEE5F002022720
:10019E00E9CDF9EAFEEBFFEF89F0A4FCE5F0CE899C
:1001AE00F0A42EFFE435F0CD89F0A42DFEE435F059
:1001BE008067EF4E7005BD80D780C3EF8BF0A4AC87
:1001CE00F0EE8BF0A42CFCE435F0F8EF8AF0A42CC2
:1001DE00E5F038FCE433CB8DF0A42CFCE5F03BF8D5
:1001EE00EE8AF0A42CFCE5F038F8E433CF89F0A4C5
:1001FE002CFCE5F038CF3400CE89F0A42FFFE5F0CB
:10020E003EFEE433C98DF0A42EFEE5F039CD8AF022
:10021E00A42FFFE5F03EFEE43DFD33D0E0FB50079A
:10022E000BBB000F02035AEC2CFCEF33FFEE33FE38
:06023E00ED33FD02033266
:1002440002035AEC5D046005E8590470030203508C
:1002540012031B580460F6EC4860F2EC7004FDFED7
:10026400FF22C860DB2481C85009C398600250068D
:100274000203579850CAF582E9294B4A7005AB82AC
:1002840002034675F0007C1A7880C3EF9BEE9AED6A
:1002940099400DC3EF9BFFEE9AFEED99FDE842F005
:1002A400DC23ACF0D0E0FFD0E0FED0E0FDAB822058
:1002B400E7101BEB60BAEC2CFCEF33FFEE33FEEDE2
:1002C40033FD020332E803F830E705C0F075F000AF
:1002D400EF2FFFEE33FEED33FD40B830E7C280AAC6
:1002E400EDD2E7CD33EC3392D524814006E4FFFE12
:1002F400FDFC22FCE4CFCECDCC24E0501174FF8071
:10030400EDC3CC13CCCD13CDCE13CECF13CF04700D
:07031400F030D5DE02048089
:100AAB009000C01204FA74FFFFFEFDFC9000C0E042
:100ABB00F8A3E0F9A3E0FAA3E0FBC312048E6038BD
:100ACB007F807E967D187C4B9000C0E0F8A3E0F908
:100ADB00A3E0FAA3E0FB1203656002501B7F807E4C
:100AEB00967D187CCB9000C0E0F8A3E0F9A3E0FA68
:100AFB00A3E0FB120365500F9000C0E0FCA3E0FDE8
:100B0B00A3E0FEA3E0FF229000C0E0FCA3E0FDA366
:100B1B00E0FEA3E0FF1202E49000C41204FA90007E
:100B2B00C4E0FCA3E0FDA3E0FEA3E0FFEC1203D2C4
:100B3B00C8ECC8C9EDC9CAEECACBEFCB9000C0E078
:100B4B00FCA3E0FDA3E0FEA3E0FF120049E4FBFAE7
:100B5B00F9F8120365602640249000C4E0FCA3E082
:100B6B00FDA3E0FEA3E0FFEF24FFFFEE34FFFEED5D
:100B7B0034FFFDEC34FFFC9000C41204FA9000C467
:100B8B00E0FCA3E0FDA3E0FEA3E0FFEC1203D22206
:10031B00E9D2E7C933E833F892D5EDD2E7CD33EC28
:07032B0033FC5002B2D522A1
:10033200EC30E7100FBF000C0EBE00080DBD00042C
:100342000BEB6014A2D5EB13FCED92E7FD2274FFD8
:10035200FCFDFEFF22E480F8A2D574FF13FC7D8031
:03036200E480EF45
:1003650074F8CC6480CCC86480C8F582046043C34B
:10037500EB9FF5F0EA9E42F0E99D42F0E89C45F0DE
:1003850060305018E5825FFFE582F42B5582FB5003
:10039500210ABA001D09B90019088016E5825BFB20
:1003A500E582F42F5582FF50090EBE00050DBD00F4
:1003B500010CC3EB9FF5F0EA9E42F0E99D42F0E89F
:0D03C5009C45F06007CC4820E701B3EC2216
:1003D20075F020800E75F010800575F0087D007EA6
:1003E200007F003392D530D503120480EC334010E5
:1003F200EF33FFEE33FEED33FDEC33FCD5F0ED22AF
:0E040200E5F0247EA2D513CC92E7CDCEFF22EA
:03000000020C28C7
:0C0C2800787FE4F6D8FD75811F020C6F88
:10041000BB010689828A83E0225002E722BBFE02EA
:09042000E32289828A83E493221D
:10042900BB010689828A83F0225002F722BBFE01B2
:02043900F322AC
:10043B00F8BB010DE58229F582E5833AF583E8F0F7
:10044B00225006E92582C8F622BBFE05E92582C8A3
:02045B00F2228B
:10045D00C5F0F8A3E028F0C5F0F8E582158270022A
:06046D001583E038F022C7
:0D047300EF4BFFEE4AFEED49FDEC48FC2288
:0E048000C3E49FFFE49EFEE49DFDE49CFC228D
:10048E00EB9FF5F0EA9E42F0E99D42F0E89C45F0C4
:01049E00223B
:10049F00E8600FECC313FCED13FDEE13FEEF13FF3B
:0304AF00D8F1225F
:1004B200BB010DE58229F582E5833AF5830204E268
:1004C2005007E92582F8020549BBFE07E92582F8B3
:1004D200020555E58229F582E5833AF58302056135
:0C04E200E0FCA3E0FDA3E0FEA3E0FF228D
:0C04EE00E0F8A3E0F9A3E0FAA3E0FB2291
:0C04FA00ECF0A3EDF0A3EEF0A3EFF02275
:10050600A8828583F0D083D08212051D12051D12A4
:10051600051D12051DE473E493A3C583C5F0C583C9
:10052600C8C582C8F0A3C583C5F0C583C8C582C83F
:0105360022A2
:09053700E0FBA3E0FAA3E0F922C5
:09054000EBF0A3EAF0A3E9F022BC
:100C3400020571E493A3F8E493A34003F68001F260
:100C440008DFF48029E493A3F85407240CC8C333C1
:100C5400C4540F4420C8834004F456800146F6DF90
:100C6400E4800B01020408102040809010B6E47E5A
:100C7400019360BCA3FF543F30E509541FFEE49385
:100C8400A360010ECF54C025E060A840B8E493A34C
:100C9400FAE493A3F8E493A3C8C582C8CAC583CA77
:100CA400F0A3C8C582C8CAC583CADFE9DEE780BE2F
:0110EF000000
:0C054900E6FC08E6FD08E6FE08E6FF22DE
:0C055500E2FC08E2FD08E2FE08E2FF22E2
:10056100E493FC740193FD740293FE740393FF22E0
:00000001FF
