:103800000C942B1C0C94001C0C94001C0C94001C9D
:103810000C94001C0C94001C0C94001C0C94001CB8
:103820000C94001C0C94001C0C94001C0C94EF1DB8
:103830000C94001C0C94151E0C94001C0C94001C81
:103840000C94001C0C94001C0C94001C0C94001C88
:103850000C94001C0000F894EE27ECBBF1E0FBBFD9
:10386000F2E0FBBFE5BFF8E1F1BDE1BD8DE0A2E014
:10387000BB27ED938A95E9F780E094E0A0E6ED930D
:103880000197E9F7E4E5F8E385919591009761F0F8
:10389000A591B59105901590BF01F00105900D928D
:1038A0000197E1F7FB01F0CFEFE5EDBFE4E0EEBFFC
:1038B000C0E6D1E00C942F1DF894E981FA81A8812B
:1038C000A0935700E895789423960895F894EA8198
:1038D000FB8108801980A1E0A0935700E8957894B7
:1038E00024960895F894E881F98105901490E02DCC
:1038F000F12D7894229608950E94EC1F00E0003884
:1039000000F5E02FAD81BE813CD3FA93EA930E948B
:10391000721C1E2F2F2FA4E6B1E037D3FE2FE0E05C
:103920003E2F4F2FA4E6B1E037D3A32FB42F29D3D6
:103930003E2F4F2F3117420711F0E0E003C00E5F1A
:10394000DECFE1E00E94F21F27960895E7B7E6FF79
:1039500008C0E7B7E0FDFDCFE1E1E7BFE8950C94D3
:10396000A61C08950E94ED1FEC81FD811BD300E091
:1039700010E00038E0E01E07E0F4A4E6B1E0F80152
:103980003196AE0FBF1F2C9133271A930A93E4E6AA
:10399000F1E0E00FF11FE081F0E0DF01F22FE0E065
:1039A000EA0FFB1FFA93EA930E94661C0E5F1F4FFB
:1039B000E0CFEC81FD81FA93EA93E5E0EA930E947F
:1039C0005C1CC4DF0E94F31F269608950E94EE1F20
:1039D00000E010E0AB81BC811197AB83BC831097F2
:1039E000DCF0AD81BE81ED91AD83BE83FE2FE0E0C2
:1039F0000E271F2728E017FF09C0F801EE0FFF1F51
:103A0000A1E2B0E1EA27FB278F0102C0000F111FDE
:103A10002150203081F7DECFF8010E94F41F279655
:103A20000895E1E0E5BFE0E0E5BF0C9400000895F3
:103A3000EFEBEBBBEFE3EABBE2E1E8BBE3EBE7BBB9
:103A4000E0E0E5BBE4BBE2EFE2BBE1BBE0E0E5BF09
:103A5000E4BFE9BFE3E0E8B9E0E0E0BF0895E8DFF4
:103A6000E0E8F0E0FFBBEEBBE09A5DB2E0E2E51516
:103A7000D0F45524839B17C0829B02C0839901C058
:103A800001C0FACF5394EFE15E22E52DE095AE2F11
:103A9000EA2FE295E07FE2BB829902C0839901C0E0
:103AA00001C0FACFE7CFE0E4F0E0FFBBEEBBE09A65
:103AB000EDB3E03A19F4EAE04E2E01C04424DBD025
:103AC000E0E0E0936001E2E4E0936101E0E0F0E037
:103AD000E0936201F0936301E894F0F8789469D27E
:103AE0000E94721CEA3AA5E5FA0711F4CF9902C0C8
:103AF000EAE04E2EEAE0E41511F00C94EA1DDA013A
:103B00004F5F5F4FA93AE1E6BE0740F0E894979B0C
:103B10006894A2B3A7F9A2BB40E050E0A091600175
:103B2000A23069F52091E4013327322F2227E0915A
:103B3000E501D90126D29F01E4E6F1E0FA93EA9388
:103B4000E0E8F0E0FA93EA9341DF2E173F0721F017
:103B5000E0E2E0936001CECFF0FC05C0E0E8F7E3DF
:103B600021D26894F0F82AD2FDDE28D2C5DEE030FA
:103B700011F0E0E001C0E0E1E0936001BBCFA09173
:103B80006001A33011F500E010E00038E0E01E070E
:103B900050F4E4E6F1E0E00FF11FDF01EFEFEC930A
:103BA0000F5F1F4FF2CFEAEAE0936401E5E5E0938F
:103BB0006501FFD1D7DEFDD19FDEE03011F0E0E0FE
:103BC00001C0E0E1E093600195CFA0916001A430D5
:103BD00009F44424442009F424DF8CCFFFCF0A9257
:103BE0001A92FA926A937A938A939A93AA93BA93BF
:103BF000EA93FA93EFB7EA931A930A930BB11CB1C5
:103C0000E02FEC7111F41A93C1D009911991E99147
:103C1000EFBFF991E991B991A99199918991799120
:103C20006991F990199009901895AA93EA93FA93DB
:103C3000EFB7EA93E0910802E030B1F0C09AE150AA
:103C4000E0930802E0910702F0E0EA51FE4FE081C4
:103C5000ECB9A0910702AF5FA0930702A03219F45C
:103C6000E0E0E093070201C0C098E991EFBFF9914D
:103C7000E991A9911895C098E0E0E0930602E093DD
:103C80000702E0930802F894E0E0EBB9E8EDEAB946
:103C9000E6EAE0BDE0E0E0BDE3E0E9B90895A09127
:103CA0000802A032E0F7C09AF894E0910802E030F0
:103CB00011F45D9917C0E0910602F0E0EA51FE4F61
:103CC000A881A083A0910602AF5FA0930602A03254
:103CD00019F4E0E0E0930602E0910802EF5FE09360
:103CE000080202C0E881ECB97894C6C0A881A1504E
:103CF000A883AF5FA13040F0A981BA81ED91A9837B
:103D0000BA83EA93CCDFF2CF239608950A9300E0BA
:103D1000A981A150A983AF5FA13038F0AA81BB81EE
:103D2000ED91AA83BB830E0FF3CFE02FE095EF5FF9
:103D30000E2FE02F088124960895E894969B6894AE
:103D4000A2B3A6F9A2BBE3E9F2E0FA93EA93E09109
:103D50009802EA5FEA93DADFE093A902E3E9F2E08E
:103D6000FA93EA93E6E0EA93C1DFA0919802A130CA
:103D700040F0E9E9F2E0FA93EA93E0919802EA93DD
:103D8000B5DFE091A902EA938ADF0895E091AA02E3
:103D9000E03051F4A881AE3F31F4E1E0E093AA02B3
:103DA000E881E093090268C0E13089F4A881A8366F
:103DB00039F4E2E0E093AA02E881E0930A0206C047
:103DC000A881AE3F19F0E0E0E093AA0255C0E230CE
:103DD00029F4E881E0930B02E3E04CC0E33029F4DE
:103DE000E881E0930C02E4E045C0E43029F4E88186
:103DF000E0930D02E5E03EC0E53099F4A881A438D7
:103E000060F4E881E0930E026624E03011F4E7E00C
:103E100001C0E6E0E093AA0203C0E0E0E093AA025A
:103E20002BC0E63079F4AFE0B2E0E62D6394A9D080
:103E3000A881A083E0910E02E61519F4E7E0E09373
:103E4000AA021AC0E730A9F4E881E0939202E9E0FF
:103E5000F2E0FA93EA93E0910E02EA5FEA9356DF0A
:103E6000AE2FE881EA1709F409D0E0E0E093AA0256
:103E700003C0E0E0E093AA0221960895A0910C020D
:103E80005A1621F0A0910C02A03859F4E894959BA1
:103E90006894A2B3A5F9A2BBE0E6F1E0FA93EA9335
:103EA00001D008950A93A0910D02A73571F400E0A6
:103EB000E0910E020E1748F488D0A981BA8161D032
:103EC00087D0D001EC930E5FF3CFA0910D02A33504
:103ED000D1F4E894949B6894A2B3A4F9A2BB00E047
:103EE000E0910E02E1500E1770F4E0910F02A981EB
:103EF000BA81F0E0AE0FBF1FE02F43D069D0D001F0
:103F0000EC930F5FEDCFA0910D02A235B9F5EEEF66
:103F1000E0939302E8E6E0939402E0910C02E093D0
:103F20009502E0910B02E0939602E7E5E093970299
:103F3000E0910E02EE0FE093980200E0E0910E0295
:103F40000E17D8F4A9E9B2E0E02FE00F1AD00F0164
:103F50003CD0D001EC93A9E9B2E0E02FE00FEF5F95
:103F600010D00F0132D0A981BA81F0E0AE0FBF1F8F
:103F7000EC91D001EC930F5FE1CFDFDE0881239657
:103F80000895F0E0EA0FFB1F0895E02FEF5FF0E0E7
:103F9000AE0FBF1FEC910895E02FF0E0AE0FBF1FF2
:103FA000EC910895FA93EA93E3E0EA930E945C1C93
:103FB000CDCCE0E8F7E3FA93EA930895E09162014B
:103FC000F0916301FA93EA930895AFE0B2E0E4CF91
:103FD0000F01AFE0B2E0D9CF4A933A932A931A93F4
:103FE0000A9308954C813B812A81198108810895A3
:00000001FF
